:020000040800F2
:10000000481400206D020008E3220008BB1C000811
:10001000E1220008C90C0008612700080000000068
:10002000000000000000000000000000952400080F
:10003000CB0C00080000000059240008D32400085D
:10004000870200088702000887020008870200086C
:10005000870200088702000887020008870200085C
:10006000870200088702000887020008870200084C
:10007000870200088702000887020008870200083C
:10008000870200088702000887020008870200082C
:10009000870200088702000887020008870200081C
:1000A000870200088702000887020008870200080C
:1000B00087020008870200088702000887020008FC
:1000C00087020008870200088702000887020008EC
:1000D00087020008552700088702000887020008E9
:1000E00087020008870200088702000887020008CC
:1000F00087020008870200088702000887020008BC
:1001000087020008870200088702000887020008AB
:10011000870200088702000887020008870200089B
:10012000870200088702000887020008870200088B
:1001300000F002F800F08BF80AA090E8000C82446E
:100140008344AAF10107DA4501D100F080F8AFF24B
:10015000090EBAE80F0013F0010F18BFFB1A43F0A5
:10016000010318474831000068310000103A24BFED
:1001700078C878C1FAD8520724BF30C830C144BF0C
:1001800004680C607047000000230024002500264E
:10019000103A28BF78C1FBD8520728BF30C148BFEA
:1001A0000B6070476E2900F0A381702900F0E78290
:1001B0006629AFF300806529AFF300806729AFF3AC
:1001C00000806129AFF3008003681B0A28BF41F05B
:1001D0008001692900F05081642900F04D81752962
:1001E00000F04A816F2900F07582782900F0B3820F
:1001F000E92900F00F82E42900F00C82F52900F0D3
:100200000982EF2900F07282F82900F0B2820368B7
:10021000DB0928BF41F08001632900F0498473297C
:1002200000F04E84E32900F05984F32900F05E8445
:10023000002070471FB500F0DBFC04000020002107
:1002400002F0D8FF401C60601FBD10B510BD00F06B
:1002500093FC1146FFF7EEFF02F01AFE00F0BAFC25
:1002600003B4FFF7F2FF03BC00F006FD0948804726
:1002700009480047FEE7FEE7FEE7FEE7FEE7FEE788
:10028000FEE7FEE7FEE7FEE704480549054A064BA0
:10029000704700003525000831010008480E002095
:1002A0004814002048100020481000207CB51D464E
:1002B00016460C00009007D04142A14202D32044D0
:1002C000401E01E04FF0FF30064B7B442A46694652
:1002D0000190304600F025F9002C02D0009A002150
:1002E00011707CBD7B02000010B5044603E002F0F3
:1002F000C5FD401C09D014F8010B05490028F6D1B2
:10030000BDE810400A2002F0B9BD4FF0FF3010BD2B
:1003100044020020014A00F001BB00000000002060
:1003200010B5431C02E010F8011B71B18107FAD12E
:100330004FF0013202C88C1A8C4314EAC211F9D072
:10034000C01A0A0603D0C01E10BDC01A10BD0A0490
:1003500001D0801E10BD0902FCD0401E10BD4FF020
:10036000000200B5134694469646203922BFA0E805
:100370000C50A0E80C50B1F12001BFF4F7AF090711
:1003800028BFA0E80C5048BF0CC05DF804EB890002
:1003900028BF40F8042B08BF704748BF20F8022B45
:1003A00011F0804F18BF00F8012B7047704770475D
:1003B000704770B5044685690068C10601D53026CE
:1003C00000E02026C00707D070BDD4E901213046E7
:1003D0009047206A401C20626D1EF6D570BD70B536
:1003E000044685690078C00707D170BDD4E90121B2
:1003F00020209047206A401C20626D1EF6D570BDFB
:1004000009684A0501D540B27047C905FCD500B25C
:10041000704709684A0501D5C0B27047C905FCD5C7
:1004200080B2704770B50C460546012A05D0287881
:10043000800600D5EA69002302E0012305E05B1C89
:10044000934202D2E05C0028F9D1A869E618C01AEC
:10045000A861286A184428622846FFF7AAFF04E02A
:10046000D5E9012114F8010B9047B442F8D328468E
:10047000FFF7B5FF70BD00002DE9F04106460024EE
:1004800010687529314616A510D0FFF7B9FF00286E
:1004900002DA404213A507E031688A0701D512A5A8
:1004A00002E0490704D511A5012401E0FFF7B1FFDF
:1004B00000210A2206F1240709E0B0FBF2FCB0FBA0
:1004C000F2F302FB1C00303078541846491C002817
:1004D000F3D123462A463046BDE8F04100F085BA04
:1004E000000000002D0000002B0000002000000094
:1004F00011680268006A530501D508700AE0D30547
:1005000001D5088006E0130603D5C217C1E9000231
:1005100000E008600120704701694A1C0261087808
:10052000704700B58FB0CDE9013100210591054933
:100530007944CDE903101146684600F02BF90FB05D
:1005400000BD0000E5FFFFFFD1E900239A4202D27F
:10055000531C0B60107070472DE9FF5F15468A46EB
:100560000446DFF8AC80F8440027D8E900103E4686
:10057000CDE9001010E03AF816106A4602A800F023
:10058000B9FA411C07D02178890603D5E2693918E8
:1005900091420DD80744761C2078800602D5E06988
:1005A000B84205DDAE42E6DB3AF816000028E2D19B
:1005B000A069C01BA0612046FFF7FBFED8E9001030
:1005C000CDE90010002017E03AF818106A4602A89A
:1005D00000F090FAB0F1FF3F81460BD000250DF1FD
:1005E000080B05E0D4E901211BF8050090476D1CBC
:1005F0004D45F7D308F10100B0428046E4DB206AA4
:10060000384420622046FFF7EAFEBDE8FF9F000065
:10061000B62C00002DE9F0418046D21D22F00702E1
:100620000025D2E90002F52915A614D0011E72F1A9
:10063000000106DA0023D0EB030063EB020211A6EF
:1006400008E0D8F800108B0701D50FA602E0490793
:1006500001D50EA601251146002408F1240704E067
:1006600000F07EF930323A55641C50EA0102F7D1AD
:100670002B46324621464046BDE8F04100F0B5B970
:10068000000000002D0000002B00000020000000F2
:1006900030B4002100F1240408E002F00705D2087C
:1006A000303542EA4372DB086554491C52EA0305BF
:1006B000F3D10468002310A2250708D504F0200414
:1006C0000C4304D0C46901230CA2641EC46130BC75
:1006D00000F08BB910B5044621461068FFF799FE6B
:1006E00002462046BDE810400023D1E7D21D22F08B
:1006F0000701D1E90023CBE7000000003000000033
:10070000F0B40D460188090502D5214C7C4402E075
:100710001F4C7C440E34002100F1240608E002F056
:100720000F071209E75D42EA03721B097754491C5F
:1007300052EA0307F3D102780023120704D5702D83
:1007400006D009B1022311342246F0BC00F04DB9A5
:1007500001231034F8E770B504460D4621461068B1
:10076000FFF757FE024629462046BDE870400023A9
:10077000C6E7D21D22F00703D3E90023C0E70368D0
:10078000126843F0200303600823C3610023B7E726
:10079000182B00002DE9F05F894604464FF0000A4F
:1007A000DFF874B1FB44C0F820A02046E168884718
:1007B000002874D0252806D0D4E901219047206A6A
:1007C000401C2062F1E700265F462046E16888472A
:1007D0002028054607DB312D05D2781910F8200CAA
:1007E00008B10643F1E7B00701D526F00406C4F8C6
:1007F0001CA00027C4F818A02A2D09D0284602F012
:10080000F1FC38B304EB8708303DC8F8185019E004
:1008100059F8041B204604EB87029161E168884780
:10082000012F054618D1E069002820DA26F02006BD
:100830001DE0D8F8180000EB800005EB40003038D0
:10084000C8F818002046E1688847054602F0CAFC4F
:100850000028EED1012F0AD02E2D08D12046E168C4
:1008600088477F1C0546022F46F02006C4DBA0699E
:10087000002803DA404246F00106A061F00701D0EB
:1008800026F010066C2D0BD0682D09D04C2D39D0D8
:100890006A2D35D0742D35D07A2D33D016E038E05E
:1008A000E1682F4620468847B842054609D16C2F9B
:1008B00026D04FF48060E16806432046884705460D
:1008C00004E06C2F1AD04FF4807006430DB3A5F1ED
:1008D0004100192802D8203546F400664A462946C8
:1008E000204626604E46FFF75DFC80B101280BD004
:1008F000F61D26F0070000F1080956E74020E4E75E
:100900008020D8E70020D6E706F104094DE7284605
:1009100052E7206ABDE8F09FA82A00002DE9F041C7
:1009200015460E46040002D12C6804B90BA42046DB
:1009300000F014F90444207870B127463146384657
:1009400000F0FCF80444207810B1002004F8010BFA
:1009500038462C60BDE8F0810027F9E70000000070
:1009600030B5B0F10A0271F100034FEA900E4EEA81
:10097000817EB0EB0E0061EB91014FEA101E4EEA52
:10098000017E10EB0E0041EB11114FEA102E4EEAE2
:10099000016E10EB0E0041EB11214FEA104E4EEAB2
:1009A000014E10EB0E0041EB1141401841F10001E6
:1009B0004FEAD00040EA41704FEAD1014FEA81048A
:1009C00044EA907410EB800544EB01046D1944EB8C
:1009D0000404521BA3414FF0000348BF0A3200D564
:1009E00030BD401C41F1000130BD2DE9F0470D46FE
:1009F00099469246044600F124080168880604D509
:100A0000E06921F01001216000E00120A84201DD31
:100A1000471B00E00027A1697A1902EB0900081AB8
:100A2000A0612078C00602D42046FFF7C2FC002651
:100A300008E0D4E901211AF806009047206A401C1A
:100A4000761C20624E45F4DB2078C0060AD520468D
:100A5000FFF7AFFC06E0D4E9012130209047206A7F
:100A6000401C2062381EA7F10107F4DC07E0D4E93E
:100A7000012118F805009047206A401C2062281EBA
:100A8000A5F10105F3DC2046FFF7A9FC207800065C
:100A900002D50220BDE8F0870120FBE710B54369CD
:100AA00013B1AFF3008001E0FFF7BCFC012010BDE3
:100AB000127800F124010A7000224A700122EDE749
:100AC00011684FF0FF32E9E710B5436913B1AFF396
:100AD000008001E0FFF740FD012010BD128800F109
:100AE000240182840022C2840122EDE711684FF0C4
:100AF000FF32E9E72DE9F04116460C46054600F0C5
:100B000061F8036893F80101012807D0FF2C12D87F
:100B1000185D80B101202C70BDE8F081D3F8070189
:100B20003246214603F20713C7182846BC46BDE8E3
:100B3000F041002360474FF0FF30EDE730B503464A
:100B40001D781DB10A4603E0AC4201D1181A30BD30
:100B500012F8014B002CF7D15B1CF1E730B50346CE
:100B60001D783DB10A4612F8014B1CB1AC42FAD1D6
:100B70005B1CF5E7181A30BD754600F035F8AE4637
:100B800005006946534620F00700854618B020B599
:100B9000FFF77AFBBDE820404FF000064FF000075A
:100BA0004FF000084FF0000BAC46ACE8C009ACE8D1
:100BB000C009ACE8C009ACE8C00921F007018D46C6
:100BC0007047000010B500F013F8001D10BD00BF05
:100BD0002526000010B50446AFF300802046BDE88E
:100BE0001040FFF73DBB0000004870476000002048
:100BF00000487047800000204FF0013C50F8042B63
:100C000051F8043B9A4221D1A2EB0C03934313EA1F
:100C1000CC1317D150F8042B51F8043B9A4215D14C
:100C2000A2EB0C03934313EACC130BD150F8042B23
:100C300051F8043B9A4209D1A2EB0C03934313EA07
:100C4000CC13DBD04FF00000704700BFD01A01BAC0
:100C5000B1FA81F101F0180122FA01F0CB40DBB2C8
:100C6000C0B2C01AC1F120012CFA01F3D11A91438C
:100C700011EAC311E6D1704701491820ABBEFEE767
:100C8000260002007047F0B585B00C9FDDE90A5CD4
:100C90001FB1022F04D9012014E00A2403260BE01F
:100CA0000DAC261D0496012F0D9E0FBF0A2404F1E2
:100CB000080704976468E4B2CDE9005CCDE90264FA
:100CC00001F0BAFD05B0F0BDFEE77047EFF310800C
:100CD00072B6FEE70548D0E90110081AC821C830ED
:100CE00090FBF1F202FB1100704700BFC000002032
:100CF00010B590F82110022912D10168D0E90F2314
:100D00000C6824F00E040C600C6824F001040C60E4
:100D1000012101FA03F3536080F82110002102E061
:100D2000042181630121002280F82020084610BDA3
:100D300010B590F82110022919D10268116821F02C
:100D40000E011160116821F0010111602B4901F1C0
:100D50007C039A420FD9314B9A4224D0304B9A42AD
:100D600023D0304B9A4222D14FF4807327E00421E4
:100D70008163012140E0224B9A4226D0214B9A42C6
:100D800025D0214B9A4224D0204B9A4224D0204B8C
:100D90009A4217D01F4B9A4221D01F4B9A4211D131
:100DA0004FF080721DE0012309E0102307E001F5F8
:100DB00088644FF48033A24208BF4FF48053C1F8D7
:100DC00000340FE04FF480320BE0012209E01022E2
:100DD00007E04FF4807204E04FF4805201E04FF4DA
:100DE00080120A600021012280F8201080F8212062
:100DF000426B0AB190470021084610BD0400024032
:100E0000080002401C000240300002404400024042
:100E1000580002406C00024080000240080402407A
:100E20001C04024030040240B0B5044600F0E8F86B
:100E30000546F148611C007818BF044400F0E0F852
:100E4000401BA042FAD3B0BD2DE9FC4F81465E485D
:100E500006235F4E4FF0000B4FF001084FF00F0ECE
:100E60004FF0000A8145594808BF052348444FEA1E
:100E7000B022052A38BF4FEAB0230093554B002219
:100E80000C6834FA02F508BFBDE8FC8F08FA02F5D9
:100E90002C4200F095804F68032F16D9112F26D0D1
:100EA000122F28D04C48874213D04C48874210D08C
:100EB0004B4887420DD04B4887420AD04A48874268
:100EC00007D04A48874204D022E0DFE807F0021842
:100ED0001B1F8C6844B1012C14BFC9F81450C9F809
:100EE00010504FF0080A13E04FF0040A10E0CC68ED
:100EF00004F1040A0CE0CC6804F10C0A08E0D1F813
:100F00000CA005E0CC6804F1080A01E04FF0000AEB
:100F10005C4648469C46082A334628BF203C28BFEA
:100F2000043006680EFA04F70AFA04F4BE433443A8
:100F30000460C879C00602D41E46634640E0BD4C3A
:100F400022F003061E44206840F001002060206863
:100F500000F0010001900BF00C00019F0EFA00F46C
:100F6000234FBE46F75927EA0404009F07FA00F012
:100F7000204346F80E001E464FF00F0E4F68F80251
:100F8000986854BF20EA050440EA05046346B4604B
:100F9000B802186854BF20EA050440EA05041C6042
:100FA000B803706854BF20EA050440EA0504746081
:100FB000F803306854BF20EA050440EA05043460B1
:100FC0000BF1040B01325BE7001C014000F8FEBF8F
:100FD000000401400C040140000011100000121038
:100FE000000021100000221000003110000032101B
:100FF00008FCFFFF002A08BF0904016170470000D8
:1010000066480068704700BFF8B528B3044690F8FA
:101010003D0020B901F01CFA204600F08DF801F0E7
:1010200001FA016841F400410160016821F40041C6
:10103000016000F0E9F93B4900253B4A88424FF046
:10104000000138BF0121904238BF01256368374A4B
:10105000934238BF0D460DB10120F8BD34494FF41D
:101060007A77B0FBF1F521684E6826F03F062E43F3
:101070004E604FF496766E43934228BFB6FBF7F569
:101080006A1C0D6A25F03F052A434CF6FF750A627B
:10109000CA69AA43274DAB420AD85B000138B0FBAE
:1010A000F3F001306FF31F30042898BF042013E0E1
:1010B000A56801383DB119256B4301F0C2F90AD08A
:1010C00000F5804004E003EB430301F0BAF902D0DD
:1010D00000F5004000E00120104304F10C06C86157
:1010E000E0690A6822F0C0021043226A104348F205
:1010F000FF320860886890436CCE184310438860C4
:10110000C86820F0FF0028433043C86001F077F939
:1011100000202021206484F83D10206384F83E00E4
:10112000F8BD00BF80841E0000093D00A1860100BB
:1011300040420F00A086010010B586B00021049146
:101140000168114881421DD13A4C00F538402168B0
:1011500041F008012160216801F00801019103219B
:10116000059112210391C0210291019902A9FFF773
:101170006BFE606840F400106060606800F400106E
:101180000190019806B010BD005400401A48034970
:1011900000780A6810440860704700BF400E0020C5
:1011A00080B59648016841F010010160032000F00D
:1011B0007BF80F2000F004F800F020F8002080BD3C
:1011C00070B50D4E04464FF47A713078B1FBF0F0F3
:1011D00097490968B1FBF0F000F05EFB01250F2C88
:1011E00008D838B94FF0FF3021460022002500F022
:1011F00035F87460284670BD0400002082B00D48A8
:101200000222016841F001010160016801F0010161
:1012100001910199416841F080514160406800F0BE
:101220008050009000980448016862F31A610160E0
:1012300002B070471810024004000140002809D491
:10124000734601F087F89E46034A42EAD00020F038
:1012500003000160704700BF00E100E0F0B5184BEB
:101260004FF0FF361C68C4F30224E51E84F0070427
:1012700038BF002506FA05F7BA43042C28BF04241A
:1012800006FA04F4A14300F00F04A940043C114302
:10129000044A234409010244002848BF03F10C0218
:1012A0001170F0BD00E400E005494FF6FF030A6845
:1012B0001A4060F30A22034810430860704700BFD9
:1012C0000CED00E00000FA0501F0D2FA2DE9F84338
:1012D00000286CD0884649490446086800F0070099
:1012E00040450AD2086820F0070040EA080008607C
:1012F000086800F00700404559D120685B4B8946DB
:10130000810711D5410703D5196841F4E0611960DF
:10131000010703D5196841F460511960A1681A6882
:1013200022F0F00211431960C00737D1D9F800004C
:1013300000F0070040450DD9D9F8000020F0070063
:1013400040EA0800C9F80000D9F8000000F00700E2
:1013500040452CD12068410705D5E1681A6822F480
:10136000E06211431960000706D52069196821F46D
:10137000605141EAC00018601C4600F05DF8216829
:101380001F4AC1F30311515CC840294908601D4838
:101390000068FFF715FF0020BDE8F88360680228A9
:1013A00008D0012825D153F8041C890306D4012054
:1013B000BDE8F88353F8041C8901F8D519681D4667
:1013C00021F0030108431860FFF71AFE064641F2B8
:1013D0008837606829682B4601F00C01B1EB800F5B
:1013E000A4D0FFF70DFE801BB842F2D90320BDE860
:1013F000F88353F8041C8907D9D5DFE700200240A1
:101400006132000808000020DD481849094A0068D8
:101410000968C1F30221515CC8407047D84813499C
:10142000044A00680968C1F3C221515CC840704792
:101430000C0000207132000810B50C490C480A68F5
:1014400002F00C03082B07D1C2F3834309A4D20393
:10145000E35C02D40C48584310BD096809A2584304
:10146000C1F34041515CB0FBF1F010BD04100240EB
:1014700000127A0002030405060708090A0B0C0D86
:101480000E0F10100102000000093D002DE9FC4183
:10149000002800F09C8004460078B74EC0071FD09B
:1014A000706800F00C00042814D000F08AFF02D10C
:1014B0007068C0030ED46068002800F01481B0F595
:1014C000A02F00F02181B0F5803F00F0218100F0D5
:1014D00013FF20E13068800302D56068002876D0D1
:1014E0002078800716D5706810F00C0F05D000F03A
:1014F00068FF24D17068C00321D43068800702D50A
:101500002069012863D16069316821F0F80141EA5E
:10151000C00030602078000741D5A06910B397481B
:101520000121C0F88014FFF76BFD0546706A800743
:1015300028D4FFF765FD401B0228F7D9F8E02169A0
:101540008E48002900F08E8001210160FFF758FDD0
:10155000054630688007D6D4FFF752FD401B0228AD
:10156000F7D9E5E085480021C0F88014FFF748FD71
:101570000546706A800712D5FFF742FD401B02281E
:10158000F7D9D5E07E484FF4FA510068B0FBF1F08E
:10159000019000BF0198411E00280191F9D12078E7
:1015A000400717D4E7697FB100F00BFF3CD1012F52
:1015B0000DD0216A706800F480328A4207D1616AD6
:1015C00000F47010884202D10020BDE8FC810120A7
:1015D000BDE8FC81F06910F0805808D1F06940F056
:1015E0008050F061F06900F0805000900098654FE5
:1015F0003868C0050FD4386840F480703860FFF751
:10160000FFFC05463868C00505D4FFF7F9FC401B10
:101610006428F7D98CE0E068A0B3052844D00128FD
:1016200046D000F08FFE46E0544900208846086608
:10163000FFF7E6FC0546022F0AD1474630688001D5
:1016400079D5FFF7DDFC411B03200229F6D9BCE761
:1016500030688001B8D5FFF7D3FC411B0320022975
:10166000F6D9B2E700210160FFF7CAFC05463068F1
:1016700080077FF54FAFFFF7C3FC411B0320022912
:10168000F5D9A2E700F05EFE3062FFF7B9FC05462F
:1016900041F28837306A80071CD5FFF7B1FC411B47
:1016A0000320B942F6D990E7306A40F00400306276
:1016B000306A40F001003062FFF7A2FC054641F2BB
:1016C0008837306A800705D4FFF79AFC401BB84280
:1016D000F7D92DE0B8F1000F7FF464AFF06920F086
:1016E0008050F0615EE700F007FE3060FFF788FC95
:1016F0000546306880037FF5F3AEFFF781FC411BA0
:1017000003206429F5D960E7306840F48020306018
:10171000306840F480303060FFF772FC0546306876
:1017200080033FF5DDAEFFF76BFC401B6428F6D964
:101730000320BDE8FC81206AB0F5803F05D1A16897
:10174000726822F4003211437160616A726822F497
:10175000741211430843706001203866FFF750FC93
:101760000446306880013FF52FAFFFF749FC011BAD
:1017700003200229F5D928E7001002400000424268
:101780000C0000200070004070B538B10446406A7B
:1017900030B10020206104F1140007E0012547E08A
:1017A0006068B0F5827F03D004F11C000021016065
:1017B0000025A56294F8510020B9204684F85050C5
:1017C00000F038F8022084F8510094E80F0001F48A
:1017D000827102F404420668114403F40062114469
:1017E00026F040060660226902F002021144626996
:1017F00002F001021144A26902F400731944E36982
:1018000003F038031944236A03F080031943A36AE1
:1018100003F4005319430160042101EA12414160BD
:10182000C16921F40061C1610120656584F851003E
:10183000284670BD70B586B0DA4C00680026049664
:1018400004F52051884225D1D748016841F48051E0
:101850000160016801F4805101910199016841F032
:1018600004010160006800F004000190032005906D
:1018700002200390A0200290019802AD2046294644
:10188000FFF7E2FA40202946CDE9036602902046A0
:10189000FFF7DAFA06B070BD411E0020B0EB116F01
:1018A0001CBF01207047044AF023516003490B70AC
:1018B000072190601160704710E000E023ED00E028
:1018C000704770477CB5044600680268C168456986
:1018D00013073FD001F4907605F0010576193DD04D
:1018E000D60705D0CE0503D5666C46F001066664C2
:1018F000560704D51DB1666C46F00206666496076D
:1019000004D51DB1666C46F004066664002B07D54D
:1019100001F020035B1903D0636C43F00803636498
:10192000636C002B00F0E080920605D5890603D594
:10193000204600F027FE20684069616C00F04000FE
:1019400001F00801401847D12046FFF7BAFF0020F8
:101950006064C9E0930601D58B0654D4236B012B38
:1019600003D1D30601D5CB0652D4130601D50B06FD
:1019700011D4520640F1B880490640F1B580C168E3
:1019800021F04001C160202084F841002046BDE8DC
:101990007C4000F091B994F84110212940F0A480D6
:1019A000A168B1F5805F03D12169002900F09D8015
:1019B000216A4A1C226209784160E18C0139E18484
:1019C000090440F09180C16821F08001C160C168C4
:1019D00041F04001C1607CBD204600F0B2FD00F046
:1019E000E7FC4DD500F0BDFCFCD1E06B002847D0F2
:1019F00042494163FFF79CF9002875D0E06B416BC9
:101A0000BDE87C4008472046BDE87C4000F0BABDF8
:101A1000002101910168019141680191019940699A
:101A2000400632D4E08DA18DE28D002A5CD0814247
:101A30005AD0081A216851E8031F226821F49071D6
:101A400042E80313002BF5D1216851E8051F2268F5
:101A500021F0010142E80513002BF5D1202184F883
:101A6000421000212163216851E8031F226821F000
:101A7000100142E80313002BF5D1022161632DE030
:101A80002046BDE87C40FFF71CBFE06B0168496859
:101A90008AB24AB3A38D9A4226D2E1858069202872
:101AA00017D000F089FC20F4807000F0A4FCF8D17D
:101AB00000F02AFCFCD100F054FCFCD1202084F87A
:101AC00042000020206300F081FCFCD1E06BFFF7B6
:101AD0000FF902206063A08DE18D401A81B220468B
:101AE000BDE87C40FFF7ECBE7CBD216A31F8022BDB
:101AF0006FF35F22216242605FE700BF3725000875
:101B000090B110B5044690F8410008B900F093FC7C
:101B100000F066FC2068016921F49041016141698F
:101B200021F02A0100F070BC0120704770B586B02A
:101B30001C4C00680026049604F5405188422FD1C1
:101B40001948016841F480410160016801F4804155
:101B500001910199016841F004010160006800F001
:101B60000400019003200590022003904FF40070C0
:101B70000290019802AD20462946FFF765F94FF41F
:101B800080602946CDE9036602902046FFF75CF9A4
:101B9000252000210022FFF761FB2520FFF74EFBE7
:101BA00006B070BD000801401810024010B590F852
:101BB0004230202B06D139B132B10024046300F049
:101BC00083FD02E0022400E00124204610BD000055
:101BD00010B5044600680D49884218BF10BD0C4876
:101BE000D0E90112891AC822C83191FBF2F303FB34
:101BF0001211C62902DC007800F0B4FD0449204629
:101C00000122BDE81040FFF7D1BF00BF00380140FE
:101C1000C00000202DE9F843044690F84100202838
:101C20001CBF0220BDE8F8838846B1B11746A2B1B7
:101C300000201D466064212084F84100FFF7E0F990
:101C4000E7840646A784A068B0F5805F01D12069CB
:101C500030B14FF00009474604E00120BDE8F883A9
:101C60000027C146E08CB8B12046802132462B4681
:101C700000F043FDB8B927B117F8010B216848609F
:101C800006E039F8021B206800276FF35F214160EE
:101C9000E08C0138E084E5E72046402132462B46BF
:101CA00000F02BFD10B10320BDE8F883202084F85C
:101CB00041000020BDE8F8837047FEE72DE9F843B6
:101CC000DFF8B09307462A20984615460E46C847C7
:101CD000074C3846A0472846A0472B20C847304627
:101CE000A0474046A0472C204946BDE8F843084796
:101CF0007D200008F8B50746501E14461D460E46C6
:101D000082B2581E83B23846FFF7D8FFA81B069B45
:101D1000114DC7F1010100220130B2F5F07F03D06F
:101D200025F812300132F8E721440B4D00FB01F495
:101D3000B4F5F07F07D328464FF4F07100F0C6F9F0
:101D4000A4F5F074F4E72CB103482146BDE8F8404F
:101D500000F0BCB9F8BD00BFDC03002070B5C34C77
:101D6000C34E082564206560B04764202560B047F5
:101D70000220C4F800046420B047BE4CEF20A04706
:101D8000EB20A047BC4D1420A847FE20A047EF2021
:101D9000A047EB20A0471420A8478420A04740205C
:101DA000A8478520A047FF20A8478620A047FF20FE
:101DB000A8478720A047FF20A8478820A0470A20DF
:101DC000A8478920A0472120A8478A20A0470020B3
:101DD000A8478B20A0478020A8478C20A04701203F
:101DE000A8478D20A0470120A8478E20A047FF20AC
:101DF000A8478F20A047FF20A847B620A047002073
:101E0000A8472020A8473620A0476820A8473A20A6
:101E1000A0470520A8479020A0470820A8470820F1
:101E2000A8470820A8470820A847BD20A0470620AB
:101E3000A847BC20A0470020A847FF20A04760205B
:101E4000A8470120A8470420A847C320A047132083
:101E5000A847C420A0471320A847C920A047222094
:101E6000A847BE20A0471120A847E120A047102086
:101E7000A8470E20A847DF20A0472120A8470C2014
:101E8000A8470220A847F020A0474520A8470920DE
:101E9000A8470820A8470820A8472620A8472A20A6
:101EA000A847F120A0474320A8477020A8477220E8
:101EB000A8473620A8473720A8476F20A847F22018
:101EC000A0474520A8470920A8470820A847082080
:101ED000A8472620A8472A20A847F320A047432048
:101EE000A8477020A8477220A8473620A847372067
:101EF000A8476F20A847ED20A0471B20A8470B202C
:101F0000A847AE20A0477720A847CD20A047632050
:101F1000A8477020A0470720A8470720A84704200B
:101F2000A8470E20A8470F20A8470920A847072048
:101F3000A8470820A8470320A847E820A047342046
:101F4000A8476220A0471820A8470D20A847712065
:101F5000A847ED20A8477020A8477020A847182060
:101F6000A8470F20A8477120A847EF20A847702056
:101F7000A8477020A8476320A0471820A847112031
:101F8000A8477120A847F120A8477020A8477020D3
:101F9000A8471820A8471320A8477120A847F32076
:101FA000A8477020A8477020A8476420A047282091
:101FB000A8472920A847F120A8470120A847F120D9
:101FC000A8470020A8470720A8476620A0473C2034
:101FD000A8470020A847CD20A8476720A84745204C
:101FE000A8474520A8471020A8470020A847002060
:101FF000A8470020A8476720A0470020A8473C200A
:10200000A8470020A8470020A8470020A847012093
:10201000A8475420A8471020A8473220A847982056
:10202000A8477420A0471020A8478520A8478020F3
:10203000A8470020A8470020A8474E20A847002016
:10204000A8479820A0473E20A8470720A84735204A
:10205000A0472120A0471120A0477820B047292081
:10206000A04714203146BDE87040084710080140E1
:10207000290E00080D210008B9200008030A28498C
:10208000C0B24FF4005243EA034340EA00400A6002
:102090004FF4805283F47F0380F47F004A60C1F8DC
:1020A00000344FF480434B600B60C1F800044B6078
:1020B0000B600A60704700BF194900EB00404FF405
:1020C000005280F47F000A6000F028B9B0B5144ACD
:1020D00000F051F9A9B130F8024B0139250AE4B2F8
:1020E00045EA054544EA044485F47F0584F47F0409
:1020F000C2F8005453601360C2F800445360136088
:10210000E8E74FF480501060B0BD00BF044900EB19
:1021100000404FF4005280F47F004A6000F0FEB8A7
:10212000100C01402DE9F04F85B03948394C3A4F39
:1021300000224FF00008016804F5006641F010012C
:102140000160016801F0100101910199016841F0FD
:1021500020010160016801F02001019101990168ED
:1021600041F004010160016801F00401019101994D
:10217000016841F0080101604FF40051006800F06F
:102180000800019001983046B8473046FF210122EF
:102190004FF00109B847204616210022B8472046D3
:1021A00008210122B84704F580654FF2020101229F
:1021B0002846B8474FF0030B42F2FF00CDE90298E2
:1021C000DFF858A00190CDF810B001AF3046394685
:1021D000D04702203946CDE902980490162001909C
:1021E0002046D047082000F080F82046D0474FF224
:1021F000020000F07AF82846D04704203946CDE99D
:10220000028801902846D04705B0BDE8F08F00BF96
:102210001810024000080140F50F0008490E0008A0
:1022200010B50B480B4B0C4C00214FF48042C0E919
:102230000043C0E90211C0E90421C0E906110162AE
:10224000FEF7E2FE18B1BDE81040FEF73FBD10BD3D
:1022500030030020A086010000540040B0B50E48B5
:1022600000210A240D4B4FF482724FF40075C0E92F
:102270000A143824C0E90811C0E90032C0E902118B
:10228000C0E90411C0E90654FFF77EFA18B1BDE8B1
:10229000B040FEF71BBDB0BD8403002000300140FC
:1022A00010B57B4C0D490C224FF4E133204640F829
:1022B0000C1F0021C0E90131C0E90311C0E905216B
:1022C000C161FFF71DFC08B1FEF700FD04F10C0031
:1022D00021460122BDE81040FFF768BC00380140EC
:1022E000FEE7FEE7204600F06DBF3946CDF810B09E
:1022F000CDE9029801907047306820F4803030605A
:10230000306820F480207047206850E8050F21686D
:1023100020F0010041E80502002A70474FF4805286
:102320004A60C1F800044FF48040486008600A60C9
:10233000704700BF00BF00BF00BF00BF00BF00BFAD
:1023400000BF7047306A20F001003062306A20F030
:102350000400704700F01F010122C0B202FA01F12F
:102360007047206850E8050F216820F0400041E8E0
:102370000502002A70474FF4005313604FF4805356
:1023800053604FF480437047016851E8051F0268AD
:1023900021F0010142E80513002B7047016851E864
:1023A000031F026821F0100142E80313002B70475D
:1023B0002068406940067047206850E8030F216894
:1023C0007047706800F00C0008287047206850E8DB
:1023D000030F216820F0100041E80302002A704733
:1023E000242084F841002068C16821F40051C160B4
:1023F000204600F027B941E80302002A7047086828
:1024000040F00100086070474161C16841F400512B
:10241000C16000202021606484F8411084F84210DB
:10242000606310BD242084F83D002068016821F01D
:10243000010101607047002084F840002046FFF74A
:1024400075BBB0FBF3F001306FF31F30002870470D
:10245000002084F83C0070477047000010B5CF4959
:10246000D1E90120121A02F1C803C82293FBF2F449
:1024700004FB1233012BBCBF4FF0FF3010BD431CD7
:1024800093FBF2F404FB12328A60C549085C10BD6C
:10249000C0000020704782B018B504460120CDE985
:1024A000032394B1032910D103A800F10C0100917A
:1024B000039949B150F8042F32B1059B23B1002094
:1024C00084E80E00E06000E00120BDE8184002B0A2
:1024D0007047FEF75BBEB0B590B04FF4E01000243B
:1024E00002250F904FF48030CDE90B44CDE909442B
:1024F0000D950E90CDE90704012006900A9006A8DC
:10250000FEF7C4FF18B1EFF3108072B6FEE74FF488
:10251000806005940221CDE903400F20CDE901053B
:1025200001A8FEF7D3FE18B1EFF3108072B6FEE7F4
:1025300010B0B0BD7047406A0021C185C184FFF76B
:10254000C0B9016851E8031F026821F4907142E8A4
:102550000313002BF5D14DF808EDFFF715FF5DF8DB
:1025600008EBF8D1016B012906D14DF808EDFFF712
:1025700015FF5DF808EBF8D1202180F8421000210A
:102580000163704781B090F84210222920D18368FE
:102590000246B3F5805F08D152F8281F52F8183C64
:1025A000002B43D003685B6809E052F8281F13B979
:1025B0000369002BF6D003685B6803F07F030B70A0
:1025C000116801311160C18D0139C185090401D043
:1025D00001B070470168CA6822F02002CA60CA6868
:1025E00022F48072CA604A6922F001024A61202105
:1025F00080F8421000214163026B012A1ED1016361
:102600004DF808EDFFF7CAFE5DF808EBF8D1016858
:102610000A68D20606D5002200920A68009249682C
:1026200000910099818D01B0FFF74AB902685268A4
:102630006FF35F2221F8022B8162C4E701B0FFF73C
:10264000C7BA0000B0B50446006804F108030ECB19
:10265000056925F4405519432A4341F20C6502618E
:10266000C2686369AA4319431143C1604169A26901
:1026700021F44071114341611149884202D0FEF7B3
:10268000C3FE01E0FEF7CAFE19214843D4E9001257
:102690000C4C9200B0FBF2F06422B0FBF2F303FBAF
:1026A0000400322404EB0010B0FBF2F000F0F00262
:1026B00000F00F0002EB031210448860B0BD00BFB1
:1026C000003801409CFFFF0F0023C28543648162F4
:1026D0002221828580F842100168006918B1C8681B
:1026E00040F48070C860486940F001004861C868E3
:1026F00040F02000C860002070472DE9F0411D46E1
:1027000090460F4604465E1C206800683840B84278
:102710001DD0002EF8D02DB1FEF772FCA0EB080002
:10272000A842F1D9FFF748FE20F4D070FFF763FE0E
:10273000F8D1FFF7E9FDFCD12020002184F8410009
:1027400084F8401084F842000320BDE8F0810020A6
:10275000BDE8F0810148FFF7B5B800BFCC0000200C
:10276000FEE70000B0B50D49D1E90123D31A03F10A
:10277000C804C82394FBF3F505FB1344C62CC4BF5F
:102780004FF0FF30B0BD064CA054501C90FBF3F24C
:1027900002FB130048600020B0BD00BFC000002055
:1027A0007C01002058B351B34AB343B3F0B5DDE91F
:1027B0000554DFF84CC0154E154FC0E90E12174AEC
:1027C0001C49C0E9103580F848400E4C0E4D114BA5
:1027D000C0E90837C0E90A65C0E90C4CDFF838C029
:1027E000134F0F4B0F4C104D104EC0E90017C0E9AE
:1027F0000265C0E90443C0E9062CBDE8F04070471B
:10280000452D0008692C0008192D0008532C0008DC
:1028100095280008B12B0008572B0008492A00080A
:102820006B2D00085D2D00084D2B0008412B000882
:102830001529000875290008FEB5089D15B1099EE7
:10284000042E01D2012710E00446DDE90A70CDE92B
:1028500000702046FFF7A6FF284600213246C4E953
:102860001356002700F098FA67653846FEBD000051
:102870000648BFF34F8F064A016801F4E061114337
:102880000160BFF34F8F00BFFDE700BF0CED00E01C
:102890000400FA0582B02DE9F04792B00DF1040969
:1028A0008A4605460DF168084021CDE91A234846BD
:1028B000CDF84480FDF753FD119B48464021524618
:1028C000FDF7F4FC044640284E4611D3671C3846F9
:1028D00000F056FAB0B100213A46064600F05CFA24
:1028E0003046394652464346CDF84480FDF7DEFC7B
:1028F000AA6A2846314690474E4504D0304600F03B
:102900003BFA00E00024204612B0BDE8F04702B0D8
:10291000704700002DE9F0470368894682469847D2
:10292000DFF8B0830024DAF838004146012200596C
:1029300000F02AFAB0B1DAF8380007593846FDF746
:10294000EFFCD9F8005006462846FDF7E9FC864220
:1029500098BF064638462946324600F015FA20B19F
:102960000C34E0E70020BDE8F087DAF838002044B6
:10297000BDE8F0872DE9F84F8146084615460C461C
:1029800000F03FF92F492846FDF7C4FCCCB10646BC
:10299000206818B100F0F0F9002020603046FDF703
:1029A000BFFC451C0746284600F0EAF9206040B10C
:1029B00000212A4600F0F0F9206831463A4600F03E
:1029C000E5F9DFF880804FF0000A0026D9F80810FA
:1029D00048468847864232D200204146FDF79AFC9D
:1029E00068B354B307466068022826D804EB800019
:1029F000806830B100F0C0F9606804EB8000C0F876
:102A000008A03846FDF78CFC451C8346284600F09C
:102A1000B7F9616804EB8101886070B100212A4632
:102A200000F0BAF9606839465A4604EB80008068C5
:102A300000F0ACF96068013060600136C6E7002044
:102A4000BDE8F88F8C32000810B504461548002107
:102A5000322200F0A1F9601E052808D8DFE800F056
:102A6000030B0F13171B0F483349102216E00D48B4
:102A700032490C2212E00B4829A116220EE0094827
:102A800021A117220AE0074817A1202206E00548E5
:102A90000CA1242202E0034803A11C2200F076F9D5
:102AA000004810BD980200204154207468697320CA
:102AB000737472696E672063616E2774206265208B
:102AC000637574004154207468697320737472696B
:102AD0006E6720636F6D6D616E64206E6F74206829
:102AE00061766520616374004154206E6F742066C6
:102AF000696E64207468697320737472696E6720EC
:102B0000636F6D6D616E64004154206F75747075F4
:102B10007420646576696365206572726F72000067
:102B2000415420696E707574206465766963652010
:102B30006572726F7200000090320008A0320008C7
:102B400008B1406C70474FF0FF30704708B1806BA0
:102B500070470020704770B586B008B30546002066
:102B60000C460221019001AA052903D042F8210058
:102B70000131F9E70020029001AE304600F041F843
:102B80006B68284631462246984758B1816859B14A
:102B900001AD284688470446284600F032F804E094
:102BA000012402E0042400E00524204606B070BDA4
:102BB00070B50446C06B41688847C8B1E06B816856
:102BC000884794F84820C1B2002801D48A4211D124
:102BD0008A420DD1E269E16C204690470546D4E96E
:102BE00013020021002600F0D7F82846666570BD64
:102BF000022070BD626DE06C531C6365815400203F
:102C000070BD28B3F8B50446006818B100F0B4F8F8
:102C10000020206004F10805002600276068874234
:102C200008DA55F8270018B100F0A6F845F8276033
:102C30000137F3E704F10C010022431C032B03D2FC
:102C400041F820201846F8E700206060BDE8F84011
:102C5000704718B1006C20B1026810474FF0FF3088
:102C600070476FF001007047F8B51A4EC26A0D4602
:102C700004463146904728463146012200F084F848
:102C8000636A20B114A120462A46984702E016A1A3
:102C900020469847A06B0F490122006800F074F8A5
:102CA00088B10C4D002713A6A06B29460122C059FC
:102CB00000F06AF858B1A06B636A3146C2592046E9
:102CC00098470C37F0E7E26A0CA1204690470020B5
:102CD000F8BD00BFAB3200087468652073657428C6
:102CE0002573293A200D0A00746865207365743ACB
:102CF000200D0A002D2D25730D0A000068617665F0
:102D0000206E6F7468696E6720415420636F6D6D2B
:102D10006F6E642100000000B0B570B1826A054694
:102D200090470446002809D4AA6A05A1284690477E
:102D3000002858BF2044044600E001242046B0BDCE
:102D40000D0A000080B5436A0A4602A19847002098
:102D500080BD00BF41542B7B25737D0018B111B19C
:102D6000C163002070470120704718B111B10164A0
:102D700000207047012070470146002000F090B904
:102D80000146002000F096B900F0A4B910B5044641
:102D900000F0ADF9204610BD10B5C9B2044600F0F0
:102DA000AEF9204610BD000080B5034803A1426C77
:102DB00010309047002080BD140100204F4B0000D0
:102DC00080B5034803A1026C10309047002080BDFD
:102DD000140100206174000080B5FEF775FA002030
:102DE00080BD00001FB50C480C4C0D4A0D4B032153
:102DF00000902046FFF74FFB60B900200B492246A8
:102E000023460290642001900748009004F11000CE
:102E1000FDF739FF04B010BD712E00081401002029
:102E20003D2E0008312E0008CA02002010000020AC
:102E300008B1FDF74FBF4FF0FF307047B0B580B11C
:102E400008460D46FDF76CFA044682B2074829464B
:102E50004FF6FF73FEF7DEFE002818BF6FF0010487
:102E600001E04FF0FF342046B0BD00BFCC00002091
:102E700008B1FFF7F3BA4FF0FF30704703490A6813
:102E80005206FCD5C2B24A60704700BF003801400C
:102E900082B0FEF785F9FFF71EFBFFF743F9FFF756
:102EA000DDF9FFF7FDF9FFF7BBF9284D26A0A8478C
:102EB0000020002600F098F8FFF794FF2AA124A232
:102EC000002808BF11460846A84700F059F900F04D
:102ED0004FF92C4CFFF706FAFEF740FF00200021C7
:102EE000F022F0230096FEF705FF27A0A8472E4DFD
:102EF000296A284688474FF480764EB12078013001
:102F00002070FFF7EFF90A20FDF78EFF013EF4E78E
:102F10004FF480764EB1607801306070FFF7E2F9CF
:102F20000A20FDF781FF013EF4E74FF48076002E82
:102F3000DED0A0780130A070FFF7D4F90A20FDF7A9
:102F400073FF013EF3E700BF0D000000E902000837
:102F50006174207573657220696E697469616C694A
:102F60007A65206F6B210D00617420757365722086
:102F7000696E697469616C697A65206661696C65FE
:102F800064210D00440E002053544D33324631303D
:102F9000334338543620696E697469616C697A65A7
:102FA000204F4B210D0000002401002080B5484B2C
:102FB0001A18127CA2B10022B2EBD12F1CBF022042
:102FC00080BD03EB80004909C36833F8110003EBAF
:102FD000410118B121F8022B0138FAE7002080BD29
:102FE00019688847012080BD70B5394D044600211D
:102FF000802205EB8006F06800F081F8B0680021BF
:103000004FF4006200F07BF828190121017470BDB3
:1030100070B52F4E04460D463044007C10B931681F
:1030200020468847F5B10120E9064FEA551118BF3F
:1030300000EB551106EB840000243F23C06800F12B
:103040007E024FF4FC60002B0CD41588002D4FF04D
:10305000000508BF651C8D4207D02038023A013BAD
:103060002C46F0E74FF0FF3070BD0B46002BFBD035
:1030700022F8021B013BF9E71549002201EB800011
:10308000C1680020402A06D031F81230002B18BF4A
:1030900001300132F6E764214843C0F387107047DE
:1030A00031B10B4A02EB80029268891AFFF77EBFAA
:1030B000704700BF10B50446FFF7AAFF411C04BFCC
:1030C000002010BD024901EB84018968084410BD4D
:1030D0004000002010B53AB10B780478E31A04D10F
:1030E000013A01310130F6E70023184610BD2AB13C
:1030F00011F8013B013A00F8013BF8E770471AB1BB
:1031000000F8011B013AFAE770470000B8B515480E
:103110004FF4005101604FF496701449009012482A
:10312000009AF2B1009AB2F5617F94BF009A4FF411
:10313000617202EBC2040368644203EBC404002C16
:1031400005D405689D4208DAA542FADA05E00C4488
:1031500005689D42FCDDA542FADC009B9A1A0092AC
:10316000DEE7B8BD1410014018E000E0401901008E
:10317000024800218170018000207047440E002029
:103180000020704710B50E4A08214FF40053B1B12A
:10319000136044B200BFB4F1FF3F00BF00BF03DDC6
:1031A0005360FFF7C6F807E000BF00BF00BF00BFD5
:1031B00000BFFFF7BEF8536001394000E7E710BDDC
:1031C00010100140B0B504464078054DA84720785E
:1031D000A847A078A847FFF799FF0020B0BD00BF1F
:1031E0008531000830380A2801D2012070470020BC
:1031F0007047000010B500290AD00878002807D0D1
:1032000005487844FDF7F8FC002801D0002010BDE7
:103210000248784410BD0000CA000000C20000004F
:103220000000000000000000303132333435363702
:1032300038394142434445464030580030313233FA
:1032400034353637383961626364656640307800FA
:10325000040000080000000000000002000100005F
:10326000100000000000000000010203040607082F
:1032700009000000000102030441542B4C5300419B
:10328000540041542B5245424F4F5400200D0A0028
:103290004154206E6F726D616C206572726F7200A6
:1032A0004154206E6F206572726F7200E033000827
:1032B00000000020600000006C010008403400089D
:1032C00060000020E81300008801000810010000E1
:1032D00043000000F8FFFFFF0040404040404040F6
:1032E00040404141414141404040404040404040D9
:1032F000404040404040404040050202020202027D
:1033000002020202020202020220202020202020CB
:1033100020202002020202020202909090909090DF
:10332000101010101010101010101010101010109D
:103330001010101002020202020288888888888811
:1033400008080808080808080808080808080808FD
:103350000808080802020202400000000000000005
:10336000000000000000000000000000000000005D
:10337000000000000000000000000000000000004D
:10338000000000000000000000000000000000003D
:10339000000000000000000000000000000000002D
:1033A000000000000000000000000000000000001D
:1033B000000000000000000000000000000000000D
:1033C00000000000000000000000000000000000FD
:1033D00000000000000000000000000000000000ED
:1033E0000000000001000000100000000024F400B4
:1033F0007F32000801000000A92D00087932000882
:1034000001000000C12D0008823200080100000008
:10341000D92D0008AB3200080000000000000000B9
:10342000E92F000879300008C0050020C00D0020F9
:10343000000000000000000000000000000000008C
:0400000508000131BD
:00000001FF
