:020000040800F2
:1000000010AA00206D0200089F2700088321000825
:100010009D2700081D0F00082D3B00080000000070
:10002000000000000000000000000000B9370008D8
:100030001F0F00080000000083370008F737000892
:10004000870200088702000887020008870200086C
:10005000870200088702000887020008870200085C
:10006000870200088702000887020008870200084C
:10007000870200088702000887020008870200083C
:10008000870200088702000887020008870200082C
:10009000870200088702000887020008870200081C
:1000A000870200088702000887020008870200080C
:1000B00087020008870200088702000887020008FC
:1000C00087020008870200088702000887020008EC
:1000D00087020008213B0008870200088702000809
:1000E00087020008870200088702000887020008CC
:1000F00087020008870200088702000887020008BC
:1001000087020008870200088702000887020008AB
:1001100087020008870200085D380008870200088F
:10012000870200088702000887020008870200088B
:1001300000F002F800F08BF80AA090E8000C82446E
:100140008344AAF10107DA4501D100F080F8AFF24B
:10015000090EBAE80F0013F0010F18BFFB1A43F0A5
:1001600001031847A4B60200C4B60200103A24BF27
:1001700078C878C1FAD8520724BF30C830C144BF0C
:1001800004680C607047000000230024002500264E
:10019000103A28BF78C1FBD8520728BF30C148BFEA
:1001A0000B6070476E2900F00D83702900F05184B8
:1001B0006629AFF300806529AFF300806729AFF3AC
:1001C00000806129AFF3008003681B0A28BF41F05B
:1001D0008001692900F0BA82642900F0B78275298C
:1001E00000F0B4826F2900F0DF83782900F01D84CD
:1001F000E92900F07983E42900F07683F52900F0FD
:100200007383EF2900F0DC83F82900F01C84036875
:10021000DB0928BF41F08001632900F0B385732911
:1002200000F0B885E32900F0C385F32900F0C88504
:10023000002070471FB500F045FE0400002000219B
:1002400026F02AFE401C60601FBD10B510BD00F0F6
:10025000FDFD1146FFF7EEFF20F0E0FE00F024FE6A
:1002600003B4FFF7F2FF03BC00F030FE09488047FB
:1002700009480047FEE7FEE7FEE7FEE7FEE7FEE788
:10028000FEE7FEE7FEE7FEE704480549054A064BA0
:1002900070470000593800083101000810A4002000
:1002A00010AA002010A6002010A6002053EA020C7D
:1002B00000F069802DE9F04B4FF00006002B1FBFC6
:1002C000B3FA83F503FA05F424FA05F65E4012BF8B
:1002D0001643B2FA82F502FA05F4C5F120051EBFF5
:1002E00022FA05FC44EA0C04203556EA044C4FEA95
:1002F000144418BF641C4FF000084FF000099042EE
:1003000071EB030C39D3002919BFB1FA81F701FA57
:1003100007F6B0FA80F700FA07F6C7F120071EBF0C
:1003200020FA07FC46EA0C062037B6FBF4FCA7EBE4
:100330000507103F07F01F0BCBF120062CFA06F63D
:100340000CFA0BFB44BFB3460026202FA4BF5E4629
:100350004FF0000B5BEA060C08BF4FF0010B19EBE6
:100360000B0948EB0608ABFB027C06FB02CC0BFB3F
:1003700003CCC01B71EB0C01C1E70B4602464146A2
:100380004846BDE8F08B13B5084318BF4FF0FF3067
:100390000146AFF30080BDE81C40704753EA020CF1
:1003A00023D010B54C1084EA530404D54042C1F167
:1003B000000138BF491E1B4204D55242C3F100035D
:1003C00038BF5B1EFFF772FF14F0804F04D040422D
:1003D000C1F1000138BF491E14F0004F04D0524251
:1003E000C3F1000338BF5B1E10BD13B540424FF090
:1003F000000070EB0104B8BF012001F000410028AB
:100400001CBF6FF000414FF0FF30AFF300801CBD08
:100410007CB51D4616460C00009007D04142A14213
:1004200002D32044401E01E04FF0FF30064B7B44D6
:100430002A4669460190304600F0DDF9002C02D0D2
:10044000009A002111707CBDEB03000010B504463A
:1004500003E008F0C9F8401C09D014F8010B054965
:100460000028F6D1BDE810400A2008F0BDB84FF0D2
:10047000FF3010BD2C030020014A00F0B9BB000082
:100480000000002010B5431C02E010F8011B71B100
:100490008107FAD14FF0013202C88C1A8C4314EA5A
:1004A000C211F9D0C01A0A0603D0C01E10BDC01A6E
:1004B00010BD0A0401D0801E10BD0902FCD0401EF0
:1004C00010BD032A40F2308010F0030C00F01580BC
:1004D00011F8013BBCF1020F624498BF11F801CB47
:1004E00000F8013B38BF11F8013BA2F1040298BFAC
:1004F00000F801CB38BF00F8013B11F0030300F016
:100500002580083AC0F0088051F8043B083A51F8B9
:1005100004CBA0E80810F5E7121D5CBF51F8043BBE
:1005200040F8043BAFF30080D20724BF11F8013B31
:1005300011F801CB48BF11F8012B24BF00F8013B93
:1005400000F801CB48BF00F8012B704710B5203AE6
:10055000C0F00B80B1E81850A0E81850B1E818506E
:10056000A0E81850203ABFF4F5AF5FEA027C24BF40
:10057000B1E81850A0E8185044BF18C918C0BDE829
:1005800010405FEA827C24BF51F8043B40F8043BF2
:1005900008BF7047D20728BF31F8023B48BF11F8A7
:1005A000012B28BF20F8023B48BF00F8012B704701
:1005B0004FF0000200B5134694469646203922BFFC
:1005C000A0E80C50A0E80C50B1F12001BFF4F7AF47
:1005D000090728BFA0E80C5048BF0CC05DF804EB29
:1005E000890028BF40F8042B08BF704748BF20F897
:1005F000022B11F0804F18BF00F8012B704700004C
:100600004FF0013C50F8042B51F8043B9A4221D1A1
:10061000A2EB0C03934313EACC1317D150F8042B2D
:1006200051F8043B9A4215D1A2EB0C03934313EA11
:10063000CC130BD150F8042B51F8043B9A4209D14A
:10064000A2EB0C03934313EACC13DBD04FF0000072
:10065000704700BFD01A01BAB1FA81F101F0180158
:1006600022FA01F0CB40DBB2C0B2C01AC1F12001C6
:100670002CFA01F3D11A914311EAC311E6D1704764
:1006800070477047704770B5044685690068C106B9
:1006900001D5302600E02026C00707D070BDD4E980
:1006A000012130469047206A401C20626D1EF6D51D
:1006B00070BD70B5044685690078C00707D170BD6C
:1006C000D4E9012120209047206A401C20626D1E41
:1006D000F6D570BD09684A0501D540B27047C90515
:1006E000FCD500B2704709684A0501D5C0B2704711
:1006F000C905FCD580B2704770B50C460546012A85
:1007000005D02878800600D5EA69002302E001239D
:1007100005E05B1C934202D2E05C0028F9D1A86995
:10072000E618C01AA861286A184428622846FFF70C
:10073000AAFF04E0D5E9012114F8010B9047B44267
:10074000F8D32846FFF7B5FF70BD00002DE9F04152
:100750000646002410687529314616A510D0FFF70B
:10076000B9FF002802DA404213A507E031688A0782
:1007700001D512A502E0490704D511A5012401E025
:10078000FFF7B1FF00210A2206F1240709E0B0FBC0
:10079000F2FCB0FBF2F302FB1C0030307854184638
:1007A000491C0028F3D123462A463046BDE8F041D3
:1007B00000F085BA000000002D0000002B000000B2
:1007C0002000000011680268006A530501D5087016
:1007D0000AE0D30501D5088006E0130603D5C21749
:1007E000C1E9000200E008600120704701694A1C6D
:1007F00002610878704700B58FB0CDE90131002162
:10080000059105497944CDE903101146684600F089
:100810002BF90FB000BD0000E5FFFFFFD1E9002379
:100820009A4202D2531C0B60107070472DE9FF5F93
:1008300015468A460446DFF8AC80F8440027D8E91C
:1008400000103E46CDE9001010E03AF816106A4656
:1008500002A800F0B9FA411C07D02178890603D517
:10086000E269391891420DD80744761C2078800639
:1008700002D5E069B84205DDAE42E6DB3AF8160083
:100880000028E2D1A069C01BA0612046FFF7FBFE53
:10089000D8E90010CDE90010002017E03AF8181050
:1008A0006A4602A800F090FAB0F1FF3F81460BD0F3
:1008B00000250DF1080B05E0D4E901211BF8050026
:1008C00090476D1C4D45F7D308F10100B0428046BA
:1008D000E4DB206A384420622046FFF7EAFEBDE8E8
:1008E000FF9F0000866602002DE9F0418046D21D80
:1008F00022F007020025D2E90002F52915A614D03E
:10090000011E72F1000106DA0023D0EB030063EB55
:10091000020211A608E0D8F800108B0701D50FA637
:1009200002E0490701D50EA601251146002408F171
:10093000240704E000F07EF930323A55641C50EA96
:100940000102F7D12B46324621464046BDE8F04130
:1009500000F0B5B9000000002D0000002B000000E1
:100960002000000030B4002100F1240408E002F06F
:100970000705D208303542EA4372DB086554491C4A
:1009800052EA0305F3D10468002310A2250708D515
:1009900004F020040C4304D0C46901230CA2641E9B
:1009A000C46130BC00F08BB910B504462146106814
:1009B000FFF799FE02462046BDE810400023D1E72C
:1009C000D21D22F00701D1E90023CBE7000000008F
:1009D00030000000F0B40D460188090502D5214C15
:1009E0007C4402E01F4C7C440E34002100F12406BC
:1009F00008E002F00F071209E75D42EA03721B09E3
:100A00007754491C52EA0307F3D1027800231207F6
:100A100004D5702D06D009B1022311342246F0BC52
:100A200000F04DB901231034F8E770B504460D46C7
:100A300021461068FFF757FE024629462046BDE8CA
:100A400070400023C6E7D21D22F00703D3E900233C
:100A5000C0E70368126843F0200303600823C36102
:100A60000023B7E7E86402002DE9F05F89460446F9
:100A70004FF0000ADFF874B1FB44C0F820A0204614
:100A8000E1688847002874D0252806D0D4E90121E0
:100A90009047206A401C2062F1E700265F4620460E
:100AA000E16888472028054607DB312D05D27819F3
:100AB00010F8200C08B10643F1E7B00701D526F085
:100AC0000406C4F81CA00027C4F818A02A2D09D0D9
:100AD000284626F0DAF938B304EB8708303DC8F829
:100AE000185019E059F8041B204604EB8702916165
:100AF000E1688847012F054618D1E069002820DA0F
:100B000026F020061DE0D8F8180000EB800005EB69
:100B100040003038C8F818002046E168884705468C
:100B200026F0B3F90028EED1012F0AD02E2D08D1DE
:100B30002046E16888477F1C0546022F46F02006C4
:100B4000C4DBA069002803DA404246F00106A06138
:100B5000F00701D026F010066C2D0BD0682D09D0BF
:100B60004C2D39D06A2D35D0742D35D07A2D33D017
:100B700016E038E0E1682F4620468847B84205462F
:100B800009D16C2F26D04FF48060E16806432046DF
:100B90008847054604E06C2F1AD04FF48070064356
:100BA0000DB3A5F14100192802D8203546F400669E
:100BB0004A462946204626604E46FFF7F3FA80B1A2
:100BC00001280BD0F61D26F0070000F1080956E7B2
:100BD0004020E4E78020D8E70020D6E706F10409AA
:100BE0004DE7284652E7206ABDE8F09F786402008E
:100BF0002DE9F04115460E46040002D12C6804B9D7
:100C00000BA4204600F014F90444207870B1274664
:100C10003146384600F0FCF80444207810B100203A
:100C200004F8010B38462C60BDE8F0810027F9E795
:100C30000000000030B5B0F10A0271F100034FEA84
:100C4000900E4EEA817EB0EB0E0061EB91014FEA0F
:100C5000101E4EEA017E10EB0E0041EB11114FEA1F
:100C6000102E4EEA016E10EB0E0041EB11214FEAFF
:100C7000104E4EEA014E10EB0E0041EB11414018B0
:100C800041F100014FEAD00040EA41704FEAD10142
:100C90004FEA810444EA907410EB800544EB0104B0
:100CA0006D1944EB0404521BA3414FF0000348BFED
:100CB0000A3200D530BD401C41F1000130BD2DE9A4
:100CC000F0470D4699469246044600F12408016813
:100CD000880604D5E06921F01001216000E00120C0
:100CE000A84201DD471B00E00027A1697A1902EB49
:100CF0000900081AA0612078C00602D42046FFF738
:100D0000C2FC002608E0D4E901211AF80600904749
:100D1000206A401C761C20624E45F4DB2078C00619
:100D20000AD52046FFF7AFFC06E0D4E901213020C8
:100D30009047206A401C2062381EA7F10107F4DCAE
:100D400007E0D4E9012118F805009047206A401C0B
:100D50002062281EA5F10105F3DC2046FFF7A9FC5F
:100D60002078000602D50220BDE8F0870120FBE7CD
:100D700010B5436913B1AFF3008001E0FFF7BCFC8D
:100D8000012010BD127800F124010A7000224A707F
:100D90000122EDE711684FF0FF32E9E710B5436932
:100DA00013B1AFF3008001E0FFF740FD012010BD5B
:100DB000128800F1240182840022C2840122EDE71E
:100DC00011684FF0FF32E9E72DE9F04116460C4675
:100DD000054600F061F8036893F80101012807D087
:100DE000FF2C12D8185D80B101202C70BDE8F08175
:100DF000D3F807013246214603F20713C7182846E5
:100E0000BC46BDE8F041002360474FF0FF30EDE7FE
:100E100030B503461D781DB10A4603E0AC4201D14E
:100E2000181A30BD12F8014B002CF7D15B1CF1E70A
:100E300030B503461D783DB10A4612F8014B1CB18E
:100E4000AC42FAD15B1CF5E7181A30BD754600F0CC
:100E500035F8AE4605006946534620F00700854642
:100E600018B020B5FFF710FABDE820404FF000069B
:100E70004FF000074FF000084FF0000BAC46ACE815
:100E8000C009ACE8C009ACE8C009ACE8C00921F071
:100E900007018D467047000010B500F013F8001DE3
:100EA00010BD00BFF55F020010B50446AFF300802F
:100EB0002046BDE81040FFF7D3B900000048704756
:100EC000E000002000487047000100200149182080
:100ED000ABBEFEE7260002007047F0B585B00C9F60
:100EE000DDE90A5C1FB1022F04D9012014E00A24B5
:100EF00003260BE00DAC261D0496012F0D9E0FBF9F
:100F00000A2404F1080704976468E4B2CDE9005CA0
:100F1000CDE9026402F076FE05B0F0BDFEE7704751
:100F2000EFF3108072B6FEE70548D0E90110081A09
:100F3000C821C83090FBF1F202FB1100704700BFDE
:100F40004001002010B590F82110022912D101684B
:100F5000D0E90F230C6824F00E040C600C6824F018
:100F600001040C60012101FA03F3536080F82110A1
:100F7000002102E0042181630121002280F8202069
:100F8000084610BD10B590F82110022919D1026849
:100F9000116821F00E011160116821F0010111604A
:100FA0002B4901F17C039A420FD9314B9A4224D04C
:100FB000304B9A4223D0304B9A4222D14FF4807367
:100FC00027E004218163012140E0224B9A4226D090
:100FD000214B9A4225D0214B9A4224D0204B9A4251
:100FE00024D0204B9A4217D01F4B9A4221D01F4B3E
:100FF0009A4211D14FF080721DE0012309E01023C5
:1010000007E001F588644FF48033A24208BF4FF433
:101010008053C1F800340FE04FF480320BE001221E
:1010200009E0102207E04FF4807204E04FF4805290
:1010300001E04FF480120A600021012280F82010A4
:1010400080F82120426B0AB190470021084610BD6C
:1010500004000240080002401C0002403000024030
:1010600044000240580002406C00024080000240F0
:10107000080402401C04024030040240B0B504469B
:1010800000F0E8F80546F148611C007818BF0444F8
:1010900000F0E0F8401BA042FAD3B0BD2DE9FC4FB0
:1010A00081465E4806235F4E4FF0000B4FF001086B
:1010B0004FF00F0E4FF0000A8145594808BF052335
:1010C00048444FEAB022052A38BF4FEAB0230093C4
:1010D000554B00220C6834FA02F508BFBDE8FC8FBE
:1010E00008FA02F52C4200F095804F68032F16D9BC
:1010F000112F26D0122F28D04C48874213D04C48AD
:10110000874210D04B4887420DD04B4887420AD0C7
:101110004A48874207D04A48874204D022E0DFE8A5
:1011200007F002181B1F8C6844B1012C14BFC9F8CA
:101130001450C9F810504FF0080A13E04FF0040A99
:1011400010E0CC6804F1040A0CE0CC6804F10C0A4D
:1011500008E0D1F80CA005E0CC6804F1080A01E031
:101160004FF0000A5C4648469C46082A334628BF92
:10117000203C28BF043006680EFA04F70AFA04F48B
:10118000BE4334430460C879C00602D41E46634699
:1011900040E0BD4C22F003061E44206840F00100F0
:1011A0002060206800F0010001900BF00C00019F0E
:1011B0000EFA00F4234FBE46F75927EA0404009FB5
:1011C00007FA00F0204346F80E001E464FF00F0EBF
:1011D0004F68F802986854BF20EA050440EA050405
:1011E0006346B460B802186854BF20EA050440EAB8
:1011F00005041C60B803706854BF20EA050440EA87
:1012000005047460F803306854BF20EA050440EA1E
:10121000050434600BF1040B01325BE7001C014054
:1012200000F8FEBF000401400C0401400000111052
:1012300000001210000021100000221000003110E8
:101240000000321008FCFFFF002A08BF09040161FA
:101250007047000066480068704700BFF8B528B3C3
:10126000044690F83D0020B902F05EFA204600F0F6
:101270008DF802F0C7F9016841F40041016001688E
:1012800021F40041016000F0E9F93B4900253B4AA7
:1012900088424FF0000138BF0121904238BF01253C
:1012A0006368374A934238BF0D460DB10120F8BD3F
:1012B00034494FF47A77B0FBF1F521684E6826F097
:1012C0003F062E434E604FF496766E43934228BFFE
:1012D000B6FBF7F56A1C0D6A25F03F052A434CF66C
:1012E000FF750A62CA69AA43274DAB420AD85B0060
:1012F0000138B0FBF3F001306FF31F30042898BFC2
:10130000042013E0A56801383DB119256B4302F0B4
:1013100004FA0AD000F5804004E003EB430302F036
:10132000FCF902D000F5004000E00120104304F178
:101330000C06C861E0690A6822F0C0021043226A04
:10134000104348F2FF320860886890436CCE18431F
:1013500010438860C86820F0FF0028433043C8600D
:1013600002F0F0F800202021206484F83D10206372
:1013700084F83E00F8BD00BF80841E0000093D00D7
:10138000A186010040420F00A086010010B586B082
:10139000002104910168114881421DD13A4C00F5A9
:1013A0003840216841F008012160216801F00801FE
:1013B00001910321059112210391C021029101990C
:1013C00002A9FFF76BFE606840F40010606060687F
:1013D00000F400100190019806B010BD00540040C8
:1013E0001A48034900780A6810440860704700BF33
:1013F00008A4002080B59648016841F01001016002
:10140000032000F07BF80F2000F004F800F020F833
:10141000002080BD70B50D4E04464FF47A713078CF
:10142000B1FBF0F097490968B1FBF0F000F062FB06
:1014300001250F2C08D838B94FF0FF302146002283
:10144000002500F035F87460284670BD04000020C7
:1014500082B00D480222016841F00101016001687B
:1014600001F0010101910199416841F08051416011
:10147000406800F08050009000980448016862F3D2
:101480001A61016002B07047181002400400014068
:10149000002809D4734601F058FB9E46034A42EAED
:1014A000D00020F003000160704700BF00E100E0C1
:1014B000F0B5184B4FF0FF361C68C4F30224E51E4C
:1014C00084F0070438BF002506FA05F7BA43042C58
:1014D00028BF042406FA04F4A14300F00F04A94035
:1014E000043C1143044A234409010244002848BF34
:1014F00003F10C021170F0BD00E400E005494FF665
:10150000FF030A681A4060F30A2203481043086088
:10151000704700BF0CED00E00000FA0502F08EFB02
:101520002DE9F84300286CD08846494904460868EC
:1015300000F0070040450AD2086820F0070040EAA2
:1015400008000860086800F00700404559D120688D
:101550005B4B8946810711D5410703D5196841F4D2
:10156000E0611960010703D5196841F46051196001
:10157000A1681A6822F0F00211431960C00737D140
:10158000D9F8000000F0070040450DD9D9F8000057
:1015900020F0070040EA0800C9F80000D9F8000070
:1015A00000F0070040452CD12068410705D5E168CF
:1015B0001A6822F4E06211431960000706D5206919
:1015C000196821F4605141EAC00018601C4600F01F
:1015D0005DF821681F4AC1F30311515CC8402949D5
:1015E00008601D480068FFF715FF0020BDE8F8837C
:1015F0006068022808D0012825D153F8041C89030B
:1016000006D40120BDE8F88353F8041C8901F8D5FD
:1016100019681D4621F0030108431860FFF71AFE00
:10162000064641F28837606829682B4601F00C01B4
:10163000B1EB800FA4D0FFF70DFE801BB842F2D9AA
:101640000320BDE8F88353F8041C8907D9D5DFE7E8
:1016500000200240146F020808000020DD481849ED
:10166000094A00680968C1F30221515CC84070470B
:10167000D8481349044A00680968C1F3C221515C83
:10168000C840704764000020246F020810B50C4960
:101690000C480A6802F00C03082B07D1C2F38343FD
:1016A00009A4D203E35C02D40C48584310BD096876
:1016B00009A25843C1F34041515CB0FBF1F010BDA9
:1016C0000410024000127A0002030405060708090C
:1016D0000A0B0C0D0E0F10100102000000093D0056
:1016E0002DE9FC41002800F09C8004460078B74EAC
:1016F000C0071FD0706800F00C00042814D001F05F
:101700000FFC02D17068C0030ED46068002800F09E
:101710001481B0F5A02F00F02181B0F5803F00F0DA
:10172000218101F044F820E13068800302D560682F
:10173000002876D02078800716D5706810F00C0F3E
:1017400005D001F0EDFB24D17068C00321D43068CE
:10175000800702D52069012863D16069316821F0D2
:10176000F80141EAC00030602078000741D5A06947
:1017700010B397480121C0F88014FFF76BFD0546B0
:10178000706A800728D4FFF765FD401B0228F7D94F
:10179000F8E021698E48002900F08E800121016067
:1017A000FFF758FD054630688007D6D4FFF752FD95
:1017B000401B0228F7D9E5E085480021C0F88014D5
:1017C000FFF748FD0546706A800712D5FFF742FD16
:1017D000401B0228F7D9D5E07E484FF4FA51006843
:1017E000B0FBF1F0019000BF0198411E002801916B
:1017F000F9D12078400717D4E7697FB101F090FB59
:101800003CD1012F0DD0216A706800F480328A42E9
:1018100007D1616A00F47010884202D10020BDE84F
:10182000FC810120BDE8FC81F06910F0805808D1EE
:10183000F06940F08050F061F06900F08050009055
:101840000098654F3868C0050FD4386840F4807040
:101850003860FFF7FFFC05463868C00505D4FFF780
:10186000F9FC401B6428F7D98CE0E068A0B3052898
:1018700044D0012846D001F060F946E054490020E8
:1018800088460866FFF7E6FC0546022F0AD1474660
:101890003068800179D5FFF7DDFC411B0320022968
:1018A000F6D9BCE730688001B8D5FFF7D3FC411BFF
:1018B00003200229F6D9B2E700210160FFF7CAFC34
:1018C0000546306880077FF54FAFFFF7C3FC411B2B
:1018D00003200229F5D9A2E701F02FF93062FFF7C2
:1018E000B9FC054641F28837306A80071CD5FFF7FE
:1018F000B1FC411B0320B942F6D990E7306A40F0B1
:1019000004003062306A40F001003062FFF7A2FC50
:10191000054641F28837306A800705D4FFF79AFC04
:10192000401BB842F7D92DE0B8F1000F7FF464AF47
:10193000F06920F08050F0615EE700F038FF306021
:10194000FFF788FC0546306880037FF5F3AEFFF7AC
:1019500081FC411B03206429F5D960E7306840F41D
:1019600080203060306840F480303060FFF772FCD7
:101970000546306880033FF5DDAEFFF76BFC401B8A
:101980006428F6D90320BDE8FC81206AB0F5803FC9
:1019900005D1A168726822F4003211437160616A56
:1019A000726822F474121143084370600120386693
:1019B000FFF750FC0446306880013FF52FAFFFF77A
:1019C00049FC011B03200229F5D928E70010024039
:1019D00000004242640000200070004070B538B141
:1019E0000446406A30B10020206104F1140007E091
:1019F000012547E06068B0F5827F03D004F11C0048
:101A0000002101600025A56294F8510020B920460C
:101A100084F8505000F038F8022084F8510094E81F
:101A20000F0001F4827102F404420668114403F4C9
:101A30000062114426F040060660226902F00202AC
:101A40001144626902F001021144A26902F40073B8
:101A50001944E36903F038031944236A03F080034F
:101A60001943A36A03F4005319430160042101EAF6
:101A700012414160C16921F40061C16101206565C5
:101A800084F85100284670BD70B586B0174C0068C8
:101A90000026049604F52051884225D11448016897
:101AA00041F480510160016801F480510191019974
:101AB000016841F004010160006800F00400019039
:101AC0000320059002200390A0200290019802AD0F
:101AD00020462946FFF7E2FA40202946CDE9036671
:101AE00002902046FFF7DAFA06B070BD0008014008
:101AF00018100240411E0020B0EB116F1CBF0120E6
:101B00007047044AF023516003490B70072190602D
:101B10001160704710E000E023ED00E0704770476F
:101B200010B590F83C300222012B26D080F83D20E1
:101B300002680B68546824F070041C439368B2F187
:101B4000804F54600ED03A4CA2420BD0394CA24286
:101B500008D0394CA24205D0384CA24202D0384CB1
:101B6000A24204D1496823F0800319439160002206
:101B7000012180F83C2080F83D10104610BD00BFC8
:101B800058B110B501F05AFC03D101F0B9FA00F0D8
:101B900007F801F08DFD00F0DFBF01207047000065
:101BA000E0B500687649884218BF8CBD094800221C
:101BB000016841F0100101600021006800F0100090
:101BC000019001983620FFF773FC3620BDE88C4069
:101BD000FFF75EBC1C10024090F83D1001291CBFAD
:101BE00001207047022180F83D100068C168B0F103
:101BF000804F41F00101C1600ED00D4988420BD0E9
:101C00000C49884208D00C49884205D00B498842CB
:101C100002D00B49884204D1724601F012F996466F
:101C200003D0724601F0B5F896460020704700BF19
:101C30000004004000080040000C00400034014057
:101C4000002C0140704710B50446006801698907FF
:101C500012D5C16889070FD56FF00201016101211A
:101C600021778069800702D001F061FC01E001F07A
:101C700005FB0020207720680169490713D5C1685A
:101C8000490710D56FF004010161022121778069B5
:101C900010F4407F02D001F04AFC01E001F0EEFABE
:101CA0000020207720680169090712D5C16809075B
:101CB0000FD56FF00801016104212177C069800709
:101CC00002D001F034FC01E001F0D8FA00202077C6
:101CD00020680169C90613D5C168C90610D56FF01F
:101CE0001001016108212177C06910F4407F02D002
:101CF00001F01DFC01E001F0C1FA0020207720680E
:101D00000169C90709D0C168C90706D06FF0010190
:101D10000161204600F02CF820680169090609D508
:101D2000C168090606D56FF0800101612046FFF702
:101D3000F5FE20680169490609D5C168490606D53E
:101D40006FF040010161204600F01CF82068016935
:101D5000890602D5C168890600D410BD6FF0200144
:101D600001612046BDE81040FFF7D9BE70477047BB
:101D700000680349884218BF704701201EF050BE1A
:101D80000010004070477047704700007CB5044663
:101D900000680268C168456913073FD001F4907676
:101DA00005F0010576193DD0D60705D0CE0503D53F
:101DB000666C46F001066664560704D51DB1666C74
:101DC00046F002066664960704D51DB1666C46F0BF
:101DD00004066664002B07D501F020035B1903D0CD
:101DE000636C43F008036364636C002B00F0E080D5
:101DF000920605D5890603D5204601F0AAFD206884
:101E00004069616C00F0400001F00801401847D1C2
:101E10002046FFF7B9FF00206064C9E0930601D5B2
:101E20008B0654D4236B012B03D1D30601D5CB06EB
:101E300052D4130601D50B0611D4520640F1B880D6
:101E4000490640F1B580C16821F04001C160202001
:101E500084F841002046BDE87C4000F091B994F838
:101E60004110212940F0A480A168B1F5805F03D121
:101E70002169002900F09D80216A4A1C22620978AC
:101E80004160E18C0139E184090440F09180C1682E
:101E900021F08001C160C16841F04001C1607CBD9A
:101EA000204601F035FD01F017F84DD500F06BFE2E
:101EB000FCD1E06B002847D042494163FFF762F84C
:101EC000002875D0E06B416BBDE87C400847204698
:101ED000BDE87C4001F03DBD002101910168019108
:101EE0004168019101994069400632D4E08DA18D8D
:101EF000E28D002A5CD081425AD0081A216851E84C
:101F0000031F226821F4907142E80313002BF5D1DE
:101F1000216851E8051F226821F0010142E80513FC
:101F2000002BF5D1202184F8421000212163216883
:101F300051E8031F226821F0100142E80313002B2F
:101F4000F5D1022161632DE02046BDE87C40FFF71A
:101F50001BBFE06B016849688AB24AB3A38D9A42FD
:101F600026D2E1858069202817D000F0C3FF20F435
:101F7000807001F07CFAF8D100F021FCFCD100F077
:101F800002FEFCD1202084F842000020206300F0F3
:101F9000CCFFFCD1E06BFEF7D5FF02206063A08D83
:101FA000E18D401A81B22046BDE87C40FFF7EBBED0
:101FB0007CBD216A31F8022B6FF35F2221624260FF
:101FC0005FE700BF0539000890B110B5044690F8EE
:101FD000410008B901F01FFB01F08DF9206801698B
:101FE00021F490410161416921F02A0101F0AFBA69
:101FF0000120704770B586B01C4C0068002604961E
:1020000004F5405188422FD11948016841F48041BC
:102010000160016801F4804101910199016841F07A
:1020200004010160006800F00400019003200590A5
:10203000022003904FF400700290019802AD2046F8
:102040002946FFF72BF84FF480602946CDE9036657
:1020500002902046FFF722F8252002210022FFF7F8
:1020600027FA2520FFF714FA06B070BD00080140DA
:102070001810024010B590F84230202B06D139B12B
:1020800032B10024046301F005FD02E0022400E007
:102090000124204610BD000010B5044600680D491B
:1020A000884218BF10BD0C48D0E90112891AC82215
:1020B000C83191FBF2F303FB1211C62902DC007850
:1020C00001F036FD044920460122BDE81040FFF72B
:1020D000D1BF00BF00380140400100202DE9F84386
:1020E000044690F8410020281CBF0220BDE8F88378
:1020F0008846B1B11746A2B100201D466064212078
:1021000084F84100FFF7A6F8E7840646A784A06894
:10211000B0F5805F01D1206930B14FF0000947462A
:1021200004E00120BDE8F8830027C146E08CB8B187
:102130002046802132462B4601F0C5FCB8B927B1B4
:1021400017F8010B2168486006E039F8021B206887
:1021500000276FF35F214160E08C0138E084E5E700
:102160002046402132462B4601F0ADFC10B1032041
:10217000BDE8F883202084F841000020BDE8F88302
:102180007047FEE72DE9F843DFF8489307462A2019
:10219000984615460E46C847074C3846A04728467D
:1021A000A0472B20C8473046A0474046A0472C20D8
:1021B0004946BDE8F84308470125000870B5C34CFF
:1021C000C34E082564206560B04764202560B04791
:1021D0000220C4F800046420B047BE4CEF20A047A2
:1021E000EB20A047BC4D1420A847FE20A047EF20BD
:1021F000A047EB20A0471420A8478420A0474020F8
:10220000A8478520A047FF20A8478620A047FF2099
:10221000A8478720A047FF20A8478820A0470A207A
:10222000A8478920A0472120A8478A20A04700204E
:10223000A8478B20A0478020A8478C20A0470120DA
:10224000A8478D20A0470120A8478E20A047FF2047
:10225000A8478F20A047FF20A847B620A04700200E
:10226000A8472020A8473620A047C820A8473A20E2
:10227000A0470520A8479020A0470820A84708208D
:10228000A8470820A8470820A847BD20A047062047
:10229000A847BC20A0470020A847FF20A0476020F7
:1022A000A8470120A8470420A847C320A04713201F
:1022B000A847C420A0471320A847C920A047222030
:1022C000A847BE20A0471120A847E120A047102022
:1022D000A8470E20A847DF20A0472120A8470C20B0
:1022E000A8470220A847F020A0474520A84709207A
:1022F000A8470820A8470820A8472620A8472A2042
:10230000A847F120A0474320A8477020A847722083
:10231000A8473620A8473720A8476F20A847F220B3
:10232000A0474520A8470920A8470820A84708201B
:10233000A8472620A8472A20A847F320A0474320E3
:10234000A8477020A8477220A8473620A847372002
:10235000A8476F20A847ED20A0471B20A8470B20C7
:10236000A847AE20A0477720A847CD20A0476320EC
:10237000A8477020A0470720A8470720A8470420A7
:10238000A8470E20A8470F20A8470920A8470720E4
:10239000A8470820A8470320A847E820A0473420E2
:1023A000A8476220A0471820A8470D20A847712001
:1023B000A847ED20A8477020A8477020A8471820FC
:1023C000A8470F20A8477120A847EF20A8477020F2
:1023D000A8477020A8476320A0471820A8471120CD
:1023E000A8477120A847F120A8477020A84770206F
:1023F000A8471820A8471320A8477120A847F32012
:10240000A8477020A8477020A8476420A04728202C
:10241000A8472920A847F120A8470120A847F12074
:10242000A8470020A8470720A8476620A0473C20CF
:10243000A8470020A847CD20A8476720A8474520E7
:10244000A8474520A8471020A8470020A8470020FB
:10245000A8470020A8476720A0470020A8473C20A5
:10246000A8470020A8470020A8470020A84701202F
:10247000A8475420A8471020A8473220A8479820F2
:10248000A8477420A0471020A8478520A84780208F
:10249000A8470020A8470020A8474E20A8470020B2
:1024A000A8479820A0473E20A8470720A8473520E6
:1024B000A0472120A0471120A0477820B04729201D
:1024C000A04714203146BDE870400847100801407D
:1024D0007D1000087D2500083D250008B0B51C468C
:1024E0000B4415460244013A013B92B29BB2FFF7FE
:1024F00049FE049804FB05F1BDE8B04000F028B89F
:10250000030A2349C0B24FF4005243EA034340EAAE
:1025100000400A604FF4805283F47F0380F47F0010
:102520004A60C1F800344FF480434B600B60C1F83F
:1025300000044B600B600A60704700BF144900EB59
:1025400000404FF4005280F47F000A6000F025BB89
:1025500010B50F4A4FF40053013000F0F0FC49B1C0
:1025600010F8024B013900F034F910F8034C00F078
:1025700030F9F4E74FF48050106010BD044900EBCF
:1025800000404FF4005280F47F004A6000F005BB29
:10259000100C01402DE9F04F85B03948394C3A4FC5
:1025A00000224FF00008016804F5006641F01001B8
:1025B0000160016801F0100101910199016841F089
:1025C00020010160016801F0200101910199016879
:1025D00041F004010160016801F0040101910199D9
:1025E000016841F0080101604FF40051006800F0FB
:1025F0000800019001983046B8473046FF2101227B
:102600004FF00109B847204616210022B84720465E
:1026100008210122B84704F580654FF2020101222A
:102620002846B8474FF0030B42F2FF00CDE902986D
:10263000DFF858A00190CDF810B001AF3046394610
:10264000D04702203946CDE9029804901620019027
:102650002046D047082000F0A3F82046D0474FF28C
:10266000020000F09DF82846D04704203946CDE905
:10267000028801902846D04705B0BDE8F08F00BF22
:102680001810024000080140491200089D1000087F
:1026900010B50B480B4B0C4C00214FF48042C0E9A5
:1026A0000043C0E90211C0E90421C0E9061101623A
:1026B000FEF7D4FD18B1BDE81040FEF731BC10BDE7
:1026C00018040020A086010000540040B0B50E4858
:1026D00000210A240D4B4FF482724FF40075C0E9BB
:1026E0000A143824C0E90811C0E90032C0E9021117
:1026F000C0E90411C0E90654FFF770F918B1BDE84C
:10270000B040FEF70DBCB0BD6C04002000300140AD
:102710001CB50F4880210F4C002241F61F43CDE924
:10272000002281610921C0E90043C0E90221FFF7CD
:1027300027FA08B1FEF7F4FB05486946FFF7F0F900
:1027400008B1FEF7EDFB0248FFF746FA1CBD00BFDB
:10275000C40400200010004010B50E4C0E490C229D
:102760004FF4E133204640F80C1F0021C0E901314D
:10277000C0E90311C0E90521C161FFF725FC08B1DB
:10278000FEF7CEFB04F10C0021460122BDE810400B
:10279000FFF770BC4001002000380140FEE7FEE773
:1027A0003946CDF810B0CDE90298019070473068F5
:1027B00020F480303060306820F48020704720683A
:1027C00050E8050F216820F0010041E80502002AC9
:1027D000704704EB044484F47F04C2F8004453605F
:1027E0001360704700BF00BF00BF00BF00BF00BF45
:1027F00000BF00BF7047E068006819F081B920464B
:102800004FF48031704702463846314602F0D3BE5D
:102810004DF808ED0546204618F09AFA064620467F
:102820005DF808EB18F071BA00EB8000502101EB65
:102830004000A02190FBF1F070472A461CF09DB8A3
:10284000096801EB8002526841F82020013070478E
:10285000DAF810000CF020BA90F8B41201224908FE
:1028600062F35F01032970474FF4C84005F5A07576
:10287000A4F8400070470BEB0901684301EBE0301E
:10288000C8F8080030B23847DDF874809146A11AC4
:10289000D8F81C00D8F83C3010442A461DF04BB93B
:1028A00029461C220446F863FDF70BBE29463A462A
:1028B0004346CDE9004B5047E96B05F1080220463D
:1028C0007047A98E3246534600B206F023BA0C98E0
:1028D0000EF01EBADDE918041A990DF1340A1C90A5
:1028E00002201E918DF8500020AE704700EB400191
:1028F000535A11443B808978B9707047A88D95F878
:102900003C10002CCDF80C81ADF8210195F82E007B
:102910008DF820118DF823017047DAF804C01CF8F7
:10292000012012010CF8012001F1010C7047009800
:10293000029901378244019805440598084405909E
:10294000704720EAE07023EAE3735B0103EBC020E9
:1029500001F01F03A3EBD20222EAE2727047DDE925
:10296000010409F101090444DDE90310014405985B
:1029700003910644704752F80C1C022332F8042CD1
:10298000009070474DF808ED204607F057FD0028ED
:102990005DF808EB704702220023091A013191FB10
:1029A000F2F16FF060420C184846611C70473846DF
:1029B000002110475BF8140F0BF104030ECB101A23
:1029C00001300690581A461C7047204605F0FCBF9F
:1029D0000446D0E90C204FF48061002300910021CF
:1029E00016F092B82846224601F026BC00F59874ED
:1029F000204602F00ABD00F5F075284602F005BD3C
:102A000004460068083016F057B80844807842EA57
:102A10000040704700220023044616F0DCBC5046FC
:102A200031463A464346B34603F096BCB2FA82F4C6
:102A3000C4F11A03DA4082F02003C4F1190270478E
:102A4000E06A4843012100F15002EF282846704710
:102A500099F84C1001F0E7017047D9F840004FF6A3
:102A6000FF7188427047DDE91D40D5E900C1D5E915
:102A70000223DDE91F6710C5169CCDE965C1CDE9CC
:102A80006723C1C52046704728464FF40031704780
:102A9000204619F035B86CCE024428440130013A82
:102AA000079088190592CA1849460130013A0890E2
:102AB0002046069219F033B828461BF037BF109015
:102AC0002046069107F0CEBF41EA0040384700217A
:102AD000022202231AF01ABA284612F037BE316DCC
:102AE000A0EB0900AC4678436FF3DF31013990FB6E
:102AF000F1F070470138B0FA80F04509204607F040
:102B0000D4BE4DF808ED044618F04CFA0A90204661
:102B10004FF4A02118F06CFA099020464FF4A02140
:102B200018F09DFA089020464FF4A0215DF808EBBC
:102B300018F0FEB9E06A15F045BA306A20F00100DD
:102B40003062306A20F00400704700F01F0101225B
:102B5000C0B202FA01F17047012084F8460084F8FF
:102B60003E0084F83F0084F8400084F8410084F877
:102B7000420084F8430084F8440084F8450084F857
:102B80003D00002010BD206850E8050F216820F0AE
:102B9000400041E80502002A70474FF480524A6025
:102BA000C1F800044FF48040486008600A60704734
:102BB00010211AF03FB9A068006850F8260019F0FB
:102BC00007B80D46064618F051BA0221D9F81C2064
:102BD00090FBF1F006990844D9F81410511A6FF0DF
:102BE0000102013191FBF2F1704700200BF0FABFB6
:102BF00020F47C72103010F47C7101EB02007047FD
:102C000089001AF053BDA868006850F82710504694
:102C10001FF004B9A4EB0B01684301EBE030C8F8E6
:102C2000040006F15A0000B238471D992A46C869C7
:102C3000CB6B214648441CF07EBF387158460CF0DF
:102C4000B1BB38460021224616F083B8119A484697
:102C500031462346009711F079B80C9841460EF0A2
:102C600057B8021B35923219104453183790081B7D
:102C7000389336907047314622464B460090404686
:102C80000DF0EEB84FF000080DF11C0970470598E3
:102C900008F10108834406980544079804447047E6
:102CA00098F81A00B8F8181041EA00400BF01EBE60
:102CB000DBF85010072021F041B8B86831460068B1
:102CC00050F82B80404618F036BC384618F018BF34
:102CD0000746042000EB870015F0EEBE00F1B806B1
:102CE000304602F092BBA21A0224013292FBF4F2A7
:102CF000704700F59875284602F087BB29463A468A
:102D00004346304700EB40014F28284601F150026E
:102D10004FF00101704728464FF400317047D9F851
:102D200038200131C9F840109142704720464FF4D5
:102D3000802118F0EEBA08902046069218F0EFBEF7
:102D40000E98109910909DF868000E9140F00100C7
:102D50008DF86800704720F07F40584730460221C8
:102D600019F0D4BDD9F83000C9F8340070479DF887
:102D70008401559640F040008DF88401704720464C
:102D80002946012201231AF0DDBA1D2100221AF082
:102D900051B8016841F0010101607047016851E8D4
:102DA000051F026821F0010142E80513002B70475E
:102DB00006FB07F12844642291FBF2F10D1A7047DB
:102DC0000C46054616F0BFBC59462B46009410F041
:102DD000BDBF41EA00412846584720464FF4C02174
:102DE00018F0EFBA002105460BF0DABE40460CF0B1
:102DF00085BB606B50F826007047016851E8031FDF
:102E0000026821F0100142E80313002B70470546C9
:102E1000204618F0D2B9284617F0FEBB00F1010A8F
:102E20000A980028704700F15002EF28304670479A
:102E3000204618F0FEB8304612F086BC204607F057
:102E4000D3BD816801F0070106297047204621465D
:102E5000324601F050B9284617F080BB20460022C8
:102E600028479DF8B12042F010028DF8B12070473C
:102E700020460021002213F0AFBD204615460E4625
:102E800018F03EBE044618F0F1B89AF80200BAF8FD
:102E9000001041EA0041284670471E982099081A00
:102EA000411C1C9888427047284617F0D5BA204626
:102EB0004FF4A022384794F85C0000F0F70084F843
:102EC0005C00704706F59E71204608223847C0F323
:102ED0000019384618F078BA2068406940067047F3
:102EE00006F598712046042228470999DDE9070272
:102EF00012F032BE206850E8030F21687047204668
:102F000029464FF40032384700EB80012F28304625
:102F100001F150024FF00101704700200BF062BE3A
:102F2000706800F00C0008287047206850E8030F14
:102F3000216820F0100041E80302002A7047136066
:102F40004FF4805353604FF480437047204605F0A0
:102F5000BFBD401AB0FA80F04009704702463046C3
:102F6000294602F028BB0221D9F8202090FBF1F07D
:102F7000D9F81810511A6FF00102704700EB800069
:102F8000502101EB40006FF09F0190FBF1F0704782
:102F9000A5F1FF00B0FA80F040097047DAF81000A0
:102FA00090F83C1041F0020180F83C10704701EBB2
:102FB000E030C8F800000FFA8AF03847CDE9008108
:102FC0002044294602F01ABD584641460BF0BCBECB
:102FD000D5E90B12504608F09EBB3046FF213A4619
:102FE0001494129415F0B5BE1C9002201E918DF819
:102FF000500070474DF808ED81EA5221C9B21EF029
:10300000AEF80AF808005DF808EB7047C10A5143B2
:103010004FF47F0202EA4121704724F8170004367A
:1030200001377047020A28460BF0A1BADBF85010AE
:10303000082020F083BE019020440394009038467D
:1030400017F02BB950F82880384617F0E9BE03FB7B
:1030500001F207FB102CD5E90062584307FB010081
:103060007047CDE901210C990028CDE9041B704778
:10307000204616F05CBC204618F042BD484607F0DA
:103080000FBB0093002315F03FBD204617F0A0B9F9
:10309000079AA8EB0601284653461CF04CBD024691
:1030A00030460021584785E80F00204614F08ABFBB
:1030B00020464FF40031524618F058BB20464FF4DA
:1030C0004031704730464FF4C021704720460022FF
:1030D00016F01BB941EA00412846384741EA004151
:1030E0002846104794F8280002210228704706F16C
:1030F000C40105F11C0220463847204617F0ACB940
:10310000002084F83C002046704720464FF44032AF
:10311000384720462A463847204600222946384765
:1031200006F14C0120464FF480323847204602F029
:103130006CB9284612F008BB3046294617F09ABEF3
:1031400002990220019A91FBF0F06FF0010192FBCD
:10315000F1F170474DF808ED0546204617F0FCFDEB
:10316000064620465DF808EB17F0D6BDF0682179D9
:103170002A4650F837001BF055BD014620461EF088
:103180007FBF0BEB0401684301EBE030C8F80C0093
:10319000704708440221101A013090FBF1F070478B
:1031A0008DF8C4000C9829460DF0B2BD099A00F0C4
:1031B000C1BF82EA5121C9B21DF0D1BF98F81A00EF
:1031C000B8F8181041EA004070470AEB870234F85B
:1031D00017100AEB0600D2787047C0F3451100F0D3
:1031E0001F0001FB0AF17047DBF85010042020F0AB
:1031F000A5BD48466FF06042002304F045BE284656
:1032000015F05ABC2946324638472C1B6FF0010591
:10321000013494FBF5F404EB020970472020594671
:103220002A464346504700F15002EF28284670478F
:1032300020464FF4807109F0CAB80F992A4600F071
:103240005ABFB4F84400236CB4F84810704794F89F
:103250005C00414600F007027047064616F0CCBB02
:1032600020464FF4A0215A4618F080BA20464A461C
:1032700033461EF073BB4FF4003238474DF808ED6B
:103280002046FEF773FD20465DF808EBFEF76FBDA4
:1032900008998878098841EA0041284670479BF8D8
:1032A0000200BBF8001041EA0041704706F59E712C
:1032B00020460822284741EA004130461BF01FBC47
:1032C0009AF80200BAF80010704700EB80012F282E
:1032D000284601F150024FF00101704706F1D0017C
:1032E00005F17C022046384712201AF0BBB81220A4
:1032F00002211AF08DB8242084F841002068C168AA
:1033000021F40051C160204600F082BB02462846ED
:103310000F2119F08FBD20462946324617F0FBB920
:10332000A8F80000000C88F80200704700990220FD
:1033300091FBF0F06FF0010198FBF1F10844704748
:10334000D9F808002946006850F82470384618F06B
:10335000F2B8284651469BF8082017F087BE002295
:103360000BF0BCBC8DF8C4000C9821460DF0D0BC0D
:10337000099A00F029BF029808F101080744039850
:103380000644704799F8002019F8010C4FF01F0C03
:10339000DB087047DBF85400102118F0C8B850461D
:1033A0004FF4807118F0C3B8384618F0A9BB29440F
:1033B000C0E90034C0E9021270BD2046002238473F
:1033C000204617F0DDBD204618F06EB89DF862006B
:1033D000129500F0FE008DF862007047D4E91212D9
:1033E0001D44009515F090BB284612F0AFB99BF82C
:1033F0000200BBF8001041EA00412046704706F188
:1034000058012046384706F14C0120464FF48032DF
:103410002847E06A502101EB400277284FF0010174
:103420007047E06A4843012100F15002EF2840460E
:10343000704706F1D001204680222847044690F8C4
:103440003D000028704706F1C4012046202228478D
:10345000502101EB8000A02190FBF1F07047204645
:1034600016F0CBBF99F80200B9F80010704741E898
:103470000302002A70473046294617F037BC002364
:10348000054616F0CEBF28464FF4803170470C90A9
:103490004FF000400B9000200A907047189A304679
:1034A00059462346009510F051BC1BF8062034F80D
:1034B000161035F816007047214613F0F5BF504638
:1034C0004FF4007118F033B861F303001421E86081
:1034D0002846704794F828000A21022870474FF4C4
:1034E000003117F06EBFB4F84400236CB4F84810F4
:1034F0005A4670474FF0FF301F991B9F0594ADF857
:1035000058007047E8004FF0011121FA00F0C1B2F5
:10351000704701FA00F010F0170F704748464FF45B
:10352000A02170470146A56C20461DF0A5B8204695
:10353000FEF788BB94F8280001210228704728462E
:10354000FF213047086840F0010008607047416182
:10355000C16841F40051C16000202021606484F8FA
:10356000411084F84210606310BD94F83C10484349
:10357000000A84F83C00704709F11404081A02217B
:10358000013090FBF1F01ECC7047002100224FF07B
:10359000FF33009408F0C7B80B9F584621463A46BF
:1035A00015F043BB049808F10108824405980444CF
:1035B0007047802117F0C4BFC6F1640048436421FE
:1035C00090FBF1F07047E06A4843012100F150029E
:1035D000EF2870479CCF0244204405925A18079068
:1035E000781870471046194632462B461CF0A3BA8D
:1035F000204651464FF400337047404647F6FF716E
:103600001DF03AB8242084F83D002068016821F0BC
:10361000010101607047002084F840002046FEF759
:10362000E9BC02462846214601F0C5BFA21A6FF048
:103630000104013292FBF4F21044704700EB800069
:10364000502101EB4000A02190FBF1F77047584654
:103650002146324615F0E9BA304612F0DBBD40464D
:103660004FF4805117F063BF0269C0E904121BF0E8
:10367000BDBBE06A4843012100F15002EF2830460B
:103680007047204616F063BE284601210BF088BA29
:10369000DDE91C03E96A169A6FF060447047204622
:1036A00059464FF4A023704720464FF4C02170477D
:1036B0000220211D84F83D00206800F0D5B838466E
:1036C00032462B4648474010C8214FF4C87207F0D5
:1036D00043BA584641462A4615F0A7BADBF85400CB
:1036E000202119F078B906F5987120460422384750
:1036F000204616F01FBE204619F006B8B8F1000F9C
:10370000CDF85090CDF84490704740464FF40031CA
:1037100017F063BC20461CF049BCB0FBF3F001304D
:103720006FF31F3000287047002084F83C0070477A
:1037300004F114052ECD05440344121A081A7047EB
:103740000C46054619F02EBE0A981F941D940028B9
:103750007047012100F15002EF283846704720469B
:1037600016F0FCBE6CCE02442844079070180592F7
:103770005A1870474FF000410025CDF844900F9142
:103780007047704710B5F849D1E90120121A02F1CB
:10379000C803C82293FBF2F404FB1233012BBCBF15
:1037A0004FF0FF3010BD431C93FBF2F404FB1232C8
:1037B0008A60EE49085C10BD704782B018B50446B7
:1037C0000120CDE9032394B1032910D103A800F10E
:1037D0000C010091039949B150F8042F32B1059BB7
:1037E00023B1002084E80E00E06000E00120BDE885
:1037F000184002B07047FDF7F3BDB0B590B04FF47C
:10380000E010002402250F904FF48030CDE90B44E6
:10381000CDE909440D950E90CDE9070401200690ED
:103820000A9006A8FDF75CFF18B1EFF3108072B69E
:10383000FEE74FF4806005940221CDE903400F209C
:10384000CDE9010501A8FDF76BFE18B1EFF310807B
:1038500072B6FEE710B0B0BD704700000148FEF739
:10386000F2B900BFC404002070B5214A0368904239
:1038700022D0B0F1804F0BD01E4CA04208D01E4C7D
:10388000A04205D01D4CA04202D01D4CA04203D145
:103890004C6823F070032343B0F1804F10D0154CD7
:1038A000A0420DD0144CA0420AD0144CA04207D024
:1038B000134CA04204D007E04C6823F0700323436C
:1038C000CC6823F4407323434E6923F080030C68D3
:1038D0008D68334390420360C562846203D002F571
:1038E0000062904201D1096901630121416170BD0B
:1038F000002C01400004004000080040003401405A
:10390000000C0040406A0021C185C184FEF73CBA2A
:10391000016851E8031F026821F4907142E8031323
:10392000002BF5D14DF808EDFFF738FA5DF808EBFC
:10393000F8D1016B012906D14DF808EDFFF75DFACA
:103940005DF808EBF8D1202180F8421000210163D6
:10395000704781B090F84210222920D18368024636
:10396000B3F5805F08D152F8281F52F8183C002B9D
:1039700043D003685B6809E052F8281F13B9036954
:10398000002BF6D003685B6803F07F030B701168AF
:1039900001311160C18D0139C185090401D001B027
:1039A00070470168CA6822F02002CA60CA6822F41F
:1039B0008072CA604A6922F001024A61202180F8BF
:1039C000421000214163026B012A1ED101634DF8B0
:1039D00008EDFFF712FA5DF808EBF8D101680A6804
:1039E000D20606D5002200920A680092496800912A
:1039F0000099818D01B0FEF7C6B9026852686FF375
:103A00005F2221F8022B8162C4E701B0FEF744BBBC
:103A1000B0B50446006804F108030ECB056925F42F
:103A2000405519432A4341F20C650261C26863693B
:103A3000AA4319431143C1604169A26921F440714D
:103A4000114341611149884202D0FDF707FE01E0B0
:103A5000FDF70EFE19214843D4E900120C4C9200E8
:103A6000B0FBF2F06422B0FBF2F303FB040032245B
:103A700004EB0010B0FBF2F000F0F00200F00F00D9
:103A800002EB031210448860B0BD00BF0038014053
:103A90009CFFFF0F0023C28543648162222182853F
:103AA00080F842100168006918B1C86840F480705D
:103AB000C860486940F001004861C86840F02000D3
:103AC000C860002070472DE9F0411D4690460F4622
:103AD00004465E1C206800683840B8421DD0002EA5
:103AE000F8D02DB1FDF7B6FBA0EB0800A842F1D944
:103AF000FFF700FA20F4D070FFF7B9FCF8D1FEF719
:103B00005EFEFCD12020002184F8410084F84010A2
:103B100084F842000320BDE8F0810020BDE8F08178
:103B20000148FEF733B900BF4C010020FEE700005A
:103B3000B0B50D49D1E90123D31A03F1C804C82354
:103B400094FBF3F505FB1344C62CC4BF4FF0FF30C4
:103B5000B0BD064CA054501C90FBF3F202FB1300C6
:103B600048600020B0BD00BF40010020640200207A
:103B700058B351B34AB343B3F0B5DDE90554DFF8A8
:103B80004CC0154E154FC0E90E12174A1C49C0E92A
:103B9000103580F848400E4C0E4D114BC0E90837E7
:103BA000C0E90A65C0E90C4CDFF838C0134F0F4B71
:103BB0000F4C104D104EC0E90017C0E90265C0E976
:103BC0000443C0E9062CBDE8F0407047DD650008FD
:103BD00001650008B1650008E9640008613C00085F
:103BE000A53F00084B3F00083D3E00080366000863
:103BF000F5650008413F0008353F0008053D000815
:103C0000693D0008FEB5089D15B1099E042E01D23C
:103C1000012710E00446DDE90A70CDE90070204676
:103C2000FFF7A6FF284600213246C4E913560027B5
:103C300002F074FE67653846FEBD00000648BFF31B
:103C40004F8F064A016801F4E06111430160BFF340
:103C50004F8F00BFFDE700BF0CED00E00400FA0548
:103C600082B02DE9F04792B00DF104098A4605466D
:103C70000DF168084021CDE91A234846CDF844806B
:103C8000FCF796FC119B484640215246FCF7C0FBCE
:103C9000044640284E4611D3671C384602F032FED7
:103CA000B0B100213A46064602F038FE30463946A9
:103CB00052464346CDF84480FCF7AAFBAA6A284640
:103CC000314690474E4504D0304602F017FE00E0E2
:103CD0000024204612B0BDE8F04702B070470268E9
:103CE00000211378303B092B84BF08467047531CD2
:103CF00001EB81010360127802EB41011A46303971
:103D0000EFE700002DE9F0470368894682469847AF
:103D1000DFF850800024DAF83800414601220059CB
:103D200002F0F4FDB0B1DAF8380007593846FCF774
:103D3000A9FBD9F8005006462846FCF7A3FB8642AB
:103D400098BF064638462946324602F0DFFD20B1CC
:103D50000C34E0E70020BDE8F087DAF838002044B2
:103D6000BDE8F087B5B602082DE9F84F8146084650
:103D700015460C4602F090FB2F492846FCF77CFBC9
:103D8000CCB10646206818B102F0B8FD00202060D2
:103D90003046FCF777FB451C0746284602F0B2FD8B
:103DA000206040B100212A4602F0B8FD206831466B
:103DB0003A4602F0ADFDDFF880804FF0000A0026A1
:103DC000D9F8081048468847864232D2002041463A
:103DD000FCF752FB68B354B307466068022826D844
:103DE00004EB8000806830B102F088FD606804EB6D
:103DF0008000C0F808A03846FCF744FB451C834609
:103E0000284602F07FFD616804EB8101886070B193
:103E100000212A4602F082FD606839465A4604EBCA
:103E20008000806802F074FD6068013060600136D7
:103E3000C6E70020BDE8F88F79B2020810B5044645
:103E400015480021322202F069FD601E052808D8BD
:103E5000DFE800F0030B0F13171B0F483349102244
:103E600016E00D4832490C2212E00B4829A1162217
:103E70000EE0094821A117220AE0074817A12022D5
:103E800006E005480CA1242202E0034803A11C22FD
:103E900002F03EFD004810BD800300204154207414
:103EA00068697320737472696E672063616E27742A
:103EB0002062652063757400415420746869732022
:103EC000737472696E6720636F6D6D616E64206ECE
:103ED0006F74206861766520616374004154206EC0
:103EE0006F742066696E64207468697320737472DD
:103EF000696E6720636F6D6D616E64004154206F61
:103F00007574707574206465766963652065727276
:103F10006F720000415420696E707574206465767C
:103F2000696365206572726F720000007DB20208DD
:103F30008DB2020808B1406C70474FF0FF307047F7
:103F400008B1806B70470020704770B586B008B329
:103F5000054600200C460221019001AA052903D044
:103F600042F821000131F9E70020029001AE30460D
:103F700002F092FA6B68284631462246984758B1BB
:103F8000816859B101AD284688470446284602F0A9
:103F900083FA04E0012402E0042400E00524204622
:103FA00006B070BD70B50446C06B41688847C8B1A3
:103FB000E06B8168884794F84820C1B2002801D49A
:103FC0008A4211D18A420DD1E269E16C20469047C4
:103FD0000546D4E913020021002602F09FFC284682
:103FE000666570BD022070BD626DE06C531C636538
:103FF0008154002070BD0000B0B5F14C582104F18F
:10400000B80001F023FA06482121002200251CF007
:104010003DFDC4F8B40002F079FBA4F8B050B0BD87
:10402000396700082DE9F04782460E4608461146DA
:10403000154600F0B5F8B0B13046294600220027F9
:1040400000F078F8002853D1D6E900C0D6E902E1A3
:104050006A68091A824208DDCAE900C0CAE902E2B8
:104060000127706802E0FF2742E00027EA688B1A08
:104070000344012B12DBF3689A420FDAD6F8009062
:10408000D6F808803B0108444AF803900AEB07136E
:104090000137C3E90128D860EA687068F1683368BD
:1040A000AEEB0C0C8A42B8BF1146D5E9002484421D
:1040B000C8BF20469A42C8BF814209DD3C014AF888
:1040C00004300AEB07130137C3E90102D9603368F2
:1040D000AA68ACEB02041C44012C09DB3C016344DC
:1040E0004AF804200AEB07120137C2E90103D16044
:1040F00078B2BDE8F087F0B591E83810D2E90071E8
:10410000D2E90262BB42C8BF1F468C42C8BF2146EB
:10411000B542B8BF2E469445B8BF6246C0E90071AB
:10412000C0E90262B742D8BF914201DD0020F0BD74
:104130000120F0BD2DE9FE430D46076809688F4256
:1041400028DB466869688E4224DBD0F80890A968AD
:1041500089451FDCD0F80C80E86880451ADC1446DD
:10416000DAB1CDE9017601A9FEF73CFC90B1CDE9C9
:10417000019601A9FEF736FC60B1CDE9017801A9ED
:10418000FEF730FC30B1CDE9019801A9FEF72AFC19
:10419000BDE8FE830020BDE8FE830120BDE8FE836C
:1041A0008A68036893420DDC0A688368934209DBDE
:1041B000CA684368934205DC4968C0688842A4BF66
:1041C00001207047002070472DE9FE430D468668A8
:1041D00009688E420DDBC76869688F4209DBD0F839
:1041E0000080A968884504DCD0F80490E86881451F
:1041F00002DD0120BDE8FE8314468AB1CDE90189C4
:1042000001A9FEF7EFFB58B9CDE9016901A9FEF755
:10421000E9FB28B9CDE9018701A9FEF7E3FB10B15D
:104220000020BDE8FE83CDE9016701A9FEF7DAFBB6
:1042300080F00100BDE8FE832DE9FF470C460168D0
:1042400023688B4209DB8768BB4206DC46686368EB
:10425000B34202DBC568AB4203DD002004B0BDE819
:10426000F087012A56DB781AAB1B4FF0020C009145
:1042700001960130013390FBFCF093FBFCF94845BB
:10428000B8BF814668469145A8BF914609EB010A2F
:1042900009EB060821460022CDF808A0CDF80C80D5
:1042A000FFF7CAFF18B108EB090003900CE0039573
:1042B000A5EB09056846214600220195FFF7BCFFE2
:1042C00030B1A5EB090001900AEB090002901CE057
:1042D0000297A7EB09076846214600220097FFF7DF
:1042E000ABFF18B1A5EB090001900BE06846214631
:1042F0000022CDF80C800196FFF79EFF50B108EB2D
:1043000009000390A7EB090000906846214619F0C8
:1043100063F9A3E70120A1E7F0B591E83810D2E9ED
:104320000067D2E90212B342B8BF1E46BC42B8BF12
:1043300027468D42C8BF29469445C8BF6246C0E99A
:104340000067C0E90212F0BDF8B51D4C102104F55C
:10435000967014F05EFD04F59870402101F076F837
:10436000DFF820C00849094A094B0A4D0A4E0B4F95
:104370000B48C4E93F07C4E94165C4E94332C4E9D5
:10438000451CF8BDB57D00087D3D0208DB22020812
:104390005D89000845A70008317E0008ED7D000812
:1043A0001166000810B5064C0021302204F1FC0013
:1043B00014F0CFFC04F58E70BDE8104014F037BF48
:1043C000100500202DE9F04F9DB008B1C06801E054
:1043D0000AF004FCDFF8D0AF0028CAF8100000F0A3
:1043E000B082816A002900F0AC82C169002900F026
:1043F000A8823221FEF7B3FFDAF81000D0F8840269
:1044000018F0D0FFDAF81010D1F8880218B118F0BF
:10441000C9FFDAF81010D1F89002DFF82C45A04758
:10442000DAF81000D0F89402A047DAF81000D0F8BB
:104430009802A047DAF81000D0F88412002900F0A2
:104440007682DFF8089500240DF13408D0F8601268
:104450008C4248D2011991F8401209B10134F5E7B4
:1044600000274FF0400BD0F860128F42F6D2C119EE
:1044700091F8401289BBBC422FD000EB0B0100EB3E
:1044800004104030FFF78CFE38B3DAF8100000EB70
:104490000B0200EB041000F140014046FFF73CFF27
:1044A0004046C8470546DAF8100000EB04104030DB
:1044B000C8470646DAF810005844C84730448542D9
:1044C0000BD2DAF810000DAE6CCE00EB04113844BC
:1044D00040316CC1012180F84012DAF810000BF174
:1044E000100B0137BFE790F83D10012940F095808F
:1044F0000AF0E0FB002800F09080DAF8100000F5E8
:104500001A7000F0EEFF002840F08780DAF8100003
:1045100022F024FCDAF81000416AC2690A91914243
:1045200008BF026A09920AF065FB0890FEF790F94D
:104530000DF1340B079040215846FCF739F8002262
:10454000DAF8100097B2D0F86012B9423ED9C1191A
:104550000B9291F8401211B10B9A0132F0E700F57D
:104560001A7000F052FF80460C97B8F1000FF3D09C
:10457000DAF810004146444600F51A7000F05AFF80
:104580008046DAF81000214600EB071000F14002E7
:104590005846FFF747FD06460130E6D00027D946CA
:1045A000DAF810002146B74200F51A7006DA00F07A
:1045B00068FFBBE82E0001372EC0F1E700F09AFF3C
:1045C000204611F003FB0C9FCB46CEE700F51A7096
:1045D00000F01BFFDDE90968DDE907570446DAF85A
:1045E0001000ACB10AF0F0FA0490404639462A4671
:1045F0002346CDE90067CDE902540AF0B7FDDAF8A9
:104600001000214600F51A7000F014FF0446E6E79A
:1046100000F51A70002100F0DDFEDAF81000D0F885
:104620006012002900F086814FF000084C1E06D46D
:10463000014491F83F1200292146F7D100E00024FF
:104640003421FEF78CFEDAF8100090F83C1090F858
:104650003E2001F0FE0180F83C1042F002010022F1
:1046600080F83E1090F83C1001F0FD0180F83C10FD
:104670000694D0F860128A4280F21281811891F873
:104680004012002940F00881A24205D190F83C1068
:1046900041F0010180F83C1090F83C1000EB02174B
:1046A00007F1400901F0FD0180F83C100892D0F8B4
:1046B0007452416A696090F83D1089B3C5E9038876
:1046C0000AF098FA01386861FEF7C2F801386A69A1
:1046D000297FA861E868101A01300AF079FDA86006
:1046E000DAF810000AF086FA8346FEF7B1F80138CE
:1046F000ABF101030021002200900DA807F013F890
:10470000DAF8100090F83D1001291CD0022940F081
:10471000C28090F83C100DF1340941F002011CE018
:1047200057F8448F39463C4651F804BF54F8086F97
:104730000B91D9F800100C910AF0AEFA8642079757
:1047400013DA276814E090F83C1090F83C2001F050
:10475000010102F0FD0242EA410180F83C10B9E893
:104760000F0005F120060FC692E0FEF771F8471E14
:104770000C9AA6EB08005946DAF8106000F1010B1C
:10478000881A00F1010896F83F0009F0A7FF0446D7
:1047900096F83F0009F08AFF0022B16A0F92CDE936
:1047A0000D220246002C18BF0422824298BF024606
:1047B000B1FBF2F0B0FBF8F05845B8BF83465E4657
:1047C000741EDAF810002F2110940DAA0AF086FA50
:1047D00010990E984A1C101A1146584503DD012EF7
:1047E0002646EDDC00E034460020002CD8BF014610
:1047F0000C910A97C91B09910799096801390C9A0C
:104800004E1C5418BC422BDC09984F46D9F8009036
:10481000D34600EB0108DAF810000B99D1F800A09C
:10482000406A297FC5E903966860AAEB0900C5E9DB
:1048300005A401300AF0CCFCC5F828A0DA46B8F18E
:10484000000FC5E90896EC62A86001D1FEF7A6FB4F
:1048500028461DF033F9B9460A9F21462046CEE787
:10486000069C089A87424FF0000815D0DAF810101D
:104870000B98D9F80020496A0068C5E90326C5E904
:1048800008266960C5E90A07C5E90507FEF786FB42
:1048900028461DF013F9089ADAF810000132E8E60C
:1048A00090F83E20002902F0FD0280F83E2041D021
:1048B0003521FEF754FDDAF810000AF0FBF9014645
:1048C000DAF8100029B390F83D10012921D122F027
:1048D00045FADAF8100040244FF41075D0F8601251
:1048E000A5F510728A4214D2415D79B900F51A70AB
:1048F00000F0E4FDDAF810100A190959D2E901367E
:10490000D26880E84A00C260DAF81000013510343D
:10491000E4E740304FF4007114F047FADAF8100081
:10492000202100F5107014F040FADAF81000002190
:10493000C0F8601200F034F8DAF810003321FEF706
:104940000EFD1DB0BDE8F08FA5D30108E1B600084B
:10495000F8B56E4C202104F1D00014F02EFADFF8E7
:1049600024C00949094A0A4B0A4E0B4F0B4800253F
:10497000C4E93407C4E93665C4E93832C4E93A1CED
:10498000F8BD00BFBD6E0008616E0008516F0008E1
:104990006B6D0208556E00084D6F0008676F0008C8
:1049A00070B55A4D0024702C08BF70BD2E19D6F872
:1049B000540108B111F00AF906F5AA701C2114F08F
:1049C00018FA1C34EFE700BF50497831096859B133
:1049D0004A68824202D00A68824203D10A7E42F0CB
:1049E00001020A761431F1E7704700BF4069474978
:1049F0008867704745498A6F88674261704700BF82
:104A00004248042100F5F07000F020BD3F4820210D
:104A1000343000F01BBD00BF2DE9F04F8BB0DDE955
:104A200014781D4681465BB9B7F5807F08D1B8F58B
:104A3000807F05D10020013A4C1EC9F8000056E0E5
:104A40000020169C01394FF0010BDFF8B0A043465F
:104A5000CDE90600CDE90300501E05913A46CDE9A7
:104A600008010A90CDE9004B03AE29463046D047F5
:104A700006F10800FDF71AFF06F11000FDF716FF1A
:104A800006F11800FDF712FF099BDDF81CC01A465D
:104A90009C45B8BF6246DDE90540DDE903E72146F4
:104AA000A645B8BF71469142A8BF1146C9F800108B
:104AB0000A9D024608992E46A942C8BF0E46874263
:104AC000C8BF3A46B242D8BF3246A942B8BF0D4627
:104AD0008742B8BF3846A842A8BF28469C45C8BFF1
:104AE0006346A645C8BF74469C42D8BF1C46C9E968
:104AF0000104C9F80C200BB0BDE8F08FA9D401085F
:104B000002481821F03000F0A1BC00BF10050020C1
:104B10002DE9F04F8FB0824680465AF8440F20B9F5
:104B2000D8F84810002900F0B382D8F86C90B9F199
:104B3000000F58D000254FF480764C464FF4807714
:104B4000A4B1204616F00AFC0544204616F00AFCE3
:104B500039B24843070A204616F011FC31B24843E7
:104B6000060A204615F078FC0446E9E7280407D138
:104B7000B8B2B0F5807F03D1B0B2B0F5807F14D069
:104B80000020CDE90C000CA9CDE9001038B24FF49B
:104B9000803191FBF0F002B230B291FBF0F003B241
:104BA000684201B2504618F07FFC00200C900A9039
:104BB00098F88C0000F00F00032840F03C81484634
:104BC00015F02AFD0446484615F0C8FC0246DAF8FE
:104BD0000010032023460090484603F053F8054692
:104BE0000C9000243AE1D8F84C10CDF808A0D8F881
:104BF00064A000244FF0000B0844D8F85010C8F807
:104C00004C00D8F848000844C8F8500098F8240030
:104C1000099040420690002003900020CDE904084E
:104C2000BAF1000F00F07B81A14600254FF4807699
:104C300054464FF48077CDE90C5594B1204616F0D8
:104C40008DFB0544204616F08DFB78430712204665
:104C500016F095FB70430612204615F0FDFB044646
:104C6000EBE7D8E913012A04CDE90A0108BFB7F53B
:104C7000807F11D00CA80090002001904FF480306C
:104C800090FBF7F290FBF6F3684201B20AA818F025
:104C90000BFCDDE90A0102E0B6F5807FEAD10029CC
:104CA0004C4600D54942002800D5404288424FF08A
:104CB000000088BF01204BEA000B4FF0000098BFB6
:104CC000012004431021504616F031FC002800F06A
:104CD0009A80504615F012FCC107D9465F46A0469F
:104CE00008BF4FF00009810758BF0027CDF820B05A
:104CF000A346410758BF4FF000080794000758BF6C
:104D00004FF0000B504615F0F1FC0646504615F0EA
:104D1000AFFB0446504615F021FC0546504615F001
:104D20007BFC002E01DC012C12DB5FEAC87103D092
:104D30000B99099A914206DA5FEACB7108D00B9978
:104D4000069A914204DC0C21CDF810A00391514643
:104D5000002D01DC012811DB5FEAC97103D0DDE918
:104D60000921914205DAF90708D00A99069A914279
:104D700004DC0321CDF810A00391514600284FF028
:104D800000024FF000004FF000014FF00003C8BFD9
:104D90000122002CC8BF0120002EC8BF0121002D18
:104DA000C8BF012303EA0903012B04D1DDE909434C
:104DB000A34280F2A2803A4004D00A9A069B9A420B
:104DC00040F39B8011EA080104D00B99099A9142A3
:104DD00080F2938010EA0B0004D00B980699884269
:104DE00040F38B80FEF7DBFADDF820B020B98BF0C2
:104DF0000100C00700F09180FEF761FB98B9079CA5
:104E0000DDF814800AE0FEF7CAFA20B98BF0010041
:104E1000C00700F08480FEF752FB38B984F001002F
:104E2000C00703D17BE0DDF81480079C504615F0E5
:104E300013FB8246F4E6484615F058FC0446484603
:104E400015F016FB0346D8F848100C2022460090B7
:104E5000484602F017FF044600250A9000264846FF
:104E60000027002DC8BF012715F048FB012100F0E5
:104E7000020321EA000281EA53013A4018BF0025EB
:104E8000002D48BF0126314002B919B1002918BFD1
:104E900000250C950021002200F0040300F008001A
:104EA000002CC8BF0122012585EA930385EAD000C2
:104EB0001A4018BF0024002C48BF0121084002B945
:104EC00018B1002818BF00240A940CA90AAA404669
:104ED0001EF0C8FE0A9A0C99484600F049FB98F863
:104EE0000900800700F1D480D8E913010C9A10441E
:104EF0000A9A1144C8E91301CAE00898C0074FF0A4
:104F00000C0018BF0320DDF8148098F88C1001F015
:104F1000F001084488F88C0001E0DDF81480DDF829
:104F20001090DDF808A0B9F1000F00F0B18000206A
:104F300098F88C10C8F86C90C8E91300039801F039
:104F4000F00100F00F000844802188F88C004846EA
:104F500016F0EDFAD14FB8B1484615F0BEFB032864
:104F60001ED0022828D0012838D1D9F818006FF0B7
:104F700060420023411C484602F0F4FFC8F8780064
:104F8000D9F81800421E23E06FF0604039463A46D7
:104F90006FF06043009008F1740006F0C4FB55E028
:104FA000D9F81800D9F82010FDF7F5FC02F0DAFF67
:104FB000C8F87800621E0BE0D9F8201048466FF060
:104FC0006042002302F0CEFFC8F87800D9F8202014
:104FD00048463946002302F0C5FF03E06FF0604009
:104FE000C8F87870C8F88000484615F06DFB0328B3
:104FF0000CD0022816D0012822D1D9F81410FEF7BF
:10500000F8F8C8F87400D9F8142013E0D9F814009F
:10501000D9F81C10FDF7BFFC02F036FFC8F8740089
:10502000621E07E0D9F81C10FEF7E3F8C8F8740018
:10503000D9F81C2048463946002302F025FF03E03A
:105040006FF06040C8F87470C8F87C00D8F874003D
:1050500008B9C8F87470D8F87C0018B96FF06040CF
:10506000C8F87C00D8F8780008B9C8F87870D8F883
:10507000800018B96FF06040C8F8800048460921E8
:10508000002217F0D7FE98F8090080077FF552AD8F
:105090000FB0BDE8F08F00BF2DE9FF41C56E002DB8
:1050A00000F0A580044690F88C00000700F09F8077
:1050B00094F825602846402116F039FA10B90020EE
:1050C000C4E91500284615F0FFFA8046284615F079
:1050D00004FB074694F88C0000F00F00032813D05F
:1050E0000C2840F082800020002F606549D094F8A1
:1050F0002500A16D6423C0F164020020B1B1084411
:10510000514391FBF3F1F9E70020B8F1000FA065DE
:105110004FD094F82500616D6423C0F16402002033
:10512000C1B10844514391FBF3F1F9E70021039029
:105130002046A16503AA00211EF094FD039B574958
:1051400028466FF0604202F00DFF03990A182846C6
:10515000002112E00021029020460022616502A990
:105160001EF080FD029B4D4928466FF0604202F020
:105170008BFE0299002201442846012317F0F2FC1D
:1051800030E0A16DFEF718FAA065284615F070F919
:105190000646284615F0AAFA0246A16D0C203346B1
:1051A0000090284602F06EFD0246A06528460021C8
:1051B00016E0616DFEF700FA6065284615F0CEF93D
:1051C0000646284615F028FA0346616D032032464C
:1051D0000090284602F056FD0146606528460022F0
:1051E00000F0C6F9607A800701D4606D08B1BDE8AF
:1051F000FF81A06D0028FAD1A7B1B8F1000F21D02E
:1052000028460B21224617F015FE607A8007EED45F
:105210000020E06694F88C0000F0F00084F88C0028
:10522000BDE8FF81284615F061FA0746284615F0CB
:105230001FF9002F15DDB0F1FF3FDEDC42422846AA
:10524000002115E0284615F089F90646284615F094
:10525000E3F9002E13DDB0F1FF3FD1DC41422846D7
:1052600013E00128C9DB002FC7D0284600213A46A9
:10527000012317F077FC607A8007B8D4BDE70128D6
:10528000BEDB002EBCD0284631460022012317F099
:1052900069FC607A8007AAD4B2E700BF010000E091
:1052A00070B588B00D46044620B909F097FC044655
:1052B00000285ED0204609F003FD002859D094F85C
:1052C0003E0080071FD40020F5B1CDE90400204640
:1052D00009F090FC01380690204609F0DDFC013809
:1052E00029460790684604AAFEF705FF002840D02B
:1052F00094F83D0002280AD104AB04F140050FCB1D
:105300000FC501202FE0FEE7C4F8600231E06A46D5
:1053100020462F2109F0E2FC01282AD100266D4603
:10532000D4F86002B1B288420BD904EB011000221C
:1053300000F140012846FEF7FDFE01360028EFD0BF
:1053400017E0202831BF69460020C4F8600204A994
:1053500004EB001291E86800C96802F1400C0130CA
:10536000ACE86800D164C4F8600220463121FDF742
:10537000F6FF08B070BD000010B5002116220446EB
:1053800015F074FEC0B218B1E3498A6D824200D2B2
:1053900010BDC96D51F8302001EBC00041682046B6
:1053A000BDE81040104700BF1005002010B5DA4CD2
:1053B000A06DC00013F080FBE06510F015FABDE8A9
:1053C000104010F07BBE00BF002100F003B80021A8
:1053D000AFF30080F8B50C46054608B16E6811E0E1
:1053E00000260FE02868304447681CB13046A047CB
:1053F0003E4607E02846314600F07CF8304610F083
:10540000E5FB3E46002EEDD1F8BD08B1406870477F
:105410000020704710B1021D002102E0002100228F
:1054200000E0126822B1036801311A440432F8E73F
:10543000084670470068084440687047006808588C
:10544000704708B180687047002070470331002220
:1054500021F003018260C0E90012704710B5FDF72A
:10546000CFFA58B121680022425042186368536055
:10547000626802B15050A168606001B110BDA060C7
:1054800010BDB0B5C0B10C46B1B105464068A042F0
:105490000DD02868083013F00FFB68B129686358F5
:1054A0000A1D03B1985043506050845003E02846D1
:1054B000FFF7D4FF00B1B0BD0020B0BD10B5FDF7BF
:1054C0009FFA58B122680023111D4350A3688350EE
:1054D000A26802B150506168A06001B110BD606067
:1054E00010BD28B1416809B9806808B10020704733
:1054F0000120704710B568B142688A420BD002683B
:1055000084688B588C420ED0141D085903B1185171
:1055100000B1835010BD026811444968416041B137
:105520000020885010BD836003B1D0180021416075
:1055300010BD0021816010BD10B50446006882686E
:1055400012B1214690472068006808B12060F6E754
:1055500010BD806808B1C06970470020704780683E
:1055600020B190F82300C0F301107047002070476D
:1055700070B5044652EA01001BD0204615460E467F
:1055800014F0E1F8A0680123D0E9041231442A4460
:10559000C0E90412204631462A4616F02CFB20466C
:1055A0000C21002217F046FC012803D1204616F0FA
:1055B000A7FA012070BD2DE9F04114461546B0B19F
:1055C00061228846074615F051FD80B10646006805
:1055D00068B138464146622215F048FD010606D002
:1055E0003368C2B224F07F41304698470546200E0A
:1055F00060F31F652846BDE8F08100002DE9F04FFB
:1056000097B00546408DDDF880B016461F468A46A5
:105610002A8540F00800688528469BF8082015F088
:1056200025FD2F850446FDF794FE8146688D20F008
:10563000080068854C4500D15ED02E85FDF789FEB7
:105640008046284651462F8503F082FC00689BF86F
:105650000810424619F0E6FA9BF808000C281BD106
:1056600047F6FF74A04518BFA14515D1284615F08F
:105670001BFF022690FBF6F0471C284614F0A8FEFC
:1056800090FBF6F001308742B8BF3846A14508BF0D
:105690008146A04508BF8046B6481830FFF7DEFEB9
:1056A00068B30560C0E902A8C0F8109006469BF8F0
:1056B0000800307101AC204605F0ECF9FF20FDF741
:1056C000E6FE0F4805900F4804900F48CDE90160B1
:1056D000BBF800000D90DBE90301CDE90810BBF831
:1056E000020040420E909DF8520000F0FE008DF83E
:1056F0005200204605F056FA17B0BDE8F08FFEE7DD
:10570000B15F020859600208415E020899481421FD
:105710001830FFF79BBE00BF100500202DE9FC47A5
:1057200004466FEA02086FEA0109002701AD4FF055
:10573000000A608DC0F30510874280F0D280E068D7
:1057400000EBC70149688A0100F1C18089B211EA02
:10575000090201EA0801B1FA81F118BF01224909E1
:105760004A4040F0B48050F8376010212A46304655
:1057700019F003F9002840F0B28030461121FDF7FE
:105780005CF8002840F0AB8030461221FDF755F858
:10579000002840F0A48030461321FDF74EF8002881
:1057A00040F09D8030461521FDF747F8002840F075
:1057B000968030461421FDF740F8002840F08F8095
:1057C00030461621FDF739F8002840F08880304631
:1057D0006A21FDF732F8002840F0818030466B21C5
:1057E000FDF72BF800287AD130460121FDF725F886
:1057F000002874D130460221FDF71FF800286ED131
:1058000030460421FDF719F8002868D130460521FB
:10581000FDF713F8002862D130460621FDF70DF898
:1058200000285CD130460721FDF707F8002856D143
:1058300030463021FDF701F8002850D1304668216C
:10584000FCF7FBFF002840D130466921FCF7F5FF4B
:10585000D8BB30466E21FCF7F0FFB0BB30466C2160
:10586000FCF7EBFF88BB30466D21FCF7E6FF60BB21
:1058700030463A21FCF7E1FF38BB30463B21FCF7CC
:10588000DCFF10BB30463821FCF7D7FFE8B93046C3
:105890003C21FCF7D2FFC0B930463E21FCF7CDFFDA
:1058A00098B930464021FCF7C8FF70B93046412115
:1058B000FCF7C3FF48B930464221FCF7BEFF20B9D0
:1058C00030464821FCF7B9FF18B14FF0020A013702
:1058D0002FE7BAF1000F08BF4FF0010AF7E74FF0CA
:1058E000030A5FFA8AF0BDE8FC87000021480069DE
:1058F000704700BF70470000FF2804BF3F2070477B
:1059000008B900207047802801D8064908E0194AE4
:10591000116B0029F5D07F30926AC0B28242F0D973
:10592000085C70472C6F020870B5134C114E04F1DF
:105930001C0506F5F870294619F048FA0F484FF48F
:1059400096712A461BF0A2F8C6F8100206F50570FB
:10595000214619F03BFA0A484FF4967122461BF093
:1059600095F8C6F8340207480021BDE8704005F0FC
:10597000E9BE00BF10050020FC010020F917020855
:10598000CD110208055302082DE9F041D0B11646A9
:105990000D46044618F0EAFFDFF8888207462046E5
:1059A0002946D8F800209047D8F800200546204422
:1059B000314690472118381A854203D84A5D62550E
:1059C0000135F9E7BDE8F0812DE9F041DFF8F88114
:1059D00014460F4619461D460646D8F8042090473F
:1059E000386030B12868D8F804200021304490474E
:1059F00000E000202060BDE8F08100BF2DE9F04FFD
:105A00008DB0169E1D460EB10023336098B1077805
:105A10008FB181B1179B9C071AD0421C0020012333
:105A200042F201440D2F03D803FA07F5254206D1AF
:105A3000175C0130F6E700200DB0BDE8F08F002FB5
:105A400018BF0130002EF7D04FF0FF313160F3E77F
:105A5000079103F00101039200270FF2701B00224F
:105A60000190029101210A97002900F09480012DF4
:105A7000C0F2918000EB070A00200021CDE90572F9
:105A8000099051480C91426850460CA99047044631
:105A90000C9804954FF000094FF000080B90029805
:105AA000002818BF6FF0604508954FF0FF350027BC
:105AB00000261AF80700002866D04348426850467E
:105AC0000BA990478146079821464A4610F044F8B2
:105AD00006440028039818BF06440899301A8842E3
