:020000040800F2
:1000000058A200206D020008F327000857220008BC
:10001000F1270008FF0E00084D3B0008000000001B
:10002000000000000000000000000000D9370008B8
:100030008112000800000000A337000817380008EC
:10004000870200088702000887020008870200086C
:10005000870200088702000887020008870200085C
:10006000870200088702000887020008870200084C
:10007000870200088702000887020008870200083C
:10008000870200088702000887020008870200082C
:10009000870200088702000887020008870200081C
:1000A000870200088702000887020008870200080C
:1000B00087020008870200088702000887020008FC
:1000C00087020008870200088702000887020008EC
:1000D00087020008413B00088702000887020008E9
:1000E00087020008870200088702000887020008CC
:1000F00087020008870200088702000887020008BC
:1001000087020008870200088702000887020008AB
:1001100087020008870200087D380008870200086F
:10012000870200088702000887020008870200088B
:1001300000F002F800F08BF80AA090E8000C82446E
:100140008344AAF10107DA4501D100F080F8AFF24B
:10015000090EBAE80F0013F0010F18BFFB1A43F0A5
:10016000010318471894020038940200103A24BF83
:1001700078C878C1FAD8520724BF30C830C144BF0C
:1001800004680C607047000000230024002500264E
:10019000103A28BF78C1FBD8520728BF30C148BFEA
:1001A0000B6070476E2900F0CD82702900F0118439
:1001B0006629AFF300806529AFF300806729AFF3AC
:1001C00000806129AFF3008003681B0A28BF41F05B
:1001D0008001692900F07A82642900F0778275290C
:1001E00000F074826F2900F09F83782900F0DD838E
:1001F000E92900F03983E42900F03683F52900F07D
:100200003383EF2900F09C83F82900F0DC83036836
:10021000DB0928BF41F08001632900F0AB85732919
:1002200000F0B085E32900F0BB85F32900F0C0851C
:10023000002070471FB500F03DFE040000200021A3
:1002400024F0C0FE401C60601FBD10B510BD00F062
:10025000F6FD1146FFF7EEFF21F0C2FB00F01CFE99
:1002600003B4FFF7F2FF03BC00F0D6FC0948804757
:1002700009480047FEE7FEE7FEE7FEE7FEE7FEE788
:10028000FEE7FEE7FEE7FEE704480549054A064BA0
:10029000704700007938000831010008589C0020A0
:1002A00058A20020589E0020589E002053EA020CBD
:1002B00000F069802DE9F04B4FF00006002B1FBFC6
:1002C000B3FA83F503FA05F424FA05F65E4012BF8B
:1002D0001643B2FA82F502FA05F4C5F120051EBFF5
:1002E00022FA05FC44EA0C04203556EA044C4FEA95
:1002F000144418BF641C4FF000084FF000099042EE
:1003000071EB030C39D3002919BFB1FA81F701FA57
:1003100007F6B0FA80F700FA07F6C7F120071EBF0C
:1003200020FA07FC46EA0C062037B6FBF4FCA7EBE4
:100330000507103F07F01F0BCBF120062CFA06F63D
:100340000CFA0BFB44BFB3460026202FA4BF5E4629
:100350004FF0000B5BEA060C08BF4FF0010B19EBE6
:100360000B0948EB0608ABFB027C06FB02CC0BFB3F
:1003700003CCC01B71EB0C01C1E70B4602464146A2
:100380004846BDE8F08B13B5084318BF4FF0FF3067
:100390000146AFF30080BDE81C4070477CB51D46A8
:1003A00016460C00009007D04142A14202D32044DF
:1003B000401E01E04FF0FF30064B7B442A46694661
:1003C0000190304600F0D7F9002C02D0009A0021AD
:1003D00011707CBDDF03000010B5044603E009F096
:1003E0001DF9401C09D014F8010B05490028F6D16D
:1003F000BDE810400A2009F011B94FF0FF3010BDE0
:1004000004050020014A00F0B3BB000000000020FA
:1004100040EA0103024630B59B0710D14FF001348A
:1004200000E008C208C91D1B9D4315EAC41FF8D08F
:1004300013F0FF0102F8011B0DD01B0AF8E711F8B9
:10044000013B002B02F8013B05D011F8013B002BCA
:1004500002F8013BF3D130BD10B5431C02E010F8A7
:10046000011B71B18107FAD14FF0013202C88C1A19
:100470008C4314EAC211F9D0C01A0A0603D0C01E78
:1004800010BDC01A10BD0A0401D0801E10BD0902A3
:10049000FCD0401E10BD032A40F2308010F0030C47
:1004A00000F0158011F8013BBCF1020F624498BFC7
:1004B00011F801CB00F8013B38BF11F8013BA2F164
:1004C000040298BF00F801CB38BF00F8013B11F0DF
:1004D000030300F06F83083AC0F0088051F8043B32
:1004E000083A51F804CBA0E80810F5E7121D5CBFEC
:1004F00051F8043B40F8043BAFF30080D20724BF1F
:1005000011F8013B11F801CB48BF11F8012B24BFB2
:1005100000F8013B00F801CB48BF00F8012B704701
:1005200002F0FF0343EA032242EA024200F002B86B
:100530004FF0000200B5134694469646203922BF7C
:10054000A0E80C50A0E80C50B1F12001BFF4F7AFC7
:10055000090728BFA0E80C5048BF0CC05DF804EBA9
:10056000890028BF40F8042B08BF704748BF20F817
:10057000022B11F0804F18BF00F8012B70470000CC
:100580004FF0013C50F8042B51F8043B9A4221D122
:10059000A2EB0C03934313EACC1317D150F8042BAE
:1005A00051F8043B9A4215D1A2EB0C03934313EA92
:1005B000CC130BD150F8042B51F8043B9A4209D1CB
:1005C000A2EB0C03934313EACC13DBD04FF00000F3
:1005D000704700BFD01A01BAB1FA81F101F01801D9
:1005E00022FA01F0CB40DBB2C0B2C01AC1F1200147
:1005F0002CFA01F3D11A914311EAC311E6D17047E5
:1006000070477047704770B5044685690068C10639
:1006100001D5302600E02026C00707D070BDD4E900
:10062000012130469047206A401C20626D1EF6D59D
:1006300070BD70B5044685690078C00707D170BDEC
:10064000D4E9012120209047206A401C20626D1EC1
:10065000F6D570BD09684A0501D540B27047C90595
:10066000FCD500B2704709684A0501D5C0B2704791
:10067000C905FCD580B2704770B50C460546012A05
:1006800005D02878800600D5EA69002302E001231E
:1006900005E05B1C934202D2E05C0028F9D1A86916
:1006A000E618C01AA861286A184428622846FFF78D
:1006B000AAFF04E0D5E9012114F8010B9047B442E8
:1006C000F8D32846FFF7B5FF70BD00002DE9F041D3
:1006D0000646002410687529314616A510D0FFF78C
:1006E000B9FF002802DA404213A507E031688A0703
:1006F00001D512A502E0490704D511A5012401E0A6
:10070000FFF7B1FF00210A2206F1240709E0B0FB40
:10071000F2FCB0FBF2F302FB1C00303078541846B8
:10072000491C0028F3D123462A463046BDE8F04153
:1007300000F0BDBA000000002D0000002B000000FA
:100740002000000011680268006A530501D5087096
:100750000AE0D30501D5088006E0130603D5C217C9
:10076000C1E9000200E008600120704701694A1CED
:1007700002610878704700B58FB0CDE901310021E2
:10078000059105497944CDE903101146684600F00A
:100790002BF90FB000BD0000E5FFFFFFD1E90023FA
:1007A0009A4202D2531C0B60107070472DE9FF5F14
:1007B00015468A460446DFF8AC80F8440027D8E99D
:1007C00000103E46CDE9001010E03AF816106A46D7
:1007D00002A800F0F1FA411C07D02178890603D560
:1007E000E269391891420DD80744761C20788006BA
:1007F00002D5E069B84205DDAE42E6DB3AF8160004
:100800000028E2D1A069C01BA0612046FFF7FBFED3
:10081000D8E90010CDE90010002017E03AF81810D0
:100820006A4602A800F0C8FAB0F1FF3F81460BD03B
:1008300000250DF1080B05E0D4E901211BF80500A6
:1008400090476D1C4D45F7D308F10100B04280463A
:10085000E4DB206A384420622046FFF7EAFEBDE868
:10086000FF9F0000324802002DE9F0418046D21D72
:1008700022F007020025D2E90002F52915A614D0BE
:10088000011E72F1000106DA0023D0EB030063EBD6
:10089000020211A608E0D8F800108B0701D50FA6B8
:1008A00002E0490701D50EA601251146002408F1F2
:1008B000240704E000F0B6F930323A55641C50EADF
:1008C0000102F7D12B46324621464046BDE8F041B1
:1008D00000F0EDB9000000002D0000002B0000002A
:1008E0002000000030B4002100F1240408E002F0F0
:1008F0000705D208303542EA4372DB086554491CCB
:1009000052EA0305F3D10468002310A2250708D595
:1009100004F020040C4304D0C46901230CA2641E1B
:10092000C46130BC00F0C3B910B50446214610685C
:10093000FFF799FE02462046BDE810400023D1E7AC
:10094000D21D22F00701D1E90023CBE7000000000F
:1009500030000000F0B40D460188090502D5214C95
:100960007C4402E01F4C7C440E34002100F124063C
:1009700008E002F00F071209E75D42EA03721B0963
:100980007754491C52EA0307F3D102780023120777
:1009900004D5702D06D009B1022311342246F0BCD3
:1009A00000F085B901231034F8E770B504460D4610
:1009B00021461068FFF757FE024629462046BDE84B
:1009C00070400023C6E7D21D22F00703D3E90023BD
:1009D000C0E70368126843F0200303600823C36183
:1009E0000023B7E7944602002DE9F05F89460446EC
:1009F0004FF0000ADFF874B1FB44C0F820A0204695
:100A0000E1688847002874D0252806D0D4E9012160
:100A10009047206A401C2062F1E700265F4620468E
:100A2000E16888472028054607DB312D05D2781973
:100A300010F8200C08B10643F1E7B00701D526F005
:100A40000406C4F81CA00027C4F818A02A2D09D059
:100A5000284624F0B0FA38B304EB8708303DC8F8D4
:100A6000185019E059F8041B204604EB87029161E5
:100A7000E1688847012F054618D1E069002820DA8F
:100A800026F020061DE0D8F8180000EB800005EBEA
:100A900040003038C8F818002046E168884705460D
:100AA00024F089FA0028EED1012F0AD02E2D08D18A
:100AB0002046E16888477F1C0546022F46F0200645
:100AC000C4DBA069002803DA404246F00106A061B9
:100AD000F00701D026F010066C2D0BD0682D09D040
:100AE0004C2D39D06A2D35D0742D35D07A2D33D098
:100AF00016E038E0E1682F4620468847B8420546B0
:100B000009D16C2F26D04FF48060E168064320465F
:100B10008847054604E06C2F1AD04FF480700643D6
:100B20000DB3A5F14100192802D8203546F400661E
:100B30004A462946204626604E46FFF733FB80B1E1
:100B400001280BD0F61D26F0070000F1080956E732
:100B50004020E4E78020D8E70020D6E706F104092A
:100B60004DE7284652E7206ABDE8F09F2446020080
:100B70002DE9F04115460E46040002D12C6804B957
:100B80000BA4204600F04CF90444207870B12746AD
:100B90003146384600F034F90444207810B1002082
:100BA00004F8010B38462C60BDE8F0810027F9E716
:100BB0000000000010B5203AC0F00B80B1E81850DA
:100BC000A0E81850B1E81850A0E81850203ABFF437
:100BD000F5AF5FEA027C24BFB1E81850A0E81850D6
:100BE00044BF18C918C0BDE810405FEA827C24BF2A
:100BF00051F8043B40F8043B08BF7047D20728BFB8
:100C000031F8023B48BF11F8012B28BF20F8023B06
:100C100048BF00F8012B704701491820ABBEFEE722
:100C20002600020030B5B0F10A0271F100034FEA6C
:100C3000900E4EEA817EB0EB0E0061EB91014FEA1F
:100C4000101E4EEA017E10EB0E0041EB11114FEA2F
:100C5000102E4EEA016E10EB0E0041EB11214FEA0F
:100C6000104E4EEA014E10EB0E0041EB11414018C0
:100C700041F100014FEAD00040EA41704FEAD10152
:100C80004FEA810444EA907410EB800544EB0104C0
:100C90006D1944EB0404521BA3414FF0000348BFFD
:100CA0000A3200D530BD401C41F1000130BD2DE9B4
:100CB000F0470D4699469246044600F12408016823
:100CC000880604D5E06921F01001216000E00120D0
:100CD000A84201DD471B00E00027A1697A1902EB59
:100CE0000900081AA0612078C00602D42046FFF748
:100CF0008AFC002608E0D4E901211AF80600904792
:100D0000206A401C761C20624E45F4DB2078C00629
:100D10000AD52046FFF777FC06E0D4E90121302010
:100D20009047206A401C2062381EA7F10107F4DCBE
:100D300007E0D4E9012118F805009047206A401C1B
:100D40002062281EA5F10105F3DC2046FFF771FCA7
:100D50002078000602D50220BDE8F0870120FBE7DD
:100D600010B5436913B1AFF3008001E0FFF784FCD5
:100D7000012010BD127800F124010A7000224A708F
:100D80000122EDE711684FF0FF32E9E710B5436942
:100D900013B1AFF3008001E0FFF708FD012010BDA3
:100DA000128800F1240182840022C2840122EDE72E
:100DB00011684FF0FF32E9E72DE9F04116460C4685
:100DC000054600F061F8036893F80101012807D097
:100DD000FF2C12D8185D80B101202C70BDE8F08185
:100DE000D3F807013246214603F20713C7182846F5
:100DF000BC46BDE8F041002360474FF0FF30EDE70F
:100E000030B503461D781DB10A4603E0AC4201D15E
:100E1000181A30BD12F8014B002CF7D15B1CF1E71A
:100E200030B503461D783DB10A4612F8014B1CB19E
:100E3000AC42FAD15B1CF5E7181A30BD7047754615
:100E400000F034F8AE4605006946534620F007002E
:100E5000854618B020B5FFF717FABDE820404FF0DF
:100E600000064FF000074FF000084FF0000BAC46B3
:100E7000ACE8C009ACE8C009ACE8C009ACE8C009FE
:100E800021F007018D46704710B500F013F8001DE2
:100E900010BD00BF3141020010B50446AFF3008021
:100EA0002046BDE81040FFF7DBB90000004870475E
:100EB000000100200048704720010020F0B585B0F7
:100EC0000C9FDDE90A5C1FB1022F04D9012014E058
:100ED0000A2403260BE00DAC261D0496012F0D9E5F
:100EE0000FBF0A2404F1080704976468E4B2CDE94F
:100EF000005CCDE9026402F095FE05B0F0BDFEE7AE
:100F0000F8B500F0ADF80C4C0C4F04253220022649
:100F100065606660B84732202660B8473220256099
:100F2000B84700F0EBF81420B8470DF10302A720F2
:100F3000012100F005F8F8BD10080140E113000898
:100F40002DE9F04114460D46064600F0B5F8DFF8ED
:100F500038802A20C0470D4FB8473046C047B847B1
:100F600000F0AAF82B20C047B84745B1681E18BF4B
:100F7000012000F0E3F804F8010B013DF5E700F073
:100F8000ADF80020BDE8F081091200084112000808
:100F90007CB5314C0020ADF804000090607BC007A8
:100FA0001CBF01207CBD6A4601200621FFF7C8FF57
:100FB0009DF8010048B39DF802009DF8031000F071
:100FC0000F0041EA0026EF2E23D89DF804009DF87B
:100FD000051000F00F0041EA0025F02D19D208F0AD
:100FE00098FD032819D8DFE800F0021C2227C6F17B
:100FF000F0001A4B20819DF80000411EC9B2CA00C2
:10100000042938BF23FA02F014E0002020730220E4
:101010007CBD00202073A0607CBD002020730320D5
:101020007CBD9DF800002681C5F1F00502E09DF829
:1010300000002681207307E09DF80000C5F1F0054F
:101040002073C6F1F0002081607B658140F00100D3
:10105000607300207CBD00BFE0000020020104039B
:101060007047000070B5094C4025256000F0AAF8D3
:10107000104E0520B047802020600520B047052095
:1010800044F8045CB047256070BD00BF140C0140FB
:1010900070B5194C4025656000F094F8054E0520A8
:1010A000B047802020600520B04705202560B0476C
:1010B000656070BD2174000870B500F083F80E4CB7
:1010C00080250A2040262560266006F0A9F9052023
:1010D000656006F0A5F9666070BD00BF70B500F0F0
:1010E00071F8054C4025052080266560666006F095
:1010F00097F92560266070BD100C014010B586B0D0
:10110000002040490C4CCDE904000A6842F004027A
:101110000A60096801F00401019103900220029025
:10112000019802A9204600F06BF920460221002216
:1011300000F043FA06B010BD000801402DE9F0416F
:10114000804600F021F84D4D00274024072F0FD88E
:1011500005206C6106F064F9284680212C6100F0BE
:1011600027FA002818BF012040EA46060137EDE7BC
:10117000B8F1000F02D0FFF775FF01E0FFF788FF1D
:10118000F0B2BDE8F08100BF10B586B000201D4967
:101190003A4CCDE904000A6842F008020A60096886
:1011A00001F008010191039080200290019802A9AA
:1011B000204600F025F920468021002200F0FDF9AC
:1011C00006B010BD10B586B000202C4C0490F0483D
:1011D000016841F008010160006800F0080001901A
:1011E000032005900120039080200290019802A91D
:1011F000204600F005F920468021012200F0DDF9AB
:1012000006B010BD18100240F8B50446FFF7DAFF2B
:101210001A4D402600276E61072F88BFF8BDE0B247
:101220008021C209284600F0C8F905202E6106F089
:10123000F7F805206E6106F0F3F801376400EBE77C
:10124000B0B5FFF7A1FF0D4C802020614020206148
:10125000052006F0E5F800252046802100F0A8F9D9
:1012600038B1681CFA2D0546F6D3FFF737FF012089
:10127000B0BD402060610020B0BD00BF000C014047
:101280007047EFF3108072B6FEE700000548D0E922
:101290000110081AC821C83090FBF1F202FB1100BE
:1012A000704700BF6001002010B590F8211002299E
:1012B00012D10168D0E90F230C6824F00E040C60F1
:1012C0000C6824F001040C60012101FA03F353605F
:1012D00080F82110002102E0042181630121002215
:1012E00080F82020084610BD10B590F82110022982
:1012F00019D10268116821F00E011160116821F006
:10130000010111602B4901F17C039A420FD9314B45
:101310009A4224D0304B9A4223D0304B9A4222D169
:101320004FF4807327E004218163012140E0224BC8
:101330009A4226D0214B9A4225D0214B9A4224D062
:10134000204B9A4224D0204B9A4217D01F4B9A42EE
:1013500021D01F4B9A4211D14FF080721DE0012322
:1013600009E0102307E001F588644FF48033A242BE
:1013700008BF4FF48053C1F800340FE04FF48032BF
:101380000BE0012209E0102207E04FF4807204E034
:101390004FF4805201E04FF480120A6000210122D4
:1013A00080F8201080F82120426B0AB1904700217C
:1013B000084610BD04000240080002401C00024024
:1013C0003000024044000240580002406C000240DD
:1013D00080000240080402401C0402403004024025
:1013E000B0B5044600F0EEF805469348611C00785D
:1013F00018BF044400F0E6F8401BA042FAD3B0BD89
:101400002DE9FC4F81465E4806235F4E4FF0000BEE
:101410004FF001084FF00F0E4FF0000A8145594878
:1014200008BF052348444FEAB022052A38BF4FEAD7
:10143000B0230093554B00220C6834FA02F508BF24
:10144000BDE8FC8F08FA02F52C4200F095804F6849
:10145000032F16D9112F26D0122F28D04D4887429E
:1014600013D04D48874210D04C4887420DD04C488D
:1014700087420AD04B48874207D04B48874204D066
:1014800022E0DFE807F002181B1F8C6844B1012C32
:1014900014BFC9F81450C9F810504FF0080A13E0EF
:1014A0004FF0040A10E0CC6804F1040A0CE0CC68A8
:1014B00004F10C0A08E0D1F80CA005E0CC6804F1B6
:1014C000080A01E04FF0000A5C4648469C46082A9C
:1014D000334628BF203C28BF043006680EFA04F7C4
:1014E0000AFA04F4BE4334430460C879C00602D447
:1014F0001E46634640E05F4C22F003061E4420680F
:1015000040F001002060206800F0010001900BF025
:101510000C00019F0EFA00F4244FBE46F75927EA4B
:101520000404009F07FA00F0204346F80E001E4610
:101530004FF00F0E4F68F802986854BF20EA050478
:1015400040EA05046346B460B802186854BF20EA54
:10155000050440EA05041C60B803706854BF20EA23
:10156000050440EA05047460F803306854BF20EABB
:10157000050440EA050434600BF1040B01325BE71B
:10158000001C014000F8FEBF000401400C040140B3
:10159000181002400000111000001210000021106D
:1015A00000002210000031100000321008FCFFFF84
:1015B0008068084018BF01207047002A08BF09044E
:1015C0000161704705480068704700BF1A48034929
:1015D00000780A6810440860704700BF4C9C0020E7
:1015E00080B59648016841F010010160032000F0C9
:1015F0007BF80F2000F004F800F020F8002080BDF8
:1016000070B50D4E04464FF47A713078B1FBF0F0AE
:1016100097490968B1FBF0F000F0D6FA01250F2CCC
:1016200008D838B94FF0FF3021460022002500F0DD
:1016300035F87460284670BD0400002082B00D4863
:101640000222016841F001010160016801F001011D
:1016500001910199416841F080514160406800F07A
:101660008050009000980448016862F31A6101609C
:1016700002B070471810024004000140002809D44D
:10168000734601F03AFA9E46034A42EAD00020F03F
:1016900003000160704700BF00E100E0F0B5184BA7
:1016A0004FF0FF361C68C4F30224E51E84F00704E3
:1016B00038BF002506FA05F7BA43042C28BF0424D6
:1016C00006FA04F4A14300F00F04A940043C1143BE
:1016D000044A234409010244002848BF03F10C02D4
:1016E0001170F0BD00E400E005494FF6FF030A6801
:1016F0001A4060F30A22034810430860704700BF95
:101700000CED00E00000FA0502F0A8FA2DE9F8431C
:1017100000286CD0884649490446086800F0070054
:1017200040450AD2086820F0070040EA0800086037
:10173000086800F00700404559D120685B4B894696
:10174000810711D5410703D5196841F4E06119609B
:10175000010703D5196841F460511960A1681A683E
:1017600022F0F00211431960C00737D1D9F8000008
:1017700000F0070040450DD9D9F8000020F007001F
:1017800040EA0800C9F80000D9F8000000F007009E
:1017900040452CD12068410705D5E1681A6822F43C
:1017A000E06211431960000706D52069196821F429
:1017B000605141EAC00018601C4600F05DF82168E5
:1017C0001F4AC1F30311515CC840294908601D48F4
:1017D0000068FFF715FF0020BDE8F8836068022865
:1017E00008D0012825D153F8041C890306D4012010
:1017F000BDE8F88353F8041C8901F8D519681D4623
:1018000021F0030108431860FFF7DCFE064641F2B1
:101810008837606829682B4601F00C01B1EB800F16
:10182000A4D0FFF7CFFE801BB842F2D90320BDE859
:10183000F88353F8041C8907D9D5DFE7002002405C
:101840004C50020808000020DD481849094A006889
:101850000968C1F30221515CC8407047D848134958
:10186000044A00680968C1F3C221515CC84070474E
:101870005C0000205C50020810B50C490C480A6856
:1018800002F00C03082B07D1C2F3834309A4D2034F
:10189000E35C02D40C48584310BD096809A25843C0
:1018A000C1F34041515CB0FBF1F010BD04100240A7
:1018B00000127A0002030405060708090A0B0C0D42
:1018C0000E0F10100102000000093D002DE9FC413F
:1018D000002800F09C8004460078B74EC0071FD057
:1018E000706800F00C00042814D001F03EFB02D117
:1018F0007068C0030ED46068002800F01481B0F551
:10190000A02F00F02181B0F5803F00F0218100F090
:1019100078FF20E13068800302D56068002876D027
:101920002078800716D5706810F00C0F05D001F0F4
:101930001CFB24D17068C00321D43068800702D515
:101940002069012863D16069316821F0F80141EA1A
:10195000C00030602078000741D5A06910B39748D7
:101960000121C0F88014FFF72DFE0546706A80073C
:1019700028D4FFF727FE401B0228F7D9F8E0216999
:101980008E48002900F08E8001210160FFF71AFEC9
:10199000054630688007D6D4FFF714FE401B0228A6
:1019A000F7D9E5E085480021C0F88014FFF70AFE6A
:1019B0000546706A800712D5FFF704FE401B022817
:1019C000F7D9D5E07E484FF4FA510068B0FBF1F04A
:1019D000019000BF0198411E00280191F9D12078A3
:1019E000400717D4E7697FB101F0BFFA3CD1012F5E
:1019F0000DD0216A706800F480328A4207D1616A92
:101A000000F47010884202D10020BDE8FC81012062
:101A1000BDE8FC81F06910F0805808D1F06940F011
:101A20008050F061F06900F0805000900098654FA0
:101A30003868C0050FD4386840F480703860FFF70C
:101A4000C1FD05463868C00505D4FFF7BBFD401B46
:101A50006428F7D98CE0E068A0B3052844D00128B9
:101A600046D001F042F846E0544900208846086616
:101A7000FFF7A8FD0546022F0AD1474630688001CE
:101A800079D5FFF79FFD411B03200229F6D9BCE75A
:101A900030688001B8D5FFF795FD411B032002296E
:101AA000F6D9B2E700210160FFF78CFD05463068EA
:101AB00080077FF54FAFFFF785FD411B032002290B
:101AC000F5D9A2E701F011F83062FFF77BFD05467A
:101AD00041F28837306A80071CD5FFF773FD411B40
:101AE0000320B942F6D990E7306A40F00400306232
:101AF000306A40F001003062FFF764FD054641F2B4
:101B00008837306A800705D4FFF75CFD401BB84278
:101B1000F7D92DE0B8F1000F7FF464AFF06920F041
:101B20008050F0615EE700F06CFE3060FFF74AFD28
:101B30000546306880037FF5F3AEFFF743FD411B98
:101B400003206429F5D960E7306840F480203060D4
:101B5000306840F480303060FFF734FD054630686F
:101B600080033FF5DDAEFFF72DFD401B6428F6D95D
:101B70000320BDE8FC81206AB0F5803F05D1A16853
:101B8000726822F4003211437160616A726822F453
:101B9000741211430843706001203866FFF712FD8C
:101BA0000446306880013FF52FAFFFF70BFD011BA6
:101BB00003200229F5D928E7001002400000424224
:101BC0005C00002000700040411E0020B0EB116F4F
:101BD0001CBF01207047044AF023516003490B7079
:101BE000072190601160704710E000E023ED00E0F5
:101BF0007047704710B590F83C300222012B26D078
:101C000080F83D2002680B68546824F070041C437F
:101C10009368B2F1804F54600ED03A4CA2420BD080
:101C2000394CA24208D0394CA24205D0384CA242CD
:101C300002D0384CA24204D1496823F080031943F2
:101C400091600022012180F83C2080F83D10104670
:101C500010BD00BF58B110B501F029FC03D101F04F
:101C600095FA00F007F801F036FD00F027BF0120DB
:101C700070470000E0B500687649884218BF8CBD07
:101C800009480022016841F010010160002100684C
:101C900000F01000019001983620FFF7FFFC36207D
:101CA000BDE88C40FFF7EABC1C10024090F83D10E4
:101CB00001291CBF01207047022180F83D100068F7
:101CC000C168B0F1804F41F00101C1600ED00D49F3
:101CD00088420BD00C49884208D00C49884205D074
:101CE0000B49884202D00B49884204D1724601F068
:101CF00076F8964603D0724601F002F89646002028
:101D0000704700BF0004004000080040000C004085
:101D100000340140002C0140704710B504460068B3
:101D20000169890712D5C16889070FD56FF00201D3
:101D30000161012121778069800702D001F018FC40
:101D400001E001F0F2FA00202077206801694907DC
:101D500013D5C168490710D56FF004010161022154
:101D60002177806910F4407F02D001F001FC01E08E
:101D700001F0DBFA0020207720680169090712D5FD
:101D8000C16809070FD56FF00801016104212177AF
:101D9000C069800702D001F0EBFB01E001F0C5FA59
:101DA0000020207720680169C90613D5C168C906DB
:101DB00010D56FF01001016108212177C06910F47E
:101DC000407F02D001F0D4FB01E001F0AEFA002028
:101DD000207720680169C90709D0C168C90706D002
:101DE0006FF001010161204600F02CF820680169C4
:101DF000090609D5C168090606D56FF080010161A1
:101E00002046FFF7F5FE20680169490609D5C1683B
:101E1000490606D56FF040010161204600F01CF82C
:101E200020680169890602D5C168890600D410BD01
:101E30006FF0200101612046BDE81040FFF7D9BED8
:101E40007047704700680349884218BF70470120F7
:101E50001FF02EB900100040704770477047000017
:101E60007CB5044600680268C168456913073FD025
:101E700001F4907605F0010576193DD0D60705D01E
:101E8000CE0503D5666C46F001066664560704D598
:101E90001DB1666C46F002066664960704D51DB156
:101EA000666C46F004066664002B07D501F020033B
:101EB0005B1903D0636C43F008036364636C002B0D
:101EC00000F0E080920605D5890603D5204601F092
:101ED00050FD20684069616C00F0400001F008018D
:101EE000401847D12046FFF7B9FF00206064C9E0E1
:101EF000930601D58B0654D4236B012B03D1D30653
:101F000001D5CB0652D4130601D50B0611D45206C7
:101F100040F1B880490640F1B580C16821F0400128
:101F2000C160202084F841002046BDE87C4000F0DC
:101F300091B994F84110212940F0A480A168B1F52D
:101F4000805F03D12169002900F09D80216A4A1C2D
:101F5000226209784160E18C0139E184090440F092
:101F60009180C16821F08001C160C16841F04001E9
:101F7000C1607CBD204601F0DBFC00F0ADFF4DD51B
:101F800000F0C2FDFCD1E06B002847D0424941631C
:101F9000FFF7AAF9002875D0E06B416BBDE87C40E3
:101FA00008472046BDE87C4001F0E3BC00210191D8
:101FB000016801914168019101994069400632D45C
:101FC000E08DA18DE28D002A5CD081425AD0081AA2
:101FD000216851E8031F226821F4907142E803133D
:101FE000002BF5D1216851E8051F226821F001017D
:101FF00042E80513002BF5D1202184F8421000217E
:102000002163216851E8031F226821F0100142E892
:102010000313002BF5D1022161632DE02046BDE8BA
:102020007C40FFF71BBFE06B016849688AB24AB386
:10203000A38D9A4226D2E1858069202817D000F02E
:1020400065FF20F4807001F037FAF8D100F0E1FB71
:10205000FCD100F059FDFCD1202084F84200002082
:10206000206300F087FFFCD1E06BFFF71DF9022031
:102070006063A08DE18D401A81B22046BDE87C40AE
:10208000FFF7EBBE7CBD216A31F8022B6FF35F22B4
:10209000216242605FE700BF2539000890B110B5AA
:1020A000044690F8410008B901F0D2FA01F077F93E
:1020B0002068016921F490410161416921F02A0100
:1020C00001F059BA0120704770B586B01C4C006809
:1020D0000026049604F5405188422FD11948016822
:1020E00041F480410160016801F48041019101994E
:1020F000016841F004010160006800F004000190F3
:1021000003200590022003904FF400700290019884
:1021100002AD20462946FFF773F94FF48060294647
:10212000CDE9036602902046FFF76AF925200221D7
:102130000022FFF7B3FA2520FFF7A0FA06B070BD22
:10214000000801401810024010B590F84230202BD2
:1021500006D139B132B10024046301F0ABFC02E0D6
:10216000022400E00124204610BD000010B5044602
:1021700000680D49884218BF10BD0C48D0E9011213
:10218000891AC822C83191FBF2F303FB1211C62948
:1021900002DC007801F0DCFC044920460122BDE8A5
:1021A0001040FFF7D1BF00BF0038014060010020A0
:1021B0002DE9F843044690F8410020281CBF022076
:1021C000BDE8F8838846B1B11746A2B100201D468C
:1021D0006064212084F84100FFF7F4F9E7840646A3
:1021E000A784A068B0F5805F01D1206930B14FF0BD
:1021F0000009474604E00120BDE8F8830027C146F6
:10220000E08CB8B12046802132462B4601F06BFCB1
:10221000B8B927B117F8010B2168486006E039F812
:10222000021B206800276FF35F214160E08C0138BA
:10223000E084E5E72046402132462B4601F053FC7E
:1022400010B10320BDE8F883202084F8410000206D
:10225000BDE8F8837047FEE72DE9F843DFF84893BF
:1022600007462A20984615460E46C847074C38466A
:10227000A0472846A0472B20C8473046A0474046E5
:10228000A0472C204946BDE8F8430847D52500085B
:1022900070B5C34CC34E082564206560B047642008
:1022A0002560B0470220C4F800046420B047BE4C4B
:1022B000EF20A047EB20A047BC4D1420A847FE20EC
:1022C000A047EF20A047EB20A0471420A847842078
:1022D000A0474020A8478520A047FF20A847862088
:1022E000A047FF20A8478720A047FF20A8478820B5
:1022F000A0470A20A8478920A0472120A8478A2074
:10230000A0470020A8478B20A0478020A8478C200A
:10231000A0470120A8478D20A0470120A8478E2074
:10232000A047FF20A8478F20A047FF20A847B6203E
:10233000A0470020A8472020A8473620A047082013
:10234000A8473A20A0470520A8479020A04708208A
:10235000A8470820A8470820A8470820A847BD206C
:10236000A0470620A847BC20A0470020A847FF2080
:10237000A0476020A8470120A8470420A847C32001
:10238000A0471320A847C420A0471320A847C9206E
:10239000A0472220A847BE20A0471120A847E1203F
:1023A000A0471020A8470E20A847DF20A0472120E3
:1023B000A8470C20A8470220A847F020A0474520A6
:1023C000A8470920A8470820A8470820A847262092
:1023D000A8472A20A847F120A0474320A8477020FB
:1023E000A8477220A8473620A8473720A8476F2063
:1023F000A847F220A0474520A8470920A847082061
:10240000A8470820A8472620A8472A20A847F32045
:10241000A0474320A8477020A8477220A84736202D
:10242000A8473720A8476F20A847ED20A0471B20CA
:10243000A8470B20A847AE20A0477720A847CD206B
:10244000A0476320A8477020A0470720A84707207F
:10245000A8470420A8470E20A8470F20A847092016
:10246000A8470720A8470820A8470320A847E82036
:10247000A0473420A8476220A0471820A8470D2075
:10248000A8477120A847ED20A8477020A8477020D2
:10249000A8471820A8470F20A8477120A847EF2079
:1024A000A8477020A8477020A8476320A04718209D
:1024B000A8471120A8477120A847F120A8477020FD
:1024C000A8477020A8471820A8471320A8477120C4
:1024D000A847F320A8477020A8477020A847642089
:1024E000A0472820A8472920A847F120A847012075
:1024F000A847F120A8470020A8470720A847662042
:10250000A0473C20A8470020A847CD20A847672027
:10251000A8474520A8474520A8471020A8470020E5
:10252000A8470020A8470020A8476720A047002010
:10253000A8473C20A8470020A8470020A847002023
:10254000A8470120A8475420A8471020A8473220B8
:10255000A8479820A8477420A0471020A8478520A6
:10256000A8478020A8470020A8470020A8474E2061
:10257000A8470020A8479820A0473E20A84707204A
:10258000A8473520A0472120A0471120A047782048
:10259000B0472920A04714203146BDE870400847C5
:1025A00010080140E1130008512600081126000818
:1025B000B0B51C460B4415460244013A013B92B2A9
:1025C0009BB2FFF749FE049804FB05F1BDE8B0405B
:1025D00000F028B8030A2349C0B24FF4005243EA7E
:1025E000034340EA00400A604FF4805283F47F03C3
:1025F00080F47F004A60C1F800344FF480434B60A0
:102600000B60C1F800044B600B600A60704700BFAC
:10261000144900EB00404FF4005280F47F000A6040
:1026200000F07CBA10B50F4A4FF40053013000F0AF
:10263000ABFC49B110F8024B013900F0F4F810F886
:10264000034C00F0F0F8F4E74FF48050106010BD38
:10265000044900EB00404FF4005280F47F004A60D0
:1026600000F05CBA100C01402DE9F04F85B03948FC
:10267000394C3A4F00224FF00008016804F500661B
:1026800041F010010160016801F010010191019910
:10269000016841F020010160016801F02001019111
:1026A0000199016841F004010160016801F0040131
:1026B00001910199016841F0080101604FF4005156
:1026C000006800F00800019001983046B847304695
:1026D000FF2101224FF00109B84720460E210122B7
:1026E000B847204610210022B84704F580654FF214
:1026F000C20101222846B8474FF0030B42F2FF0007
:10270000CDE90298DFF858A00190CDF810B001AFE4
:1027100030463946D0470E2000F06CF82046D047AE
:1027200002203946CDE902980490102001902046FD
:10273000D0474FF2C20000F05DF82846D047042091
:102740003946CDE9028801902846D04705B0BDE85A
:10275000F08F00BF1810024000080140BB150008B0
:10276000011400081CB50F4880210F4C002241F6CF
:102770001F43CDE9002281610921C0E90043C0E97E
:102780000221FFF767FA08B1FEF77BFD05486946AD
:10279000FFF730FA08B1FEF774FD0248FFF786FA3A
:1027A0001CBD00BF240800200010004010B50E4CD6
:1027B0000E490C224FF4E133204640F80C1F002153
:1027C000C0E90131C0E90311C0E90521C161FFF78A
:1027D00065FC08B1FEF755FD04F10C00214601220D
:1027E000BDE81040FFF7B0BC600100200038014098
:1027F000FEE7FEE73946CDF810B0CDE9029801902A
:102800007047306820F480303060306820F48020D9
:102810007047206850E8050F216820F0010041E86A
:102820000502002A704704EB044484F47F04C2F8D4
:10283000004453601360704700BF00BF00BF00BF7B
:1028400000BF00BF00BF00BF704701EB410189001E
:1028500016F01CBAE068006819F0BCBE4DF808ED2F
:1028600008F0C4F900285DF808EB7047081A01B2B7
:1028700080EAE132A2EBE1310FFA89F289EAE23330
:1028800089B2A3EBE23292B29142704720464FF4F4
:10289000803170473046294618F0FCBFBBF816005F
:1028A000BBF81A10728B009CB146081A0221013045
:1028B00000B290FBF1F0F18A511A6FF00102013180
:1028C00009B291FBF2F10844704700EB80005021FF
:1028D00001EB4000A02190FBF1F070472A461CF06C
:1028E00003BD096801EB8002526841F820200130E5
:1028F0007047304603210022704701EBD030A9F821
:1029000004000FFA8BF04047BBF80010BBF804201E
:10291000511A013109B2081A022190FBF1F0BDF8F9
:10292000B010084470475946224643460090484636
:102930000DF0ECBDB8F81500C0F38A000730C008F0
:1029400000FB05F170470144ADF85010BDF854107C
:102950000844BDF85210ADF85400B9F80200014423
:10296000ADF85210BDF856100844704721EA000037
:102970001B996FF30F0308447047011BADF8E0107B
:10298000291908445318ADF8E400101BADF8E630DF
:10299000ADF8E200704709B21BB2019030460DF06D
:1029A000B5BF4518BDF86400ADF86C00BDF868000F
:1029B000ADF8700002208DF8580070478DF8440083
:1029C0002046CDE900BA06F025BB36F8140F718811
:1029D000F288511A01310791B188081A0130089024
:1029E0007047204617F0E7BB606A202289B20AF0E0
:1029F000A5B9284612F06EBB2846FDF7C1BD0246B8
:102A00003046002148470021022202231AF0D8BD97
:102A100042F2640142F264021AF02CBF52F80C1C1C
:102A2000022332F8042C009070470446D0E90A20B3
:102A30004FF4806500210023009516F04BB8044642
:102A40000068083016F058B8504631463A464346BA
:102A5000B34603F09ABBB2FA82F4C4F11A03DA4027
:102A600082F02003C4F119027047B4F93010B4F9B0
:102A7000322035B2009516F02DB8204608F086B900
:102A8000204619F0A7BD0398049D069AA9EB0A01F8
:102A9000009020462B461EF0F2BD28464FF48021C0
:102AA00019F0EEB929682046002201F0AABB019076
:102AB000012009900020CDE907007047012084F82B
:102AC000460084F83E0084F83F0084F8400084F813
:102AD000410084F8420084F8430084F8440084F8FC
:102AE000450084F83D00002010BD306A20F0010050
:102AF0003062306A20F00400704700F01F010122AC
:102B0000C0B202FA01F17047206850E8050F216851
:102B100020F0400041E80502002A70474FF480523F
:102B20004A60C1F800044FF48040486008600A60C1
:102B300070470F2112F0D4BAD8E90020042112F016
:102B4000CFBA02220023091A013109B291FBF2F136
:102B500041F6FF720F18781C01B250467047ADF86D
:102B60008C10618B0144ADF89210E18A081A70470D
:102B70000D46064619F073B8BBF81400BBF81810E0
:102B8000328B009CB146081A0221013000B290FB42
:102B9000F1F0B18A511A6FF00102013109B291FBD3
:102BA000F2F10844704700200CF0ACBCBBF80820E0
:102BB00019F055B80168C9688A6922F002028A6171
:102BC000704701EBD030A9F802000BF15A0000B2B7
:102BD0004047707FB6F91430A9EB0A0122460090F5
:102BE00007EB0A001EF04BBD4DF808ED81EA5221BB
:102BF000C9B21EF0B0FF0AF808005DF808EB704794
:102C0000B6F80100C0F38A0000FB05403844704765
:102C1000B8F81500C0F38A000330800800FB05F106
:102C200070475A3000B21EF0A3BC081ABDF87810E5
:102C3000013000B21690BDF87400081A01307047D8
:102C4000BDF8E2000BF1010B0130ADF8E200BDF878
:102C5000E6000130ADF8E60070471198ADF87260FB
:102C6000ADF86E6000287047002118F0F8BF002210
:102C7000E86800F1180120463047204619F0C1B934
:102C8000022117F03FBBB9F92030B9F81E00D9E98D
:102C90000512C518E068009515F01CBFE169626A6D
:102CA000521A504301EBA020BCBD29463A46434688
:102CB00030470446D01A05B2002D7047284612F05E
:102CC00009BA20464FF4003118F0C9BEADF84600ED
:102CD00028440138ADF84A007047BDF85600BDF8E9
:102CE0005A10081A013001B2BDF9520088427047EB
:102CF00048464FF4403170471C21002212F0F0B9D1
:102D0000016841F0010101607047016851E8051F49
:102D1000026821F0010142E80513002B704740468C
:102D20004FF4805119F0A8B9CDF808805846009C9E
:102D300017F0E1BF284618F0E9B80E980F9900B2D5
:102D40000FFA81FAAAEB000B7047BDF96A0034B2A2
:102D500084427047706DF56850470899304601F01D
:102D600073B9511A0222013109B291FBF2F1704795
:102D700020461DF097BC016851E8031F026821F04E
:102D8000100142E80313002B70474FF4002119F0A3
:102D900073B9284618F022B90B9D204621462A46D1
:102DA00001F052B9BDF95C1022B2504633460DF025
:102DB00043BBE8684FF4803200F1080120463047F9
:102DC00000F0070003287047BDF83E00BDF8421030
:102DD000081A0130704720464FF4E021704781689F
:102DE00001F0070106297047204618F0BEBCCDE966
:102DF0000700204612F074B900210DF099B98DF842
:102E00009000504629460EF07CBEF0684FF4A02298
:102E100000F1200120463847BDF85400081A01305F
:102E200007B2BE42704784F85C00606A1AF0B0BE18
:102E300042F2D1740646001BB0FA80F070470D983C
:102E4000DDF840A0B438CAF808507047584622460A
:102E50000DF0F2BA706DF46850474FF6FD7192B202
:102E600088424FF0000070470899DDE9060212F031
:102E700057BA081A013001B2114432B29142704778
:102E8000ADF85E000E9800B2AAEB000B70472A4620
:102E900001F005B9706DF46803215047002118F066
:102EA00089BD204608F06EB9002201F0F8B80C98F0
:102EB0001EF05EBB2A4601F056B9204617F098BFB7
:102EC0005246434628460DF01BB994F8480000F0DE
:102ED000F70084F848007047206840694006704752
:102EE000284619F077BBBBF15A0FDDF84490DDF8A6
:102EF00008B0704750460EF004BE00F16001204655
:102F0000384720461B213A4612F0EAB8206850E8BC
:102F1000030F21687047284618F06BBDB9F1010F07
:102F2000ADF82640ADF822407047014605F120007B
:102F30001047204617F0CBBE284618F0D7BC04999E
:102F40005046324615F070BF706DF4680A21504744
:102F5000204617F0DBBF284618F0ACBD706DF46852
:102F600002215047204618F010BC706800F00C0099
:102F700008287047206850E8030F216820F01000EF
:102F800041E80302002A704713604FF480535360F6
:102F90004FF480437047204606F0E9BCD8E9002092
:102FA000072112F09DB8B8683146006850F82B80B0
:102FB000404619F065B8A068006850F8260019F07E
:102FC00070BB618B0144ADF80610218B0144ADF854
:102FD0000410E18A091AADF80210A18A081A704794
:102FE00000EB8000502101EB40006FF09F0190FB4F
:102FF000F1F070474FF6FF7100221AF0B1BD01EBFE
:10300000D030A9F806007047BBF800100844BBF8A0
:103010000410081ABDF8B01008440130704782EA65
:103020005121C9B21EF097BDB8F81500C0F38A004F
:103030000130400800FB05F170470B9D01462A4610
:1030400001F002B800EB410018991B901C9800EBAE
:1030500041007047BDF9E0100FFA8BF238462B465D
:103060000DF0EAB9BDF86400BDF86660ADF86C001B
:10307000BDF86800ADF8700002208DF8580012AF5E
:103080007047384619F0A6BAF068042200F1A00192
:10309000204638470093002315F01CBD84F83C00FF
:1030A00020461FF097B942F2640142F2D1721AF041
:1030B000E1BB0446D0E90A204FF48061002300916F
:1030C000002115F007BDCDE901210C990028CDE9BB
:1030D000041B7047204619F07DBAA1868BB210F808
:1030E000133013F0280F704720464FF4003118F0CA
:1030F0008BBD94F83C0000F0EF0084F83C00704772
:103100006FF00200BDF85810BDF950600494023011
:10311000ADF84C00704730461A212A4611F0E0BF46
:103120004FF4A02118F013BD606A14F039BF28468F
:1031300018F034BD00F15001204638479DF8A52015
:1031400042F010028DF8A520704700F1B001204632
:103150003847B4F87C10204607F07EBE00F5807139
:10316000204630472A4611F0BBBF12201AF08CBD12
:103170000022E86800F14801204616F045BD002213
:10318000E86800F11801204616F03EBD002084F8E2
:103190003C00204670477078022102287047F06892
:1031A0004FF4803200F1080120463847F0684FF4B0
:1031B000403200F1F0012046384700F12801204656
:1031C0003047024628460E2111F08ABFD8F8040085
:1031D000102118F051BF521A5144013212B2101A84
:1031E000022290FBF2F008447047284611F072BFAB
:1031F000B14690FBF1F0F18A511A6FF001024044A0
:10320000013109B291FBF2F1704728464FF4803149
:10321000704720F4FC72083000F4FC718818704785
:10322000707FB6F9143049462246009050461EF091
:1032300026BA013252086A4302EB64023A447047EC
:1032400098F8140000F01F007047B9F80200013828
:10325000ADF85E000E9800B2A5EB00097047064479
:10326000384631460BF0FEBB00210CF061BFBDF9C2
:103270004010239832B223460DF0DEB8284615F0F0
:1032800065BCE868042200F1A001204630472046D2
:103290004FF4003118F096BE20461C21002211F098
:1032A0001FBF28464FF480413047009509F09EB873
:1032B000ADF8007000F0A5BF202059462A464346CD
:1032C000504790FBF9F100F00100013109B270475D
:1032D000A08ABDF83810BDF83A200144ADF8381086
:1032E000E18A0A44ADF83A20BDF83C201044ADF81C
:1032F0003C00BDF83E00084470470698DDE90732FF
:10330000AAEB0701009030461EF0B9B94FF4A02196
:1033100018F039BBA18F0089ADF80410BDF8061074
:10332000704700F12801204638474DF808ED204647
:10333000FEF786FD20465DF808EBFEF782BDE868E3
:10334000202200F1D80120463047E868202200F111
:10335000580120463047E868002200F1D00120469D
:103360003047E868002200F1B001204630470022D3
:10337000F06800F1180120463847706DF7680121A8
:103380005047706DF56801215047706DF568032155
:103390005047F0682A4600F1D801204638472420DB
:1033A00084F841002068C16821F40051C1602046C2
:1033B00000F03EBB204602F01ABAD8E900200821EE
:1033C00011F08EBE0190204403940090384617F00F
:1033D0003FBC90FBF1F00022284401B22046704728
:1033E000019902206FF0010291FBF0F00FFA88F1D1
:1033F00091FBF2F10844704700EB8000502101EB93
:103400004000A02190FBF1F77047ADF8A480ADF823
:103410005800BDF8B0007047B0F80100C0F38A0052
:1034200000FB0210704709EBD030ADF85A0011983C
:1034300005880D985A3000B27047C0F34513C1F3A8
:103440004514C1F3C42570472146ADF84660ADF878
:10345000426015F03EBDE868082200F1A801204650
:1034600030472046002118F0A8BB4180C188114494
:10347000C1807047204617F07FBC0898DDE906320E
:10348000A4EB0A01009028461EF0F9B84FF4A021E1
:1034900018F0D7BB304611F01FBE00F128012046BE
:1034A0002A46384700F1200500200CF02BB80446CE
:1034B00090F83D000028704741E80302002A704759
:1034C000D8F80400202116F058BF504641F6FF728C
:1034D000002305F0DDBC3A4611F002BE029902203D
:1034E0006FF0010291FBF0F00FFA8BF191FBF2F11A
:1034F0007047002100224FF0FF33009408F053BBC7
:10350000033292086A4302EBA4023A44704704EB88
:10351000D030ADF85C0070476FF30F01194470476D
:10352000504641460EF0EDBAF068082200F1A801BD
:10353000204638472046002118F06ABA091A01319E
:1035400009B291FBF2F1084412917047204618F03D
:10355000EFBC00F0FC000B990D9A02300B920D911C
:103560008DF84E0070470146A58F20461DF0DEBB4A
:103570002046FEF7D1BB4161C16841F40051C160F2
:1035800000202021606484F8411084F842106063B8
:1035900010BD304612F02EBA02230144101A009AD0
:1035A000013000B2801A7047401AB0FA80F040092A
:1035B00070470221328B90FBF1F0B18A511A6FF003
:1035C0000102484470470CB20BF09CBF0732D2088E
:1035D0006A4302EBE4023A44704704EBD030ADF8A2
:1035E000580070470598BDF966108068A0EB41004F
:1035F00030F81400ADF848007047F06805F11C027F
:1036000000F1580120463847324611F069BDE80004
:103610004FF0011121FA00F0C1B27047B4F9203027
:10362000E08BD4E90512C5187047204618F0E9BCB4
:10363000BDF92E00696A079ABDF9303041F6FF7670
:103640007047A8EB05000122084401B220467047EC
:10365000002084F840002046FEF736BDC6F1640124
:103660004843642190FBF1F07047204629463246DA
:1036700017F03CBD009C584617F03DBB0C46054674
:103680001AF0C4BA6043DDF8449005EBD0307047BF
:1036900058462946174615F025BB70780A2102289E
:1036A0007047B0F900000090504615F013BA284654
:1036B00011F010BD9DF84E000F91002D00F0FE019D
:1036C0008DF84E1070474FF4A021224618F09EBD91
:1036D0002846FCF7C1BE0220211D84F83D00206869
:1036E00000F0D2B8521A013212B292FBF3F2114436
:1036F00070470023054617F060BB0C46054616F0E0
:1037000067BC0BFB00F004EBD030B9F80040ADF81B
:103710005A007047BDF96410584622462B460CF0FB
:103720008BBEE868002200F1780120463047204631
:1037300011F0D6BC204618F025BC42F2D171884267
:10374000704728464FF4E021704700686422407EAD
:10375000C0F1640100207047284618F006B80068E0
:1037600050F82470384618F08BBC2A46014600F009
:103770006BBCBDF9641058463A4623460CF05CBE5B
:10378000706DF7685047204617F0B5BA0B990D9A3F
:103790001FFA88F007F07FBD404647F6FF711DF025
:1037A000C5BA704710B5F849D1E90120121A02F1E3
:1037B000C803C82293FBF2F404FB1233012BBCBFF5
:1037C0004FF0FF3010BD431C93FBF2F404FB1232A8
:1037D0008A60EE49085C10BD704782B018B5044697
:1037E0000120CDE9032394B1032910D103A800F1EE
:1037F0000C010091039949B150F8042F32B1059B97
:1038000023B1002084E80E00E06000E00120BDE864
:10381000184002B07047FDF7D9BEB0B590B04FF474
:10382000E010002402250F904FF48030CDE90B44C6
:10383000CDE909440D950E90CDE9070401200690CD
:103840000A9006A8FEF742F818B1EFF3108072B69E
:10385000FEE74FF4806005940221CDE903400F207C
:10386000CDE9010501A8FDF751FF18B1EFF3108074
:1038700072B6FEE710B0B0BD704700000148FEF719
:103880004CBA00BF2408002070B5214A036890425A
:1038900022D0B0F1804F0BD01E4CA04208D01E4C5D
:1038A000A04205D01D4CA04202D01D4CA04203D125
:1038B0004C6823F070032343B0F1804F10D0154CB7
:1038C000A0420DD0144CA0420AD0144CA04207D004
:1038D000134CA04204D007E04C6823F0700323434C
:1038E000CC6823F4407323434E6923F080030C68B3
:1038F0008D68334390420360C562846203D002F551
:103900000062904201D1096901630121416170BDEA
:10391000002C014000040040000800400034014039
:10392000000C0040406A0021C185C184FEF796BAB0
:10393000016851E8031F026821F4907142E8031303
:10394000002BF5D14DF808EDFFF7DFF95DF808EB36
:10395000F8D1016B012906D14DF808EDFFF70BFAFC
:103960005DF808EBF8D1202180F8421000210163B6
:10397000704781B090F84210222920D18368024616
:10398000B3F5805F08D152F8281F52F8183C002B7D
:1039900043D003685B6809E052F8281F13B9036934
:1039A000002BF6D003685B6803F07F030B7011688F
:1039B00001311160C18D0139C185090401D001B007
:1039C00070470168CA6822F02002CA60CA6822F4FF
:1039D0008072CA604A6922F001024A61202180F89F
:1039E000421000214163026B012A1ED101634DF890
:1039F00008EDFFF7C0F95DF808EBF8D101680A6837
:103A0000D20606D5002200920A6800924968009109
:103A10000099818D01B0FEF720BA026852686FF3F9
:103A20005F2221F8022B8162C4E701B0FEF79EBB42
:103A3000B0B50446006804F108030ECB056925F40F
:103A4000405519432A4341F20C650261C26863691B
:103A5000AA4319431143C1604169A26921F440712D
:103A6000114341611149884202D0FDF7EDFE01E0AA
:103A7000FDF7F4FE19214843D4E900120C4C9200E2
:103A8000B0FBF2F06422B0FBF2F303FB040032243B
:103A900004EB0010B0FBF2F000F0F00200F00F00B9
:103AA00002EB031210448860B0BD00BF0038014033
:103AB0009CFFFF0F0023C28543648162222182851F
:103AC00080F842100168006918B1C86840F480703D
:103AD000C860486940F001004861C86840F02000B3
:103AE000C860002070472DE9F0411D4690460F4602
:103AF00004465E1C206800683840B8421DD0002E85
:103B0000F8D02DB1FDF75EFDA0EB0800A842F1D979
:103B1000FFF7FCF920F4D070FFF7CEFCF8D1FEF7E8
:103B200078FEFCD12020002184F8410084F8401068
:103B300084F842000320BDE8F0810020BDE8F08158
:103B40000148FEF78DB900BF6C010020FEE70000C0
:103B5000B0B50D49D1E90123D31A03F1C804C82334
:103B600094FBF3F505FB1344C62CC4BF4FF0FF30A4
:103B7000B0BD064CA054501C90FBF3F202FB1300A6
:103B800048600020B0BD00BF600100203A04002062
:103B900058B351B34AB343B3F0B5DDE90554DFF888
:103BA0004CC0154E154FC0E90E12174A1C49C0E90A
:103BB000103580F848400E4C0E4D114BC0E90837C7
:103BC000C0E90A65C0E90C4CDFF838C0134F0F4B51
:103BD0000F4C104D104EC0E90017C0E90265C0E956
:103BE0000443C0E9062CBDE8F04070470D640008AE
:103BF00031630008E16300081B630008813C000892
:103C0000C53F00086B3F00085D3E000833640008B4
:103C100025640008613F0008553F0008253D000865
:103C2000893D0008FEB5089D15B1099E042E01D2FC
:103C3000012710E00446DDE90A70CDE90070204656
:103C4000FFF7A6FF284600213246C4E91356002795
:103C500002F02CFF67653846FEBD00000648BFF342
:103C60004F8F064A016801F4E06111430160BFF320
:103C70004F8F00BFFDE700BF0CED00E00400FA0528
:103C800082B02DE9F04792B00DF104098A4605464D
:103C90000DF168084021CDE91A234846CDF844804B
:103CA000FCF746FC119B484640215246FCF776FB48
:103CB000044640284E4611D3671C384602F0EAFEFF
:103CC000B0B100213A46064602F0F0FE30463946D1
:103CD00052464346CDF84480FCF760FBAA6A28466A
:103CE000314690474E4504D0304602F0CFFE00E00A
:103CF0000024204612B0BDE8F04702B070470268C9
:103D000000211378303B092B84BF08467047531CB1
:103D100001EB81010360127802EB41011A46303950
:103D2000EFE700002DE9F04703688946824698478F
:103D3000DFF850800024DAF83800414601220059AB
:103D400002F0ACFEB0B1DAF8380007593846FCF79B
:103D500083FBD9F8005006462846FCF77DFB8642D7
:103D600098BF064638462946324602F097FE20B1F3
:103D70000C34E0E70020BDE8F087DAF83800204492
:103D8000BDE8F087D09402082DE9F84F8146084637
:103D900015460C4602F099FA2F492846FCF732FBEB
:103DA000CCB10646206818B102F070FE00202060F9
:103DB0003046FCF751FB451C0746284602F06AFED8
:103DC000206040B100212A4602F070FE2068314692
:103DD0003A4602F065FEDFF880804FF0000A0026C8
:103DE000D9F8081048468847864232D2002041461A
:103DF000FCF708FB68B354B307466068022826D86E
:103E000004EB8000806830B102F040FE606804EB93
:103E10008000C0F808A03846FCF71EFB451C83460E
:103E2000284602F037FE616804EB8101886070B1BA
:103E300000212A4602F03AFE606839465A4604EBF1
:103E40008000806802F02CFE6068013060600136FE
:103E5000C6E70020BDE8F88F1D91020810B50446A2
:103E600015480021322202F021FE601E052808D8E4
:103E7000DFE800F0030B0F13171B0F483349102224
:103E800016E00D4832490C2212E00B4829A11622F7
:103E90000EE0094821A117220AE0074817A12022B5
:103EA00006E005480CA1242202E0034803A11C22DD
:103EB00002F0F6FD004810BD580500204154207462
:103EC00068697320737472696E672063616E27740A
:103ED0002062652063757400415420746869732002
:103EE000737472696E6720636F6D6D616E64206EAE
:103EF0006F74206861766520616374004154206EA0
:103F00006F742066696E64207468697320737472BC
:103F1000696E6720636F6D6D616E64004154206F40
:103F20007574707574206465766963652065727256
:103F30006F720000415420696E707574206465765C
:103F4000696365206572726F72000000219102083A
:103F50003191020808B1406C70474FF0FF30704754
:103F600008B1806B70470020704770B586B008B309
:103F7000054600200C460221019001AA052903D024
:103F800042F821000131F9E70020029001AE3046ED
:103F900002F09BF96B68284631462246984758B193
:103FA000816859B101AD284688470446284602F089
:103FB0008CF904E0012402E0042400E005242046FA
:103FC00006B070BD70B50446C06B41688847C8B183
:103FD000E06B8168884794F84820C1B2002801D47A
:103FE0008A4211D18A420DD1E269E16C20469047A4
:103FF0000546D4E913020021002602F057FD2846A9
:10400000666570BD022070BD626DE06C531C636517
:104010008154002070BD0000B0B50848402101F077
:1040200007FC07481421002200241DF095F8054DD7
:10403000686002F05FFC2C70B0BD00BFF40300208C
:1040400019690008A4030020F0B5B1F90030B2F9F5
:104050000070B1F90240B1F90450B1F906C0B2F9EB
:104060000210B2F90460B2F90620BB42C8BF1F4675
:1040700007808C42C8BF21464180B542B8BF2E465A
:1040800086809445B8BF6246C280B74205DC10B254
:1040900009B28142DCBF0120F0BD0020F0BD2DE956
:1040A000F8430D46B0F90070B1F900108F4238DBCB
:1040B000B0F90260B5F902108E4232DBB0F904901B
:1040C000B5F9041089452CDCB0F90680B5F9060075
:1040D000804526DC14463AB3694628462246ADF8A8
:1040E0000260FFF7E5F8E0B1694628462246ADF8E0
:1040F0000260ADF8009000F084F890B1694628465F
:104100002246ADF80280FFF7D3F850B16946284641
:104110002246ADF80280ADF8009000F072F8BDE8DC
:10412000F8830020BDE8F8830120BDE8F883B1F9E9
:104130000420B0F90030934213DCB1F90020B0F94B
:10414000043093420DDBB1F90620B0F902309342FE
:1041500007DCB1F90210B0F906008842A4BF0120C3
:104160007047002070472DE9F8430D46B0F9046010
:10417000B1F900108E4211DBB0F90670B5F90210EA
:104180008F420BDBB0F90080B5F90410884505DCDF
:10419000B0F90290B5F90600814502DD0120BDE8C5
:1041A000F8831446EAB1694628462246ADF80290E3
:1041B000ADF8008000F025F898B9694628462246F7
:1041C000ADF80290ADF8006000F01BF848B9694600
:1041D00028462246ADF80270ADF8008000F011F8D4
:1041E00010B10020BDE8F883694628462246ADF8A4
:1041F0000270ADF8006000F004F880F00100BDE846
:10420000F8832DE9FC470C46B0F90010B4F90030F2
:104210008B420DDBB0F90470BB4209DCB0F90250EF
:10422000B4F90230AB4203DBB0F90660B34202DD01
:104230000020BDE8FC87012A67DB781A731B4FF06A
:10424000020CADF80010ADF802500130013300B29D
:104250001BB290FBFCF093FBFCF300B20FFA83F966
:104260004845B8BF814668469145A8BF914609EBCD
:10427000010A09EB050821460022ADF804A0ADF8BB
:104280000680FFF7BEFF20B108EB0900ADF806007D
:104290000FE0ADF80660A6EB09066846214600224D
:1042A000ADF80260FFF7ADFF40B1A6EB0900ADF835
:1042B00002000AEB0900ADF8040020E0ADF804703C
:1042C000A7EB0907684621460022FEF7F1FF20B15F
:1042D000A6EB0900ADF802000DE068462146002279
:1042E000ADF80680ADF80250FFF78BFF68B108EB20
:1042F0000900ADF80600A7EB0900ADF8000068461C
:10430000214619F0CBFCBDE8FC870120BDE8FC8705
:10431000F0B5B1F90030B2F90060B1F90240B2F97C
:104320000270B1F90450B1F906C0B2F90410B2F943
:104330000620B342B8BF1E460680BC42B8BF27461F
:1043400047808D42C8BF294681809445C8BF6246D8
:10435000C280F0BD2DE9F04F91B005461CF0A0FEE3
:104360000021109103900DB1E86801E00BF0C6F850
:10437000DFF80C75B860006919F048FCB968486945
:1043800010B119F043FCB968C86919F03FFCB8686E
:10439000006A19F03BFCB868016900295FD0DFF8BA
:1043A0001C8500240DF1240B4FF0010AB0F85011C8
:1043B0008C4244D2011991F8301109B10134F5E76A
:1043C0000025B0F850118D42F8D2411991F8301102
:1043D00091BBA54230D000F1300101EBC40001EBEC
:1043E000C501FFF7A4FE38B3B868303000EBC40154
:1043F00000EBC5025846FFF78BFF5846C0470646FC
:10440000B86800EBC4003030C0470746DFF87004DE
:10441000806800EBC5003030C0473844DFF8607476
:10442000864209D2B868DDE9092300EBC4012844BB
:104430000A634B6380F830A1B8680135C1E7B0F872
:1044400050510021F960002D00F04F81012D0ADB51
:104450004119013D91F82F110029F7D104E0002105
:10446000A0F8501108E2002501680024C9688A6993
:1044700022F001028A61FEF79DFB0495B0F850110D
:104480008C4280F0FB80011991F83011002940F036
:10449000F380AC4205D10168C9688A6942F0010223
:1044A0008A61FEF787FB0168CA688E6B926832608A
:1044B00000EBC402097C02F13009890726D00BF019
:1044C00031F88046B8680BF075F8013800210022F9
:1044D00000B20090A8F1010003B2584607F063FB58
:1044E000C6F804B0B8680168D1E903018907826998
:1044F00059BF816962F3410142F00201D9468161ED
:104500003046C6F8089019F041FCAAE032F832AF04
:10451000D8460694B9F8004011461746059231F87E
:1045200002BF37F9045FCDE907190BF043F8854264
:1045300003DAB7F80090D24F05E0D14FB8680BF01E
:1045400039F8A0F10109BA68ABEB0401A5EB0A0048
:1045500001310130126809B205B2D3689269DB6893
:10456000B3FBF1F1A942B8BF0D46E2B100202C46E1
:10457000C246ADF828000990C148671E5146ADF803
:104580002A708068006882699047BDF82610BDF9DE
:104590002A00411A013109B28D4206DA3CB2002CE0
:1045A000EADCB74F0025059906E021B2B44F012996
:1045B0000599ACBF451C002508880FFA89FB00242B
:1045C00001B205EB010AAAF101025A4527DC414676
:1045D000C6E9018814B2B9680968C9688B68336094
:1045E000ADF8260008980088ADF8240007980088E8
:1045F000ADF82A201FFA89F2ADF82800A345BCBF08
:10460000ADF82A904C46A0B2824203D1886940F0AE
:1046100002008861304619F0B9FB5046D0E7A1B2DC
:104620001FFA89F2C3468A4219D0C6E901BB089B2A
:10463000B9680968C9688A683260079A1B88128855
:104640008C6944F002048C61ADF826003046ADF868
:104650002A90ADF82430ADF8282019F097FB049D7E
:10466000069CB86800EBC400303007F06EFA0146D3
:10467000D7E902021144F9600134FFE6A9B30168E9
:10468000097C890717D50AF04DFF0646B8680AF07D
:1046900091FF01380021002200B20090701E03B289
:1046A000584607F080FAB8680168896BC1F804B011
:1046B00003F036FDB86830304FF4807114F0E0FB41
:1046C000B868202100F5987014F0DAFBB868002172
:1046D000A0F8501103981CF0DDFC1090B868006839
:1046E000436A13B1FA681099984714F017FA00F06A
:1046F0000BF900F0E5F87E6A7EBB14F028F813F0A1
:10470000E9F87F210022064619F0D2F9304600214F
:10471000002219F0C2F93046FEF76CFCFEF7E9F80A
:1047200019F012FAFEF7E5F819F0FCF9FEF7E1F8D6
:1047300019F0FEF9FEF7DDF819F000FAFEF7D9F8E6
:1047400019F008FA4F49304613F088FF304602212D
:104750000022002315F0A5FA7E6238691CF09AFC4D
:1047600080084A280CD8F86841F28931884231D350
:10477000D7E90501109A10440131C7E9050129E084
:104780001CF08EFCB9683861B86949680A684FF452
:104790007A71B1FBF2F538B148437969002908BF55
:1047A0000121B0FBF1F000E028460021C7E9051126
:1047B000A84238BF0546D7E90701294401303962CC
:1047C000F8611CF0F3FCC0F164032FA130462A46C7
:1047D00013F07AFF7D687DBB13F0B9FF13F07AF810
:1047E0007F210022054619F063F9284600210022A6
:1047F00019F053F92846FEF7FDFB28460321002255
:1048000019F0A2F928460321002219F08BF9284655
:104810000321002219F08CF928460321002219F007
:104820008DF91849284613F019FF28460521002262
:10483000002315F036FA7D6038681CF02BFCB0F5CB
:10484000967F19D91CF02CFC386009A814F0F8F9EF
:1048500009980B999DF83C209DF83D30401A40F294
:10486000FE31CDE9002366220140B1FBF2F3820A5A
:1048700009A1284613F028FF11B0BDE8F08F00BF52
:10488000B40200203D9102082575204650530A25A8
:10489000752525204350550025752E2575206B4222
:1048A000207573656420282564202525290A256440
:1048B000252520667261672E000000004BBB0008B2
:1048C000B0B5074D0024702C08BFB0BD285908B101
:1048D00014F0A0F928191C2114F0D2FA1C34F2E7C4
:1048E0008C0500200749096859B14A68824202D004
:1048F0000A68824203D10A7E42F001020A7614312C
:10490000F1E77047200800207047000001480421AB
:1049100000F08EBFE803002001481C2100F088BF92
:10492000000400202DE9F84F0A9D044653B9B5F55F
:10493000807F07D100202060501EE080481EA080AC
:10494000BDE8F88F0B9F4FF0FF3C4FF00209B7F91D
:1049500000607F8805FB06F0891B404269430CEB31
:10496000102E38B209EB1121121A6843A4F800E0A6
:10497000A1806A43404209EB12220CEB1025002B68
:10498000E280658000F09B800A20DFF828B693FB68
:10499000F0F630B200EB8001A3EB4107D84700905E
:1049A000701C00B2D847804606F15A0000B2D847C2
:1049B000C7F10A0909FB00F506F15B0000B2D84710
:1049C000009A07FB00500A25B4F900A0B4F902B020
:1049D000B4F90660B4F904E009FB02F290FBF5F0CB
:1049E00007FB08220B9F411192FBF5F201FB0AF035
:1049F0003F88521102FB160502FB1B0002FB0EFC56
:104A000007EB902007EB95250FFA80F82DB2404672
:104A100000954545B8BF284601FB0EF502FB16532D
:104A200007EB93230FFA83F902FB1B5307EB932346
:104A30000B9F1DB22B46A945B8BF4B469842B8BF45
:104A4000034602FB0AF023807F8801FB060301FB7B
:104A50000B0001FB06C601FB0BF102FB0E1107EB7D
:104A6000932307EB902007EB962607EB91210FFA93
:104A700083FA03B236B209B29A4518460A46B8BF5D
:104A800050468E42B8BF32469042B8BF02460098A8
:104A900062804045C8BF8046A945C8BF4D46A8456D
:104AA000C8BF4546A5809A45C8BF53468E42C8BF79
:104AB00031468B42C8BF1946E180BDE8F88FB0B2DD
:104AC0003A4401447044E280A180E9192080618069
:104AD000BDE8F88F2DE9F84F0446B0F90A00E389E4
:104AE000101AB4F908208A1A2168B3F5807F0DD115
:104AF000D4E90B67636A07FB02F506FB10557843A0
:104B000006FB020003EBA505801016E0A36B5843DB
:104B10005A43A389401152116BB1D4E90B67636A00
:104B200002FB07F506FB1055784306FB020003EB7A
:104B3000A525801201E0636AD518B4F90420B2EB10
:104B4000252F4CDD002D4AD4A36AC618B4F90600FF
:104B50003712874243DA002E41D494F834304FEABA
:104B6000252B580716D404F118080FFA8BF90FFA01
:104B700087FA238A40464946524611F03BF8A08204
:104B800040464946524610F0D5FF4FF000084FF01E
:104B900000091BE007FB02B904F114009A0709D4CD
:104BA00001EB490102224FF0020814F02DF94FEAFF
:104BB00049090CE009EB4909022201EB09084146C9
:104BC00014F022F998F802004FF00308A07594F849
:104BD0003400C00706D0A08AB0F5FC6F02D10020D7
:104BE000BDE8F88FE07C70B184F84880C4F8449048
:104BF000A4F84270A4F840B0E687A5872046BDE837
:104C0000F84F00F003B80120BDE8F88F2DE9F04F10
:104C100087B0044690F83E0094F83C1026686F294F
:104C20000BD86FF07F02002581EA020AB4F9401028
:104C30000029C8BF4FF0FF350FE0002591290AD3A6
:104C4000B4F94030B4F9042081F07F0A0133934273
:104C5000B8BF012501E04FF0FF0A6F280CD86FF0B4
:104C60007F014FF0000B48400390B4F94200002848
:104C7000C8BF4FF0FF3B11E04FF0000B91280BD362
:104C8000B4F94220B4F9061080F07F0001328A4264
:104C9000B8BF4FF0010B00E0FF20039094F8340000
:104CA000B4F81480A17D4007CDE901184CD4B4F8C4
:104CB000400004F11807238AB4F942207E4E2844AC
:104CC00001B23846B047ADF81800B4F84200238A64
:104CD000B4F94010584402B23846B047ADF8140059
:104CE000B4F84000238A284401B2B4F84200584482
:104CF00002B23846B04794F83490ADF810005FEA3D
:104D000089704AD5B4F94080B4F94260CDF800A06A
:104D100008EB0500694D32460FFA80FA38465146D5
:104D2000A8472B46054606EB0B00414606B238461F
:104D30009B4632469847804651463846DDF800A0EB
:104D40003246D847AC4643E0606C94F84810594F5F
:104D5000022205FB0100311806A8B847B4F9040087
:104D6000616C94F848200BFB00F000FB021002225B
:104D7000311805A8B847B4F90400616C94F84820CC
:104D80000BFB005000FB02100222311804A8B847A8
:104D900094F834905FEA897005D400204FF0000841
:104DA0004FF0000C14E094F84800626CB4F9043041
:104DB0000BFB00F101FB0321431E1A44194405FBC0
:104DC000002205FB001016F8018016F802C0305CC6
:104DD000DDF80CB05FEA897103D4FF205146A0755D
:104DE00036E05FFA8AF1019F5FFA8BF581F0FF03ED
:104DF00085F0FF0603FB00F208FB0122794303FB69
:104E00000C11C2F307225643C1F3072303FB0561CC
:104E1000090A022BA17598BF032A49D3032F5146D3
:104E200038BF0021B8F1030F38BF4FF0000A032844
:104E300038BF4FF0FF3A032B38BF4FF0000B032A67
:104E400038BF4FF0FF3BBCF1030F01D2029D0DE0D4
:104E5000CAB2029DFF2A09D012B9BDF8185005E068
:104E6000BDF81810284609F0E3FD05465FFA8AF2FE
:104E7000FF2A03D02AB9BDF8100008E0BDF81400DD
:104E800005E0BDF81010BDF8140009F0D1FD5FFA7F
:104E90008BF242B1FF2A01D1284604E0ABB281B2C5
:104EA000184609F0C5FDA082012007B0BDE8F08FCB
:104EB0000020FAE7098E0108F55B0108355B01085F
:104EC0002DE9F84F0446B0F908004FF00A08DFF862
:104ED000E490B4F90C20B4F90A10000292FBF8F641
:104EE0000902C4E9090130B200EB8000A2EB4007DF
:104EF000704200B2C8478246F04300B2C8477843C8
:104F0000C7F10A0505FB0A0090FBF8F04FEA601BA9
:104F1000C6F15A0000B2C8478246C6F1590000B235
:104F2000C847784305FB0A0090FBF8F04011C4E93C
:104F30000BB0A07C10F0D2FE94F83420A17C02F0DB
:104F4000FE02104484F83400084610F0BDFEFF2134
:104F5000E38841F6FC77A1752168DD082162218A8A
:104F6000A182214631F8192F8D70A57C02F0030231
:104F700005F01F062676A68807EA8606324442EA2E
:104F800043320A80291F0022032938BF012294F8E6
:104F9000341001F0F90160F3410141EA820084F824
:104FA0003400E089410801F50011B1FBF0F0A06385
:104FB000BDE8F88F71150208F8B516460C4607468D
:104FC0001CF06EF8A2B2104C054639463346204616
:104FD00011F0C6F960B10020A062E06988B92846E6
:104FE0001CF058F8084C002808BF0120E06108E0D8
:104FF000054C2C21204613F043FF4FF00040A062E7
:1050000000242046F8BD00BF7C06002010B50748EC
:10501000142100F00DFC11F06BF90549054A064B0F
:10502000064CC0E90043C0E9022110BD0C04002079
:10503000695D0108DD5F01087D5E0108995D010879
:10504000B0B505460C460846102113F019FF286834
:105050000178042908D0022908D0012908D1298A19
:105060002180698A618003E00A2100E0E9686160CB
:1050700042681AB12146BDE8B0401047B0BD2DE9E5
:10508000F04F8BB0D0F828A08346BAF1000F28D09B
:10509000BBF8100020B9BBF81200002800F0AF8167
:1050A0000020ADF82A00ADF828009BF83C0000F085
:1050B0000F00032840F03A81504615F08FFF064656
:1050C000504615F023FF0246BBF91010032033466B
:1050D0000090504603F04EFD0746ADF82A0000262A
:1050E00038E1BBF81000BBF814100844BBF81610E8
:1050F000ABF81400BBF812000844ABF8160011F02E
:10510000F5FDBBF8161000254FF000094FF0000A1E
:105110000AB281EAE231A1EBE2318CB2BBF81410A1
:105120000AB281EAE231A1EBE2311FFA81F8A0452F
:1051300098BF4FF001090068DBF82060077E7842D5
:105140000990002E00F0B9803046102116F094FF2F
:10515000B8B930464FF4807116F08EFF40EA09006E
:10516000012840F0AA8030464FF4007116F084FF09
:1051700010B9A04540F2A180304615F039FE064630
:10518000DFE7002007970595A04588BF0120029022
:10519000304615F08BFE074609EAD000039009EA75
:1051A00097000190304615F089FF0546304615F00E
:1051B0002BFE0690304615F0A9FE0890304615F0FB
:1051C0000DFF002D049502DC0699012914DB019BDB
:1051D000DDE9025E23B1BBF91610079A914207DAA6
:1051E000BEF1000F0CD0BBF91610099A914207DCF2
:1051F0000C21B246059103E00DF1040E9EE8284013
:10520000089905EA570C07EA0502002901DC012884
:1052100019DB059D079F2AB11946BBF91430BB4223
:105220000B460DDABCF1000F0FD0039070469E467E
:10523000BBF9143009998B4273468646039804DC07
:105240000325B24601E0059D079F0499002900DC73
:1052500000230699002901DC4FF0000E089900296F
:1052600000DC0022002801DC4FF0000C1AB1BBF971
:105270001400B84216DABCF1000F04D0BBF91400D8
:10528000099988420EDD1BB1BBF91600B84209DA54
:10529000BEF1000F3FF45DAFBBF9160009998842DB
:1052A0003FF757AF0C20A04588BF03209BF83C1068
:1052B00001F0F00108448BF83C00BAF1000F00F057
:1052C0009E809BF83C100020CBF828A0CBF814005F
:1052D00005F00F0001F0F001084480218BF83C003C
:1052E000504616F0C9FE4EF20106002800F08A80F2
:1052F000504615F0DBFE032800F09080022800F0F5
:105300009A80012840F0A980BAF8160041F6FF7291
:105310000023013001B2504603F01AFEABF8320010
:1053200031B2BAF81600013802B291E0504615F0D9
:10533000C5FE0646504615F067FD0346BBF9121040
:105340000C2032460090504603F014FC064600271D
:10535000ADF82800002550460024002FC8BF0124C6
:1053600015F0A4FD012100F0020321EA000281EA08
:105370005301224018BF0027002F48BF01252940B4
:1053800002B921B1002918BF0027ADF82A70002109
:10539000002200F0040300F00800002EC8BF012224
:1053A000012484EA930384EAD0001A4018BF00263F
:1053B000002E48BF0121084002B920B1002818BFC3
:1053C0000026ADF828600DF12A010AAA58461DF002
:1053D00033FBBDF92820BDF92A105046002317F0F1
:1053E00069FFBBF81400BDF82A100844BDF8281066
:1053F000ABF81400BBF816000844ABF816000BB06D
:10540000BDE8F08F41F6FF7031B241F6FF730090B6
:105410000BF130000A4606F0C6FB57E0BAF816005A
:10542000BAF81A10FDF78DFB03F092FDABF83200CD
:10543000781E02B20BE0BAF91A10504641F6FF721C
:10544000002303F085FDABF83200BAF91A2031B21F
:105450005046002303F07CFD03E041F6FF70ABF8FB
:105460003260ABF83600504615F018FE03280CD019
:10547000022817D0012823D1BAF91410FEF725F815
:10548000ABF83000BAF9142014E0BAF81400BAF8F6
:105490001810FDF756FB03F0FBFCABF83000781E4C
:1054A00002B207E0BAF91810FEF70FF8ABF83000B7
:1054B000BAF9182031B25046002303F0E9FC03E0AA
:1054C00041F6FF70ABF83060ABF83400BBF8300049
:1054D00008B9ABF83060BBF8340018B941F6FF707A
:1054E000ABF83400BBF8320008B9ABF83260BBF857
:1054F000360018B941F6FF70ABF836005046092166
:1055000000220FF0EDFD9BF8010080077FF5C0AD94
:1055100075E700002DE9FE43856A002D00F0AF809D
:10552000044690F83C00000700F0A98011F0DEFB73
:10553000814600684021467E284616F09DFD08B948
:105540000020A061284615F0A9FD8046284615F0E8
:10555000ADFD074694F83C0000F00F00032813D07F
:105560000C2840F08A800020002F20834FD0668BCB
:1055700011F0BCFBFEF7E9F8330417D033B2304426
:105580004B4393FBF2F6F7E70020B8F1000F60837E
:1055900057D0268B11F0AAFBFEF7D7F833041DD0A5
:1055A00033B230444B4393FBF2F6F7E70021ADF8FA
:1055B0000A000DF10A022046618300211DF03CFA29
:1055C000BDF90A305249284641F6FF7203F0C0FC8B
:1055D000BDF80A100844002102B215E00021ADF820
:1055E000080020460022218302A91DF025FABDF9FA
:1055F00008304749284641F6FF7203F049FCBDF8E0
:1056000008100022084401B22846012333E0B4F90F
:105610001A00FEF723F86083284615F0F5FB0646CE
:10562000284615F04BFD0246B4F91A100C203346FB
:105630000090284603F09EFA024660832846002127
:1056400018E0B4F91800FEF709F82083284615F091
:105650005DFC0646284615F0C1FC0346B4F9181057
:10566000032032460090284603F084FA0146208346
:1056700028460022002317F01DFE208B08B1BDE84C
:10568000FE83608B0028FAD1B7B9284615F016FDC5
:105690000746284615F0B8FB002F04DDB0F1FF3FA8
:1056A0000ADC474202E0012806DB2FB13AB2284665
:1056B0000021012317F0FEFDB8F1000F16D1284696
:1056C00015F024FC0746284615F088FC002F04DD61
:1056D000B0F1FF3F0ADC474202E0012806DB2FB1B0
:1056E00039B228460022012317F0E4FD28460A219A
:1056F0004A460FF0F5FC60788007C0D40020A06215
:1057000094F83C0000F0F00084F83C00BDE8FE8313
:1057100001E0FFFFF0B585B00D46044620B909F061
:10572000EDFE044600284BD0002075B302902046C1
:1057300009F0F8FE0138ADF80C00204609F03AFFF8
:1057400001382946ADF80E00684602AAFEF77CFC37
:10575000B0B32068017C890727D482690AB1694601
:10576000904704F130014FF0FF366D46B4F8500118
:10577000013686420CD22846002201F10807FEF7C6
:105780008EFC00283946F1D01AE0A4F8500117E049
:105790001F2807D8DDE9002304EBC00101300A63AC
:1057A0004B6307E00020A4F850010298039920639E
:1057B00001206163A4F85001606808B11BF0ACFDE2
:1057C00005B0F0BD70B5044608B165680CE0002571
:1057D0000AE02068294628444668204600F05FF821
:1057E000284613F017FA3546002DF2D170BD08B1E6
:1057F000406870470020704710B1021D002102E090
:105800000021002200E0126822B1036801311A442D
:105810000432F8E70846704700680844406870475B
:1058200000680858704708B18068704700207047CA
:105830000331002221F003018260C0E900127047A9
:1058400010B5FDF7FCF858B121680022425042180B
:1058500063685360626802B15050A168606001B132
:1058600010BDA06010BD10B5FDF7E9F858B1226871
:105870000023111D4350A3688350A26802B1505009
:105880006168A06001B110BD606010BD28B14168C1
:1058900009B9806808B1002070470120704710B531
:1058A00068B142688A420BD0026884688B588C4287
:1058B0000ED0141D085903B1185100B1835010BD0A
:1058C000026811444968416041B10020885010BD10
:1058D000836003B1D0180021416010BD00218160B8
:1058E00010BD10B504460068826812B12146904789
:1058F0002068006808B12060F6E710BD806808B134
:10590000C08A00E0002000B2704700002DE9F04F8F
:1059100091B00546408CDDF868B016461F468A46B1
:105920002A8440F0040068842846FDF73FF92F845C
:10593000044628465146FDF739F98146688C20F027
:10594000040068844C4500D16CD02E842846514612
:10595000FDF72CF98046284651462F8404F071FA51
:105960000068BBF80810424619F086FEBBF8080034
:10597000602826D147F6FF76B04518BFB14520D143
:10598000284616F03EFB022790FBF7F4284616F057
:1059900038FB90FBF7F0B04507D1611C421C09B2FF
:1059A0000FFA82F84145B8BF884647F6FF7189452E
:1059B00007D1611C013009B20FFA80F94945B8BF1F
:1059C00089461F48FFF73CFF78B30560C0E902A88D
:1059D000C0F810900646BBF80800B08001AC204625
:1059E00005F016FCFF200A900020CDE908000F48C2
:1059F00004900F4803900F48CDE90160BBF8000008
:105A00000B90DBE90301CDE90610BBF80200404230
:105A10000C909DF8420000F0FE008DF842002046F8
:105A200005F046FC11B0BDE8F08FFEE74D4C0208D2
:105A3000ED4C02080D4B020801481421FFF7F8BE97
:105A4000180400202DE9FC4704466FEA02086FEABB
:105A50000109002701AD4FF0000A608CC0F3C500BA
:105A6000874280F0FD80E06800EBC70149688A0149
:105A700000F1EC8089B211EA090201EA0801B1FAE9
:105A800081F118BF012249094A4040F0DF8050F8F7
:105A9000376041F610012A46304619F025FC0028EF
:105AA00040F0DC80304641F61101FCF717FF00287A
:105AB00040F0D480304641F61201FCF70FFF002879
:105AC00040F0CC80304641F61301FCF707FF002878
:105AD00040F0C480304641F61501FCF7FFFE002877
