:020000040800F2
:10000000E8250020690200083F370008272A000879
:100010003D370008610D0008D55A000800000000B7
:100020000000000000000000000000002B44000859
:10003000630D000800000000833A000869440008CE
:10004000830200088302000883020008830200087C
:10005000830200088302000883020008830200086C
:10006000830200088302000883020008830200085C
:10007000830200088302000883020008830200084C
:10008000830200088302000883020008830200083C
:10009000E95900088302000883020008830200086F
:1000A000830200088302000883020008830200081C
:1000B000830200088302000883020008830200080C
:1000C00083020008830200088302000883020008FC
:1000D0008302000805470008830200088302000825
:1000E00083020008830200088302000800F002F87F
:1000F00000F0ABF80AA090E8000C82448344AAF117
:100100000107DA4501D100F0A0F8AFF2090EBAE814
:100110000F0013F0010F18BFFB1A43F0010318473B
:10012000DC9C0000FC9C00000A444FF0000C10F81E
:10013000013B13F0070408BF10F8014B1D1108BF65
:1001400010F8015B641E05D010F8016B641E01F805
:10015000016BF9D113F0080F1EBF10F8014BAD1C55
:100160000C1B09D16D1E58BF01F801CBFAD505E073
:1001700014F8016B01F8016B6D1EF9D59142D6D3CD
:10018000704700000023002400250026103A28BFF5
:1001900078C1FBD8520728BF30C148BF0B607047F9
:1001A0006E2900F01783702900F00F816629AFF3E4
:1001B00000806529AFF300806729AFF300806129D3
:1001C000AFF3008003681B0A28BF41F08001692952
:1001D00000F0C482642900F0C182752900F0BE825B
:1001E0006F2900F0FB83782900F0DB80E92900F01B
:1001F0009583E42900F09283F52900F08F83EF299D
:1002000000F0F883F82900F0DA800368DB0928BFE2
:1002100041F08001632900F06884732900F06D8447
:10022000E32900F07884F32900F07D8400207047F2
:100230001FB500F0FDFC04000020002106F09EF92F
:10024000401C60601FBD10B510BD00F0B6FC11462B
:10025000FFF7EEFF06F074F800F0DCFC03B4FFF7E4
:10026000F2FF03BC00F028FD094880470948004719
:10027000FEE7FEE7FEE7FEE7FEE7FEE7FEE7FEE756
:10028000FEE7FEE704480549054A064B70470000B3
:10029000E7440008ED000008E81F0020E8250020E2
:1002A000E8210020E82100207CB51D4616460C0000
:1002B000009007D04142A14202D32044401E01E0F9
:1002C0004FF0FF30064B7B442A466946019030468A
:1002D00000F099FA002C02D0009A002111707CBD28
:1002E000630500000FB4044910B503AA029800F09A
:1002F000A5FA10BC5DF814FB200E002070B5044672
:1003000085690068C10601D5302600E02026C007B7
:1003100007D070BDD4E9012130469047206A401CC7
:1003200020626D1EF6D570BD70B5044685690078F3
:10033000C00707D170BDD4E9012120209047206A71
:10034000401C20626D1EF6D570BD0000F0B40D4655
:100350000188090502D5214C7C4402E01F4C7C44F5
:100360000E34002100F1240608E002F00F07120904
:10037000E75D42EA03721B097754491C52EA0307FE
:10038000F3D102780023120704D5702D06D009B1ED
:10039000022311342246F0BC00F086B90123103448
:1003A000F8E770B504460D462146106800F04AF99A
:1003B000024629462046BDE870400023C6E7D21D0C
:1003C00022F00703D3E90023C0E70368126843F073
:1003D000200303600823C3610023B7E7C86500005A
:1003E0002DE9F05F894604464FF0000ADFF874B14A
:1003F000FB44C0F820A02046E1688847002874D05C
:10040000252806D0D4E901219047206A401C2062AB
:10041000F1E700265F462046E16888472028054628
:1004200007DB312D05D2781910F8200C08B10643EE
:10043000F1E7B00701D526F00406C4F81CA0002798
:10044000C4F818A02A2D09D0284606F090F838B331
:1004500004EB8708303DC8F8185019E059F8041B20
:10046000204604EB87029161E1688847012F054629
:1004700018D1E069002820DA26F020061DE0D8F81F
:10048000180000EB800005EB40003038C8F8180079
:100490002046E1688847054606F069F80028EED155
:1004A000012F0AD02E2D08D12046E16888477F1CF5
:1004B0000546022F46F02006C4DBA069002803DAB7
:1004C000404246F00106A061F00701D026F0100678
:1004D0006C2D0BD0682D09D04C2D39D06A2D35D01C
:1004E000742D35D07A2D33D016E038E0E1682F46F0
:1004F00020468847B842054609D16C2F26D04FF4D4
:100500008060E168064320468847054604E06C2F7A
:100510001AD04FF4807006430DB3A5F1410019289D
:1005200002D8203546F400664A4629462046266011
:100530004E46FFF735FE80B101280BD0F61D26F0A0
:10054000070000F1080956E74020E4E78020D8E7DB
:100550000020D6E706F104094DE7284652E7206A55
:10056000BDE8F09F5865000010B5044603E005F0B3
:10057000DDFE401C09D014F8010B05490028F6D116
:10058000BDE810400A2005F0D1BE4FF0FF3010BD8D
:10059000200E0020014A00F037BA000000000020C1
:1005A00010B5431C02E010F8011B71B18107FAD1AC
:1005B0004FF0013202C88C1A8C4314EAC211F9D0F0
:1005C000C01A0A0603D0C01E10BDC01A10BD0A040E
:1005D00001D0801E10BD0902FCD0401E10BD4FF09E
:1005E000000200B5134694469646203922BFA0E883
:1005F0000C50A0E80C50B1F12001BFF4F7AF09078F
:1006000028BFA0E80C5048BF0CC05DF804EB89007F
:1006100028BF40F8042B08BF704748BF20F8022BC2
:1006200011F0804F18BF00F8012B704770477047DA
:10063000704709684A0501D540B27047C905FCD525
:1006400000B2704709684A0501D5C0B27047C905B4
:10065000FCD580B2704770B50C460546012A05D01E
:100660002878800600D5EA69002302E0012305E02E
:100670005B1C934202D2E05C0028F9D1A869E6181D
:10068000C01AA861286A184428622846FFF736FE77
:1006900004E0D5E9012114F8010B9047B442F8D3E6
:1006A0002846FFF741FE70BD2DE9F0470D469946FB
:1006B0009246044600F124080168880604D5E069E2
:1006C00021F01001216000E00120A84201DD471B5C
:1006D00000E00027A1697A1902EB0900081AA0615D
:1006E0002078C00602D42046FFF708FE002608E066
:1006F000D4E901211AF806009047206A401C761CB4
:1007000020624E45F4DB2078C0060AD52046FFF76C
:10071000F5FD06E0D4E9012130209047206A401C15
:100720002062381EA7F10107F4DC07E0D4E90121BB
:1007300018F805009047206A401C2062281EA5F189
:100740000105F3DC2046FFF7EFFD2078000602D517
:100750000220BDE8F0870120FBE700002DE9F04111
:100760000646002410687529314616A510D0FFF7FB
:1007700060FF002802DA404213A507E031688A07CB
:1007800001D512A502E0490704D511A5012401E015
:10079000FFF758FF00210A2206F1240709E0B0FB09
:1007A000F2FCB0FBF2F302FB1C0030307854184628
:1007B000491C0028F3D123462A463046BDE8F041C3
:1007C000FFF772BF000000002D0000002B000000AA
:1007D0002000000011680268006A530501D5087006
:1007E0000AE0D30501D5088006E0130603D5C21739
:1007F000C1E9000200E008600120704701694A1C5D
:1008000002610878704700B58FB0CDE90131002151
:10081000059105497944CDE9031011466846FFF773
:10082000DFFD0FB000BD0000E5FFFFFFD1E90023B1
:100830009A4202D2531C0B6010707047074B70B580
:100840000D467B44FFF7DFFF0446284600F06FF9B2
:1008500010B14FF0FF3070BD204670BDE75A000068
:100860002DE9FF5F15468A460446DFF8AC80F84460
:100870000027D8E900103E46CDE9001010E03AF814
:1008800016106A4602A800F056F9411C07D02178DC
:10089000890603D5E269391891420DD80744761CC0
:1008A0002078800602D5E069B84205DDAE42E6DB7D
:1008B0003AF816000028E2D1A069C01BA0612046CA
:1008C000FFF71CFDD8E90010CDE90010002017E06B
:1008D0003AF818106A4602A800F02DF9B0F1FF3F6F
:1008E00081460BD000250DF1080B05E0D4E901216C
:1008F0001BF8050090476D1C4D45F7D308F101002A
:10090000B0428046E4DB206A384420622046FFF78C
:100910000BFDBDE8FF9F0000EE6000002DE9F041F7
:100920008046D21D22F007020025D2E90002F529F7
:1009300015A614D0011E72F1000106DA0023D0EBD7
:10094000030063EB020211A608E0D8F800108B0741
:1009500001D50FA602E0490701D50EA601251146D3
:10096000002408F1240704E000F070F830323A5512
:10097000641C50EA0102F7D12B463246214640461C
:10098000BDE8F041FFF790BE000000002D00000020
:100990002B0000002000000030B4002100F12404EE
:1009A00008E002F00705D208303542EA4372DB085E
:1009B0006554491C52EA0305F3D10468002310A2D0
:1009C000250708D504F020040C4304D0C469012392
:1009D0000CA2641EC46130BCFFF766BE10B50446AD
:1009E00021461068FFF72EFE02462046BDE8104063
:1009F0000023D1E7D21D22F00701D1E90023CBE784
:100A000000000000300000002DE9F04115460E46C0
:100A1000040002D12C6804B90BA4204600F0BFF8F2
:100A20000444207870B127463146384600F0A7F8D4
:100A30000444207810B1002004F8010B38462C60E3
:100A4000BDE8F0810027F9E70000000030B5B0F103
:100A50000A0271F100034FEA900E4EEA817EB0EB7C
:100A60000E0061EB91014FEA101E4EEA017E10EB81
:100A70000E0041EB11114FEA102E4EEA016E10EB01
:100A80000E0041EB11214FEA104E4EEA014E10EBE1
:100A90000E0041EB1141401841F100014FEAD00036
:100AA00040EA41704FEAD1014FEA810444EA907470
:100AB00010EB800544EB01046D1944EB0404521B58
:100AC000A3414FF0000348BF0A3200D530BD401C9F
:100AD00041F1000130BD10B5436913B1AFF300809F
:100AE00001E0FFF7B8FD012010BD127800F12401EC
:100AF0000A7000224A700122EDE711684FF0FF32C0
:100B0000E9E710B5436913B1AFF3008001E0FFF7E7
:100B1000A7FE012010BD128800F12401828400226A
:100B2000C2840122EDE711684FF0FF32E9E7007B54
:100B300000F0800070472DE9F04116460C4605464E
:100B400000F060F8036893F80101012807D0FF2C3A
:100B500012D8185D80B101202C70BDE8F081D3F867
:100B600007013246214603F20713C7182846BC4640
:100B7000BDE8F041002360474FF0FF30EDE730B5AE
:100B800003461D781DB10A4603E0AC4201D1181A94
:100B900030BD12F8014B002CF7D15B1CF1E730B5EA
:100BA00003461D783DB10A4612F8014B1CB1AC4218
:100BB000FAD15B1CF5E7181A30BD754600F034F821
:100BC000AE4605006946534620F00700854618B03A
:100BD00020B5FFF757FBBDE820404FF000064FF06F
:100BE00000074FF000084FF0000BAC46ACE8C0091E
:100BF000ACE8C009ACE8C009ACE8C00921F00701C5
:100C00008D46704710B500F013F8001D10BD00BFF1
:100C10006D59000010B50446AFF300802046BDE8D2
:100C20001040FFF71BBB000000487047C0010020C8
:100C300000487047E00100204FF0013C50F8042BC1
:100C400051F8043B9A4221D1A2EB0C03934313EADF
:100C5000CC1317D150F8042B51F8043B9A4215D10C
:100C6000A2EB0C03934313EACC130BD150F8042BE3
:100C700051F8043B9A4209D1A2EB0C03934313EAC7
:100C8000CC13DBD04FF00000704700BFD01A01BA80
:100C9000B1FA81F101F0180122FA01F0CB40DBB288
:100CA000C0B2C01AC1F120012CFA01F3D11A91434C
:100CB00011EAC311E6D1704701491820ABBEFEE727
:100CC000260002007047F0B585B00A9D1DB1032DC6
:100CD00008D9012021E00A240325C826CDE90065B2
:100CE000029418E00BAE341D0494012D0B9C04D12A
:100CF00003260A25CDE900460CE006F10807022D7F
:100D0000049777680FBF0A2506F10C050495357A1C
:100D1000CDE90047029504F049FF05B0F0BDF0B5FC
:100D200085B00C9FDDE90A5C1FB1022F04D90120B8
:100D300014E00A2403260BE00DAC261D0496012FB7
:100D40000D9E0FBF0A2404F1080704976468E4B2FB
:100D5000CDE9005CCDE9026404F044FF05B0F0BDCC
:100D6000FEE77047EFF3108072B6FEE7002200F056
:100D700001B80000B0B50E4C0346607A012884BF6C
:100D80000120B0BD657A00206055657A04EB8505C9
:100D90006B60637A23441A72627A531C3032637236
:100DA00042F63A73C8700A70A1F80130B0BD00BFB6
:100DB000640F00200548D0E90110081AC821C83086
:100DC00090FBF1F202FB1100704700BF20020020EF
:100DD00010B590F82110022912D10168D0E90F2333
:100DE0000C6824F00E040C600C6824F001040C6004
:100DF000012101FA03F3536080F82110002102E081
:100E0000042181630121002280F82020084610BDC2
:100E1000B0B590F8211002291CD103681F4C0122A3
:100E20001968A34221F00E011960196821F001012F
:100E30001960194912D01A4CA34211D0194CA3427F
:100E400010D0194CA34210D0184CA34210D14FF42B
:100E5000803415E00421816301211BE001240FE0AF
:100E600010240DE04FF480740AE04FF4805407E042
:100E700001F168054FF08074AB4208BF4FF4801455
:100E80000C60002180F8201080F82120426B0AB10C
:100E9000904700210846B0BD04000240080002400F
:100EA0001C00024030000240440002405800024052
:100EB000B0B5044600F0EAF805469248611C007897
:100EC00018BF044400F0E2F8401BA042FAD3B0BDC2
:100ED0002DE9FC4F5E4A04234FF0000A4FF0010851
:100EE0004FF00009904208BF0323009300250C68CF
:100EF00034FA05F208BFBDE8FC8F08FA05FE14EAD3
:100F00000E0F00F0A1804F68032F16D9112F26D0A5
:100F1000122F28D0514A974213D0514A974210D0ED
:100F2000504A97420DD0504A97420AD04F4A9742B2
:100F300007D04F4A974204D022E0DFE807F00218BA
:100F40001B1F8C6844B1012C14BFC0F814E0C0F81A
:100F500010E04FF0080913E04FF0040910E0CC68EE
:100F600004F104090CE0CC6804F10C0908E0D1F8A4
:100F70000C9005E0CC6804F1080901E04FF000098D
:100F800054460746082D4FF00F0228BF203C28BFCB
:100F900004373B6802FA04F609FA04F4B343234326
:100FA0003B60CB79DB064FD5674A2A4C1368A4F522
:100FB0007E7C43F00103136013682E4A03F00103A3
:100FC00090420193019B25F003035CF803B008D025
:100FD000294A904207D0294A009E904208BF022623
:100FE00002E0002600E001260AF00C030F22AF0801
:100FF00002FA03F406FA03F3164E174A2BEA040426
:1010000023434CF827304F68FB02B36854BF23EAF0
:101010000E0443EA0E04B460BB02136854BF23EA13
:101020000E0443EA0E041460BB03736854BF23EA42
:101030000E0443EA0E047460FB03336854BF23EAD2
:101040000E0243EA0E0232600AF1040A01354EE74D
:1010500000140140000401400C0401400000111084
:1010600000001210000021100000221000003110BA
:101070000000321000080140000C01400010014047
:10108000002A08BF09040161704700000548006894
:10109000704700BF1B48034900780A681044086085
:1010A000704700BFE01F002080B50748016841F08D
:1010B00010010160032000F081F8032000F006F821
:1010C00000F024F8002080BD0020024070B50D4ED5
:1010D00004464FF47A713078B1FBF0F00A490968A0
:1010E000B1FBF0F001F08EFA01250F2C08D838B9C9
:1010F0004FF0FF3021460022002500F039F87460DF
:10110000284670BD640000208C000020E0B50E4829
:10111000016841F001010160016801F001010191E4
:101120000199416841F080514160406800F0805071
:1011300000900098052000F041F804480222016860
:1011400062F31A6101608CBD181002400400014076
:10115000002809D4734602F05AFB9E46034A42EA2D
:10116000D00020F003000160704700BF00E100E004
:10117000F0B5184B4FF0FF361C68C4F30224E51E8F
:1011800084F0070438BF002506FA05F7BA43042C9B
:1011900028BF042406FA04F4A14300F00F04A94078
:1011A000043C1143044A234409010244002848BF77
:1011B00003F10C021170F0BD00E400E005494FF6A8
:1011C000FF030A681A4060F30A22034810430860CC
:1011D000704700BF0CED00E00000FA0504F01EFDB2
:1011E000B0B501F0070501EB810405EB850500EBC7
:1011F000C40400EBC5002830090658BF04F5B470DC
:1012000012B10121836001E0C3800021017300203D
:10121000B0BD704701EB810200EBC202D0F8EC02D6
:10122000D26B03F078BB01EB810200EBC202D0F875
:10123000EC02D2F87C2103F0CDBB10B5044602F0DD
:101240008FFAC3BF002281F8692101F5B471012230
:10125000DCBF81F829202831087094F8A802012801
:1012600004BF022010BD02F0BAFA04F0F9F802F04F
:1012700039BBB0B50446406801F00F02824201D983
:1012800001251BE002F06CFAC3BF002281F869213E
:1012900001F5B4710122DCBF81F8292028310870E2
:1012A000002594F8A8028D70012801D1022505E0DF
:1012B00002F095FA04F048F984F8A8522846B0BD27
:1012C00010B502F05FFB04BF022010BD01204AB23E
:1012D00084F8A8022068B2F1FF3F02DD04F07FFB32
:1012E00003E001F0070104F07CFB02F0FBBA01F01F
:1012F000070101EB810100EBC100D0F884017047C8
:10130000B0B5044602F02CFAC3BF002581F869513C
:1013100001F5B4710125DCBF81F8295028310A613B
:10132000CB700870022B04BF0020087194F8A8024B
:10133000012804BF0220B0BD02F051FA03F084FF7F
:10134000002084F8A802B0BDB0B501F00701002567
:1013500001EB810400EBC404006804F5BE7784F857
:10136000681104F5B47184F869512CC704F03AF996
:101370000020B0BDB0B50446406801F007058542C5
:1013800084BF0120B0BD48B2B0F1FF3F09DD01EBE1
:101390008100002104EBC00080F8691100F5B471F0
:1013A00008E005EB8500012104EBC00080F829105E
:1013B00000F1280194F8A82201200D708870012AFC
:1013C00004BF0220B0BD84F8A802206804F0F2F83F
:1013D00025B9206804F52C7104F0B4F8002084F8D5
:1013E000A802B0BDB0B501F00704002504EB8401EC
:1013F00000EBC101006801F8284F012401F1140736
:1014000081F824400B624C702CC704F0EBF80020EC
:10141000B0BD00002DE9F04F85B00446006804F02F
:10142000E9FA010419D4410500F16D83410400F18A
:101430007A83810400F17C83C10400F17E8301057D
:1014400000F19483810500F1D683C00540F18B83C0
:1014500002F0FEFA21F4807183E304F52C70009011
:1014600040F60F752068B0F94410B1F1FF3F00F36A
:101470007A83B0F8442012F00F0843D030F92810D6
:101480004FEA480A1FFA81F9B1F1FF3F00F33281B8
:1014900030F81A102940803120F81A1008EB880122
:1014A00004EBC10B9BF874110BF5B476002900F026
:1014B000BD809BF86B11022940F0C8803178B0F8EC
:1014C0005020DBF880315FEA494702EBC10200EBB4
:1014D00042050BF5C07200F1D480B5F80C740025FC
:1014E0006FF39F27DB1B38BF2B46136001D802F038
:1014F0002EFA5FEA496240F60F7500F1BE8002F0F5
:101500005EFABAE00188D2062AD4294001F50041EA
:10151000018094F82810B0F8502002EBC10100EBD4
:101520004100E16BB0F804046FF39F20606408444D
:101530000021E0632046FFF76DFE94F824000028A8
:1015400090D0206C00288DD1206894F8241041F0B0
:101550008001C9B2A0F84C10002084F8240081E773
:101560000A054BD409B2B1F1FF3F3FF77BAF0188C9
:1015700029408031018002F070F900EB4101B1F89F
:101580000C346FF39F23C4F8843193B1D4F87C11E9
:1015900079B1B4F86E2104F030FAD4F87C01D4F8B3
:1015A000841108440021C4F87C012046FFF73BFE6B
:1015B000206801880A053FF555AF01F44051B1F5A7
:1015C000405F3FF44FAFB0F8501000F20C42535A56
:1015D0006FF39F235352D4F878313F2BC0F0FD8036
:1015E000DD064FF0FF364FEA531508BF06EB5315E3
:1015F0008B5A43EA852340F60F75FAE002F02DF985
:10160000B4F86E2100EB4101B1F80C3400996FF38E
:101610009F23C4F8843104F0F0F920680188294040
:1016200080310180204600F09DFB1BE73178B0F847
:10163000502002EBC10100EB4101B1F80C746FF3D3
:101640009F27002F3ED0BBF86E2135E0317848F25D
:10165000C00330F821202A401A4320F8212030F816
:101660002120B0F8503003EBC101520400EB4101DE
:101670001BD4B1F80C746FF39F271FB3BBF8722112
:101680001AE0B5F8047400256FF39F27DB1B38BF01
:101690002B46136001D802F05AF95FEA496240F61E
:1016A0000F7506D502F08BF903E0B1F804746FF3FF
:1016B0009F273FB1BBF87021DBF87C113B4604F05B
:1016C0009CF900E000270BF5BE7207CA3A44384483
:1016D000CBF88421CBF87C0119B1DBF87801B84252
:1016E00004D931782046FFF79EFD03E0206831469B
:1016F00003F078FF5FEA09607FF5B4AE206830F848
:101700001A10294001F5004120F81A1008EB880151
:1017100004EBC10797F82B1007F1280A01291BD108
:101720000021396497F83410002950D05FEA4961EC
:1017300032D497F82910012940D0002947D102F06E
:1017400091F9B0F80C146FF39F21A0F80C14B0F8C5
:101750000C1441F4004133E05FEAC95157D43B6CAB
:101760009AF80010B0F85020002602EBC10200EBFE
:101770004202B2F804246FF39F229B1A38BF33460B
:101780003B6426D9F96B7B6C1144F9639918796431
:10179000514603F027FF65E697F82910012912D07A
:1017A000A9B902F05FF9B0F804146FF39F21A0F813
:1017B0000414B0F8041441F4004106E002F022F9E8
:1017C000A0F80C1403E002F01DF9A0F804149AF834
:1017D00000102046FFF71EFD44E64BB103F0010662
:1017E0008D5A06EB530345EA832340F60F7502E05A
:1017F0008B5AE44E33438B5243F60F7201881140EB
:101800004AF2800202F58052514001802AE69AF89D
:101810000010B0F8502040F60F7B5FEA496502EBFC
:10182000C1033A4652F8406F3BD400F20C4838F8F6
:1018300013506FF39F25731B4FF0000638BF3346DC
:10184000136068D95FEA49420AD430F821204AF28D
:10185000800303F5005302EA0B021A4320F821200B
:101860003A4612F84C3F012B40F03E813B4653F87C
:10187000489F53E904E653F804BC06EB050C0BEB58
:10188000050643F80CCC43F8046CF14580F0B080B9
:10189000B9F1000F00F0DA800025CE4615701D600A
:1018A000D7E000F2044838F813306FF39F23F51A9D
:1018B0004FF0000638BF354615604BD95FEA494204
:1018C0000AD530F821204AF2800505F5005502EAD4
:1018D0000B022A4320F821203A4612F84C5F012DD2
:1018E00040F002813D4655F848EF55E904BC55F8F3
:1018F000049C9C4409EB030645F80CCC45F8046CA9
:10190000DE4579D24FF00009BEF1000F82F8009059
:1019100075D19E4675E097F82920012A39D0002A12
:1019200040D1B0F8503000EB01121A44B2F8043440
:101930006FF39F23A2F80434B2F8043443F4004355
:1019400001F09CFF135A6FF39F231352135A43F471
:10195000004326E097F82920012A2AD092BBB0F84C
:10196000503008EB0112D55A6FF39F25D552D55A46
:1019700045F4004502F07EF8B0F80C246FF39F2286
:10198000A0F80C24B0F80C2442F40042A0F80C2477
:1019900018E0B0F8503000EB01121A44002301F0B7
:1019A0006DFF13522046FFF735FC5FEA494010D522
:1019B0009AE0B0F8503008EB0112002502F05AF816
:1019C000A0F80C542046FFF725FC5FEA494040F19F
:1019D0008B809AF8000021684AF2800303F50053D7
:1019E00031F8202002EA0B021A4321F820207BE084
:1019F000A9EB0E021A602CE0AEEB0B09DE46C5F82F
:101A0000009097F82920012A19D0002A60D1B0F857
:101A1000503008EB0111BEF13F0FCA5A6FF39F22FD
:101A2000CA523BD35FEACE624FF0FF354FEA5E12F7
:101A300008BF05EB5E125D5A45EA822245E0B0F828
:101A4000502008EB011121F802E041E00023AE46EE
:101A5000137097F82920012A19D0002A3ED1B0F836
:101A6000503008EB0111BEF13F0FCA5A6FF39F22AD
:101A7000CA521ED35FEACE624FF0FF354FEA5E12C4
:101A800008BF05EB5E125D5A45EA822223E0B0F8FA
:101A9000502008EB011121F802E01FE0BEF1000F19
:101AA00012D00EF001055A5A05EB5E0542EA852276
:101AB0000DE0BEF1000F0DD00EF001055A5A05EBF6
:101AC0005E0542EA852208E05A5A42F400425A5220
:101AD0003A8E04E05A5A42F400425A527A8E1FFA61
:101AE0008EF3614603F0A6FF9AF80000216840F6E5
:101AF0003F7331F820201A4048F2C003103B5A408F
:101B000021F82020ACE401F0A3FF21F48061A0F8CB
:101B10004410204600F0FEF82046002105B0BDE844
:101B2000F04F00F011B901F093FF21F4804118E06B
:101B300001F08EFF21F4005113E02068B0F840104E
:101B400021F00401A0F84010B0F8401021F0080185
:101B5000A0F84010204600F0EFF801F079FF21F4E2
:101B60008051A0F8441005B0BDE8F08F2068002235
:101B700001A9082A08D030F8223021F812300132A9
:101B8000F7E700BF0080FFFFB0F8402042F00102FD
:101B9000A0F84020B0F8402022F00102A0F8402038
:101BA000B0F844205205FBD5B0F8442022F48062FE
:101BB000A0F844200022082A05D031F8123020F87D
:101BC00022300132F7E7B0F8401041F00801A0F8E8
:101BD0004010B0F8441021F40061A0F84410B0F8AF
:101BE000401041F00401A0F84010204605B0BDE8C7
:101BF000F04F00F0D1B801F02BFF21F40071A0F8F4
:101C00004410204605B0BDE8F04F00F099B8F0B59B
:101C100085B0002852D0044690F8A90228B90020C7
:101C200084F8A802204600F057F8032084F8A9029F
:101C3000206803F080FC94E8EF508DE8E05003F05A
:101C40000DFCC0BB20680021002503F0EBFE61689D
:101C500001200022D3B299420ED903EB830304EB97
:101C6000C30383F82820C3E90E551D6483F82B5065
:101C700083F829000132EDE700200022D3B2994217
:101C80000FD903EB830304EBC30383F86821C3E993
:101C90005E00C3F8800183F86B0183F869010132AB
:101CA000ECE704F1080E20689EE8EC508DE8E05067
:101CB00003F035FC30B1022084F8A9020125284642
:101CC00005B0F0BD0025012084F8245084F8A90255
:101CD000206803F022FCF2E7E0B500680B49884277
:101CE00018BF8CBD0A480022016841F40001016060
:101CF0000021006800F40000019001981420FFF713
:101D000037FA1420BDE88C40FFF722BA005C00408F
:101D10001C10024010B504468068022818BFFFF767
:101D200021F8D4F8EC02012102F03CFFD4F8EC02D7
:101D3000BDE8104002F0F8BED0F8EC0202F01CBF83
:101D4000D0F8EC0202F022BF10B501F01BFE04BF78
:101D5000022010BD84F8241001F041FD03F064FE60
:101D600001F0C0BDD0F8EC2200F52C71104602F055
:101D700025BF10B501F006FE04BF022010BD01F022
:101D80002EFD03F025FE20460121FFF742FA2068D0
:101D900003F0C1FB01F0A6BD10B50446D0F8EC027B
:101DA00002F049FFA06920B10248016841F0060134
:101DB000016010BD10ED00E02DE9FC410446007803
:101DC0009E4EC00743D0B06910F0805808D1B0696A
:101DD00040F08050B061B06900F0805001900198EF
:101DE0002C4F3868C00511D4386840F480703860D2
:101DF000FFF74CF905463868C00507D4FFF746F9E8
:101E0000401B6428F7D90320BDE8FC81F06910F479
:101E100040700FD0616801F4407188420AD01E49B9
:101E2000F06901220A6000220A6020F44071C007B4
:101E3000F16120D16068F16921F440710843B8F183
:101E4000000FF06103D1B06920F08050B0612068CC
:101E5000810705D5A168326822F440421143316000
:101E6000C00605D5E068316821F480010843306080
:101E70000020BDE8FC81FFF709F9054641F28837EB
:101E8000F0698007D6D4FFF701F9411B0320B9425E
:101E9000F6D9EEE700700040400442422DE9F843D5
:101EA00000286CD0884649490446086800F00700BD
:101EB00040450AD2086820F0070040EA08000860A0
:101EC000086800F00700404559D120685B4B8946FF
:101ED000810711D5410703D5196841F4E061196004
:101EE000010703D5196841F460511960A1681A68A7
:101EF00022F0F00211431960C00737D1D9F8000071
:101F000000F0070040450DD9D9F8000020F0070087
:101F100040EA0800C9F80000D9F8000000F0070006
:101F200040452CD12068410705D5E1681A6822F4A4
:101F3000E06211431960000706D52069196821F491
:101F4000605141EAC00018601C4600F05DF821684D
:101F50001F4AC1F30311515CC840294908601D485C
:101F60000068FFF7B3F80020BDE8F8836068022836
:101F700008D0012825D153F8041C890306D4012078
:101F8000BDE8F88353F8041C8901F8D519681D468B
:101F900021F0030108431860FFF778F8064641F284
:101FA0008837606829682B4601F00C01B1EB800F7F
:101FB000A4D0FFF76BF8801BB842F2D90320BDE82C
:101FC000F88353F8041C8907D9D5DFE700200240C5
:101FD0006869000868000020DD481849094A00685F
:101FE0000968C1F30221515CC8407047D8481349C1
:101FF000044A00680968C1F3C221515CC8407047B7
:102000008C0000207869000810B50C490C480A685B
:1020100002F00C03082B07D1C2F3834309A4D203B7
:10202000E35C02D40C48584310BD096809A2584328
:10203000C1F34041515CB0FBF1F010BD041002400F
:1020400000127A0002030405060708090A0B0C0DAA
:102050000E0F10100102000000093D002DE9FC41A7
:10206000002800F09C8004460078B74EC0071FD0BF
:10207000706800F00C00042814D001F03DFC02D17F
:102080007068C0030ED46068002800F01481B0F5B9
:10209000A02F00F02181B0F5803F00F0218101F0F8
:1020A0006DFB20E13068800302D56068002876D09F
:1020B0002078800716D5706810F00C0F05D001F05D
:1020C0001BFC24D17068C00321D43068800702D57E
:1020D0002069012863D16069316821F0F80141EA83
:1020E000C00030602078000741D5A06910B3974840
:1020F0000121C0F88014FEF7C9FF0546706A800709
:1021000028D4FEF7C3FF401B0228F7D9F8E0216965
:102110008E48002900F08E8001210160FEF7B6FF95
:10212000054630688007D6D4FEF7B0FF401B022872
:10213000F7D9E5E085480021C0F88014FEF7A6FF36
:102140000546706A800712D5FEF7A0FF401B0228E3
:10215000F7D9D5E07E484FF4FA510068B0FBF1F0B2
:10216000019000BF0198411E00280191F9D120780B
:10217000400717D4E7697FB101F0BEFB3CD1012FC6
:102180000DD0216A706800F480328A4207D1616AFA
:1021900000F47010884202D10020BDE8FC810120CB
:1021A000BDE8FC81F06910F0805808D1F06940F07A
:1021B0008050F061F06900F0805000900098654F09
:1021C0003868C0050FD4386840F480703860FEF776
:1021D0005DFF05463868C00505D4FEF757FF401B74
:1021E0006428F7D98CE0E068A0B3052844D0012822
:1021F00046D001F004FB46E05449002088460866BA
:10220000FEF744FF0546022F0AD147463068800199
:1022100079D5FEF73BFF411B03200229F6D9BCE725
:1022200030688001B8D5FEF731FF411B0320022939
:10223000F6D9B2E700210160FEF728FF05463068B5
:1022400080077FF54FAFFEF721FF411B03200229D6
:10225000F5D9A2E701F0D3FA3062FEF717FF054681
:1022600041F28837306A80071CD5FEF70FFF411B0B
:102270000320B942F6D990E7306A40F0040030629A
:10228000306A40F001003062FEF700FF054641F27F
:102290008837306A800705D4FEF7F8FE401BB84245
:1022A000F7D92DE0B8F1000F7FF464AFF06920F0AA
:1022B0008050F0615EE701F061FA3060FEF7E6FE03
:1022C0000546306880037FF5F3AEFEF7DFFE411B65
:1022D00003206429F5D960E7306840F4802030603D
:1022E000306840F480303060FEF7D0FE054630683C
:1022F00080033FF5DDAEFEF7C9FE401B6428F6D92A
:102300000320BDE8FC81206AB0F5803F05D1A168BB
:10231000726822F4003211437160616A726822F4BB
:10232000741211430843706001203866FEF7AEFE58
:102330000446306880013FF52FAFFEF7A7FE011B72
:1023400003200229F5D928E700100240000042428C
:102350008C0000200070004070B538B10446406A1F
:1023600030B10020206104F1140007E0012547E0AE
:102370006068B0F5827F03D004F11C000021016089
:102380000025A56294F8510020B9204684F85050E9
:1023900000F038F8022084F8510094E80F0001F4AE
:1023A000827102F404420668114403F4006211448D
:1023B00026F040060660226902F0020211446269BA
:1023C00002F001021144A26902F400731944E369A6
:1023D00003F038031944236A03F080031943A36A06
:1023E00003F4005319430160042101EA12414160E2
:1023F000C16921F40061C1610120656584F8510063
:10240000284670BD70B586B0184C0068002604964A
:10241000A4F55441884227D11548416841F48041D0
:102420004160416801F4804101910199016841F0E6
:1024300008010160006800F0080001900320059089
:10244000022003904FF420400290019802AD2046F4
:102450002946FEF73DFD4FF480402946CDE903664D
:1024600002902046FEF734FD06B070BD000C01401E
:10247000181002402DE9F84301F011FA04BF0220C0
:10248000BDE8F88301201E46154601F05BFA94F87A
:102490005110814601290BD06068B0F5827F5ED172
:1024A000A2680220002A40F09B80042940F0988016
:1024B000002F00F09480002D00F09180002E00F09D
:1024C0008E8094F8510004281CBF052084F8510028
:1024D00000206065E687E686C4E91000A563A6874C
:1024E0002763A68620680168490601D401F0F5F942
:1024F000E268DDF820806168B2F5006F31D109B182
:10250000012E01D101F0DCF9012608F10105E08E70
:1025100010B9E08F00285AD001F009FA0CD5E18EED
:1025200051B1012E08D1216B002631F8022BC26077
:102530002163E18E0139E1868168C90706D0E18F08
:1025400021B1A16BC068012601F0F5F9FEF79EFDEF
:10255000002DDCD0A0EB09004045D8D332E00220AA
:102560003EE009B1012E02D1397801F05BFA012673
:1025700008F10105E08E08B9E08F40B301F0D7F90A
:102580000ED5E18E61B1012E0AD1216B00260978AA
:102590000173216B206801312163E18E0139E186ED
:1025A0008168C90706D0E18F21B1A16BC0680126FF
:1025B00001F07AF9FEF76AFD002DDBD0A0EB0900EF
:1025C0004045D7D3012084F85100032008E020467D
:1025D00041464A4601F092FE38B120206065012054
:1025E000002184F85010BDE8F883A06808B901F014
:1025F000F7F9616D01200029F2D184F85100002023
:10260000EEE70000411E0020B0EB116F1CBF01205F
:102610007047044AF023516003490B700721906012
:102620001160704710E000E023ED00E07047704754
:102630007CB5044600680268C168456913073FD04D
:1026400001F4907605F0010576193DD0D60705D046
:10265000CE0503D5666C46F001066664560704D5C0
:102660001DB1666C46F002066664960704D51DB17E
:10267000666C46F004066664002B07D501F0200363
:102680005B1903D0636C43F008036364636C002B35
:1026900000F0E080920605D5890603D5204601F0BA
:1026A0004AFF20684069616C00F0400001F00801B9
:1026B000401847D12046FFF7BAFF00206064C9E008
:1026C000930601D58B0654D4236B012B03D1D3067B
:1026D00001D5CB0652D4130601D50B0611D45206F0
:1026E00040F1B880490640F1B580C16821F0400151
:1026F000C160202084F841002046BDE87C4000F005
:1027000091B994F84110212940F0A480A168B1F555
:10271000805F03D12169002900F09D80216A4A1C55
:10272000226209784160E18C0139E184090440F0BA
:102730009180C16821F08001C160C16841F0400111
:10274000C1607CBD204601F0D5FE01F0B5F84DD545
:1027500001F064F8FCD1E06B002847D042494163A6
:10276000FEF756FB002875D0E06B416BBDE87C405E
:1027700008472046BDE87C4001F0DDBE0021019104
:10278000016801914168019101994069400632D484
:10279000E08DA18DE28D002A5CD081425AD0081ACA
:1027A000216851E8031F226821F4907142E8031365
:1027B000002BF5D1216851E8051F226821F00101A5
:1027C00042E80513002BF5D1202184F842100021A6
:1027D0002163216851E8031F226821F0100142E8BB
:1027E0000313002BF5D1022161632DE02046BDE8E3
:1027F0007C40FFF71CBFE06B016849688AB24AB3AE
:10280000A38D9A4226D2E1858069202817D001F055
:102810005FF820F4807001F0ECF8F8D100F0B6FF1A
:10282000FCD100F0FBFFFCD1202084F84200002006
:10283000206301F066F8FCD1E06BFEF7C9FA0220D4
:102840006063A08DE18D401A81B22046BDE87C40D6
:10285000FFF7ECBE7CBD216A31F8022B6FF35F22DB
:10286000216242605FE700BFE944000890B110B503
:10287000044690F8410008B901F0EEF801F08FF835
:102880002068016921F490410161416921F02A0128
:1028900001F0D0B80120704770B586B01C4C0068BC
:1028A0000026049604F5405188422FD1194801684A
:1028B00041F480410160016801F480410191019976
:1028C000016841F004010160006800F0040001901B
:1028D00003200590022003904FF4007002900198AD
:1028E00002AD20462946FEF7F3FA4FF480602946F0
:1028F000CDE9036602902046FEF7EAFA2520022180
:102900000022FEF735FC2520FEF722FC06B070BD44
:10291000000801401810024010B590F84230202BFA
:1029200006D139B132B10024046301F0A5FE02E002
:10293000022400E00124204610BD000010B504462A
:1029400000680D49884218BF10BD0C48D0E901123B
:10295000891AC822C83191FBF2F303FB1211C62970
:1029600002DC007803F0B8F8044920460122BDE8F3
:102970001040FFF7D1BF00BF003801402002002007
:102980002DE9F843044690F8410020281CBF02209E
:10299000BDE8F8838846B1B11746A2B100201D46B4
:1029A0006064212084F84100FEF770FBE78406464E
:1029B000A784A068B0F5805F01D1206930B14FF0E5
:1029C0000009474604E00120BDE8F8830027C1461E
:1029D000E08CB8B12046802132462B4601F065FEDE
:1029E000B8B927B117F8010B2168486006E039F83B
:1029F000021B206800276FF35F214160E08C0138E3
:102A0000E084E5E72046402132462B4601F04DFEAA
:102A100010B10320BDE8F883202084F84100002095
:102A2000BDE8F8837047FEE770B501310023372415
:102A300072B1060F01F8023B04EB1075B0F1204FA4
:102A400038BF06F1300501F8035C013A0001EFE7F9
:102A500070BD00002DE9F843DFF8D49307462A2023
:102A6000984615460E46C847074C3846A0472846A4
:102A7000A0472B20C8473046A0474046A0472C20FF
:102A80004946BDE8F84308470D32000810B5144622
:102A900002460B46FFF7DEFF2046BDE8104000F07F
:102AA000B5BB0000F8B50746501E14461D460E463D
:102AB00082B2581E83B23846FFF7CCFFA81B069B94
:102AC000114DC7F1010100220130B2F5F07F03D0B2
:102AD00025F812300132F8E721440B4D00FB01F4D8
:102AE000B4F5F07F07D328464FF4F07100F0ACFB4B
:102AF000A4F5F074F4E72CB103482146BDE8F84092
:102B000000F0A2BBF8BD00BF7C15002070B5C54821
:102B10004FF40054C44E04606420B047C34D642099
:102B2000C5F80048B0474FF4004028606420B04723
:102B3000BF4CEF20A047EB20A047BE4D1420A84774
:102B4000FE20A047EF20A047EB20A0471420A84775
:102B50008420A0474020A8478520A047FF20A84701
:102B60008620A047FF20A8478720A047FF20A8472E
:102B70008820A0470A20A8478920A0472120A847ED
:102B80008A20A0470020A8478B20A0478020A84784
:102B90008C20A0470120A8478D20A0470120A847EE
:102BA0008E20A047FF20A8478F20A047FF20A847DE
:102BB000B620A0470020A8472020A8473620A047DD
:102BC000C820A8473A20A0470520A8479020A04742
:102BD0000820A8470820A8470820A8470820A84799
:102BE000BD20A0470620A847BC20A0470020A8473A
:102BF000FF20A0476020A8470120A8470420A8473D
:102C0000C320A0471320A847C420A0471320A847EB
:102C1000C920A0472220A847BE20A0471120A847CE
:102C2000E120A0471020A8470E20A847DF20A0479A
:102C30002120A8470C20A8470220A847F020A04741
:102C40004520A8470920A8470820A8470820A847EA
:102C50002620A8472A20A847F120A0474320A847BC
:102C60007020A8477220A8473620A8473720A847D9
:102C70006F20A847F220A0474520A8470920A84771
:102C80000820A8470820A8472620A8472A20A847A8
:102C9000F320A0474320A8477020A8477220A847E8
:102CA0003620A8473720A8476F20A847ED20A04727
:102CB0001B20A8470B20A847AE20A0477720A84795
:102CC000CD20A0476320A8477020A0470720A84731
:102CD0000720A8470420A8470E20A8470F20A84790
:102CE0000920A8470720A8470820A8470320A8478D
:102CF000E820A0473420A8476220A0471820A84712
:102D00000D20A8477120A847ED20A8477020A847AC
:102D10007020A8471820A8470F20A8477120A8476F
:102D2000EF20A8477020A8477020A8476320A0473D
:102D30001820A8471120A8477120A847F120A847CC
:102D40007020A8477020A8471820A8471320A8473C
:102D50007120A847F320A8477020A8477020A847F3
:102D60006420A0472820A8472920A847F120A84789
:102D70000120A847F120A8470020A8470720A8471E
:102D80006620A0473C20A8470020A847CD20A847A0
:102D90006720A8474520A8474520A8471020A847F6
:102DA0000020A8470020A8470020A8476720A04788
:102DB0000020A8473C20A8470020A8470020A8479B
:102DC0000020A8470120A8475420A8471020A84762
:102DD0003220A8479820A8477420A0471020A84771
:102DE0008520A8478020A8470020A8470020A847A2
:102DF0004E20A8470020A8479820A0473E20A8477B
:102E00000720A8473520A0472120A0471120A04730
:102E10007820B0472920A04714203146BDE87040F3
:102E2000084700BF14100140B10E0008100801400F
:102E30006D320008313200082DE9F04F87B0119E45
:102E4000824690461C460D46069100EB560001381E
:102E500082B28819013883B25046FFF7FBFDA6F114
:102E60000C0001237508C1B2800140EA91003109CC
:102E70006A0718BF03EB16117143C2B23748002727
:102E8000002356460491A8F12001DDF84880039202
:102E9000C9B200EB0110029101902E4800EB8110A5
:102EA00000900498834251D2052A4FD80593DFE859
:102EB00002F0030A4D0C4D130298294900EB400023
:102EC00001EB800009E0019807E00298224900EB3D
:102ED000400001EB001000E0009818444FF0000B98
:102EE00090F80090BBF1080F2CD0012000FA0BF0F5
:102EF000B8F1000F00EA09000DD028B10699B0B270
:102F0000224689B2FFF7C2FD0136B0B2A0EB0A003B
:102F1000A8420ED110E000282046109908BF0846AC
:102F200000F074F90137F8B2B0FBF5F101FB1500C0
:102F300038B10BF1010BD5E70698564601300690E3
:102F400000E00027059B039A0133AAE707B0BDE81C
:102F5000F08F00BFEF8500081F7400082F6E000877
:102F6000BB6900082DE9F04F89B0CDE90601304971
:102F700010461C4603F00AFC03F0D8FB0890149896
:102F80004FF0000A400805905FFA8AF85FFA84F96A
:102F9000C14549D96FEA0A002044C0B203F0DDFA06
:102FA0000146A9F1020040451BD11398DDE90579DE
:102FB000079D149E4FF0000B04912E22CDF808B00F
:102FC000009008FB0790B846129F2946019680B2F0
:102FD0003B46FFF731FF0499139A01340AF1010AC5
:102FE00007E0149E079DDDE90589DDE912724FF0C7
:102FF000000B08988DE844083B46B0FBF1F00A212D
:10300000B0FBF1F101EB8101A0EB41015FFA8AF025
:1030100000FB089041F03001CAB2294680B2FFF7A8
:103020000BFF0AF1010AAFE709B0BDE8F08F00BF5E
:103030000000C8422DE9F04F85B0074610981C46A5
:103040000E464FF000084FF000094FF0000A4FF015
:10305000000B04924508581E03904C4539D06FEA86
:103060000B002044C0B203F078FA0499B1FBF0F0F1
:103070000A21BAF1000FB0FBF1F101EB8101A0EBE5
:10308000410106D10398484503DD080417D04FF0ED
:10309000010A0F9841F03001CAB2314600901098F1
:1030A00001900020029008EB070080B20E9BFFF712
:1030B000C3FEA8440BF1010B09F10109CDE70F98FC
:1030C0004FF0000A3146202200901098CDE9010A05
:1030D000E9E705B0BDE8F08F2DE9FE4FDDF834805B
:1030E000DDF838A0DDF830B0994615460E460746A3
:1030F0004FEA58042A785AB1B8B231464B46CDE966
:1031000000B8CDF808A0FFF797FE27440135F1E796
:10311000BDE8FE8F2DE9FF470025FDF7B7FF064606
:1031200042F210770024BD4207D8A0B200F050FB55
:10313000FDF7ACFF851B0134F5E7274E4FF0000982
:103140004FF0100A4FF6FF771FA2142068214FF4AA
:1031500078434FF47848CDE9007ACDF80890B0472D
:103160001EA21420782100F0F4FA20A21420882155
:1031700000F0EFFAA2B2862088210523CDE900876E
:10318000CDF808A0FFF756FF1CA21420982100F0EC
:10319000E0FA204603F0E6FA0446284603F0E2FA95
:1031A000194903F001FA0146204603F0FDF90246F1
:1031B0005C2098210523CDE90087CDF808A0FFF712
:1031C000D1FEBDE8FF8700BF6C6364207465737433
:1031D000206F6B2100000000D93000087465737403
:1031E0002074696D653A203130730000746F74612A
:1031F0006C206672616D653A200000006C6364208B
:103200006670733A2000000000007A4470B51D4DCE
:10321000044610204FF48076C5F80004200A6E6042
:1032200000F032F8E0B200F02FF82E6070BD00BF61
:10323000B0B5144C10214FF48075C4F800146560CB
:1032400000F022F82560B0BD70B50E4E00F078FA9F
:1032500044B1687800F018F815F8020B00F014F883
:10326000013CF5E74FF48070306070BDB0B5114996
:10327000044C10224FF480750A60656000F004F879
:103280002560B0BD100801404FF470410201084BA9
:1032900061F31F100549585002F17060202120F0A1
:1032A000F0001860034801601960704700FCFFFFE0
:1032B000100C0140140C014070B500260FA418A595
:1032C00000F060FEA8B1302E84BF4FF0FF3070BD1B
:1032D00001462046FDF706F84FF4FA70FDF7E8FDC9
:1032E0002846FDF741F94FF4FA70FDF7E1FD01368C
:1032F000E6E70FA0FDF738F9002070BD53442069C0
:103300006E697469616C697A65206572726F72208A
:10331000636F64653A2030782532580D0A0000004A
:10332000506C6561736520436865636B210D000017
:10333000534420696E697469616C697A652073759C
:103340006363657373210D00B0B5D0F8B8520446BD
:1033500095F8180868B12046812101F05AFC687A76
:10336000022818BFB0BD00F028FABDE8B04001F057
:10337000D2BBD5F814080028EDD0687A0028EAD12D
:103380002046012101F045FCE5E710B5D0F8B84230
:10339000627A022A05D1812101F03BFC0020607293
:1033A00005E049B2B1F1FF3F01DC012A00D110BDB7
:1033B0000121BDE8104000F0B3B810B50446D0F8C4
:1033C000B802017ACA1E022A05D200212046BDE8B1
:1033D000104000F0A5B8022909D190F8191800F69C
:1033E0001B02204600F07EFBB0F1FF3F00DD10BD68
:1033F0000121EBE7B0B5D0F8B8520446287A01288D
:103400002AD080BBD5F81008D5F81418C5F83008B4
:10341000C5F834182046012101F024FB1F280DD1E6
:10342000D5F80C082849884208D195F819180129BF
:1034300004D895F81A0808B1112815D395F8191869
:1034400020460522202300F063FD022068722046FA
:10345000BDE8B040FFF778BF95F8191800F0EEF915
:10346000B0F1FF3F26DDB0BD00F0E8F9297AB0F1F8
:10347000FF3F1DDD481E0328F5D36B8903B3D4F845
:10348000B8020021D0F8342880F8381804210172DD
:10349000D0F81418D21A9942C0F8342838BF0B4615
:1034A00005F10C0220468121BDE8B04001F0CCBB03
:1034B0000529CCD120460121BDE8B04000F030B84C
:1034C00020460021F8E700BF55534243D0F8B80228
:1034D000002101727047B0B50446D0E9AE5000211A
:1034E0002981A5F85C180168002088472046012141
:1034F00001F0AFFA2046812101F0ABFA00F05DF94E
:10350000BDE8B04001F007BBD0F8B8124FF48072AC
:103510001F230A8101F60C02012101F0FCBA000010
:10352000B0B5D0F8B852044609480D23C5F82C08A8
:10353000002085F8381805F62C02812128722046D3
:1035400001F082FB00F039F9BDE8B04001F0E3BAC8
:103550005553425310B5034C0348611CFDF706FC5C
:10356000207010BD74020020880100202DE9F04F6A
:1035700085B03748384D01224FF400574FF001080D
:10358000016841F010010160016801F01001019132
:103590000199016841F020010160016801F02001FA
:1035A00001910199016841F004010160016801F095
:1035B000040101910199016841F0080101604FF493
:1035C0000051006800F0080001900198214800F5C2
:1035D000006681463046A847484648F20F1101224E
:1035E000A84709F5806441F2C10100224FF0000AAA
:1035F0002046A847204640F63A710122A84701A874
:103600004FF0030B154D80E8800D01AF3046394671
:10361000A84702A8394680E8000D48F20F10019033
:103620004846A84702203946CDE9028A049041F273
:10363000C30001902046A84702A8394680E8000D43
:1036400040F6387001902046A84705B0BDE8F08FDD
:10365000181002400008014081100008D10E000837
:10366000F8B50F4800220A210E4F4FF482764FF42E
:10367000007301240225C0E90A213821C0E908228B
:10368000C0E90076C0E90222C0E90454C0E906316D
:10369000FEF762FE18B1BDE8F840FDF763BBF8BD68
:1036A000241500200038004010B50E4C0E490C22A5
:1036B0004FF4E133204640F80C1F0021C0E90131EE
:1036C000C0E90311C0E90521C161FFF7CFF808B1D6
:1036D000FDF748FB04F10C0021460122BDE8104033
:1036E000FFF71AB9200200200038014080B50F48CA
:1036F0000F49002201F0E8F808B1FDF733FB0B4851
:103700000C4901F0ACFB08B1FDF72CFB07480A4956
:1037100001F004FB08B1FDF725FB044801F0B3FB01
:1037200018B1BDE88040FDF71DBB80BD700F0020C3
:103730006C000020A80000204C010020FEE7FEE7FE
:10374000054610200C46C6F800044FF480707060E7
:1037500070474FF47843CDE9007ACDF808903047B0
:1037600001F0070049B2B1F1FF3F00EB800104EB2B
:10377000C1017047A0F8401000207047306820F465
:1037800080303060306820F480207047206850E836
:10379000050F216820F0010041E80502002A70476A
:1037A0000021012200F00CBD214601F061B8D4F8DF
:1037B000B402294682682046104705F60C022046CE
:1037C00001211F237047D4F8BC02816828460847AE
:1037D0000021F022F02300900020FFF763B90120C0
:1037E00084F8A8022068704730F8113040F60F7452
:1037F000234002F58044234320F811307047306A9B
:1038000020F001003062306A20F00400704700F0C0
:103810001F010122C0B202FA01F17047206850E88E
:10382000050F216820F0400041E80502002A70479A
:10383000012200F0C5BC204600F081BF05F61B0246
:10384000204600F04FB9D7F86418D7F86828801BD5
:10385000C7F83408B7F85E08704794F86811B0F8F4
:10386000502002EBC1017047016851E8051F026852
:1038700021F0010142E80513002B7047A2F804343F
:1038800008EB0112B0F850007047016851E8031FBF
:10389000026821F0100142E80313002B7047044630
:1038A00090F85000012870470870A06B0130A063A9
:1038B000E08F0138E0877047206840694006704714
:1038C00037F8021BC1602763E08E0138E08670473D
:1038D000206850E8030F21687047016841F04001FB
:1038E00001607047002084F8A80210BDC7064FF0A1
:1038F000FF364FEA50177047706800F00C00082838
:103900007047206850E8030F216820F0100041E85C
:103910000302002A7047FF2000F0C8BC204600F0D8
:1039200031BF8BB20139C418D35C23737047206850
:1039300081688907704721F8020BA163E08F013885
:10394000E08770470F4684F85000FDF79FBB30F8C2
:10395000212043F60F731A404AF280035A4020F8A0
:10396000212070470446681E29040546704794F8D4
:103970009C020138022870472046002102223A2387
:1039800000F0C6BA044690F8A8020128704768699A
:103990002A690023C119286A69619042704724206E
:1039A00084F841002068C16821F40051C1602046BC
:1039B00000F020BE4FF480510122FDF761BB30F8CA
:1039C000212048F2C0032A401A4320F821207047E2
:1039D00000F001079E5A07EB500746EA872670471A
:1039E000002000902068C1680091806800900098D5
:1039F000704741E80302002A704720464FF40071E7
:103A000000F08ABBB0F8501008449AF8001000EBA0
:103A1000011000217047B4F850202B78224402EBAB
:103A2000031270470173206B01302063E08E013870
:103A3000E08670474161C16841F40051C1600020D7
:103A40002021606484F8411084F84210606310BD46
:103A50002068B0F844107047002084F840002046E9
:103A6000FEF71ABFB0F8501008449AF8001000EBA7
:103A700001107047D55200EB0112B0F8500010440D
:103A80007047704710B50C49D1E90120121A02F1B4
:103A9000C803C82293FBF2F404FB1233012BBCBF12
:103AA0004FF0FF3010BD431C93FBF2F404FB1232C5
:103AB0008A600249085C10BD20020020E502002057
:103AC00080B59918D0F8B822D2F86028914206D96A
:103AD00000210522212300F01BFAFF2000E0002036
:103AE00040B280BD2DE9FC41044610780D461646D3
:103AF000A0F11A0110290FD8DFE801F035092D2DAA
:103B0000092D2D2D2D412D4D2D2D5E2D9B00D4F8F1
:103B1000B80200254581F2E15A2800F0CF80032841
:103B200000F0D880122800F0DE802F2800F0F78007
:103B300088B9D4F8B862D6F81408002840F0D881C3
:103B4000FFF741FE0025002800F0FA80FFF714FF80
:103B500005203072D3E1204600210522202300F009
:103B6000D7F9FF25CBE1D4F8B8020821E64A418114
:103B700007214B1C00F09581FFF7D3FEF9E7D4F83D
:103B8000B8620021002206F10C000C2A00F08880A7
:103B900081540132F9E7D4E9AE60436806F5066165
:103BA00006F65E0228469847002800F0FD80204671
:103BB000002102223A239FE1D4F8B88298F8080045
:103BC0004746002800F00481B7F85E08D7F8681867
:103BD0004FF40066D7F86428A8F80A6007F10C08CB
:103BE0004143B1F5006F38BF0E46B6FBF0F3D4F891
:103BF000BC024146D0F810C02846E047B0F1FF3F74
:103C000040F33981B5B22046812142462B4601F06E
:103C10001BF8D7F83408FFF716FEB5FBF0F00144A7
:103C2000101AC7F86418C7F8680804BF0320387270
:103C300037E1D4F8B872387A002800F0F280B7F88B
:103C40005E08D7F86818D7F8642807F10C0801FB5C
:103C500000F64146B6F5006F28BF4FF40066B6FB8C
:103C6000F0F3D4F8BC02D0F814C02846E047B0F115
:103C7000FF3F40F30581D7F83408B3B2FFF7E3FD07
:103C8000B3FBF0F3CD18D11AC7F86458C7F8681819
:103C900040F0FB80204600210025FFF741FC2EE18B
:103CA000D4F8BC0269460DF10602436828469847DD
:103CB000002800F0CB80FFF75FFEF2E0D4F8B802F6
:103CC0000821904A418107214B1C00F0EA80FFF750
:103CD00028FEF9E7D4F8B8020C2100221E2931D0C1
:103CE00042540131FAE77178D4F8B802C9074CD1CF
:103CF000D4F8BC2205EBC501D26902EB81010A7937
:103D0000531D3279934238BF1A464281002A00F08F
:103D1000C880013A93B2CC5C03441C73F6E7707818
:103D200080073CD4D4F8B86220462946D6F86428E7
:103D3000D6F86838FFF7C4FE0025002800F1DF80C0
:103D40007581DCE00C2190F85D28C174702101734D
:103D500090F85C18914211D000EBC102013192F849
:103D60003C3892F8404892F841280276CAB28373F0
:103D70004476043A18BF0A4680F85C281221418133
:103D80003179122998BF41818BE007215F4A418137
:103D900006214B1C00F08580FFF7C3FDF9E72046A4
:103DA000002105222423A7E0082000257081D6F8F1
:103DB000600835820138010AF073B173010C000EFE
:103DC0003073B6F85E08717300BA000C708296E02A
:103DD00098F91808002840F18B80FFF7F4FC0028C0
:103DE0007FF4E5AED6F80200294602BAC8F8642886
:103DF000B6F8070043BA2046C8F86838FFF760FEF7
:103E000000284ED40220D8F86828D8F8141888F86A
:103E10000800B8F85E085043814269D1D4F8B872FE
:103E2000D2E697F91808B0F1FF3F61DDFFF7CBFC50
:103E300000287FF4BCAED4F8BC02C168284688478D
:103E400088B3204600210222272355E00820F07382
:103E50000220B0820C20708100980138010AF074B1
:103E6000B174010C000E3074BDF80600717400BA14
:103E7000000CF08215E020460021042211233BE0D3
:103E8000204600210422032336E001FB00F32046F4
:103E90004246B3F5006F28BF4FF40063012100F0E4
:103EA0003AFE00252BE0D6F80200294602BAC7F8F0
:103EB0006428B6F8070043BA2046C7F86838FFF709
:103EC000FFFD0028EDD4B7F85E08D7F86828D7F8CA
:103ED000141802FB00F399420AD1012007F10C02E9
:103EE000B3F5006F387228BF4FF400632046D5E762
:103EF0002046002105222023002500F009F868B2A1
:103F0000BDE8FC81806900088869000890690008A4
:103F100010B5D0F8B802002490F85D1800EBC1038A
:103F2000013183F83C28CAB283F84048043A18BFEC
:103F30000A4680F85D2810BD80B58D48FFF73AFD30
:103F4000FF20BDE8804000F0B1B900BF2DE9F0418D
:103F500004464FF6FF784FF6FF77B8B23E4600EBC7
:103F60000807B8B2C51B18BF0125FFF7D4FCA04253
:103F700018BF002DF1D130044FF0000008BFFF2022
:103F8000BDE8F0817CB57A48FFF714FD00F0DDF85C
:103F900000240A2C03D2FFF7BEFC0134F9E71425F4
:103FA00000200021952200F00BF9012803D0FFF733
:103FB000D9FCF5D15CE0BC4C00204FF4D5718722D0
:103FC0002070082000F0FCF8012808D1002401AD81
:103FD000042C1ED0FFF79FFC28550134F8E737204A
:103FE00000210122012600F0EBF82920FFF7D8FB81
:103FF0004FF6FE75012826D8022020703720FFF7E3
:10400000CFFB2920FFF7CCFB30B3FFF7ABFCF5D19A
:1040100028E09DF80600012401282CD19DF8070016
:10402000AA2828D14FF6FE763720FFF7B9FB2920C2
:104030004FF08041FFF7FCFB044658B3701E31047B
:104040000646F1D128E026700120FFF7A9FB18B140
:10405000FFF788FCF8D105E028044FF000044FF08A
:10406000000006D010204FF40071FFF7E1FB10B103
:1040700000208D490870FFF75FFF00F063F88A4861
:10408000002C08BF6FF055040078002818BF0024EA
:10409000E0B27CBD300414D03A20FFF781FB002849
:1040A000E9D10026042E04D0FFF735FCA8550136CF
:1040B000F8E79DF8040040064FF0060058BF0420C2
:1040C000D7E70024D7E700BF70B5044676480078EC
:1040D000062818BF4902012A08D11120FFF7A8FBC2
:1040E0000646A0B9FFF789FC064610E015461220E7
:1040F000FFF79EFBFFF781FC013D0646280603D033
:1041000004F50074002EF5D00C20FFF749FBFFF7F3
:1041100013FF304670BD00BFB0B50546FE200C460B
:10412000FFF714FF30B10120B0BDFFF7F4FB05F835
:10413000010B013C2004F8D1FFF7EDFBFFF7EBFB8F
:104140000020B0BD002000F0C3B8382000F0C0B897
:1041500010B507484FF4805100220024FCF790FF6F
:1041600000F05CF810B1FFF7E7FE0124204610BD17
:10417000000C0140B0B50D46044600F04FF808B100
:104180000120B0BD284600F091F8FD2D15D0002586
:10419000B5F5007F04D0605D00F088F80135F7E7E1
:1041A0001D4CFF20A047FF20A047FF20A04700F0A4
:1041B0001F0005281CBF0220B0BD0020B0BD00BFFD
:1041C000F8B515460E460446FFF7B6FEFFF7C0FFEA
:1041D00008B1FF201EE0104F44F04000B847300EF9
:1041E000B847C6F30740B847C6F30720B847F0B250
:1041F000B8472846B8470C2C01D1FFF78CFB1F2489
:10420000FFF789FB40B2B0F1FF3F03DC611E2206DD
:104210000C46F5D1C0B2F8BDAD42000810B56FF044
:104220007F44FFF778FBFF2804BF002010BD013C4E
:1042300004BF012010BDF4E770B504461A480E46CD
:104240000078062818BF7602012A08D118203146C6
:10425000FFF7EEFA064610BB2046FE211CE015468D
:10426000012806D03720FFF79BFA17202946FFF7D1
:10427000DFFA19203146FFF7DBFA064678B902E08B
:1042800004F5007430B92046FC21FFF773FF013DAF
:104290002906F5D10020FD21FFF76CFF0646FFF748
:1042A0004BFE304670BD00BFE4020020E0B58DF843
:1042B00007004FF47A700DF107010DF1060201239A
:1042C00000900D48FEF7D6F89DF806008CBD00BFA3
:1042D00009494FF6C77309680A6822F040020A606C
:1042E0000A681A400A600A6810430860086840F0CB
:1042F00040000860704700BF2415002010B5134629
:104300000A468021044600F009F828B1606D40F0AB
:1043100020006065032010BD002010BD2DE9FC4188
:104320001E4617460D468046FCF7B0FE301AC419EB
:10433000FCF7ACFE0646254801370068C0F3CB30D9
:1043400060430190D8F8000081682940A9420ED14D
:10435000002FF9D0FCF79AFE801BA0420AD20198E8
:10436000019901390191002808BF0446EAE70020BD
:10437000BDE8FC81D8E900014268B1F5827F22F0F6
:10438000E00242600BD1D8F80810B1F5004F02D01E
:10439000B1F5806F03D1016821F040010160D8F8C8
:1043A0002810B1F5005F07D1016821F400510160C8
:1043B000016841F400510160002088F8500001209C
:1043C00088F851000320BDE8FC8100BF8C0000206C
:1043D0004FF480601080302008600020704700207B
:1043E000704780B5FEF768FF002818BF0120400025
:1043F00080BD002070470020704710B51446084665
:10440000DAB22146FFF760FE002818BF0120400005
:1044100010BD10B514460846DAB22146FFF70CFF6E
:10442000002818BF0120400010BD704782B018B5A9
:1044300004460120CDE9032394B1032910D103A838
:1044400000F10C010091039949B150F8042F32B1E9
:10445000059B23B1002084E80E00E06000E001200D
:10446000BDE8184002B07047FCF714BEB0B594B078
:104470004FF4E0100024022513904FF48030CDE972
:104480000F44CDE90D441195CDE902441290CDE9D8
:104490000B0401200A900E900AA8FDF7DFFD18B169
:1044A000EFF3108072B6FEE74FF4806009940221AA
:1044B000CDE907400F20CDE9050505A8FDF7EEFC85
:1044C00018B1EFF3108072B6FEE7002004901020C0
:1044D000019001A8FDF770FC18B1EFF3108072B6DF
:1044E000FEE714B0B0BD7047406A0021C185C184A9
:1044F000FEF79DB8016851E8031F026821F490712E
:1045000042E80313002BF5D14DF808EDFFF7ACF9A5
:104510005DF808EBF8D1016B012906D14DF808EDE3
:10452000FFF7B3F95DF808EBF8D1202180F84210CD
:1045300000210163704781B090F84210222920D1F8
:1045400083680246B3F5805F08D152F8281F52F8FD
:10455000183C002B43D003685B6809E052F8281F21
:1045600013B90369002BF6D003685B6803F07F037F
:104570000B70116801311160C18D0139C1850904C9
:1045800001D001B070470168CA6822F02002CA60F9
:10459000CA6822F48072CA604A6922F001024A6144
:1045A000202180F8421000214163026B012A1ED1B4
:1045B00001634DF808EDFFF768F95DF808EBF8D1F5
:1045C00001680A68D20606D5002200920A680092A5
:1045D000496800910099818D01B0FEF727B8026803
:1045E00052686FF35F2221F8022B8162C4E701B0A9
:1045F000FEF7A4B9B0B50446006804F108030ECB79
:10460000056925F4405519432A4341F20C650261BE
:10461000C2686369AA4319431143C1604169A26931
:1046200021F44071114341611149884202D0FDF7E4
:10463000D3FC01E0FDF7DAFC19214843D4E900126C
:104640000C4C9200B0FBF2F06422B0FBF2F303FBDF
:104650000400322404EB0010B0FBF2F000F0F00292
:1046600000F00F0002EB031210448860B0BD00BFE1
:10467000003801409CFFFF0F0023C2854364816224
:104680002221828580F842100168006918B1C8684B
:1046900040F48070C860486940F001004861C86813
:1046A00040F02000C860002070472DE9F0411D4611
:1046B00090460F4604465E1C206800683840B842A9
:1046C0001DD0002EF8D02DB1FCF7E0FCA0EB0800C7
:1046D000A842F1D9FFF7FCF820F4D070FFF789F970
:1046E000F8D1FFF753F8FCD12020002184F84100D5
:1046F00084F8401084F842000320BDE8F0810020D7
:10470000BDE8F0810148FDF793BF00BF2C020020F7
:1047100080B5D0F8B42252689047002080BD80B5A3
:1047200013460A46002100F0F6F9002080BD80B54E
:1047300013460A46002100F087FA002080BD10B51C
:104740008021044600F065FA20460021BDE81040B3
:1047500000F05FBA80B5052100220023C0F8941252
:10476000002100F0D8F9002080BD80B513460A462C
:104770000221C0F894120021C0E9073300F064FA66
:10478000002080BD80B5042100220023C0F89412CF
:10479000002100F059FA002080BD000010B5264C21
:1047A0000A4602A0FFF700F8204610BD4D534320F3
:1047B000436F6E66696700001220088000487047EA
:1047C0009000002010B51C4C0A4602A0FEF7ECFF3A
:1047D000204610BD4D534320496E74657266616377
:1047E000650000000420088000487047A4000020F5
:1047F00010B5114C0A4602A0FEF7D6FF204610BDA8
:1048000053544D6963726F656C656374726F6E6942
:104810006373000010B5084C0A4602A0FEF7C4FFFF
:10482000204610BD53544D3332204D6173732053D5
:10483000746F726167650000B0030020B0B51A2084
:104840000880094908688A6880180BD0074D4C68B1
:104850000822A91CFEF7E8F805F1120120460422FF
:10486000FEF7E2F80148B0BDE8F7FF1F6C01002039
:10487000B0B5D8B100230446257815B10134013311
:10488000FAE7DCB2022303EB440414800C70032229
:1048900001240A5502784AB1DCB29D1C01300A5548
:1048A00043F001022B46D4B20022F2E7B0BD000073
:1048B000C1000223034A042838BF22FA01F3D8B208
:1048C000704700BF0002010288B180B5D0F8B43251
:1048D00013B10023C0F8B43209B1C0F8B0120121FD
:1048E000027080F89C1200F0C1F8002080BD022008
:1048F000704780B5D0F8C002FCF7BBFCBDE8804033
:10490000FFF7D6BF80B5D0F8C002FCF796FCBDE833
:104910008040FFF7CDBFB0B5044669B1D4F8B4020A
:1049200042693AB194F89C02032803D1204690478B
:10493000002027E00220B0BDD4F89402B0B10428D2
:1049400014D0022816D1D4E9081081421BD9081AC4
:10495000114683B2206220461A46FFF7E8FE204641
:1049600000210022002300F0D6F803E02046802139
:1049700000F04FF994F8A0120020012904BF84F838
:10498000A002B0BDB0BDE169B1FBF0F202FB1012B4
:1049900072B981420CD3D4F89802814208D22046E1
:1049A000002100220025FFF7C2FEC4F89852D6E786
:1049B000D4F8B402C16829B194F89C02032801D14B
:1049C000204688472046802100F023F92046FFF743
:1049D000C1FECFE7B0B5044661B1D4F8B402826934
:1049E00032B194F89C02032802D1204690472DE072
:1049F00002252CE0D4F894020025052812D00328C3
:104A000025D1D4E95810814213D9091AC4F860118C
:104A1000814238BF084683B2114620461A46FFF746
:104A20007EFE13E020460021C4F8945200F0F1F815
:104A30000DE0D4F8B402016929B194F89C0203286E
:104A400001D1204688472046FFF79CFE00252846D6
:104A5000B0BD80B5D0F8C002FCF732FCBDE88040A4
:104A6000FFF726BFD0F8C002FCF741BCB0B5044642
:104A700017480021174B0822C0E9061101620221E4
:104A8000C4F8C002C0F8EC42C0E900328160FDF712
:104A9000BEF808B1FCF766F9D4F8C0020E4D00214B
:104AA00000221823A847D4F8C002802100225823EE
:104AB000A847D4F8C002812100229823A847D4F83F
:104AC000C00201210022D823A8470020B0BD00BFAA
:104AD00034120020005C0040E111000801F07F0268
:104AE000D0F8C00249B202EB8202002900EBC200FA
:104AF00000F5B57248BF00F12A021078704710B572
:104B00001446D0F8C0021A462346FCF7F9FBBDE86C
:104B10001040FFF7CDBE80B5D0F8C002FCF714FC02
:104B2000BDE88040FFF7C4BEF8B500210022402355
:104B3000044600254026FFF7E2FF0127204680219A
:104B400000224023C4F86461C4F85871FFF7D7FF0E
:104B5000D4F8B80284F89C726662A761C4F89452D3
:104B6000C4F8A452656028B1D4F8B40200214268A8
:104B7000204690470020F8BD90F89C12042904BFFD
:104B800090F89D1280F89C120020704780B590F834
:104B90009C12032904D1D0F8B412C96901B1884725
:104BA000002080BD01740020704780B5D0F8C0029D
:104BB000FDF7CAF8BDE88040FFF77ABEB0B500F552
:104BC0002A750446284600F03FF9B4F8AE120120D9
:104BD000C4E9A50194F8A80200F01F01022907D03A
:104BE00001290AD071B92046294600F051F90EE09A
:104BF0002046294600F078FA09E02046294600F0D0
:104C0000FFFA04E000F08001204600F002F80020E6
:104C1000B0BD80B5D0F8C002FCF7ACFBBDE8804069
:104C2000FFF746BE80B5D0F8C002FDF7A2F8BDE898
:104C30008040FFF73DBE90F89C1280F89D12042141
:104C400080F89C120020704780B5D0F8C002FCF7B5
:104C5000C9FBBDE88040FFF72BBE80B5FEF7ADFB7A
:104C6000002080BD80B5FEF7C5FB002080BDB0B53B
:104C700001210446FFF746FE002520468121C4F8A5
:104C80006C51FFF73FFE2046E562FEF71FFCD4F8AB
:104C9000B80218B100F0D2FAC4F8B8520020B0BD82
:104CA0000A21018000487047200100202021018056
:104CB00000487047E0000020202101800048704734
:104CC0000001002020210180004870472C010020B5
:104CD000F8B50446007C4026002808BF4FF4007653
:104CE000204633460121022201270225FFF707FF54
:104CF0002046812102223346C4F86C71FFF7FFFE83
:104D000040F66C00E76200F09BFAC4F8B80218B1F4
:104D10002046FEF7E0FB00252846F8BD09B1C0F8A3
:104D2000BC12002070477CB50446D0F8B862002061
:104D30000D46ADF8060091F9000010F0600117D0A3
:104D4000202964D16978FF2924D0FE295FD16988A0
:104D500000295CD1E988012959D1B0F1FF3F56DC27
:104D6000D4F8BC02806980473060204631464AE072
:104D700068780B2818D001281DD00A283DD00028BB
:104D800045D194F89C02032841D10DF1060120463B
:104D9000022239E06988D1BBE988C1BB002836D43A
:104DA0002046FEF7B1FB4DE094F89C0203282ED17B
:104DB000A878706046E029792046FFF74AFE2979F5
:104DC0002046FFF79FFDA98801F00F00090600EBC0
:104DD000800004EB800020D400214023C0F858114B
:104DE000207C002808BF4FF40073204601210222D6
:104DF000FFF785FE04F5B6701EE094F89C020328C8
:104E000005D1311D20460122FFF7AFFC1AE02046F4
:104E10002946FFF794FC02207CBD002140238161DC
:104E2000207C002808BF4FF4007320468121022215
:104E3000FFF765FE04F12C0001210160297920466D
:104E4000FEF7A3FA00207CBD0A7802704A7842700F
:104E50004A8842808A888280C988C180704719B197
:104E6000C0F8B412002070470220704780B5D0F817
:104E7000B42232B112689047002818BF01204000C8
:104E800080BD022080BD80B5FFF7CCFE002080BD34
:104E9000BCB5044608780D4610F0600007D04028E5
:104EA00002D0202840F01981FEF781FC17E16878D4
:104EB000092800F21281DFE810F00A001E0010013C
:104EC0002800100153007400100130003E00FEF76E
:104ED0004EFD00F20281E888022840F0FE80D4F8FE
:104EE000A40203222146002808BF012241F80C2F0A
:104EF0002046022271E0FEF73AFD00F2EE8068885B
:104F0000012840F0EC80002004E06888012840F08F
:104F1000E6800120C4F8A402DCE0E888012840F023
:104F2000DC8094F89C02411E022950D200202146C8
:104F300041F8080F4FE068886A4DC1B22870022915
:104F400080F0CB8094F89C02032849D0022840F0DE
:104F50006580002900F0BE80032084F89C024AE0AE
:104F6000A888002840F0B980E888002840F0B58083
:104F700068887F2800F2B18094F89C12032900F021
:104F8000AC80C5B284F89E0220462946FFF70DFE8C
:104F9000FEF7C4FC002D0CBF0120022084F89C0207
:104FA0009DE000204FF0FF31ADF80600688801EB6E
:104FB0001021062900F29180DFE801F00437248FE8
:104FC0008F3D4700D4F8B012207C0A686FE00328B8
:104FD00040F08380211D20460122FFF7C6FB7EE0C2
:104FE00000293ED06068012800F07480C1B22046DC
:104FF000FFF78EFB297820466160FFF737FF022814
:1050000068D16AE0C0B2052867D8DFE800F0033B4A
:105010003F43474BD4F8B002426846E0FEF70BFC32
:1050200029782046FFF774FB59E0217CD4F8B402BC
:1050300001B3C16A1FE0207C00284ED1D4F8B4022D
:10504000416B0DF10600884734E0207C002844D1F4
:10505000D4F8B402016B0DF1060088470146072021
:105060000EE000206060022084F89C022046FFF7DA
:105070004FFB2FE0816A0DF10600884701460220B0
:10508000487018E0D4F8B00282680EE0D4F8B0029C
:10509000C2680AE0D4F8B002026906E0D4F8B002AF
:1050A000426902E0D4F8B0028269B2B1207C0DF10D
:1050B000060190470146BDF8060048B1EA883AB1BA
:1050C000904238BF02462046ADF80620FFF74DFB60
:1050D000E88820B9FEF722FC01E0FEF7ACFB0020D7
:1050E000BCBD00BFAD030020B0B5044608780A4639
:1050F00010F060000AD0402801D0202864D1D4F8F4
:10510000B40211468368204698475FE050781179D1
:1051100098B101282AD0032856D194F89C0203287C
:1051200028D1508800285BD1480659D0D088002863
:1051300056D12046FFF76DFD52E094F89C020328FB
:1051400024D0022840D148063ED111F080004FF013
:10515000140108BF4FF4AA710022625004F1140137
:105160000028204608BF04F5AA7145E094F89C0287
:1051700003282DD0022827D1480625D02046FFF746
:1051800048FD20468021FFF744FD1FE001F00F009D
:10519000802900EB800004EB80002CBF8069D0F8F0
:1051A000580188B101F07F00802900EB800004EBFA
:1051B000800000F1140538BF00F5AA7541F08000A9
:1051C000802810D1002014E0FEF735FB0020B0BD90
:1051D00050880028FAD1480602D02046FFF789FB04
:1051E000FEF79CFBF2E72046FFF778FC002818BF8B
:1051F00001202860204629460222FFF7B6FAE5E79B
:10520000B0B5044608780D4610F0600018BF40287D
:105210000ED1FEF7ACFB0DD8A88810F0FE0F09D117
:10522000FEF7C5FAE98839B930B9FEF777FB03E034
:105230002028EED0FEF7FFFA0020B0BD7047000036
:1052400000487047B00500202DE9F0410E7891F834
:105250000380024647F2706400EB860330F82600B4
:10526000B8F1030F20EA040407D80020DFE808F0B3
:1052700002070D0A44F4007406E0012005E044F43E
:10528000806401E044F4C0640020724F40F60F7562
:1052900048F2800C3C431C801C882C4034433C4327
:1052A0001C800C7B002C49D048F28004B8F1020F1E
:1052B00040F60F6708BF04F580741D883D402C43FD
:1052C0001C8002EB0614B2F850500E89254426F0DB
:1052D0000106A5F80064B2F8502022444C8924F05D
:1052E0000104A2F808441A88497802F4804200298F
:1052F00045D03AB1198840F60F7211400CF5804242
:10530000114319801988490607D5198840F60F728C
:1053100011400CF1400211431980198840F63F7288
:1053200011400CF120024A40B8F1010F08BF41EAD8
:105330000C021A80198843F60F723FE0B2F85070E1
:10534000CD88340125F0010E4D78DDB311193944B3
:10535000A1F800E41988490607D5198840F60F72AC
:1053600011400CF1400211431980198840F63F7238
:105370001140B8F1010F22D00CF1200265E03AB1E2
:10538000198840F60F7211400CF5804211431980C4
:105390001988490607D5198840F60F7211400CF19B
:1053A000400211431980198843F60F7211400CF521
:1053B0004052514040F63F7219801988114041EA2D
:1053C0000C0143E01444E519A5F808E404F20C4587
:1053D000B2F85070EC5B6FF39F24EC5309693F29DE
:1053E0000BD3CC064FF0FF3E4FEA511408BF0EEB33
:1053F0005114795B41EA84210AE041B101F00104D2
:1054000037F805E004EB51014EEA812102E0795BB7
:10541000114C214379531988490407D5198840F65E
:105420000F7421400CF5804421431980002E1FBFCA
:10543000198843F60F7211400CF5005201BF118814
:1054400043F60F7211400CF5405251401980BDE8EF
:10545000F08100BF8080FFFF0080FFFF00207047C9
:10546000F0B50A780D7B4C78510030F8223048F2C4
:10547000800225B303F480434CB30BB1FEF7B4F9BB
:1054800030F8113002F5804540F63F745B0643F674
:105490000F7309D530F8116040F60F773E4002F1E6
:1054A00040073E4320F8116030F8116040F60F7756
:1054B0003E40354320F8115048F280051DE0A4B16C
:1054C0005B0640F63F731ED502F1400513E00BB1B9
:1054D000FEF78AF930F8113002F1400543F60F74F7
:1054E0005B0640F63F73D5D4DEE75B0443F60F73EB
:1054F00009D502F5804540F60F7430F8116034404C
:105500002C4320F8114030F8114023401A4320F872
:1055100011200020F0BD00207047002070470121BD
:10552000A0F840100021A0F84010A0F84410A0F806
:10553000501000207047B0F8401044F2FF021140B4
:10554000FEF718B900207047B0B50A7B7ABB0A781D
:105550004C7830F8223052009CB15B0648F2A00330
:1055600009D530F8124040F60F752C4003F12005A4
:105570002C4320F81240C978012918D040F63F7119
:105580000FE059044BF2800309D530F8121040F6B1
:105590000F74214003F58054214320F8121043F684
:1055A0000F7130F812402140594020F812100020AD
:1055B000B0BD000010B50A784978094B002940F6C3
:1055C0003F7108BF03F57F6308BF43F60F7130F8E2
:1055D00022402140594020F82210002010BD00BF79
:1055E0009080FFFF2DE9F0410D46497804460129DE
:1055F00056D1AF69296948F280088F4228BF0F460B
:10560000287B002872D0EA78286A022A40F0A0801D
:105610002A7840F60F6634F822301E405300884244
:1056200040F2D98008F58071C01B314324F8131073
:105630002862110134F8130021444006B4F85000E8
:10564000084400F1DC80A0F80474BBB2204669690C
:105650002A8900F0EFF9FEF79AF988BFC31B2B6285
:1056600088BF38466A78012A00F00D81002A40F090
:105670009281B4F850202B7822441B0102F20C4294
:105680003F28D65A6FF39F26D652C0F07881FEF796
:105690002DF908BF06EB50179E5A46EA872677E198
:1056A000287B90B3E878012864D0022840F08680F7
:1056B000002940F03D81B4F85000204400F204423B
:1056C00028780001115A6FF39F21115229693F294F
:1056D000C0F0C780CE064FF0FF334FEA511608BF27
:1056E00003EB5116835A43EA8623D7E0EA886969B7
:1056F000BBB2204600F09EF9B4F85000297820444F
:1057000000EB0110A0F804744AE1B4F850002978C5
:105710002044090100F20C40425A6FF39F2242528A
:105720002B69AA69D61A38BF0026AE6138BF134666
:1057300048F280023F2B44D3DF064FF0FF364FEA9A
:10574000531708BF06EB53170B5A43EA872382E02F
:10575000C01B2862287834F8201049064FEA00114F
:10576000B4F850002144084443D4A0F80474696993
:105770002A8942E02869AA69131A38BF0023AB615D
:1057800038BF1046002940F0E080B4F850102144A2
:1057900001F2044229780901535A3F286FF39F23ED
:1057A000535267D3C6064FF0FF334FEA501608BF77
:1057B00003EB50168B5A43EA862393E00120BDE8A1
:1057C000F081002B46D003F001070E5A07EB53037C
:1057D00046EA832341E046EA080124F8131004EB6B
:1057E0000211B4F850201144A1F8040469692A890F
:1057F000D2E0A0F80C7469696A89BBB2CDE0A0F868
:105800000C74BBB2204669696A8900F013F9FEF78F
:10581000BEF888BFC31B2B6288BF38466A78012A4E
:1058200036D0002AE3D1B4F850202B7822441B0153
:1058300002F204423F28D65A6FF39F26D652C0F098
:10584000A280FEF753F808BF06EB50179E5A46EAAF
:105850008726B4E00B5A43F400430B5202F5405044
:1058600083E0D1B101F00106835A06EB510643EA09
:10587000862315E0A8B300F001068B5A06EB50060C
:1058800043EA862630E0FEF7C6F8A2F80C0482E070
:10589000FEF7C1F8A2F80404A9E7835A4B4E33433C
:1058A00083523F29B4F85020224402F20C42135A8A
:1058B0006FF39F2313520BD3CE064FF0FF334FEA03
:1058C000511608BF03EB5116815A41EA86212CE09C
:1058D00051B301F00106835A06EB510143EA8121DD
:1058E00025E08B5A394E1E438E5248F280033F28E2
:1058F000B4F85020224402F20C42565A6FF39F260D
:10590000565208D3FDF7F2FF08BF06EB5017885A2E
:1059100040EA87202DE058B300F001078E5A07EBCC
:10592000500046EA802026E0815A284B19438152D4
:10593000E86950B1297848F2800034F8213003F04A
:1059400040025B0403D41AB10DE01F480BE052B1D2
:10595000490040F60F7334F811201A4000F140035B
:105960001A4324F8112000F5405043F60F711BE054
:10597000885A40F40040885203F54050F5E730B1B2
:10598000FEF726F806E0C8B1FEF722F819E09E5AA5
:1059900046F400469E526A8983B2204600F04AF8D7
:1059A00008F1300040F63F712A7834F8223019406F
:1059B000484024F822000020BDE8F0819E5A46F4B9
:1059C00000469E5213E700BF8080FFFF0080FFFF6C
:1059D0000021A0F844104FF43F41FDF7CBBE00205A
:1059E00070470020704700000148FBF713BD00BF5F
:1059F00034120020B0F84400704710B500EB4200AC
:105A000000F58062481C590831B132F8044B013965
:105A100020F8014C0230F7E7D9071CBF118800F8C5
:105A2000011C10BD0020704711B98021A0F84C1056
:105A30000020704700EB42005A1C00F580605208BD
:105A40002AB131F8023B013A20F8043BF8E77047ED
:105A500010B50121174C217068B9FDF72DFC08B174
:105A6000022108E0012046F27341207000202070DE
:105A70000248018021782170207810BD7502002035
:105A80000120704708B10120704780B5DBB208469D
:105A900011461A46FEF718FB002818BF012080BDEA
:105AA0000449012200280A7018BF012008700878F4
:105AB000704700BF8800002008B10120704780B502
:105AC000DBB2084611461A46FEF7B6FB002818BF9F
:105AD000012080BDFEE70000B0B50D49D1E90123EA
