:020000040800F2
:100000000838002069020008C5400008293B0008A4
:10001000C140000841120008496D000800000000BE
:100020000000000000000000000000001D4E00085D
:100030004512000800000000C9400008754E000885
:10004000830200088302000883020008830200087C
:10005000830200088302000883020008830200086C
:10006000830200088302000883020008830200085C
:10007000830200088302000883020008830200084C
:10008000830200088302000883020008830200083C
:10009000556B0008830200088302000883020008F1
:1000A000830200088302000883020008830200081C
:1000B000830200088302000883020008830200080C
:1000C00083020008830200088302000883020008FC
:1000D00083020008894F0008830200088302000899
:1000E00083020008830200088302000800F002F87F
:1000F00000F0ABF80AA090E8000C82448344AAF117
:100100000107DA4501D100F0A0F8AFF2090EBAE814
:100110000F0013F0010F18BFFB1A43F0010318473B
:10012000D87C0000F87C00000A444FF0000C10F866
:10013000013B13F0070408BF10F8014B1D1108BF65
:1001400010F8015B641E05D010F8016B641E01F805
:10015000016BF9D113F0080F1EBF10F8014BAD1C55
:100160000C1B09D16D1E58BF01F801CBFAD505E073
:1001700014F8016B01F8016B6D1EF9D59142D6D3CD
:10018000704700000023002400250026103A28BFF5
:1001900078C1FBD8520728BF30C148BF0B607047F9
:1001A0006E2900F04183702900F00F816629AFF3BA
:1001B00000806529AFF300806729AFF300806129D3
:1001C000AFF3008003681B0A28BF41F08001692952
:1001D00000F0EE82642900F0EB82752900F0E882DD
:1001E0006F2900F02584782900F0DB80E92900F0F0
:1001F000BF83E42900F0BC83F52900F0B983EF291F
:1002000000F02284F82900F0DA800368DB0928BFB7
:1002100041F08001632900F09284732900F09784F3
:10022000E32900F0A284F32900F0A784002070479E
:100230001FB500F027FD04000020002107F04CFD51
:10024000401C60601FBD10B510BD00F0E0FC114601
:10025000FFF7EEFF07F066FA00F006FD03B4FFF7C4
:10026000F2FF03BC00F052FD0948804709480047EF
:10027000FEE7FEE7FEE7FEE7FEE7FEE7FEE7FEE756
:10028000FEE7FEE704480549054A064B70470000B3
:10029000794E0008ED0000080818002008380020FA
:1002A00008280020082800207CB51D4616460C00B2
:1002B000009007D04142A14202D32044401E01E0F9
:1002C0004FF0FF30064B7B442A466946019030468A
:1002D00000F0C3FA002C02D0009A002111707CBDFE
:1002E000B70500000FB4044910B503AA029800F046
:1002F000CFFA10BC5DF814FB2008002070B504464E
:1003000085690068C10601D5302600E02026C007B7
:1003100007D070BDD4E9012130469047206A401CC7
:1003200020626D1EF6D570BD70B5044685690078F3
:10033000C00707D170BDD4E9012120209047206A71
:10034000401C20626D1EF6D570BD0000F0B40D4655
:100350000188090502D5214C7C4402E01F4C7C44F5
:100360000E34002100F1240608E002F00F07120904
:10037000E75D42EA03721B097754491C52EA0307FE
:10038000F3D102780023120704D5702D06D009B1ED
:10039000022311342246F0BC00F0B0B9012310341E
:1003A000F8E770B504460D462146106800F074F970
:1003B000024629462046BDE870400023C6E7D21D0C
:1003C00022F00703D3E90023C0E70368126843F073
:1003D000200303600823C3610023B7E7A879000066
:1003E0002DE9F05F894604464FF0000ADFF874B14A
:1003F000FB44C0F820A02046E1688847002874D05C
:10040000252806D0D4E901219047206A401C2062AB
:10041000F1E700265F462046E16888472028054628
:1004200007DB312D05D2781910F8200C08B10643EE
:10043000F1E7B00701D526F00406C4F81CA0002798
:10044000C4F818A02A2D09D0284607F03DFC38B37F
:1004500004EB8708303DC8F8185019E059F8041B20
:10046000204604EB87029161E1688847012F054629
:1004700018D1E069002820DA26F020061DE0D8F81F
:10048000180000EB800005EB40003038C8F8180079
:100490002046E1688847054607F016FC0028EED1A3
:1004A000012F0AD02E2D08D12046E16888477F1CF5
:1004B0000546022F46F02006C4DBA069002803DAB7
:1004C000404246F00106A061F00701D026F0100678
:1004D0006C2D0BD0682D09D04C2D39D06A2D35D01C
:1004E000742D35D07A2D33D016E038E0E1682F46F0
:1004F00020468847B842054609D16C2F26D04FF4D4
:100500008060E168064320468847054604E06C2F7A
:100510001AD04FF4807006430DB3A5F1410019289D
:1005200002D8203546F400664A4629462046266011
:100530004E46FFF735FE80B101280BD0F61D26F0A0
:10054000070000F1080956E74020E4E78020D8E7DB
:100550000020D6E706F104094DE7284652E7206A55
:10056000BDE8F09F3879000010B5044603E007F0BD
:10057000C5F8401C09D014F8010B05490028F6D134
:10058000BDE810400A2007F0B9B84FF0FF3010BDA9
:1005900020080020014A00F061BA0000000000209D
:1005A00010B5431C02E010F8011B71B18107FAD1AC
:1005B0004FF0013202C88C1A8C4314EAC211F9D0F0
:1005C000C01A0A0603D0C01E10BDC01A10BD0A040E
:1005D00001D0801E10BD0902FCD0401E10BD02F0EB
:1005E000FF0343EA032242EA024200F002B84FF05E
:1005F00000020429C0F0128010F0030C00F01B80F0
:10060000CCF1040CBCF1020F18BF00F8012BA8BFFD
:1006100020F8022BA1EB0C0100F00DB85FEAC17CC1
:1006200024BF00F8012B00F8012B48BF00F8012B74
:1006300070474FF0000200B51346944696462039A5
:1006400022BFA0E80C50A0E80C50B1F12001BFF48B
:10065000F7AF090728BFA0E80C5048BF0CC05DF8F1
:1006600004EB890028BF40F8042B08BF704748BF3F
:1006700020F8022B11F0804F18BF00F8012B7047B3
:1006800070477047704709684A0501D540B2704706
:10069000C905FCD500B2704709684A0501D5C0B24A
:1006A0007047C905FCD580B2704770B50C46054649
:1006B000012A05D02878800600D5EA69002302E0E7
:1006C000012305E05B1C934202D2E05C0028F9D1D3
:1006D000A869E618C01AA861286A18442862284642
:1006E000FFF70CFE04E0D5E9012114F8010B904757
:1006F000B442F8D32846FFF717FE70BD2DE9F04746
:100700000D4699469246044600F124080168880681
:1007100004D5E06921F01001216000E00120A84229
:1007200001DD471B00E00027A1697A1902EB0900EF
:10073000081AA0612078C00602D42046FFF7DEFD2B
:10074000002608E0D4E901211AF806009047206A43
:10075000401C761C20624E45F4DB2078C0060AD58A
:100760002046FFF7CBFD06E0D4E901213020904779
:10077000206A401C2062381EA7F10107F4DC07E064
:10078000D4E9012118F805009047206A401C206236
:10079000281EA5F10105F3DC2046FFF7C5FD2078F2
:1007A000000602D50220BDE8F0870120FBE700002B
:1007B0002DE9F0410646002410687529314616A53A
:1007C00010D0FFF760FF002802DA404213A507E0CF
:1007D00031688A0701D512A502E0490704D511A5A1
:1007E000012401E0FFF758FF00210A2206F1240747
:1007F00009E0B0FBF2FCB0FBF2F302FB1C0030306E
:1008000078541846491C0028F3D123462A4630461E
:10081000BDE8F041FFF772BF000000002D000000AE
:100820002B0000002000000011680268006A5305D8
:1008300001D508700AE0D30501D5088006E013064B
:1008400003D5C217C1E9000200E00860012070472B
:1008500001694A1C02610878704700B58FB0CDE984
:1008600001310021059105497944CDE90310114674
:100870006846FFF7B5FD0FB000BD0000E5FFFFFFC4
:10088000D1E900239A4202D2531C0B6010707047CA
:10089000074B70B50D467B44FFF7DFFF0446284643
:1008A00000F06FF910B14FF0FF3070BD204670BD01
:1008B000636E00002DE9FF5F15468A460446DFF8A7
:1008C000AC80F8440027D8E900103E46CDE900107E
:1008D00010E03AF816106A4602A800F056F9411CDA
:1008E00007D02178890603D5E269391891420DD8DD
:1008F0000744761C2078800602D5E069B84205DD01
:10090000AE42E6DB3AF816000028E2D1A069C01B2F
:10091000A0612046FFF7F2FCD8E90010CDE90010F5
:10092000002017E03AF818106A4602A800F02DF9E6
:10093000B0F1FF3F81460BD000250DF1080B05E01B
:10094000D4E901211BF8050090476D1C4D45F7D3F4
:1009500008F10100B0428046E4DB206A384420629E
:100960002046FFF7E1FCBDE8FF9F00007A7400001D
:100970002DE9F0418046D21D22F007020025D2E980
:100980000002F52915A614D0011E72F1000106DA45
:100990000023D0EB030063EB020211A608E0D8F8B5
:1009A00000108B0701D50FA602E0490701D50EA65E
:1009B00001251146002408F1240704E000F070F836
:1009C00030323A55641C50EA0102F7D12B463246C8
:1009D00021464046BDE8F041FFF790BE0000000010
:1009E0002D0000002B0000002000000030B400218A
:1009F00000F1240408E002F00705D208303542EA8D
:100A00004372DB086554491C52EA0305F3D10468BC
:100A1000002310A2250708D504F020040C4304D0BD
:100A2000C46901230CA2641EC46130BCFFF766BE1A
:100A300010B5044621461068FFF72EFE02462046F8
:100A4000BDE810400023D1E7D21D22F00701D1E913
:100A50000023CBE700000000300000002DE9F0414A
:100A600015460E46040002D12C6804B90BA420469A
:100A700000F0BFF80444207870B12746314638466C
:100A800000F0A7F80444207810B1002004F8010B0E
:100A900038462C60BDE8F0810027F9E7000000002F
:100AA00030B5B0F10A0271F100034FEA900E4EEA40
:100AB000817EB0EB0E0061EB91014FEA101E4EEA11
:100AC000017E10EB0E0041EB11114FEA102E4EEAA1
:100AD000016E10EB0E0041EB11214FEA104E4EEA71
:100AE000014E10EB0E0041EB1141401841F10001A5
:100AF0004FEAD00040EA41704FEAD1014FEA810449
:100B000044EA907410EB800544EB01046D1944EB4A
:100B10000404521BA3414FF0000348BF0A3200D522
:100B200030BD401C41F1000130BD10B5436913B127
:100B3000AFF3008001E0FFF7B8FD012010BD12788F
:100B400000F124010A7000224A700122EDE71168C9
:100B50004FF0FF32E9E710B5436913B1AFF30080FE
:100B600001E0FFF7A7FE012010BD128800F124016B
:100B700082840022C2840122EDE711684FF0FF3227
:100B8000E9E7007B00F0800070472DE9F041164650
:100B90000C46054600F060F8036893F8010101284F
:100BA00007D0FF2C12D8185D80B101202C70BDE851
:100BB000F081D3F807013246214603F20713C71824
:100BC0002846BC46BDE8F041002360474FF0FF30A7
:100BD000EDE730B503461D781DB10A4603E0AC428F
:100BE00001D1181A30BD12F8014B002CF7D15B1C53
:100BF000F1E730B503461D783DB10A4612F8014BC6
:100C00001CB1AC42FAD15B1CF5E7181A30BD754631
:100C100000F034F8AE4605006946534620F0070060
:100C2000854618B020B5FFF72DFBBDE820404FF0FA
:100C300000064FF000074FF000084FF0000BAC46E5
:100C4000ACE8C009ACE8C009ACE8C009ACE8C00930
:100C500021F007018D46704710B500F013F8001D14
:100C600010BD00BF7570000010B50446AFF30080E2
:100C70002046BDE81040FFF7F1BA00000048704779
:100C8000C001002000487047E00100204FF0013C07
:100C900050F8042B51F8043B9A4221D1A2EB0C03EB
:100CA000934313EACC1317D150F8042B51F8043BAB
:100CB0009A4215D1A2EB0C03934313EACC130BD148
:100CC00050F8042B51F8043B9A4209D1A2EB0C03D3
:100CD000934313EACC13DBD04FF00000704700BF02
:100CE000D01A01BAB1FA81F101F0180122FA01F02B
:100CF000CB40DBB2C0B2C01AC1F120012CFA01F323
:100D0000D11A914311EAC311E6D170470149182065
:100D1000ABBEFEE726000200704700002DE9F0435D
:100D200081B0089D0446002D6AD0032D00F2928107
:100D30000DF1240E0EF1040000900998012D40F0F1
:100D4000C3800428C0F08681002C18BF002950D031
:100D5000002A4ED0002B4CD0C4E90E120321C4E966
:100D600010310A2184F8481046F6B561C0F600013A
:100D700046F6356247F2B51347F2C11647F21D45F4
:100D8000C0F60002C0F60003C0F60006C0F600057B
:100D900047F2314C47F2350E84E84E0004F1100161
:100DA000C0F6000CC0F6000E81E8205047F2792111
:100DB000C0F60001216246F67951C0F60001616279
:100DC00047F2D521C0F60001A16247F2D931C0F641
:100DD0000001E16247F2F121C0F6000147F2CD17B0
:100DE000216347F20541C0F60007C0F60001E76144
:100DF0006163206506F02AFB0028E0645AD129E1EE
:100E0000002C18BF00294CD0002A4AD0002B48D013
:100E10000320C4E910300A2084F8480046F6B56083
:100E2000C4E90E12C0F6000046F6356147F2B5126D
:100E300047F2C11347F21D4547F2314C47F2350ED8
:100E4000C0F60001C0F60002C0F60003C0F60005BF
:100E5000C0F6000CC0F6000E84E82F5047F279204F
:100E6000C0F60000206246F67950C0F600006062CD
:100E700047F2D520C0F60000A06247F2D930C0F694
:100E80000000E06247F2F120C0F6000047F2CD1604
:100E9000206347F20540C0F60006C0F60000E66198
:100EA0006063C8202065C82006F0D0FA0028E064FE
:100EB00000F0D080226D0021002506F0D3FA656590
:100EC000284601B0BDE8F083DEF804C00EF1080644
:100ED000022D00965CD10428C0F0BC80002C18BF05
:100EE00000294ED0002A4CD0002B4AD004F1380EF5
:100EF0008EE80E100A2184F8481046F6B561C0F657
:100F0000000146F6356247F2B51347F2C117C0F645
:100F10000002C0F60003C0F6000784E88E0047F226
:100F20007921C0F60001216246F67951C0F6000130
:100F3000616247F2D521C0F60001A16247F2D931C2
:100F4000C0F60001E16247F2F121C0F6000147F26C
:100F50001D4647F2314547F2350C47F2CD1E21635D
:100F600047F20541C0F60006C0F60005C0F6000CC9
:100F7000C0F6000EC0F60001C4E90465C4E906CE5F
:100F80006163206506F062FA0028E06492D161E0B6
:100F90000EF10C05042800955CD3002C18BF002925
:100FA00051D0002A4FD0002B4DD0DEF80870C4E994
:100FB000103C84F8487046F6B56346F6356747F24C
:100FC000B51647F2C11547F21D4C47F2314EC0F637
:100FD0000003C0F60007C0F60006C0F60005C0F624
:100FE000000CC0F6000E47F2350847F2CD19C4E9EF
:100FF0000037C4E90265C4E904CE47F2792346F616
:10100000795747F2D52647F2D93547F2F12C47F206
:10101000054EC0F60008C0F60009C0F60003C0F691
:101020000007C0F60006C0F60005C0F6000CC0F6CA
:10103000000EC4E90689C4E90837C4E90A65C4E9B1
:101040000CCEC4E90E12206506F000FA0028E06418
:101050007FF430AF0125284601B0BDE8F0830000E1
:101060002DE9F04782B00C9D9646DDE90AC20446A0
:1010700025B1022D64D90125DEE000BFBCF1000FCF
:101080004FF0010500F0D880042AC0F0D580002C74
:1010900018BF002900F0C480BEF1000F00F0C0802E
:1010A000002B00F0BD800320C4E910300A2084F832
:1010B000480046F6B560C4E90E1EC0F6000046F6CC
:1010C000356147F2B51347F2C116C0F60001C0F60C
:1010D0000003C0F6000684E84B0047F27920C0F612
:1010E0000000206246F67950C0F60000606247F2C8
:1010F000D520C0F60000A06247F2D930C0F600004B
:10110000E06247F2F120C0F6000047F21D4547F2C9
:10111000314E47F2350747F2CD18206347F20540BC
:10112000C0F60005C0F6000EC0F60007C0F60008C5
:10113000C0F60000C4E9045EC4E9067860636FE0AD
:101140000DAE301D01900D98012D11D1BCF1000F95
:101150004FF0010570D0042A6ED3002C18BF00296F
:101160005ED0BEF1000F5BD0002B59D00A2513E0F2
:1011700006F108050195BCF1000F4FF001055BD0A9
:10118000042A59D3002C18BF002949D0BEF1000F02
:1011900046D0002B44D07568C4E9103046F6B560DF
:1011A00084F84850C0F6000046F6356347F2B5159E
:1011B00047F2C11647F21D4747F2314847F2350959
:1011C00047F2CD1AC0F60003C0F60005C0F60006CF
:1011D000C0F60007C0F60008C0F60009C0F6000A15
:1011E00084E8E90747F27920C0F6000046F6795313
:1011F00047F2D52547F2D93647F2F12747F205489D
:1012000004F12009C0F60003C0F60005C0F6000690
:10121000C0F60007C0F6000889E8E901C4E90E1E1F
:1012200060460021C4E913C2002506F01BF965657C
:10123000284602B0BDE8F087284602B0BDE8F08736
:10124000FEE7000070470000EFF3108072B600BFA9
:10125000FEE7000080B540F66413C2F200035A7A3C
:10126000012A84BF012080BD93F809C08646002072
:1012700003F80C005A7A03EB8202C2F804E05A7AAF
:101280001A44107293F809C00CF101025A720CF161
:1012900030020A7042F63A72A1F80120C87080BD8F
:1012A00040F22020C2F20000D0E90110081A48F2F2
:1012B0001F51C830C5F2EB1180FB0112911101EBF7
:1012C000D271C82201FB120070470000014690F85D
:1012D0002100022816D10868D1E90FC3026822F064
:1012E0000E020260026822F001020260012000FA90
:1012F00003F2CCF8042081F821000020002281F8BC
:1013000020207047042088630120002281F82020DB
:101310007047000080B590F82110022924D102689E
:10132000116821F00E0111602F211368C4F202012F
:101330008A4240F20401C4F2020123F00103136067
:1013400016DD3023C4F202039A421DD04423C4F2B6
:1013500002039A421CD05823C4F202039A421DD1C0
:101360004FF4803322E000BF04218163012080BD5F
:101370000823C4F202039A420ED01C23C4F20203D3
:101380009A420BD1102311E04FF480730EE000BF9E
:101390004FF480530AE000BF012307E001F1680C1D
:1013A0004FF08073624508BF4FF480130B6001213A
:1013B00080F82110426B002180F820100AB190477C
:1013C0000021084680BD000081B00090009838B32D
:1013D0004EF21000CEF2000002E000BF0099F9B119
:1013E0000168C90302D50099013900910099B9B18A
:1013F0000168C90302D5009901390091009979B1BA
:101400000168C90302D5009901390091009939B1E9
:101410000168C903E2D5009901390091DEE700BFF8
:1014200001B070472DE9F04F82B00E68002E00F039
:10143000038141F20042C4F20102042340F2004E53
:10144000904208BF03234FF6FF7CC4F2010E0093C5
:1014500000240123C1F2100C4FF0000A4FF00009E4
:1014600049E000BF012704F00C030F229A402BEA49
:10147000020207FA03F34FEA9A051A4346F82520B9
:10148000D1F804B040F20C455FEACB22DEF8082028
:1014900054BF22EA080242EA0802C4F20105CEF86B
:1014A00008202A685FEA8B2354BF22EA080242EA36
:1014B00008022A605FEA8B33DEF8042054BF22EA78
:1014C000080242EA08025FEACB33CEF80420DEF8D5
:1014D00000204FF0010354BF22EA080242EA08024A
:1014E000CEF800200E680AF1010A36FA0AF204F179
:1014F000040400F0A18003FA0AF816EA080FF1D0FC
:101500004E68664512DC122E56D8DFE806F0350B21
:101510004549555555555555555555555555554D9F
:10152000510000BFD1F80C9046E000BF4FF6FF72AB
:10153000C1F2210296420FDC0022C1F21102964252
:101540001AD00022C1F21202964215D00022C1F236
:101550002102964210D02FE00022C1F222029642D0
:101560000AD00022C1F23102964205D00022C1F217
:101570003202964220D100BF8A684AB1012A14BFC4
:10158000C0F81480C0F810804FF0080914E000BFC4
:101590004FF0040910E000BFCA6802F108090BE02F
:1015A0004FF0000908E000BFCA6802F1040903E037
:1015B000CA6802F10C0900BF22460646BAF1080FBC
:1015C00024BF203A043637680F25954027EA0505E1
:1015D00009FA02F22A433260CA79D2067FF582AF55
:1015E00041F21803C4F202031A68AEF57E7642F0A7
:1015F00001021A601A6802F001020192019A2AF0AF
:10160000030256F802B040F60002C4F20102904212
:1016100010D040F60042C4F2010290423FF422AFE3
:1016200041F20002C4F20102009F904208BF02276B
:1016300019E700BF002716E702B0BDE8F08F0000F1
:10164000002A08BF090401617047000041F600004C
:10165000C2F200000068704740F2640041F60001E9
:10166000C2F20000C2F2000100780A68104408606B
:101670007047000080B542F20000C4F20200016829
:1016800041F010010160032000F092F8032000F007
:1016900005F800F027F8002080BD000070B540F28A
:1016A0006406C2F2000640F28C013278C2F20001F8
:1016B0004FF47A730968B3FBF2F20446B1FBF2F11E
:1016C000084601F00FFD0F2C4FF0010508D838B97E
:1016D0004FF0FF3021460022002500F03DF87460F5
:1016E000284670BD80B582B041F21800C4F20200F5
:1016F000016841F001010160016801F001010191FF
:101700000199416841F080514160406800F080508B
:1017100000900098052000F04BF80420C4F201006E
:101720000168022262F31A61016002B080BD00000C
:10173000002848BF7047C1B200F01F00012202FA22
:1017400000F04EF20012CEF2000242EAD10121F086
:10175000030108607047000010B54EF60C5CCEF235
:10176000000CDCF80030C3F3022E8EF00704042CCA
:1017700028BF0424BEF103034FF0FF3E0EFA04F429
:1017800038BF0023A14399400EFA03F39A43114353
:1017900000F00F0200F160430901043A03F56443CD
:1017A0006244002848BF02F10C03197010BD00000C
:1017B0004EF60C51CEF200010A684FF6FF031A40B4
:1017C00060F30A2242F0806040F0FD7008607047CC
:1017D00005F0BCFA80B501F0070C0CEB8C0C00EBAB
:1017E000CC0C01EB810E0CF1280C00EBCE000906AD
:1017F00058BF00F5B47C0020002A19BFCCF808308F
:101800000121ACF8063000218CF80C1080BD0000DE
:101810007047000001EB8102D0F8EC3200EBC2000F
:10182000C26B184603F0C2BD01EB8102D0F8EC3266
:1018300000EBC200D0F87C21184603F01DBE00006A
:1018400010B5044648B2B0F1FF3F01F0070000EBCD
:10185000800104EBC10205DD02F5B471002382F8BA
:10186000693104E0012302F1280182F8293094F85B
:10187000A8220870012A04BF022010BD206801229E
:1018800084F8A82204F050FC002084F8A80210BDBF
:10189000B0B50446406801F00F02824284BF0120C7
:1018A000B0BD48B2B0F1FF3F01F0070000EB80018E
:1018B00004EBC10206DD02F5B471002382F8693140
:1018C00005E000BF012302F1280182F8293094F8D5
:1018D000A8220025012A8D70087004BF0220B0BD27
:1018E0002068012284F8A82204F0AEFC284684F87F
:1018F000A852B0BD10B5044690F8A802012804BF54
:10190000022010BD4BB220680122B3F1FF3F84F8E2
:10191000A82205DD05F01AF9002084F8A80210BD00
:1019200001F0070105F014F9002084F8A80210BDA9
:1019300001F0070101EB810100EBC100D0F8840147
:101940007047000070B5064648B2B0F1FF3F01F0A5
:10195000070000EB800107DD06EBC10404F5B4715C
:10196000002584F8695106E006EBC10C01240CF156
:1019700028018CF8294008700A61022BCB7004BF43
:101980000020087196F8A802012804BF022070BD4B
:101990003068012286F8A82204F09EFA002086F81A
:1019A000A80270BD10B501F0070C0CEB8C0100EB28
:1019B000C10E00680EF5B4710024CEF87C21CEF87B
:1019C0008031CEF884418EF869418EF868C104F008
:1019D00093FC002010BD0000B0B50446406801F043
:1019E0000705854284BF0120B0BD48B2B0F1FF3F7A
:1019F0000ADD01EB810004EBC00000F5B4710022A8
:101A000080F8692109E000BF05EB850004EBC00008
:101A1000012200F1280180F8292094F8A80201226F
:101A200001288A700D7004BF0220B0BD206884F8C0
:101A3000A82204F047FC1DB1002084F8A802B0BD24
:101A4000206804F52C7104F0FDFB002084F8A80246
:101A5000B0BD000080B501F0070C0CEB8C0100EB71
:101A6000C10101F828CF00684FF0010C01F1140703
:101A700081F824C04FF0000E87E80C400B6281F81B
:101A800001C004F039FC002080BD00002DE9F04FBA
:101A900081B00446006805F063F801041ED44105D6
:101AA00000F11084410400F11F84810400F13684A8
:101AB000C10400F13D84010500F15484810500F169
:101AC000A384C00540F10C842068B0F8441021F4D0
:101AD0008071A0F8441000F003BC00BF2068B0F98A
:101AE0004410B1F1FF3F00F3FB8304F52C7140F685
:101AF0000F75009123E000BFB0F8501094F86821F2
:101B000001EBC20100EB4101B1F80C34B4F86E21D5
:101B100000996FF39F23C4F8843105F025F82068FD
:101B20000188294080310180204600F041FD00BF3E
:101B30002068B0F94410B1F1FF3F00F3D183B0F851
:101B4000442012F00F090DD030F929104FEA490A4C
:101B5000B1F1FF3F1FFA81F832DD5FEA0860E7D597
:101B600062E100BF0188D2066CD4294001F5004132
:101B70000180B0F8501094F8282001EBC20100EB6E
:101B80004100B0F80404E16B6FF39F2060640844E7
:101B9000E06320460021FFF73DFE94F82400002872
:101BA000C6D0206C0028C3D194F82400216840F0EE
:101BB0008000C0B2A1F84C00002084F82400B7E7F0
:101BC00030F81A102940803120F81A1009EB8901E9
:101BD00004EBC10B9BF874110BF5B476002900F0EF
:101BE00083809BF86B11022940F09080B0F8502060
:101BF0003178DBF8803102EBC1070BF5C0725FEA88
:101C0000484500EB470700F19B80B7F80C740025AE
:101C10006FF39F27DB1B38BF2B46136040F2A88071
:101C20005FEA486240F60F7500F1B48030F8212079
:101C300048F2C0032A401A4320F82120002F40F028
:101C4000AA80CFE00A053FF557AF09B2B1F1FF3FD7
:101C50003FF76EAF0188294080310180B0F8501005
:101C600094F8682101EBC20100EB4101B1F80C349A
:101C70006FF39F23C4F8843193B1D4F87C1179B108
:101C8000B4F86E2104F070FFD4F87C01D4F884110C
:101C90000844C4F87C0120460021FFF7C5FD2068F8
:101CA00001880A053FF544AF01F44051B1F5405FAA
:101CB0003FF43EAFB0F8501000F20C42535A6FF3AD
:101CC0009F235352D4F878313F2BC0F0178231F85C
:101CD00002C05F09DE064FF0FF3608BF06EB531760
:101CE0004CEA872393E200BFB0F85010327801EB42
:101CF000C20100EB4101B1F80C746FF39F27002F74
:101D000070D0DBF87C11BBF86E2167E0317848F2C7
:101D1000C00330F821202A401A4320F8212030F84F
:101D20002120B0F85030520403EBC10100EB410117
:101D300018D4B1F80C746FF39F2767BB52E000BF53
:101D4000B7F8047400256FF39F27DB1B38BF2B46C1
:101D5000136025D95FEA486240F60F7531D4CFBBD6
:101D600040E000BFB1F804746FF39F2797BB39E0E0
:101D700030F8212043F60F731A404CF28003A3F58C
:101D800000535A4020F821205FEA486240F60F7560
:101D90007FF54CAF37B3DBF87C11BBF872211DE047
:101DA00030F8212043F60F731A404CF28003A3F55C
:101DB00000535A4020F821205FEA486240F60F7530
:101DC000CDD530F8212048F2C0032A401A4320F82C
:101DD00021203FB1DBF87C11BBF870213B4604F0B9
:101DE000C3FE00E00027DBF88411DBE95F02394421
:101DF0003844CBF88411CBF87C011AB1DBF87801B8
:101E0000B84209D931782046FFF70EFD5FEA086035
:101E10007FF58EAE08E000BF2068314604F06CFA12
:101E20005FEA08607FF584AE206809EB890130F82D
:101E30001A2004EBC10302EA050101F5004120F874
:101E40001A1093F82B1003F1280B012926D193F8CF
:101E5000341000294FF00001196400F049815FEA55
:101E6000486100F1918093F82910012900F02A813E
:101E7000002940F03D81B0F850109BF80020084444
:101E800000EB0210B0F80C146FF39F21A0F80C14B3
:101E9000B0F80C1441F400411CE100BF5FEAC851E6
:101EA0001ED4B0F850209BF800101F6C02EBC1024A
:101EB00000EB4202B2F8042400266FF39F22BF1AFF
:101EC00038BF37461F6440F21581D96B5F6C1144EF
:101ED000D963B9185964594604F00EFA28E600BFD0
:101EE000B0F850709BF800101A4652F8405F40F668
:101EF0000F7A5FEA486607EBC1075FD400F20C492E
:101F000039F817706FF39F27EE1B4FF0000538BFAD
:101F10002E46166040F28E805FEA484208D430F8C0
:101F200021204CF2800602EA0A02324320F82120E6
:101F30001D4615F84C2F012A40F0B2811A4652F87E
:101F4000488F52E904E652F804AC06EB070C0AEBA2
:101F50000706F04542F80CCC42F8046C80F0108182
:101F6000B8F1000F00F06C810027C64617602F7093
:101F700093F82920012A40F00B81B0F8502009EB9A
:101F8000011121F802E07FE193F82910012900F006
:101F9000A580002940F0AC80B0F850109BF80020DC
:101FA000084400EB0210B0F804146FF39F21A0F86E
:101FB0000414B0F8041441F4004197E000F204491D
:101FC00039F817706FF39F27EE1B4FF0000538BFED
:101FD0002E46166052D95FEA484208D530F82120D3
:101FE0004CF2800602EA0A02324320F821201A4607
:101FF00012F84C6F012E40F053811D4655F848EF02
:1020000055E904A655F8048C06EB070C08EB070607
:10201000D64545F80CCC45F8046C80F0D3804FF0E1
:102020000008BEF1000F82F8008040F0CE80BE466E
:10203000CDE000BF93F82920012A6BD0002A76D189
:10204000B0F8502000EB01131A44B2F804346FF3D7
:102050009F23A2F80434B2F8043443F40043A2F8F6
:102060000434B0F8500009EB0112135A6FF39F23A8
:102070001352135A43F4004358E000BF93F8292049
:10208000012A5BD0002A66D1B0F8502009EB011379
:102090009F5A6FF39F279F529F5A47F400479F52C2
:1020A000B0F8502000EB01101044B0F80C246FF38E
:1020B0009F22A0F80C24B0F80C2442F40042A0F8AF
:1020C0000C2448E0B0F850109BF80020084400EBC6
:1020D00002100021A0F80C140AE000BFB0F8501064
:1020E0009BF80020084400EB02100021A0F8041423
:1020F0009BF800102046FFF78DFB19E5002B00F040
:10210000858003F001078E5A07EB530346EA8323C9
:1021100082E000BFB0F8502000EB01131A44002306
:10212000A2F80434B0F8500009EB01121352204613
:10213000FFF770FB5FEA484014D5B1E0B0F85020DB
:1021400009EB011300279F52B0F8502000EB01105B
:102150001044A0F80C742046FFF75CFB5FEA48408F
:1021600040F19E8020689BF800104CF2800330F80C
:10217000212002EA0A021A4320F8212090E000BF41
:10218000A8EB0E05156093F82920012A3FF4F5AE5F
:10219000002A79D1B0F8507009EB0111CA5BBEF189
:1021A0003F0F6FF39F22CA5352D35FEACE654FEAC7
:1021B0005E127D5A4FF0FF3608BF06EB5E1245EA0D
:1021C00082225EE0AEEB0A08D646C5F8008093F89E
:1021D0002920012A2CD0002A5CD1B0F8507009EBDC
:1021E0000111CA5BBEF13F0F6FF39F22CA533BD36D
:1021F0005FEACE654FEA5E127D5A4FF0FF3608BFA8
:1022000006EB5E1245EA822241E000BF8B5A48F29B
:102210000007CFF6FF773B438B52018843F60F72DE
:1022200011404CF28002A2F58052514001807FE4BF
:10223000B0F8502009EB011121F802E02AE000BFBC
:1022400000222A70BE4693F82920012AA0D194E6E4
:10225000BEF1000F14D00EF001027D5A02EB5E02B7
:1022600045EA82220FE000BFBEF1000F0ED00EF053
:1022700001027D5A02EB5E0245EA822209E000BFBC
:102280007A5A42F400427A525A8E04E07A5A42F460
:1022900000427A521A8E1FFA8EF3614604F0BEFC99
:1022A00020689BF8001040F63F7330F8212040F67C
:1022B0000F751A4048F2C003103B5A4020F8212005
:1022C000FFF736BC2068B0F8441021F48061A0F814
:1022D0004410204600F03EF994F8A80201280DD1E0
:1022E00001B0BDE8F08F00BF2068B0F8441021F4C1
:1022F0008041A0F8441001B0BDE8F08F0120002516
:1023000084F8A80284F824502068002104F07EFCA0
:1023100084F8A85201B0BDE8F08F00BF2068B0F883
:10232000441021F40051A0F8441001B0BDE8F08F32
:102330002068B0F8401021F00401A0F84010B0F877
:10234000401021F00801A0F84010204600F014F9D8
:102350002068B0F8441021F48051A0F8441001B076
:10236000BDE8F08F2168B1F800C0B1F804E0B1F821
:1023700008808F890E8A8D8A088B8A8BB1F840304D
:1023800043F00103A1F84030B1F8403023F00103DD
:10239000A1F84030B1F844305B050CD4B1F84430BA
:1023A0005B055CBFB1F844305FEA435303D4B1F836
:1023B00044305B05EED5B1F8443023F48063A1F8D6
:1023C0004430A1F800C0A1F804E0A1F808808F8192
:1023D0000E828D8208838A83B1F8400040F00800A5
:1023E000A1F84000B1F8440020F40060A1F84400D6
:1023F000B1F8400040F004022046A1F8402001B0AE
:10240000BDE8F04F00F0F6B82168B1F8440020F4C0
:1024100000722046A1F8442001B0BDE8F04F00F062
:10242000AFB80000F0B585B000285ED0044690F843
:10243000A90228B9002084F8A802204600F066F816
:10244000032084F8A902206803F0F2FE94E82F50DC
:10245000D4E907678DE82050CDE9036703F062FEF9
:1024600000283FD120680021002504F0CDFB6168E1
:1024700041B301200023002203EB830304EBC307D5
:1024800087F828200132D3B2994287F8290087F8CB
:102490002B50C7E90E553D64EED8002000230022E2
:1024A00003EB830304EBC30787F868210132D3B23F
:1024B000994287F8690187F86B01C7E95E00C7F8A0
:1024C0008001EDD804F10807D4E9056520688CCFB8
:1024D000D4E907CECDE9007602AE86E8205003F0BD
:1024E00099FE38B1022084F8A9020125284605B0DA
:1024F000F0BD00BF0025012084F8245084F8A90213
:10250000206803F085FE284605B0F0BD80B582B096
:10251000006845F60041C4F2000188421CBF02B0C9
:1025200080BD41F21C00C4F202000168002241F4A7
:10253000000101600068002100F400000190019892
:102540001420FFF709F9142002B0BDE88040FFF71E
:10255000EFB8000010B504468068022818BFFEF7E7
:1025600073FED4F8EC02012103F096F8D4F8EC02E3
:10257000BDE8104003F04EB8D0F8EC0203F074B898
:10258000D0F8EC0203F07AB810B5044690F8A8022F
:10259000012804BF022010BD012084F8A80284F89D
:1025A0002410206804F032FB002084F8A80210BD3B
:1025B000D0F8EC2200F52C71104603F083B800002F
:1025C00010B5044690F8A802012804BF022010BDEF
:1025D0002068012184F8A81204F0AEFA20460121F7
:1025E000FFF716F9206803F011FE002084F8A80216
:1025F00010BD000010B50446D0F8EC0203F0B8F8A6
:10260000A069002808BF10BD4EF61050CEF20000A1
:10261000016841F00601016010BD00002DE9F041A4
:1026200082B00446007841F21C06C007C4F20206DC
:102630004AD0306810F0805808D1306840F080509F
:102640003060306800F080500190019847F2000738
:10265000C4F200073868C00512D4386840F48070AE
:102660003860FEF7F3FF05463868C00508D4FEF76A
:10267000EDFF401B6428F7D9032002B0BDE8F081CC
:10268000706810F4407012D0616801F440718842A3
:102690000DD0706840F24042C4F24222012320F47F
:1026A000407113600023C007136071602AD1706805
:1026B000616820F440700843B8F1000F706003D1E6
:1026C000306820F0805030602068810707D556F8C8
:1026D000181CA26821F44041114346F8181CC0069A
:1026E00004D4002002B0BDE8F08100BF56F8180CF9
:1026F000E16820F48000084346F8180C002002B07E
:10270000BDE8F081FEF7A2FF054641F2883700BF21
:1027100070688007CBD4FEF799FF401BB8424FF09A
:102720000300F5D9EBE700002DE9F04381B0002864
:1027300000F0858042F20008C4F202080446D8F88E
:1027400000000D4600F0070088420CD2D8F80000C7
:1027500020F007002843C8F80000D8F8000000F077
:102760000700A8426BD1206841F204098107C4F236
:10277000020917D5410705D5D9F8001041F4E061E9
:10278000C9F80010010705D5D9F8001041F46051CF
:10279000C9F80010D9F80010A26821F0F001114327
:1027A000C9F80010C00741D1D8F8000000F00700B8
:1027B000A8420CD9D8F8000020F007002843C8F838
:1027C0000000D8F8000000F00700A84237D12068C8
:1027D000410707D5D9F80010E26821F4E061114300
:1027E000C9F80010000708D5D9F80000216920F4C5
:1027F000605040EAC100C9F80000D9F8002002F09A
:102800000C00082841F20020C0F27A0050D147F6AF
:102810009D53C2F38341C0F60003595CD2033BD4FD
:1028200040F60010C0F23D00484341E060680228D5
:102830000AD001282AD159F8041C890308D40120A0
:1028400001B0BDE8F08300BF59F8041C8901F6D53A
:10285000D9F8001021F003010843C9F80000FEF781
:10286000F5FE064641F28837D9F80000616800F0AD
:102870000C00B0EB810F97D0FEF7E8FE801BB8424A
:10288000F2D9032001B0BDE8F08300BF59F8041C61
:102890008907D4D5DCE700BFD9F8002047F660539C
:1028A000C2F34042C0F600039A5C4843B0FBF2F02A
:1028B000D9F8001047F64852C1F30311C0F60002E0
:1028C000515C40F28C0220FA01F140F26800C2F241
:1028D00000000068C2F200021160FEF7DFFE002077
:1028E00001B0BDE8F083000040F28C0041F2040129
:1028F000C2F20000C4F202010068096847F65852AB
:10290000C1F30221C0F60002515CC84070470000CC
:1029100040F28C0041F20401C2F20000C4F2020154
:102920000068096847F65852C1F3C221C0F6000298
:10293000515CC840704700002DE9F04182B000288A
:1029400068D00446007841F20006C007C4F20206CF
:1029500025D0706800F00C0004281BD0706800F0CF
:102960000C00082802D17068C00313D460680028E6
:1029700000F06881B0F5A02F00F07C81B0F5803FB9
:1029800000F07C81306820F480303060306820F4C2
:10299000802076E13068800301D56068D0B320786C
:1029A000800718D5706810F00C0F07D0706800F021
:1029B0000C0008286ED17068C0036BD430688007A3
:1029C00002D52069012825D13068616920F0F8001E
:1029D00040EAC1003060207800071FD4207840070B
:1029E00032D4E56995B1706800F00C00082840F019
:1029F0008F80012D0ED07068216A00F480328A42E7
:102A000008D1616A00F47010884203D1002002B03E
:102A1000BDE8F081012002B0BDE8F081A069002886
:102A200062D00020C4F242200121C0F88014FEF7D9
:102A30000DFE0546706A800700F18C80FEF706FEE9
:102A4000401B0228F6D92AE1F06910F0805808D11D
:102A5000F06940F08050F061F06900F08050009023
:102A6000009847F20007C4F200073868C00529D46F
:102A7000386840F480703860FEF7E8FD054600BF16
:102A80003868C0051ED4FEF7E1FD401B6428F7D965
:102A900005E100BF2069002840F20000C4F2422096
:102AA00000F0828001210160FEF7D0FD054600BFE5
:102AB000306880073FF588AFFEF7C8FD401B02284D
:102AC000F6D9ECE0E068002800F08080052800F0EE
:102AD0009780012800F09880306A20F00100306271
:102AE000306A20F0040092E00020C4F2422000216D
:102AF000C0F88014FEF7AAFD054600BF706A800783
:102B00007FF56CAFFEF7A2FD401B0228F6D9C6E0A8
:102B10000027C4F2422700203866FEF797FD022DF9
:102B200005460BD13068800140F1BE80FEF78EFD76
:102B3000401B02284FF00300F4D968E73068800199
:102B40007FF564AFFEF782FD401B02284FF00300C3
:102B5000F4D95CE740F28C00C2F20000006844F651
:102B6000D351C1F26201A0FB0101480A019000BFEC
:102B700000BF0198411E002801913FF42FAF00BF14
:102B80000198411E002801913FF428AF00BF019831
:102B9000411E002801913FF421AF00BF0198411E62
:102BA00000280191E4D119E700210160FEF74EFDF4
:102BB000054600BF306880077FF50DAFFEF746FD84
:102BC000401B02284FF00300F4D920E7306A20F0C0
:102BD00001003062306A20F004003062FEF736FDFA
:102BE000054641F2883700BF306A800720D5FEF7DE
:102BF0002DFD401BB8424FF00300F5D907E700BF99
:102C0000306A40F004003062306A40F00100306207
:102C1000FEF71CFD054641F2883700BF306A800789
:102C200006D4FEF713FD401BB842F7D937E000BFCA
:102C3000B8F1000F7FF4D5AEF06920F08050F0615C
:102C4000CFE600BF306820F480303060306820F478
:102C500080203060FEF7FAFC054600BF3068800334
:102C60007FF59DAEFEF7F2FC401B64284FF0030099
:102C7000F4D9CCE6306840F480203060306840F40D
:102C800080303060FEF7E2FC054600BF306880030C
:102C90003FF585AEFEF7DAFC401B6428F6D9032029
:102CA00002B0BDE8F08100BF206AB0F5803F05D1D9
:102CB0007168A26821F40031114371607168626A21
:102CC00021F4741111430843706001203866FEF747
:102CD000BDFC0446306880013FF598AEFEF7B6FCB7
:102CE000001B02284FF00300F4D990E670B538B10C
:102CF0000446406A30B10020206104F1140007E06E
:102D0000012070BD6068B0F5827F03D004F11C0023
:102D1000002101600026A66294F8510020B92046E7
:102D200084F8506000F038F8022084F8510094E8EC
:102D3000071001F48271036802F4044223F0400397
:102D40000360236911440CF40062114403F0020291
:102D50006369114403F00102A369E569114403F4B6
:102D60000072114405F03802256A114405F0800212
:102D7000A56A114305F4005211430160042101EAE0
:102D800013414160C16921F40061C16101206665A0
:102D900084F85100304670BD70B586B040F60044EE
:102DA000C4F201040068A4F5544100268842049648
:102DB00002D006B070BD00BF41F21800C4F202009C
:102DC000416802AD41F480414160416801F48041B5
:102DD00001910199016841F00801016000682946EC
:102DE00000F00800019001984FF42040029002206A
:102DF0000390032005902046FEF714FB4FF480401B
:102E0000CDE90206204629460496FEF70BFB06B0E4
:102E100070BD00002DE9F04381B0044690F85000E9
:102E2000012803D1022001B0BDE8F08301201E4635
:102E300015460F4684F85000FEF708FC94F8511030
:102E40008146012912D06068B0F5827F40F0A480ED
:102E5000A06800284FF0020008BF042906D0002116
:102E600084F8501001B0BDE8F08300BF002F4FF090
:102E7000010018BF002DF2D0002EF0D094F85100C0
:102E8000002104281CBF052084F851006165A5635A
:102E9000E687A6872763E6862068A68621646164A4
:102EA0000168490603D4016841F04001016061688E
:102EB000731EE268B1FA81F1B3FA83F3DDF8208082
:102EC00049095B09B2F5006F41EA03016CD131B1E8
:102ED00037F8021BC1602763E08E0138E0860125C8
:102EE00018F1010031D101E0FEF7B0FBE08E18B916
:102EF000E08F002800F0C0802068816889070CD529
:102F0000E18E51B1012D08D1216B002531F8022B42
:102F1000C2602163E18E0139E1868168C907E3D08F
:102F2000E18F0029E0D0C068A16B012521F8020BD8
:102F3000A163E08F0138E087D6E700BFFEF786FB8C
:102F4000A0EB0900404580F0AB80E08E18B9E08F1F
:102F5000002800F091802068816889070CD5E18EF7
:102F600051B1012D08D1216B002531F8022BC2602F
:102F70002163E18E0139E1868168C907DED0E18FE6
:102F80000029DBD0C068A16B012521F8020BA163E9
:102F9000E08F0138E087D1E70220002184F850104B
:102FA00001B0BDE8F08300BF39B139780173206BFF
:102FB00001302063E08E0138E086012518F1010020
:102FC00032D101E0FEF742FBE08E10B9E08F00281D
:102FD00052D02068816889070ED5E18E61B1012D3C
:102FE0000AD1216B002509780173216B206801311A
:102FF0002163E18E0139E1868168C907E2D0E18F62
:103000000029DFD0C068A16B01250870A06B0130DA
:10301000A063E08F0138E087D4E700BFFEF716FB1E
:10302000A0EB090040453BD2E08E08B9E08F18B311
:103030002068816889070ED5E18E61B1012D0AD122
:10304000216B002509780173216B20680131216310
:10305000E18E0139E1868168C907DFD0E18F00295F
:10306000DCD0C068A16B01250870A06B0130A063A3
:10307000E08F0138E087D1E72046802142464B4669
:1030800001F02CFEB0B1606D40F0200060652020A2
:1030900060650120002184F8501001B0BDE8F08384
:1030A000012084F851000320002184F8501001B061
:1030B000BDE8F083A06838B9002000902068C1689E
:1030C0000091806800900098606D00284FF001002A
:1030D00004BF84F851000020002184F8501001B092
:1030E000BDE8F083411E0020B0EB116F1CBF012032
:1030F00070474EF21002CEF2000251604EF623519C
:10310000CEF20001F0230B70072190601160704730
:103110007047000070470000B0B582B004460068F8
:103120000168C368426901F02F05202D03F02005D6
:1031300006D12DB1204602B0BDE8B04001F0A4BEDA
:103140005FEA017C1EBF02F0010E03F4907212EBE5
:103150000E0253D1226B012A05D111F0100218BFC3
:1031600013F0100236D10A0622D513F080021FD0C8
:1031700094F8411021293FD1A168B1F5805F03D1B6
:103180002169002900F07082216A4A1C22620978B4
:103190004160E18C01390A04E1842DD1C16821F03C
:1031A0008001C160C16841F04001C16002B0B0BDA2
:1031B000490621D513F040011ED0C16821F040011D
:1031C000C1602021204684F8411002B0BDE8B04023
:1031D00000F0A8BC002101910168019141680191B2
:1031E00001994069400613D4A08DE18DE28D002A3B
:1031F00018BF884240F0BA8102B0B0BDCA0718BFFC
:1032000013F4807240F0B6804A0700F1B980BEE046
:10321000E06B016849688AB2002AEDD0A38D9A421A
:10322000EAD2E1858069202800F09C80206850E87F
:10323000030F216820F4807041E80302DAB12068AE
:1032400050E8030F216820F4807041E8030292B136
:10325000206850E8030F216820F4807041E80302E1
:103260004AB1206850E8030F216820F4807041E8DB
:103270000302002ADAD1206850E8050F216820F007
:10328000010041E80502DAB1206850E8050F216825
:1032900020F0010041E8050292B1206850E8050FD6
:1032A000216820F0010041E805024AB1206850E899
:1032B000050F216820F0010041E80502002ADAD15B
:1032C000206850E8050F216820F0400041E8050221
:1032D000DAB1206850E8050F216820F0400041E88D
:1032E000050292B1206850E8050F216820F04000E7
:1032F00041E805024AB1206850E8050F216820F036
:10330000400041E80502002ADAD1202084F842007A
:1033100000202063206850E8030F216820F010008F
:1033200041E80302DAB1206850E8030F216820F079
:10333000100041E8030292B1206850E8030F2168B1
:1033400020F0100041E803024AB1206850E8030F62
:10335000216820F0100041E80302002ADAD1E06B76
:10336000FDF7B4FF02206063A08DE18D401A81B2A9
:10337000204674E1626C42F0010262644A0706D59D
:10338000BEF1000F03D0626C42F0020262648A0751
:1033900006D5BEF1000F03D0626C42F004026264F5
:1033A000BCF1000F09D545EA0E02B2FA82F25209C9
:1033B00003D1626C42F008026264626C002A3FF43E
:1033C0001BAF11F0200118BF002D03D0204601F0E3
:1033D0005BFD20684069616C00F0400001F008016D
:1033E000401800F0B58000BF206850E8030F216846
:1033F00020F4907041E80302BAB3206850E8030F4C
:10340000216820F4907041E8030272B3206850E80C
:10341000030F216820F4907041E803022AB320686A
:1034200050E8030F216820F4907041E80302002A5D
:10343000DAD11AE0206850E8050F216820F0010079
:1034400041E80502DAB1206850E8050F216820F054
:10345000010041E8050292B1206850E8050F21689B
:1034600020F0010041E805024AB1206850E8050F4C
:10347000216820F0010041E80502002ADAD1206B22
:10348000012824D1206850E8030F216820F01000A3
:1034900041E80302DAB1206850E8030F216820F008
:1034A000100041E8030292B1206850E8030F216840
:1034B00020F0100041E803024AB1206850E8030FF1
:1034C000216820F0100041E80302002ADAD1202010
:1034D00084F84200002020632068406940063FD500
:1034E000206850E8050F216820F0400041E80502FF
:1034F000DAB1206850E8050F216820F0400041E86B
:10350000050292B1206850E8050F216820F04000C4
:1035100041E805024AB1206850E8050F216820F013
:10352000400041E80502002ADAD1E06BC0B144F660
:103530007D61C0F600014163FDF7ECFE00283FF419
:103540005BAEE06B416B02B0BDE8B040084700BF26
:103550002046FFF7DFFD0020606402B0B0BD00BF71
:10356000204602B0BDE8B040FFF7D4BD401A216844
:1035700051E8031F226821F4907142E80313DBB184
:10358000216851E8031F226821F4907142E8031377
:1035900093B1216851E8031F226821F4907142E839
:1035A00003134BB1216851E8031F226821F4907185
:1035B00042E80313002BDAD1216851E8051F226885
:1035C00021F0010142E80513DBB1216851E8051F34
:1035D000226821F0010142E8051393B1216851E806
:1035E000051F226821F0010142E805134BB1216853
:1035F00051E8051F226821F0010142E80513002B64
:10360000DAD1202184F8421000212163216851E899
:10361000031F226821F0100142E80313DBB1216887
:1036200051E8031F226821F0100142E8031393B10F
:10363000216851E8031F226821F0100142E80313BA
:103640004BB1216851E8031F226821F0100142E8C4
:103650000313002BDAD1022281B22046626302B04A
:10366000BDE8B040FFF754BD216A31F8022B6FF37B
:103670005F22426021628CE5002804BF0120704770
:1036800010B5044690F8410028B9002084F84000A5
:10369000204600F063F8242084F841002068D4E933
:1036A0000212C36823F40053C360036923F4405338
:1036B0001A430261D4E904231143C268194341F259
:1036C0000C639A431143C1604169A26921F44071BE
:1036D000114343F60002C4F201029042416103D05B
:1036E000FFF702F902E000BFFFF712F96268192143
:1036F00048439100B0FBF1F048F21F51C5F2EB11C5
:10370000A0FB01235A094FF69C73C0F6FF7302FB1E
:103710000300322303EB0010A0FB0101F02303EAB6
:103720005113206803EB0212C1F34311114481606D
:10373000016921F490410161416921F02A0141614F
:10374000C16841F40051C16000202021606484F808
:10375000411084F84210606310BD000070B586B05F
:1037600040F60004C4F20104006804F5405100264C
:103770008842049602D006B070BD00BF41F2180026
:10378000C4F20200016802AD41F4804101600168A9
:1037900001F4804101910199016841F00401016047
:1037A0000068294600F00400019001984FF4007071
:1037B000029002200390032005902046FDF732FE80
:1037C0004FF48060CDE90206204629460496FDF7B5
:1037D00029FE252002210022FDF7BEFF2520FDF74E
:1037E000A7FF06B070BD000090F84230202B1CBF30
:1037F0000220704700294FF0010318BF002A01D1B1
:103800001846704700230363816222218285C285A6
:10381000436480F842100169006819B1C16841F43D
:103820008071C1604169002341F001014161C168BB
:1038300041F02001C160184670470000B0B5016832
:1038400043F60002C4F20102914218BFB0BD40F23B
:103850002025C2F20005D5E9012348F21F5CD31AE6
:10386000C833C5F2EB1C83FB0C14A11101EBD4711E
:103870004FF0C80E01FB1E31C6290EDC511C81FB26
:103880000C34A31103EBD4732C7803FB1E1140F20C
:10389000E523C2F200039C54696040F22021C2F289
:1038A00000010122BDE8B040FFF79EBF2DE9F043C3
:1038B00081B0044690F84100202840F0B18088464D
:1038C00000294FF0010000F0D6801646002A00F0D3
:1038D000D2800020606421201D4684F84100FDF75D
:1038E000B5FEA684E684A1680646B1F5805F03D1E3
:1038F0002069002800F0988047464FF00008E18CCE
:103900002068002900F0968005F101090BE000BF56
:1039100047B317F8011B4160E18C0139E184E18C68
:10392000002900F0878001680906F1D4B9F1000F81
:103930000AD0EDB1FDF78AFE801BA84218D8206896
:1039400001680906F6D5E3E701680906E0D40168D5
:1039500009065CBF01685FEA0161D9D40168090604
:10396000F2D5D5E738F8021B00276FF35F21D2E7C5
:10397000206850E8030F216820F4D07041E803026A
:10398000BAB3206850E8030F216820F4D07041E8F2
:10399000030272B3206850E8030F216820F4D0704E
:1039A00041E803022AB3206850E8030F216820F49D
:1039B000D07041E80302002ADAD11AE0206850E80A
:1039C000050F216820F0010041E80502DAB1206806
:1039D00050E8050F216820F0010041E8050292B18E
:1039E000206850E8050F216820F0010041E8050239
:1039F0004AB1206850E8050F216820F0010041E835
:103A00000502002ADAD1202084F8410084F842001F
:103A1000002084F84000032001B0BDE8F08300BF1F
:103A2000022001B0BDE8F0830027E18C2068002966
:103A30007FF46AAF0168490619D4FDB1691C0DD144
:103A40000168490613D4016849065CBF01685FEA52
:103A500041610CD401684906F2D508E0FDF7F6FD96
:103A6000801BA8420AD8206800684006F6D52020AE
:103A700084F84100002001B0BDE8F083206850E8E0
:103A8000030F216820F4D07041E80302002A3ED0E1
:103A9000206850E8030F216820F4D07041E8030249
:103AA000AAB3206850E8030F216820F4D07041E8E1
:103AB000030262B3206850E8030F216820F4D0703D
:103AC00041E80302002AD9D121E000BF206850E874
:103AD000050F216820F0010041E80502002A3FF4AB
:103AE00092AF206850E8050F216820F0010041E8FE
:103AF0000502002A3FF487AF206850E8050F2168CF
:103B000020F0010041E80502002A3FF47CAF206864
:103B100050E8050F216820F0010041E80502002A65
:103B2000D4D170E770470000FEE7000070B500F0E8
:103B30003BFEC8B10146002610A419A5302E19D8A5
:103B400020460136FCF7CEFB4FF4FA70FDF73CFC43
:103B50002846FCF709FD4FF4FA70FDF735FC00F03C
:103B600023FE01460028E9D111A0FCF7FDFC00204E
:103B700070BD00BF4FF0FF3070BD00BF53442069DF
:103B80006E697469616C697A65206572726F722002
:103B9000636F64653A2030782532580D0A000000C2
:103BA000506C6561736520436865636B210D00008F
:103BB000534420696E697469616C697A6520737514
:103BC0006363657373210D00B0B5D0F8B852044635
:103BD00095F8180280B12046812101F0A5FD687A90
:103BE000022818BFB0BD05F50372204601211F232E
:103BF000BDE8B04001F0FCBCD5F814020028EAD0C2
:103C0000687A0028E7D12046012101F08DFDE2E726
:103C1000B0B5D0F8B8520446687A022806D12046DA
:103C2000812101F081FD00206872B0BD49B2B1F17F
:103C3000FF3FFADC012808BFB0BD45F25530C5F2A0
:103C40004230C5F82C02012085F83802002005F525
:103C50000B722872204681210D2301F093FD05F59A
:103C60000372204601211F23BDE8B04001F0C0BC13
:103C7000B0B5D0F8B8520446287AC11E02290BD23A
:103C800045F25530C5F2423005F50B72C5F82C02ED
:103C9000002085F8380219E0022827D195F819127A
:103CA00005F21B22204600F03DFAB0F1FF3FC8BFED
:103CB000B0BDD4F8B85245F25530C5F24230C5F81F
:103CC0002C02012005F50B7285F8380200202872BD
:103CD000204681210D2301F055FD05F50372204694
:103CE00001211F23BDE8B04001F082BCB0BD00003F
:103CF00070B5D0F8B8520446287A012836D000288A
:103D000076D1D5E98401C5E98C012046012101F075
:103D10000BFC1F2811D1D5F80C0245F25531C4F225
:103D20004231884209D195F81912012905D895F830
:103D30001A02113810F1110F4ED895F819122046B9
:103D40000522202300F01CFDD4F8B862022196F869
:103D500018026972A0B32046812101F0E5FC707A57
:103D6000022845D106F5037223E000BF95F8191229
:103D700005F21B22204600F0D5F9B0F1FF3FC8BF85
:103D800070BD45F25530D4F8B852C4F2423000F15B
:103D90008050C5F82C02012085F83802002005F576
:103DA0000B722872204681210D2301F0EBFC05F5F2
:103DB0000372204601211F23BDE8704001F018BCAA
:103DC000D6F814020028C6D0707A0028C3D1204645
:103DD000012101F0A9FCBEE705F21B22204600F0FC
:103DE000A1F9297AB0F1FF3F04DD481E032809D26A
:103DF00070BD00BF204605290ED10121BDE87040ED
:103E000000F046B86A895AB105F10C012046BDE8B8
:103E1000704000F05BB800BFBDE87040FFF7D4BE53
:103E200020460021BDE8704000F032B8D0F8B8025A
:103E30000021017270470000B0B50446D0E9AE50D1
:103E400000212981A5F85C120168002088472046DE
:103E5000012101F057FB2046812101F053FB05F5BC
:103E60000372204601211F23BDE8B04001F0C0BB12
:103E700080B5D0F8B8C24FF4807E0CF503720121F2
:103E80001F23ACF808E0BDE8804001F0B1BB0000A2
:103E9000B0B50446D0F8B85245F25530C5F24230BC
:103EA000C5F82C02002005F50B7285F8381228722F
:103EB000204681210D2301F065FC05F503722046A3
:103EC00001211F23BDE8B04001F092BB10B5D0F82E
:103ED000B8E28C46DEF83412DEF81432891A9342C6
:103EE00028BF1346CEF83412002104248EF838126D
:103EF000812162468EF80840BDE8104001F042BCC6
:103F000010B540F27424C2F2000440F28810611C23
:103F1000C2F20000FDF79EF9207010BDF0B585B02B
:103F200041F21800C4F20200016840F6004441F07A
:103F3000100101600168C4F2010401F01001019157
:103F400001990168012241F0200101600168022508
:103F500001F02001019101990168012641F0080159
:103F60000160016801F0080101910199016841F0C7
:103F7000040101600068022100F004000190019832
:103F80002046FDF75DFB20464FF4805100220027BC
:103F9000FDF756FB41F2020001A9C1C101A920466B
:103FA0000495FDF73FFA05B0F0BD0000B0B540F64E
:103FB000247043F60001C2F20000C4F200014FF485
:103FC0008272002380E80E0000F10C014FF0020C19
:103FD0004FF0010E4FF40074382581E808500A2193
:103FE000C0E90645C0E90833C0E90A31FEF77EFEA4
:103FF000002808BFB0BDBDE8B040FDF725B90000FE
:1040000010B540F22024C2F2000443F60001C4F2CD
:104010000101204640F80C1F4FF4E13100220C232F
:10402000C0E90112C0E90322C0E90532C261FFF70D
:1040300023FB002818BFFDF707F904F10C00214607
:104040000122BDE81040FFF7CFBB000080B540F66D
:10405000701040F26C01C2F20000C2F200010022B6
:1040600001F068F9002818BFFDF7EEF840F670106F
:1040700040F2A801C2F20000C2F2000101F0C2FC4D
:10408000002818BFFDF7E0F840F6701040F24C1120
:10409000C2F20000C2F2000101F0F4FB002818BFD8
:1040A000FDF7D2F840F67010C2F2000001F0C0FC3B
:1040B000002808BF80BDBDE88040FDF7C5B80000FE
:1040C000FEE70000FEE700007047000010B540F278
:1040D000202EC2F2000EDEE9012048F21F5C121A07
:1040E000C832C5F2EB1C82FB0C318B1103EBD17192
:1040F000C82401FB1421012910DB411C81FB0C2386
:104100009A1102EBD37240F2E523C2F2000302FBE4
:104110001411185CCEF8081010BD00BF4FF0FF302E
:1041200010BD00002DE9F04182B016461278044619
:104130005A2A00F283800D46DFE812F06400800006
:10414000800090008000800080008000800080005F
:10415000800080008000800080008000800080005F
:10416000C40080008000800080008000800080000B
:10417000F8005C00800080005C008000800080000F
:104180008000020180002201800080003201800056
:1041900078018000800080008000B40180008000F1
:1041A000800080008000800080008000800080000F
:1041B00080008000800080008000800080008000FF
:1041C00080008000800080008000800080008000EF
:1041D00080008000800080008000800080008000DF
:1041E00080008000800080008000800080008000CF
:1041F000C80100BFD4F8B8020024448160B202B004
:10420000BDE8F081D4F8B862D6F81402002800F0B6
:10421000998196F85D02052206EBC0010024013069
:1042200081F83C2281F84042C1B2043918BF0146EE
:1042300086F85D1260B202B0BDE8F081D4F8B80231
:10424000052390F85D12FF2400EBC10282F83C3296
:104250000023013182F8403269E100BFD4F8B8028E
:104260000021C0F811104177C0F81910C0F81510DE
:10427000C0F80D1090F85C1290F85D327022027355
:1042800099424FF00C02C27411D000EBC10292F8B7
:104290003C3292F8407292F8412201310276CAB261
:1042A000043A8373477618BF0A4680F85C221221CD
:1042B000418131790024122998BF418160B202B056
:1042C000BDE8F0817178D4F8B802C90740F01081D8
:1042D000D4F8BC1205EBC503CA69367902EB830733
:1042E00039790531B14238BF0E46002E468100F0C3
:1042F000298216F00304A6F1010C00F01F82711E42
:1043000017F801E04518012C85F80CE000F0178241
:10431000B11E17F801E04518022C85F80CE000F0FA
:104320000E82F11E7F5C4618377308E2D4F8B8029B
:104330000821418147F66A51C0F60001CEE000BF76
:10434000D4F8B862002777613761F760D4F8BC020F
:10435000694643680DF1060228469847002800F098
:104360001381D4F8B802022390F85D12002400EB08
:10437000C102013182F83C3282F84072D7E000BFBE
:10438000D4E9AE60436806F5187106F25E2228464D
:104390009847002800F01281D4F8B8020223BCE04C
:1043A000D4F8B88298F808004746002800F01E812B
:1043B000D7F86802B7F85E12D4F8BC324FF4007632
:1043C0004843A8F80A60D7F86422B0F5007F38BFE8
:1043D0000646D3F810C0B6FBF1F307F10C082846E7
:1043E0004146E047B0F1FF3F40F39480B5B220462C
:1043F000812142462B4601F0C5F9B7F85E02D7E9A4
:104400009923B5FBF0F0D7F834120244181AC7E923
:104410009920A1EB0600C7F8340204BF03203872CC
:10442000002460B202B0BDE8F08100BFD4F8B872D9
:10443000387A002800F0F480D7F86802B7F85E12E6
:10444000D7F8642200FB01F6D4F8BC02B6F5007F71
:1044500028BF4FF40076D0F814C0B6FBF1F307F193
:104460000C0828464146E047B0F1FF3F52DDB7F85F
:104470005E02B1B2B1FBF0F1D7F83422D7E9993539
:10448000921B0B44691AC7E99931C7F8342240F0EE
:104490000581204600210024FFF7FAFC60B202B03B
:1044A000BDE8F0817178D4F8B802890707D4D0F854
:1044B0006822D0E99831114499427FF69DAE90F878
:1044C0005D12052300EBC10200242BE0D4F8B802F2
:1044D0000821418147F66251C0F600014A68096827
:1044E0000261C160002460B202B0BDE8F08100BF8B
:1044F00047F672520721C0F60002937941819188F4
:10450000126883740182C260002460B202B0BDE808
:10451000F08100BFD4F8B802042390F85D120024A3
:1045200000EBC102013182F83C3282F84042CAB24B
:10453000043A18BF0A4680F85D2260B202B0BDE8B6
:10454000F08100BFD4F8BC02816828468847002863
:1045500000F0B280D4F8B802022390F85D12002473
:1045600000EBC102013182F83C3282F84042CAB20B
:10457000043A18BF0A4680F85D220520307260B206
:1045800002B0BDE8F08100BF00990820F073481E1A
:10459000010E3174010C7174010AB174BDF806107A
:1045A000F0740220B08208BA000CF0820C207081F6
:1045B000002460B202B0BDE8F08100BFD6F860020E
:1045C00000240138010E3173010C7173010AF0737C
:1045D000B6F85E02B17300BA000C70820820348213
:1045E000708160B202B0BDE8F08100BF98F9180296
:1045F000002867D498F85D02052208EBC00100246A
:10460000013081F83C2281F84042C1B2043918BF20
:10461000014688F85D1260B202B0BDE8F08100BFCB
:1046200097F91802B0F1FF3F72DDD4F8BC0281683F
:104630002846884700287FF4AFAED4F8BC02C16892
:104640002846884700287FF4A7AED6F8020001BAB2
:10465000C7F86412B6F80720D4F8B80213BAD0F835
:10466000606201EB134351BAB342C7F868123FF6D8
:1046700026AFB7F85E22D7F8146201FB02F39E4220
:104680007FF41DAF0120B3F5007F28BF4FF4007306
:10469000387207F10C022046012109E001FB00F30A
:1046A000204601214246B3F5007F28BF4FF4007336
:1046B00000F09EFF46E000BF0024748160B202B0AB
:1046C000BDE8F081D4F8BC028168284688470028FC
:1046D0007FF462AED6F80200D4F8B87200BAC8F817
:1046E0006402B6F80710D7F860320ABA00EB12423B
:1046F00048BA9A42C8F868020AD8B8F85E22D8F8D0
:10470000143250430221834288F808103FF450AE1F
:1047100097F85D02052207EBC0010024013081F803
:104720003C2281F84042C1B2043918BF014687F8E3
:104730005D1260B202B0BDE8F08100BF3146BCF14D
:10474000030F05D2002460B202B0BDE8F08100BFC3
:104750009B001A44023A0023002400BF57187E78B9
:104760004518EE72565C0433AE7217F8016C0438CB
:104770006E7217F8027C043A99422F72EED159E515
:10478000D0F8B80290F85D1200EBC10383F83C2228
:104790000022013183F84022CAB2043A18BF0A4607
:1047A00080F85D22704700002DE9F04381B040F6AB
:1047B0000049C4F2010948464FF480510122FCF738
:1047C0003FFF382000F074FAFF2000F059FAFF2074
:1047D00000F056FAFF2000F053FAFF2000F050FAE4
:1047E000FF2000F04DFAFF2000F04AFAFF2000F011
:1047F00047FAFF2000F044FAFF2000F041FAFF20C2
:1048000000F03EFA142400BF00200021952200F0A1
:1048100047F90546012803D02004A4F10104F3D18F
:1048200040F2E426C2F200060027012D377072D153
:1048300008204FF4D571872200F032F9012829D1E0
:10484000FF2000F01DFAFF2000F01AFAFF2000F010
:1048500017FA0546FF2000F013FA012D4FF001056D
:1048600008BFAA2857D14FF6FE7400BF3720002199
:10487000012200F015F929204FF08041012200F0BB
:104880000FF9002860D005462004A4F10104EDD101
:104890005EE000BF3720002101224FF6FE740125A3
:1048A00000F0FEF829200021012200F0F9F801288B
:1048B00014D80220307000BF37200021012200F000
:1048C000EFF829200021012200F0EAF8A0B1054606
:1048D0002004A4F10104EFD114E000BF357000BF43
:1048E00001200021012200F0DBF828B10546200458
:1048F000A4F10104F4D105E020044FF000054FF0CD
:10490000000007D010204FF40071012200F0C8F819
:1049100008B10020307048464FF480510122FCF766
:104920008FFEFF2000F0ACF9002000F0C1F93078D4
:10493000002D08BF6FF05505002818BF3D46E8B2AE
:1049400001B0BDE8F08300BF20044FF00005E2D0C5
:104950003A200021012200F0A3F80028DBD1FF203B
:1049600000F08EF98046FF2000F08AF9FF2000F069
:1049700087F9FF2000F084F95FEA48604FF00600F5
:1049800058BF0420C6E700002DE9F041904640F2F0
:10499000E422C2F2000212780546062A18BF490234
:1049A000B8F1010F2ED11120012200F079F8044650
:1049B000002863D14FF6FF744FF6FF71FF200E46BB
:1049C00000F05EF9B1B221448AB2521A18BF012236
:1049D000FE2818BF002AF1D130045FD06C1E4FF4BE
:1049E000007500BFFF20013D00F04AF9290404F8DA
:1049F000010FF7D1FF2000F043F9FF2000F040F94C
:104A000000243BE0122001224FF6FF7600F048F828
:104A10006C1E00BF4FF6FF71FF200F4600F030F90B
:104A2000B9B231448AB2521A18BF0122FE2818BF07
:104A3000002AF1D138041BD04FF40077254600BF7F
:104A4000FF20013F00F01CF9390405F8010FF7D1F0
:104A5000FF2000F015F9FF2000F012F9A8F101087D
:104A60005FEA086004F50074D4D1002401E000BFBF
:104A700001240C200021012200F012F840F6004031
:104A8000C4F201004FF480510122FCF7D9FDFF2050
:104A900000F0F6F82046BDE8F08100BF0124EDE704
:104AA0002DE9F04140F60047C4F2010790460E465A
:104AB000044638464FF480510122FCF7C1FDFF2027
:104AC00000F0DEF838464FF480510022FCF7B8FDC4
:104AD0006FF07F45FF2000F0D3F8FF280ED0013D96
:104AE000F8D138464FF480510122FCF7A9FDFF2090
:104AF000FF2500F0C5F8E8B2BDE8F08144F04000C1
:104B000000F0BEF8300E00F0BBF8C6F3074000F02E
:104B1000B7F8C6F3072000F0B3F8F0B200F0B0F831
:104B2000404600F0ADF80C2C02D1FF2000F0A8F8B0
:104B30001F2400BFFF2000F0A3F845B2B5F1FF3FEE
:104B400003DC2006A4F10104F4D1E8B2BDE8F08151
:104B500070B5154640F2E422C2F2000212780E4609
:104B6000062A18BF7602012D044613D118203146BB
:104B70000122FFF795FF0646002873D16FF07F45AD
:104B8000FF2000F07DF8FF284CD0013DF8D1012630
:104B900068E000BF012A09D0372000210122FFF779
:104BA0007FFF172029460122FFF77AFF192031469F
:104BB0000122FFF775FF0646002853D16FF07F46AC
:104BC000FF2000F05DF8FF2802D0013EF8D11CE084
:104BD000FC2000F055F80026A05D00F051F80136E9
:104BE000B6F5007FF8D1FF2000F04AF8FF2000F072
:104BF00047F8FF2000F044F800F01F00052804D11A
:104C0000013D280604F50074D8D16FF07F4400BF41
:104C1000FF2000F035F8FF2820D0013CF8D1012614
:104C200020E000BFFE2000F02BF8013C4FF400759F
:104C300014F8010F00F024F8013DF9D1FF2000F035
:104C40001FF8FF2000F01CF8FF2000F019F800F01A
:104C50001F00053818BF0120460003E0FD2000F0CA
:104C60000FF8002640F60040C4F201004FF48051D6
:104C70000122FCF7E5FCFF2000F002F8304670BD91
:104C800080B582B08DF8070040F624704FF47A7C2E
:104C9000C2F200000DF107010DF106020123CDF86B
:104CA00000C0FEF7B7F89DF8060002B080BD000016
:104CB00040F62471C2F2000109684FF6C7730A6812
:104CC00022F040020A600A681A400A600A6810432B
:104CD0000860086840F04000086070472DE9F04126
:104CE00082B01E4690460D460446FCF7AFFC301AD3
:104CF00000EB0807FCF7AAFC40F28C01C2F20001AD
:104D00000968C1F3CB317943019121688A682A404F
:104D1000AA4227D1064618F101001FD0FCF796FCE5
:104D2000801BB84222D2019801990028A1F101010B
:104D300001912168896808BF074601EA0500A84279
:104D4000ECD00FE088682840A8420BD18868284042
:104D5000A84207D188682840A84203D18868284023
:104D6000A842EFD0002002B0BDE8F081D4E90001F4
:104D70004268B1F5827F22F0E00242600AD1A16868
:104D8000B1F5004F02D0B1F5806F03D1016821F079
:104D900040010160A16AB1F5005F07D1016821F40B
:104DA00000510160016841F400510160012084F864
:104DB0005100002084F85000032002B0BDE8F081CB
:104DC00048F60000C0F23A0008604FF4007100207D
:104DD000118070470020704780B5002002F05CFC15
:104DE000002818BF0120400080BD0000002070474F
:104DF0000020704780B5002002F060FC002818BF3A
:104E00000120400080BD000080B5002002F066FC5B
:104E1000002818BF0120400080BD0000704700003E
:104E200082B080B581B0CDE903234FF00102D0B14B
:104E3000032918D1DDF80CE003AADDF814C002F153
:104E40000C0352F8041FBEF1000F4FF00102009353
:104E500018BF002907D0BCF1000F1EBF0022C0E917
:104E600000E1C0E902C2104601B0BDE8804002B0D6
:104E700070470000FCF7F0BB70470000406A00215B
:104E8000C185C184FEF746B981B090F8421022294D
:104E900021D183680246B3F5805F09D152F8281FFB
:104EA00052F8183C002B63D003685B680AE000BF2F
:104EB00052F8281F13B90369002BF5D003685B680B
:104EC00003F07F030B70116801311160C18D01394E
:104ED0000A04C18502D001B0704700BF0168CA68EA
:104EE00022F02002CA60CA6822F48072CA604A694D
:104EF00022F001024A61202180F842100021416322
:104F0000026B012A3CD10163016851E8031F02686A
:104F100021F0100142E80313DBB1016851E8031FDF
:104F2000026821F0100142E8031393B1016851E8CF
:104F3000031F026821F0100142E803134BB101681E
:104F400051E8031F026821F0100142E80313002B0F
:104F5000DAD101680A68D20606D5002200920A68F2
:104F60000092496800910099818D01B0FEF7D0B898
:104F7000026852686FF35F2221F8022B8162A5E775
:104F800001B0FEF75BBC000040F22C20C2F2000032
:104F9000FEF7C2B880B5D0F8B4225268904700201E
:104FA00080BD000080B513460A46002100F020FBBA
:104FB000002080BD80B513460A46002100F0E2FBC8
:104FC000002080BD10B58021044600F0ADFB2046D6
:104FD0000021BDE8104000F0A7BB000080B505210E
:104FE000C0F8941200210022002300F001FB0020F1
:104FF00080BD000080B513460A460221C0F8941215
:105000000021C0E9073300F0BDFB002080BD000097
:1050100080B50421C0F8941200210022002300F082
:10502000B1FB002080BD000010B540F2B034C2F2E8
:1050300000040A4602A0214600F00EF9204610BDE9
:105040004D534320436F6E666967000040F2900045
:105050001222C2F200000A807047000010B540F230
:10506000B034C2F200040A4602A0214600F0F4F86F
:10507000204610BD4D534320496E746572666163CE
:105080006500000040F2A4000422C2F200000A8081
:105090007047000010B540F2B034C2F200040A4676
:1050A00002A0214600F0D8F8204610BD53544D69A7
:1050B00063726F656C656374726F6E696373000011
:1050C00010B540F2B034C2F200040A4602A02146F4
:1050D00000F0C2F8204610BD53544D3332204D61CC
:1050E00073732053746F726167650000B0B54FF23F
:1050F000E870C1F6FF70026883684FF01A0C9B18C5
:10510000A1F800C000F0A3804FF0370C1A0F0CEB91
:1051100013714068B3F1204F38BF02F1300140F203
:105120006C12C2F20002917019014FF0000E0CEBEC
:10513000117582F803E0C3F30364B1F1204F38BF67
:1051400004F13005190215710CEB117582F805E0B8
:10515000C3F30354B1F1204F38BF04F130051903F4
:1051600095710CEB117582F807E0C3F30344B1F1BC
:10517000204F38BF04F13005190415720CEB11757E
:1051800082F809E0C3F30334B1F1204F38BF04F1D2
:105190003005190595720CEB117582F80BE0C3F31D
:1051A0000324B1F1204F38BF04F1300519061573FF
:1051B000C3F303140CEB1175B1F1204F4FEA0371E7
:1051C00003F00F0382F80DE038BF04F1300503F15E
:1051D0003704957382F80FE0B1F1204F38BF03F127
:1051E0003004010F0CEB1073147482F811E0B0F16D
:1051F000204F38BF01F1300301010CEB117493749F
:1052000082F813E0C0F30363B1F1204F38BF03F11C
:10521000300401021475C0F303530CEB1174B1F1A7
:10522000204F4FEA003182F815E038BF03F1300417
:105230000CEB1173947582F817E0C0F30340B1F1E1
:10524000204F38BF00F13003137682F819E040F2A6
:105250006C10C2F20000B0BD10B5002868D0037811
:10526000B3B100F1020E4FF0000C00BF1EF8013C7C
:1052700093B19EF800309BB19EF80130A3B19EF827
:1052800002300CF1040C002B0EF1040EEED10DE0F7
:105290004FF0000C0AE000BF4CF0010C06E000BF2C
:1052A0004CF0020C02E000BF4CF0030C5FFA8CFCE7
:1052B000022303EB4C03138003220B704A7090F817
:1052C00000E0BEF1000F33D0023002224FF0000C9C
:1052D0001AE000BF141DE4B244F0010E0B5501F8B2
:1052E0000EC04378002B08BF10BD941DE4B244F0FB
:1052F000010E0B5501F80EC090F802E00832BEF125
:10530000000F00F1040013D0D3B243F0010401F800
:1053100003E001F804C010F8013C4BB1941CE4B266
:1053200044F0010E0B5501F80EC00378002BD1D1CB
:1053300010BD0000002804BF0220704780B5D0F8DF
:10534000B432002B1CBF0023C0F8B432002918BFB0
:10535000C0F8B012012180F89C12027000F0E8F849
:10536000002080BD80B5D0F8C002FCF791FA40F271
:1053700000220223C100C0F20122042838BF22FA11
:1053800001F3D8B280BD000080B5D0F8C002FCF7B0
:1053900057FA40F200220223C100C0F20122042881
:1053A00038BF22FA01F3D8B280BD0000B0B5044680
:1053B00071B1D4F8B402426942B194F89C02032856
:1053C00004D120469047002054E000BF0220B0BD29
:1053D000D4F89402002818BF042805D12046802163
:1053E00000F0A2F93DE000BF02283AD1D4E908104C
:1053F000814209D9081A83B22062204611461A4612
:10540000FFF7D8FD14E000BFE169814218D3B1FB7A
:10541000F0F202FB101098B9D4F8980281420FD232
:105420002046002100220025FFF7C4FDC4F8985251
:10543000204600210022002300F0DAF811E000BF2E
:10544000D4F8B402C16829B194F89C02032801D1B0
:10545000204688472046802100F066F92046FFF765
:10546000BDFD94F8A00201284FF0000004BF84F8AD
:10547000A002B0BDB0BD0000B0B5044671B1D4F813
:10548000B402826942B194F89C02032804D12046F8
:10549000904700251CE000BF0220B0BDD4F8940264
:1054A0000025052816D0032812D1D4E958108142CE
:1054B00018D9091AC4F86011814238BF084683B26E
:1054C000204611461A46FFF76DFD0020B0BD00BF13
:1054D0002846B0BD20460021C4F8945200F024F9BB
:1054E0002846B0BDD4F8B402016929B194F89C02F1
:1054F000032801D1204688472046FFF789FD002078
:10550000B0BD000080B5D0F8C002FCF7F3F940F25E
:1055100000220223C100C0F20122042838BF22FA6F
:1055200001F3D8B280BD0000D0F8C002FCF700BA89
:1055300010B5044640F6344045F60041C2F2000082
:10554000C4F200010822022380E80E000021C0F806
:10555000EC42C4F8C002C0E906110162FCF762FF28
:10556000002818BFFBF770FED4F8C002002100220B
:105570001823FCF72FF9D4F8C00280210022582309
:10558000FCF728F9D4F8C002812100229823FCF707
:1055900021F9D4F8C00201210022D823FCF71AF91E
:1055A000002010BD4AB2D0F8C00201F07F0101EB2B
:1055B000810100EBC10000F5B571002A48BF00F180
:1055C0002A0108787047000080B59446D0F8C002E0
:1055D0001A466346FCF7B6F940F200220223C100E6
:1055E000C0F20122042838BF22FA01F3D8B280BDEC
:1055F00080B5D0F8C002FCF7D5F940F200220223B2
:10560000C100C0F20122042838BF22FA01F3D8B247
:1056100080BD0000F0B581B0002100224023044687
:1056200000254026FFF7D0FF0127204680210022D9
:105630004023C4F85871C4F86461FFF7C5FFD4F87B
:10564000B802A761666284F89C72C4F894526560DF
:10565000C4F8A45228B1D4F8B4020021426820460C
:105660009047002001B0F0BD90F89C12042904BFBF
:1056700090F89D1280F89C120020704780B590F839
:105680009C12032905D1D0F8B412C969002918BFAA
:105690008847002080BD000002460020117470473A
:1056A00080B5D0F8C002FCF76FFF40F20022022361
:1056B000C100C0F20122042838BF22FA01F3D8B297
:1056C00080BD0000B0B500F52A750446284600F0FC
:1056D0008DF994F8A8020121B4F8AE22C4F894120E
:1056E00000F01F010229C4F8982209D001290DD029
:1056F00091B92046294600F0A1F90020B0BD00BFB5
:105700002046294600F000FB0020B0BD2046294677
:1057100000F09EFB0020B0BD00F08001204600F0AC
:1057200003F80020B0BD000080B5D0F8C002FCF73F
:1057300053F940F200220223C100C0F201220428E2
:1057400038BF22FA01F3D8B280BD000080B5D0F88E
:10575000C002FCF735FF40F200220223C100C0F274
:105760000122042838BF22FA01F3D8B280BD00001C
:10577000014690F89C02042281F89D02002081F8E5
:105780009C22704780B5D0F8C002FCF763F940F264
:1057900000220223C100C0F20122042838BF22FAED
:1057A00001F3D8B280BD000080B5FEF761FA002099
:1057B00080BD000080B5FEF79BFA002080BD000090
:1057C000B0B501210446FFF7DFFD00252046812109
:1057D000C4F86C51FFF7D8FD2046E562FEF726FBC2
:1057E000D4F8B80218B100F06FFBC4F8B85200202A
:1057F000B0BD0000014640F220100A22C2F20000B3
:105800000A807047014640F2E0002022C2F2000008
:105810000A807047014640F200102022C2F20000C8
:105820000A807047014640F22C102022C2F200008C
:105830000A807047F0B581B00446007C40260028FD
:1058400008BF4FF40076204601210222334601278B
:105850000225FFF7B9FE2046812102223346C4F813
:105860006C71FFF7B1FE4FF41B70E76200F02EFB86
:10587000C4F8B80218B12046FEF7DEFA0025284623
:1058800001B0F0BD002918BFC0F8BC12002070475D
:1058900070B582B00446D0F8B86291F900000D46A8
:1058A000002210F06001ADF806201DD0202940F044
:1058B0007B806978FF292DD0FE2940F075806988AA
:1058C000002940F07180E988012940F06D80B0F135
:1058D000FF3F00F36980D4F8BC02806980473060E4
:1058E0002046314650E000BF68780B285CD8DFE8DE
:1058F00000F0071F5B5B5B5B5B5B5B5B455100BF65
:1059000094F89C0203284FD10DF106012046022293
:105910003BE000BF6988002946D1E988002943D1CE
:10592000002841D42046FEF7A3FA002002B070BD43
:1059300029792046FFF7E6FD29792046FFF724FD67
:10594000A888010600F00F0000EB800004EB800047
:105950004FF0000130D4C0F85811207C40230028BB
:1059600020464FF001014FF0020208BF4FF40073D0
:10597000FFF72AFE04F5B6702EE000BF94F89C02F3
:10598000032811D1311D20460122FFF733FB0020EF
:1059900002B070BD94F89C02032805D1A87870600D
:1059A000002002B070BD00BF20462946FFF70AFB69
:1059B000022002B070BD00BF8161207C402300281E
:1059C00020464FF081014FF0020208BF4FF40073F0
:1059D000FFF7FAFD04F12C0001222979026020462C
:1059E000FEF716F9002002B070BD00000A780270C0
:1059F0004A7842704A8842808A888280C988C180F9
:105A00007047000000290EBF0220C0F8B412002029
:105A10007047000080B5D0F8B4223AB112689047C0
:105A2000002818BF0120400080BD00BF022080BDBB
:105A300080B5FFF78BFE002080BD0000B0B582B0BE
:105A40000D460978044611F060010DD0402902D0BE
:105A5000202940F04D81D4F8B402294682682046BE
:105A60009047002002B0B0BD6878092800F240815C
:105A7000DFE810F00A0024003E0130003E0166001D
:105A80008A003E013800460094F89C020138022842
:105A900000F22E81E888022840F02A81D4F8A4027E
:105AA0000322002808BF0122214641F80C2F20467E
:105AB0000222FFF79FFA002002B0B0BD94F89C02CA
:105AC0000138022800F2148168880128C9D1002019
:105AD00004E000BF68880128C3D10120C4F8A402F3
