:020000040800F2
:100000000813002035020008B53E0008FD3800083E
:10001000B13E0008C5160008454A0008000000006F
:10002000000000000000000000000000A1480008DF
:10003000C916000800000000B93E0008F948000891
:100040004F0200084F0200084F02000869410008F3
:100050004F0200084F0200084F0200084F0200083C
:100060004F0200084F0200084F0200084F0200082C
:100070004F0200084F0200084F0200084F0200081C
:100080004F0200084F0200084F0200084F0200080C
:100090004F0200084F0200084F0200084F020008FC
:1000A0004F0200084F0200084F0200084F020008EC
:1000B0004F0200084F0200084F0200084F020008DC
:1000C0004F0200084F0200084F0200084F020008CC
:1000D0004F0200080D4A00084F0200084F020008B6
:1000E0004F0200084F0200084F02000800F002F81B
:1000F00000F090F80AA090E8000C82448344AAF132
:100100000107DA4501D100F085F8AFF2090EBAE82F
:100110000F0013F0010F18BFFB1A43F0010318473B
:100120004867000068670000103A24BF78C878C1AB
:10013000FAD8520724BF30C830C144BF04680C60ED
:10014000704700000023002400250026103A28BF35
:1001500078C1FBD8520728BF30C148BF0B60704739
:100160006E2900F04583702900F07981662906F038
:100170004982652906F04682672906F04382612993
:10018000AFF3008003681B0A28BF41F08001692992
:1001900000F0EA80642900F0E780752900F0E4802F
:1001A0006F2900F04D86782900F04581E92900F09B
:1001B000E785E42900F0E485F52900F0E185EF29E1
:1001C00000F04A86F82900F044810368DB0928BF63
:1001D00041F08001632900F05785732900F05C85A8
:1001E000E32900F0F986F32900F0FE86002070472D
:1001F0001FB500F05DFE04000020002106F0DAF8D3
:10020000401C60600020002106F0BEF8E0601FBDC9
:1002100010B510BD00F0A8FF1146FFF7E9FF05F08B
:1002200021F900F0CFFF03B4FFF7F2FF03BC01F0A8
:1002300013F800000948804709480047FEE7FEE739
:10024000FEE7FEE7FEE7FEE7FEE7FEE7FEE7FEE786
:1002500004480549054A064B70470000FD48000860
:10026000ED000008080D002008130020080F0020F2
:10027000080F00207CB51D4616460C00009007D0E4
:100280004142A14202D32044401E01E04FF0FF3022
:10029000064B7B442A4669460190304600F0CFFC6D
:1002A000002C02D0009A002111707CBDCF09000003
:1002B0000FB4044910B503AA029800F0F1FC10BC79
:1002C0005DF814FBB002002070B504468569006833
:1002D000C10601D5302600E02026C00707D070BD3A
:1002E000D4E9012130469047206A401C20626D1EEF
:1002F000F6D570BD70B5044685690078C00707D192
:1003000070BDD4E9012120209047206A401C206262
:100310006D1EF6D570BD70B50C460546012A05D098
:100320002878800600D5EA69002302E0012305E071
:100330005B1C934202D2E05C0028F9D1A869E61860
:10034000C01AA861286A184428622846FFF7BCFF33
:1003500004E0D5E9012114F8010B9047B442F8D329
:100360002846FFF7C7FF70BD2DE9F041064600247F
:1003700010687529314616A510D000F0CEF9002876
:1003800002DA404213A507E031688A0701D512A5B9
:1003900002E0490704D511A5012401E000F0C6F9E7
:1003A00000210A2206F1240709E0B0FBF2FCB0FBB1
:1003B000F2F302FB1C00303078541846491C002828
:1003C000F3D123462A463046BDE8F04100F0B7B9E4
:1003D000000000002D0000002B00000020000000A5
:1003E000F0B40D460188090502D5214C7C4402E099
:1003F0001F4C7C440E34002100F1240608E002F07A
:100400000F071209E75D42EA03721B097754491C82
:1004100052EA0307F3D102780023120704D5702DA6
:1004200006D009B1022311342246F0BC00F087B98E
:1004300001231034F8E770B504460D4621461068D4
:1004400000F074F9024629462046BDE870400023BA
:10045000C6E7D21D22F00703D3E90023C0E70368F3
:10046000126843F0200303600823C3610023B7E749
:10047000186200002DE9F05F894604464FF0000A3B
:10048000DFF874B1FB44C0F820A02046E16888473B
:10049000002874D0252806D0D4E901219047206A8D
:1004A000401C2062F1E700265F462046E16888474D
:1004B0002028054607DB312D05D2781910F8200CCD
:1004C00008B10643F1E7B00701D526F00406C4F8E9
:1004D0001CA00027C4F818A02A2D09D0284605F032
:1004E0004BFF38B304EB8708303DC8F8185019E0CB
:1004F00059F8041B204604EB87029161E1688847A4
:10050000012F054618D1E069002820DA26F02006E0
:100510001DE0D8F8180000EB800005EB40003038F3
:10052000C8F818002046E1688847054605F024FF12
:100530000028EED1012F0AD02E2D08D12046E168E7
:1005400088477F1C0546022F46F02006C4DBA069C1
:10055000002803DA404246F00106A061F00701D00E
:1005600026F010066C2D0BD0682D09D04C2D39D0FB
:100570006A2D35D0742D35D07A2D33D016E038E081
:10058000E1682F4620468847B842054609D16C2FBE
:1005900026D04FF48060E168064320468847054630
:1005A00004E06C2F1AD04FF4807006430DB3A5F110
:1005B0004100192802D8203546F400664A462946EB
:1005C000204626604E46FFF7CBFD80B101280BD0B8
:1005D000F61D26F0070000F1080956E74020E4E781
:1005E0008020D8E70020D6E706F104094DE7284629
:1005F00052E7206ABDE8F09FA861000010B50446EC
:1006000003E004F01BFF401C09D014F8010B05495E
:100610000028F6D1BDE810400A2004F00FBF4FF0CB
:10062000FF3010BDB0020020014A00F01FBC0000E6
:100630000000002010B5431C02E010F8011B71B14E
:100640008107FAD14FF0013202C88C1A8C4314EAA8
:10065000C211F9D0C01A0A0603D0C01E10BDC01ABC
:1006600010BD0A0401D0801E10BD0902FCD0401E3E
:1006700010BD02F0FF0343EA032242EA024200F007
:1006800002B84FF000020429C0F0128010F0030CF1
:1006900000F01B80CCF1040CBCF1020F18BF00F875
:1006A000012BA8BF20F8022BA1EB0C0100F00DB824
:1006B0005FEAC17C24BF00F8012B00F8012B48BF82
:1006C00000F8012B70474FF0000200B51346944626
:1006D0009646203922BFA0E80C50A0E80C50B1F19A
:1006E0002001BFF4F7AF090728BFA0E80C5048BFAE
:1006F0000CC05DF804EB890028BF40F8042B08BF4C
:10070000704748BF20F8022B11F0804F18BF00F847
:10071000012B704770477047704709684A0501D53B
:1007200040B27047C905FCD500B2704709684A0558
:1007300001D5C0B27047C905FCD580B270472DE91C
:10074000F0470D4699469246044600F12408016898
:10075000880604D5E06921F01001216000E0012045
:10076000A84201DD471B00E00027A1697A1902EBCE
:100770000900081AA0612078C00602D42046FFF7BD
:10078000A3FD002608E0D4E901211AF806009047ED
:10079000206A401C761C20624E45F4DB2078C0069F
:1007A0000AD52046FFF790FD06E0D4E9012130206C
:1007B0009047206A401C2062381EA7F10107F4DC34
:1007C00007E0D4E9012118F805009047206A401C91
:1007D0002062281EA5F10105F3DC2046FFF78AFD03
:1007E0002078000602D50220BDE8F0870120FBE753
:1007F00011680268006A530501D508700AE0D30544
:1008000001D5088006E0130603D5C217C1E900022E
:1008100000E00860012070472DE9FF4F0C461E469E
:100820004FF0FF378BB0D2E90001DDF860800A900D
:100830008A46C1F30A5505B93D46002108464FF0E6
:100840000000BAF1000F00F4400005DA00EB800070
:100850004FF4400101EA50004FEA9059B9F1010FFD
:1008600000DDB9460A9850EA4A000ED044F610500E
:10087000A5F2FF3545432F14B8F1000F1ED0754285
:10088000291E1EDDC9F100021CE0B8F1010F4FF076
:10089000000001D0302103E0F24305E02154401C68
:1008A000B042FBDB30460022002121540B99C1F8F5
:1008B0000880C1E900200FB0BDE8F08FBD1B6D1CA2
:1008C000DEE74A4600DA694206A800F091FB06AB73
:1008D00093E8070003AB83E8070050460A9905F048
:1008E0006EF98DE80700A0F500501F3800900398BE
:1008F000002D0ADD42F21F014A460844002303A9E5
:100900000390684605F0D8FB09E0A0F500504A4680
:100910001F38002303A90390684605F0E2FB8DE829
:1009200007000004000C03D04FF0FF30410800E046
:100930001046B8F1000F03D00022009215461EE0C9
:10094000751E05D400F0B8FA303262556D1EF9D527
:10095000B3460122084302D000227F1C04E0207825
:10096000302801D100227F1E002A099784D01DE083
:10097000112D07DA00F0A0FA303262556D1C50EAF2
:100980000102F5D1084302D00098C8B10EE0002161
:10099000681E05E0235C625C63542254401E491CBF
:1009A0008142F7DBAB46A81B401E0990002004F8EB
:1009B0000B000B98099AC0F80880C0E9002B7AE771
:1009C00011264FF0000857E72DE9F04F88460446FE
:1009D000D21D22F0070191B0D1E90001CDE90A0151
:1009E00005F0B6FC02460B98C00F01D02D2007E0A1
:1009F0002068810701D52B2002E0202101EAC000F8
:100A0000032A099001D0072A05DB03464146204608
:100A100000F098FA0BE12078800601D5E06900E04B
:100A20000620B8F1650F814606D0B8F1660F18D0E0
:100A3000B8F1670F70D131E00020B9F1110F0090CB
:100A400001DB112301E009F101030AAA01A90CA8A5
:100A5000FFF7E2FEDDE90C70002609F1010583468F
:100A600047E001204B4600904FF000470AAA01A939
:100A70000CA8FFF7D1FEDDE90DB00C995D4600260C
:100A800010B909F101000D18B9EB050003D4C0F14C
:100A9000FF3609F10105A5EB09002BE0B9F1010FC3
:100AA00001DA4FF001090020B9F1110F009048461A
:100AB00001DD112300E003460AAA01A90CA8FFF7F3
:100AC000ABFEDDE90C704D4600268346207800071A
:100AD0000AD4AB4500DA5D4601A8012D04DD4119B9
:100AE00011F8011C302907D04F4502DA17F1040F25
:100AF00004DA012082460FE06D1EEEE7002F02DCD3
:100B0000ED1B3E4403E0781CA84200DD7D1CB81BB1
:100B100000F1010A4FF000472078000703D4AA45EE
:100B200001DB4FF0FF3A0021B7F1004F0DF1430810
:100B30008DF8431024D002202B23002F01DA7F42AE
:100B40002D230A21021EA0F1010000DC5FB197FBFA
:100B5000F1FC97FBF1F201FB1C7C17460CF1300C09
:100B600008F801CDEEE7A8F101000370218809051E
:100B700001D5452100E06521A0F1010800F8011C24
:100B800009980FA9A1EB0807FF1D00B10120411929
:100B900001EBEA70A1693844081A401EA061207870
:100BA000C00602D42046FFF78FFB099828B1D4E98C
:100BB00001219047206A401C20622078C00622D57F
:100BC0002046FFF781FB1EE0002E04DBB34502DD6B
:100BD00001A8805D00E03020D4E901219047206A1F
:100BE000401C2062761CAAF101005FEA000A0AD1CB
:100BF00000F05EF9C0680168405CD4E901219047CB
:100C0000206A401C2062281EA5F10105DCDC07E0FB
:100C1000D4E9012118F8010B9047206A401C20629A
:100C2000381EA7F10107F3DC2046FFF763FB032022
:100C300011B041E601694A1C02610878704700B5AD
:100C40008FB0CDE901310021059105497944CDE905
:100C5000031011466846FFF70DFC0FB000BD000001
:100C6000E5FFFFFFD1E900239A4202D2531C0B603B
:100C70001070704710B5436913B1AFF3008001E005
:100C8000FFF749FB012010BD127800F124010A7022
:100C900000224A700122EDE711684FF0FF32E9E7C8
:100CA000074B70B50D467B44FFF7C9FF0446284645
:100CB00000F010FA10B14FF0FF3070BD204670BD4B
:100CC000934700002DE9FF5F15468A460446DFF88A
:100CD000AC80F8440027D8E900103E46CDE900106A
:100CE00010E03AF816106A4602A800F0F7F9411C25
:100CF00007D02178890603D5E269391891420DD8C9
:100D00000744761C2078800602D5E069B84205DDEC
:100D1000AE42E6DB3AF816000028E2D1A069C01B1B
:100D2000A0612046FFF7D0FAD8E90010CDE9001005
:100D3000002017E03AF818106A4602A800F0CEF931
:100D4000B0F1FF3F81460BD000250DF1080B05E007
:100D5000D4E901211BF8050090476D1C4D45F7D3E0
:100D600008F10100B0428046E4DB206A384420628A
:100D70002046FFF7BFFABDE8FF9F00006E59000054
:100D80002DE9F0418046D21D22F007020025D2E96C
:100D90000002F52915A614D0011E72F1000106DA31
:100DA0000023D0EB030063EB020211A608E0D8F8A1
:100DB00000108B0701D50FA602E0490701D50EA64A
:100DC00001251146002408F1240704E000F074F81E
:100DD00030323A55641C50EA0102F7D12B463246B4
:100DE00021464046BDE8F041FFF7A9BC00000000E5
:100DF0002D0000002B0000002000000030B4002176
:100E000000F1240408E002F00705D208303542EA78
:100E10004372DB086554491C52EA0305F3D10468A8
:100E2000002310A2250708D504F020040C4304D0A9
:100E3000C46901230CA2641EC46130BCFFF77FBCEF
:100E400010B5044621461068FFF770FC02462046A4
:100E5000BDE810400023D1E7D21D22F00701D1E9FF
:100E60000023CBE700000000300000002DE9F04136
:100E700015460E46040002D12C6804B90BA4204686
:100E800000F060F90444207870B1274631463846B6
:100E900000F048F90444207810B1002004F8010B58
:100EA00038462C60BDE8F0810027F9E7000000001B
:100EB00000487047E000002030B5B0F10A0271F13F
:100EC00000034FEA900E4EEA817EB0EB0E0061EB1C
:100ED00091014FEA101E4EEA017E10EB0E0041EB2D
:100EE00011114FEA102E4EEA016E10EB0E0041EB8D
:100EF00011214FEA104E4EEA014E10EB0E0041EB6D
:100F00001141401841F100014FEAD00040EA417020
:100F10004FEAD1014FEA810444EA907410EB800556
:100F200044EB01046D1944EB0404521BA3414FF040
:100F3000000348BF0A3200D530BD401C41F100011A
:100F400030BD00002DE9F0411F460446032601682C
:100F5000072A01F4006004DB08B116A505E016A518
:100F600003E008B115A500E015A521F010002060F0
:100F7000A069C01EA0610FB1401EA0612046FFF70E
:100F8000A3F94FB1D4E9012138469047206A401CAB
:100F90002062C01C206206E0206AFAE7D4E9012141
:100FA00015F8010B9047761EF8D22046FFF7A2F9FC
:100FB000BDE8F0814E414E006E616E00494E460024
:100FC000696E660010B5436913B1AFF3008001E0AC
:100FD000FFF778FE012010BD128800F12401828401
:100FE0000022C2840122EDE711684FF0FF32E9E7E9
:100FF0002DE9F047814616468AB0354878440DC839
:101000008DE80D0032487844801C03AC0DC884E89C
:101010000D0041F69B300844372190FBF1F290FB24
:10102000F1F5A5F1800501FB12041B3C02D56442D9
:10103000012000E00020DFF898A080460027FA4455
:10104000AAF1BE0A0EE0E0070AD03246684607EB76
:10105000470101230AEB810105F043F88DE8070001
:1010600064107F1C002CEED1194F7F44AE3F19E075
:10107000E80715D007EB04100DF1180A90E80E00F0
:101080008AE80E00C068F04201D1981908903246F3
:10109000012306A903A805F024F803AB83E80700A1
:1010A0006D10641C002DE3D14FF0010332466946F8
:1010B000B8F1000F03A802D004F0FEFF01E005F034
:1010C00010F8C9E90001C9F808200AB0BDE8F087A6
:1010D000C8560000007B00F0800070472DE9F04109
:1010E00016460C46054600F065F8036893F80101C2
:1010F000012807D0FF2C12D8185D80B101202C7078
:10110000BDE8F081D3F807013246214603F2071308
:10111000C7182846BC46BDE8F041002360474FF0A1
:10112000FF30EDE730B503461D781DB10A4603E0F8
:10113000AC4201D1181A30BD12F8014B002CF7D186
:101140005B1CF1E730B503461D783DB10A4612F845
:10115000014B1CB1AC42FAD15B1CF5E7181A30BD4B
:1011600000487047C00000207546FFF7F9FFAE4603
:1011700005006946534620F00700854618B020B5A3
:10118000FFF766F8BDE820404FF000064FF000077B
:101190004FF000084FF0000BAC46ACE8C009ACE8DB
:1011A000C009ACE8C009ACE8C00921F007018D46D0
:1011B0007047000010B5FFF77BFE001D10BD00BF9B
:1011C000F551000010B50446AFF300802046BDE89D
:1011D0001040FFF728B800004FF0013C50F8042BF6
:1011E00051F8043B9A4221D1A2EB0C03934313EA3A
:1011F000CC1317D150F8042B51F8043B9A4215D167
:10120000A2EB0C03934313EACC130BD150F8042B3D
:1012100051F8043B9A4209D1A2EB0C03934313EA21
:10122000CC13DBD04FF00000704700BFD01A01BADA
:10123000B1FA81F101F0180122FA01F0CB40DBB2E2
:10124000C0B2C01AC1F120012CFA01F3D11A9143A6
:1012500011EAC311E6D1704701491820ABBEFEE781
:101260002600020070470000F0B581B0069D0446DC
:1012700035B1032D68D90125284601B0F0BD00BF66
:10128000002C18BF00294CD0002A4AD0002B48D08F
:101290000320C4E910300A2084F8480044F6E950DD
:1012A000C4E90E12C0F6000044F6695145F2E902A5
:1012B00045F2F50345F2513545F2653C44F6697E49
:1012C000C0F60001C0F60002C0F60003C0F600053B
:1012D000C0F6000CC0F6000E84E82F5045F2AD10A9
:1012E000C0F60000206244F67520C0F6000060627F
:1012F00045F20920C0F60000A06245F20D30C0F6AC
:101300000000E06245F22520C0F6000045F201161B
:10131000206345F23930C0F60006C0F60000E661F1
:101320006063C8202065C82004F02AF80028E06423
:1013300000F0D280226D0021002504F02DF86565B3
:10134000284601B0F0BD00BF0DF11C0C0CF10400EB
:1013500000900798012D61D10CF10807042800972F
:10136000C0F0BA80002C18BF002950D0002A4ED0FF
:10137000002B4CD0DCF8047004F1380C8CE88E00A3
:101380000A2184F8481044F6E951C0F6000144F6F9
:10139000695245F2E90345F2F507C0F60002C0F6CE
:1013A0000003C0F6000784E88E0045F2AD11C0F6D8
:1013B0000001216244F67521C0F60001616245F228
:1013C0000921C0F60001A16245F20D31C0F600010D
:1013D000E16245F22521C0F6000145F2513645F2A1
:1013E000653544F6697C45F2011E216345F23931C9
:1013F000C0F60006C0F60005C0F6000CC0F6000EF0
:10140000C0F60001C4E90465C4E906CE6163206545
:1014100003F0B6FF0028E0648CD15DE004285BD3C4
:10142000002C18BF002950D0002A4ED0002B4CD0E1
:10143000C4E90E120321C4E910310A2184F84810CE
:1014400044F6E951C0F6000144F6695245F2E90359
:1014500045F2F50645F25135C0F60002C0F600032C
:10146000C0F60006C0F6000545F2653C44F6697E0C
:1014700084E84E0004F11001C0F6000CC0F6000E26
:1014800081E8205045F2AD11C0F60001216244F61A
:101490007521C0F60001616245F20921C0F6000124
:1014A000A16245F20D31C0F60001E16245F225214D
:1014B000C0F6000145F20117216345F23931C0F64B
:1014C0000007C0F60001E7616163206503F058FF83
:1014D0000028E0647FF42EAF0125284601B0F0BD5E
:1014E0002DE9F04782B00C9D9646DDE90AC204461C
:1014F00025B1022D64D90125E0E000BFBCF1000F49
:101500004FF0010500F0DA80042AC0F0D780002CEB
:1015100018BF002900F0C580BEF1000F00F0C180A7
:10152000002B00F0BE800320C4E910300A2084F8AC
:10153000480044F6E950C4E90E1EC0F6000044F627
:10154000695145F2E90345F2F506C0F60001C0F61F
:101550000003C0F6000684E84B0045F2AD10C0F66B
:101560000000206244F67520C0F60000606245F27B
:101570000920C0F60000A06245F20D30C0F6000060
:10158000E06245F22520C0F6000045F2513545F2F3
:10159000653E44F6697745F20118206345F239301B
:1015A000C0F60005C0F6000EC0F60007C0F6000841
:1015B000C0F60000C4E9045EC4E90678606370E028
:1015C0000DAE301D01900D98012D15D106F10805C5
:1015D0000195BCF1000F4FF001056FD0042A6DD3C7
:1015E000002C18BF00295CD0BEF1000F59D0002B91
:1015F00057D0756811E000BFBCF1000F4FF0010536
:101600005CD0042A5AD3002C18BF002949D0BEF15F
:10161000000F46D0002B44D00A25C4E9103044F610
:10162000E95084F84850C0F6000044F6695345F28A
:10163000E90545F2F50645F2513745F2653844F6BD
:10164000697945F2011AC0F60003C0F60005C0F63C
:101650000006C0F60007C0F60008C0F60009C0F694
:10166000000A84E8E90745F2AD10C0F6000044F630
:10167000752345F2092545F20D3645F2252745F239
:10168000393804F12009C0F60003C0F60005C0F6A1
:101690000006C0F60007C0F6000889E8E901C4E9C1
:1016A0000E1E60460021C4E913C2002503F074FE3B
:1016B0006565284602B0BDE8F08700BF284602B045
:1016C000BDE8F087FEE7000070470000EFF31080F0
:1016D00072B600BFFEE7000080B540F2F433C2F2FC
:1016E00000035A7A012A84BF012080BD93F809C003
:1016F0008646002003F80C005A7A03EB8202C2F8F7
:1017000004E05A7A1A44107293F809C00CF10102ED
:101710005A720CF130020A7042F63A72A1F80120B6
:10172000C87080BD40F22010C2F20000D0E9011064
:10173000081A48F21F51C830C5F2EB1180FB0112A4
:10174000911101EBD271C82201FB12007047000019
:10175000014690F82100022816D10868D1E90FC38C
:10176000026822F00E020260026822F001020260AA
:10177000012000FA03F2CCF8042081F821000020B7
:10178000002281F820207047042088630120002275
:1017900081F820207047000080B590F821100229C0
:1017A00024D10268116821F00E0111602F21136805
:1017B000C4F202018A4240F20401C4F2020123F0A1
:1017C0000103136016DD3023C4F202039A421DD0D8
:1017D0004423C4F202039A421CD05823C4F20203E9
:1017E0009A421DD14FF4803322E000BF042181636F
:1017F000012080BD0823C4F202039A420ED01C23AC
:10180000C4F202039A420BD1102311E04FF480730B
:101810000EE000BF4FF480530AE000BF012307E051
:1018200001F1680C4FF08073624508BF4FF48013DC
:101830000B60012180F82110426B002180F82010FC
:101840000AB190470021084680BD0000B0B50446AB
:1018500000F024F9054640F27000C2F20000007862
:10186000611C18BF044400BF00F018F9401BA042DF
:10187000FAD3B0BD2DE9F04F82B00E68002E00F013
:10188000038141F20042C4F20102042340F2004EFF
:10189000904208BF03234FF6FF7CC4F2010E009371
:1018A00000240123C1F2100C4FF0000A4FF0000990
:1018B00049E000BF012704F00C030F229A402BEAF5
:1018C000020207FA03F34FEA9A051A4346F8252065
:1018D000D1F804B040F20C455FEACB22DEF80820D4
:1018E00054BF22EA080242EA0802C4F20105CEF817
:1018F00008202A685FEA8B2354BF22EA080242EAE2
:1019000008022A605FEA8B33DEF8042054BF22EA23
:10191000080242EA08025FEACB33CEF80420DEF880
:1019200000204FF0010354BF22EA080242EA0802F5
:10193000CEF800200E680AF1010A36FA0AF204F124
:10194000040400F0A18003FA0AF816EA080FF1D0A7
:101950004E68664512DC122E56D8DFE806F0350BCD
:101960004549555555555555555555555555554D4B
:10197000510000BFD1F80C9046E000BF4FF6FF7257
:10198000C1F2210296420FDC0022C1F211029642FE
:101990001AD00022C1F21202964215D00022C1F2E2
:1019A0002102964210D02FE00022C1F2220296427C
:1019B0000AD00022C1F23102964205D00022C1F2C3
:1019C0003202964220D100BF8A684AB1012A14BF70
:1019D000C0F81480C0F810804FF0080914E000BF70
:1019E0004FF0040910E000BFCA6802F108090BE0DB
:1019F0004FF0000908E000BFCA6802F1040903E0E3
:101A0000CA6802F10C0900BF22460646BAF1080F67
:101A100024BF203A043637680F25954027EA05058C
:101A200009FA02F22A433260CA79D2067FF582AF00
:101A300041F21803C4F202031A68AEF57E7642F052
:101A400001021A601A6802F001020192019A2AF05A
:101A5000030256F802B040F60002C4F201029042BE
:101A600010D040F60042C4F2010290423FF422AF8F
:101A700041F20002C4F20102009F904208BF022717
:101A800019E700BF002716E702B0BDE8F08F00009D
:101A9000002A08BF090401617047000040F60050A9
:101AA000C2F200000068704740F2700040F600513A
:101AB000C2F20000C2F2000100780A681044086017
:101AC0007047000080B542F20000C4F202000168D5
:101AD00041F010010160032000F092F8032000F0B3
:101AE00005F800F027F8002080BD000070B540F236
:101AF0007006C2F2000640F27C013278C2F20001A8
:101B00004FF47A730968B3FBF2F20446B1FBF2F1C9
:101B1000084601F0D1F90F2C4FF0010508D838B96B
:101B20004FF0FF3021460022002500F03DF87460A0
:101B3000284670BD80B582B041F21800C4F20200A0
:101B4000016841F001010160016801F001010191AA
:101B50000199416841F080514160406800F0805037
:101B600000900098052000F04BF80420C4F201001A
:101B70000168022262F31A61016002B080BD0000B8
:101B8000002848BF7047C1B200F01F00012202FACE
:101B900000F04EF20012CEF2000242EAD10121F032
:101BA000030108607047000010B54EF60C5CCEF2E1
:101BB000000CDCF80030C3F3022E8EF00704042C76
:101BC00028BF0424BEF103034FF0FF3E0EFA04F4D5
:101BD00038BF0023A14399400EFA03F39A431143FF
:101BE00000F00F0200F160430901043A03F5644379
:101BF0006244002848BF02F10C03197010BD0000B8
:101C00004EF60C51CEF200010A684FF6FF031A405F
:101C100060F30A2242F0806040F0FD700860704777
:101C200002F012FF2020C4F20E2001210160704753
:101C300080B5012818D0022836D0102832D141F2C0
:101C40000401C4F202010A6851F8040CC00129D54C
:101C5000C2F383402DA3185CD2033DD440F600129A
:101C6000C0F23D02504343E041F20400C4F20200DE
:101C7000C16940F202320A40B2F5817F04BF4FF4DD
:101C8000004080BD01F44071B1F5407F1CD0B1F53A
:101C9000007F07D1006A49F64041800701EAE07001
:101CA00080BD00BF002080BD00F0B4F941F2040106
:101CB000C4F2020109680222C1F3813102EB410141
:101CC000B0FBF1F080BD00BF50F8040C4FF224418E
:101CD000800301EAE07080BD0A6810A3C2F34042AD
:101CE0009A5C41F20023C0F27A03B3FBF2F2504354
:101CF0000968490248BF80BD4AF6AB214000CAF6D8
:101D0000AA21A0FB0101480880BD00BF0203040511
:101D1000060708090A0B0C0D0E0F10100102000037
:101D20002DE9F04182B00446007841F21C06C0075C
:101D3000C4F202064AD0306810F0805808D13068EA
:101D400040F080503060306800F080500190019881
:101D500047F20007C4F200073868C00512D438689B
:101D600040F480703860FFF799FE05463868C0057A
:101D700008D4FFF793FE401B6428F7D9032002B074
:101D8000BDE8F081706810F4407012D0616801F411
:101D9000407188420DD0706840F24042C4F2422245
:101DA000012320F4407113600023C00713607160A9
:101DB0002AD17068616820F440700843B8F1000FC0
:101DC000706003D1306820F0805030602068810757
:101DD00007D556F8181CA26821F44041114346F873
:101DE000181CC00604D4002002B0BDE8F08100BF7A
:101DF00056F8180CE16820F48000084346F8180CE7
:101E0000002002B0BDE8F081FFF748FE054641F230
:101E1000883700BF70688007CBD4FFF73FFE401BB8
:101E2000B8424FF00300F5D9EBE700002DE9F0438D
:101E300081B0002800F0858042F20008C4F2020858
:101E40000446D8F800000D4600F0070088420CD286
:101E5000D8F8000020F007002843C8F80000D8F8A0
:101E6000000000F00700A8426BD1206841F204098D
:101E70008107C4F2020917D5410705D5D9F800102A
:101E800041F4E061C9F80010010705D5D9F8001048
:101E900041F46051C9F80010D9F80010A26821F08F
:101EA000F0011143C9F80010C00741D1D8F8000073
:101EB00000F00700A8420CD9D8F8000020F0070075
:101EC0002843C8F80000D8F8000000F00700A84236
:101ED00037D12068410707D5D9F80010E26821F40E
:101EE000E0611143C9F80010000708D5D9F80000D7
:101EF000216920F4605040EAC100C9F80000D9F817
:101F0000002002F00C00082841F20020C0F27A0004
:101F100050D146F2FA63C2F38341C0F60003595C24
:101F2000D2033BD440F60010C0F23D00484341E0EC
:101F3000606802280AD001282AD159F8041C8903B4
:101F400008D4012001B0BDE8F08300BF59F8041C9B
:101F50008901F6D5D9F8001021F003010843C9F82A
:101F60000000FFF79BFD064641F28837D9F80000D4
:101F7000616800F00C00B0EB810F97D0FFF78EFD89
:101F8000801BB842F2D9032001B0BDE8F08300BF46
:101F900059F8041C8907D4D5DCE700BFD9F8002024
:101FA00046F2F863C2F34042C0F600039A5C48432D
:101FB000B0FBF2F0D9F8001046F2E062C1F3031171
:101FC000C0F60002515C40F27C0220FA01F140F2BE
:101FD0007400C2F200000068C2F200021160FFF754
:101FE00085FD002001B0BDE8F083000040F27C00D8
:101FF00041F20401C2F20000C4F202010068096863
:1020000046F2F062C1F30221C0F60002515CC84002
:102010007047000040F27C0041F20401C2F200006F
:10202000C4F202010068096846F2F062C1F3C221FD
:10203000C0F60002515CC840704700002DE9F04135
:1020400082B0002868D00446007841F20006C0073C
:10205000C4F2020625D0706800F00C0004281BD0E2
:10206000706800F00C00082802D17068C00313D417
:102070006068002800F06881B0F5A02F00F07C8136
:10208000B0F5803F00F07C81306820F48030306013
:10209000306820F4802076E13068800301D56068E4
:1020A000D0B32078800718D5706810F00C0F07D0D7
:1020B000706800F00C0008286ED17068C0036BD403
:1020C0003068800702D52069012825D13068616910
:1020D00020F0F80040EAC1003060207800071FD4EB
:1020E0002078400732D4E56995B1706800F00C00A3
:1020F000082840F08F80012D0ED07068216A00F40E
:1021000080328A4208D1616A00F47010884203D19B
:10211000002002B0BDE8F081012002B0BDE8F081EE
:10212000A069002862D00020C4F242200121C0F83A
:102130008014FFF7B3FC0546706A800700F18C80BD
:10214000FFF7ACFC401B0228F6D92AE1F06910F039
:10215000805808D1F06940F08050F061F06900F0DB
:1021600080500090009847F20007C4F200073868DA
:10217000C00529D4386840F480703860FFF78EFCC1
:10218000054600BF3868C0051ED4FFF787FC401B1A
:102190006428F7D905E100BF2069002840F200005B
:1021A000C4F2422000F0828001210160FFF776FC3A
:1021B000054600BF306880073FF588AFFFF76EFC2B
:1021C000401B0228F6D9ECE0E068002800F080808F
:1021D000052800F09780012800F09880306A20F0F0
:1021E00001003062306A20F0040092E00020C4F266
:1021F00042200021C0F88014FFF750FC054600BFC4
:10220000706A80077FF56CAFFFF748FC401B02281F
:10221000F6D9C6E00027C4F2422700203866FFF74F
:102220003DFC022D05460BD13068800140F1BE8097
:10223000FFF734FC401B02284FF00300F4D968E795
:10224000306880017FF564AFFFF728FC401B02284F
:102250004FF00300F4D95CE740F27C00C2F20000CA
:10226000006844F6D351C1F26201A0FB0101480AA3
:10227000019000BF00BF0198411E002801913FF46A
:102280002FAF00BF0198411E002801913FF428AFF5
:1022900000BF0198411E002801913FF421AF00BF0B
:1022A0000198411E00280191E4D119E70021016045
:1022B000FFF7F4FB054600BF306880077FF50DAFE0
:1022C000FFF7ECFB401B02284FF00300F4D920E796
:1022D000306A20F001003062306A20F00400306281
:1022E000FFF7DCFB054641F2883700BF306A800704
:1022F00020D5FFF7D3FB401BB8424FF00300F5D9C0
:1023000007E700BF306A40F004003062306A40F0F6
:1023100001003062FFF7C2FB054641F2883700BF7B
:10232000306A800706D4FFF7B9FB401BB842F7D9E3
:1023300037E000BFB8F1000F7FF4D5AEF06920F0B0
:102340008050F061CFE600BF306820F4803030600C
:10235000306820F480203060FFF7A0FB054600BF06
:10236000306880037FF59DAEFFF798FB401B642823
:102370004FF00300F4D9CCE6306840F480203060A0
:10238000306840F480303060FFF788FB054600BFBE
:10239000306880033FF585AEFFF780FB401B642863
:1023A000F6D9032002B0BDE8F08100BF206AB0F585
:1023B000803F05D17168A26821F40031114371603A
:1023C0007168626A21F4741111430843706001203E
:1023D0003866FFF763FB0446306880013FF598AE2E
:1023E000FFF75CFB001B02284FF00300F4D990E6D6
:1023F00046F60040C4F2000050F8210080B2704759
:1024000090B246F60042C4F2000242F82100704742
:10241000704700007047000010B50446006801686E
:10242000C9071CBF41685FEAC17101D110BD00BF7F
:10243000406840070AD42046FFF7EAFF0120607495
:102440002068416821F00101416010BD2046FFF77E
:10245000E1FF20686FF0040141600421617441686C
:1024600021F00101416010BD70B582B00646002028
:102470008DF80600ADF80400002E4FF001004DD09D
:102480000C4600294AD0154601A93046002200F02A
:102490004BF818B1012002B070BD00BF337B717BD7
:1024A000B07BF27B2370E2706170A070C5B3A2F1C3
:1024B0000A03DEB24FF0CD0C06FB0CF6F50A05EB75
:1024C0008505A3EB4503012505EBD626092A88BF20
:1024D00043EA0612E270A1F10A02D3B203FB0CF345
:1024E000DE0A06EB8606A2EB460205EBD32309299A
:1024F00088BF42EA03116170A0F10A01CAB202FB6F
:102500000CF2D30A03EB8303A1EB430105EBD222C8
:10251000092888BF41EA0210A070002002B070BDF7
:10252000002002B070BD00002DE9F04706460028EB
:102530004FF0010000F0A5800C46002900F0A180BA
:1025400030684168490700F1D98091468269C169C4
:10255000836948F6890583EA02073F041CBFC16905
:102560001A4689B241EA02414BF2C532C9F2A212BF
:10257000A1FB0223DA0A4FF4616302FB13139FB23B
:102580006F437D0D65702D01A5EB5757A3EB8703B6
:1025900045F28017C0F20107B942A37036D344F266
:1025A0000753CCF22E23A1FB03374AF6AB23CAF61E
:1025B000AA23A2FB03352B0903EB4303A2EBC302BF
:1025C0002270026A406A4FEA174880B240EA02402D
:1025D000451A98BF4FF0FF35421C4AF68062CFF68D
:1025E000FE7208FB021A08BF0546FFF757FA0746B6
:1025F00030684168890647D4FFF750FAC01BB0F530
:102600007A7FF5D90120BDE8F08700BF2270B9F1CB
:10261000000F00F09F802178CD26A1F10A03DFB2E0
:102620007743FD0A05EB85056278A3EB4503012599
:10263000A07805EBD727092988BF43EA0711217045
:10264000A2F10A01CBB27343DF0A07EB8707A1EBC4
:10265000470105EBD323092A88BF41EA0312A0F101
:102660000A016270CAB27243D30A03EB8303A1EB7F
:10267000430105EBD222092888BF41EA0210A0706D
:102680000020BDE8F08700BF416841F010014160C3
:102690004FEA1A4181611FFA8AF1C161416821F054
:1026A00010014160FFF7FAF9074600BF3068406843
:1026B000800609D4FFF7F2F9C01BB0F57A7FF5D98F
:1026C0000120BDE8F08700BF681C11D05544FFF71A
:1026D000E5F9074630684168890613D4FFF7DEF94B
:1026E000C01BB0F57A7F4FF00100F3D9C9E700BFF6
:1026F00030464FF0FF3101F05DFD18B30120BDE819
:10270000F08700BF416841F010014160290C01626F
:10271000A9B24162416821F010014160FFF7BEF9A2
:10272000074600BF3068406880060BD4FFF7B6F953
:10273000C01BB0F57A7F4FF0010088BFBDE8F0877D
:10274000F0E700BF3046414601F0B8FBB9F1000F99
:102750007FF461AF0020BDE8F087000070B500286D
:1027600066D00446407C20B900202074204600F04A
:102770006FF8022060742068416821F00801416010
:10278000FFF78CF9064600BF20684568FFF786F919
:10279000290705460ED4A81BB0F57A7FF4D9012588
:1027A00004206074284670BDFFF778F9401BB0F52F
:1027B0007A7FF4D8216848688006F5D5486846F6DF
:1027C0002C4240F0100048604868C4F2000220F03B
:1027D00007004860A06818B1536823F001035360F4
:1027E000136823F46073184310606068421C06D1BC
:1027F00001200125FFF71CFA30B321680138C0F32E
:10280000034280B28A60C860486820F010004860C7
:10281000FFF744F9054600BF20684068800609D4E8
:10282000FFF73CF9401BB0F57A7FF5D9B7E700BF59
:10283000012070BD40F201100025A4F80D00012018
:10284000E5736074284670BD04206074284670BD2E
:1028500010B582B00446006842F60001C4F20001DF
:10286000884201D002B010BDFFF7DCF941F21C0034
:10287000C4F202000168002241F0006101600068BA
:10288000012100F000600190019840F23C40C4F248
:102890004220016003200121FFF786F90320FFF7A2
:1028A0006FF9206801684FF0FF31016002B010BD80
:1028B000F0B581B0044600284FF0010018BF002990
:1028C00002D101B0F0BD00BF207C01284FF0020012
:1028D000F7D0012323746074CB78BAB1180900EBE8
:1028E000800003F00F0202EB400348788A78070962
:1028F00007EB870700F00F0000EB4707100900EB1C
:10290000800002F00F0202EB400001E04F7888786F
:10291000022FDAB2E3736773A0730FD817237B43D8
:1029200048F63967C3F6E307A3FB0737C7F3470C3D
:1029300002F2CF7340F2D47E0CE000BF47F2D9160A
:10294000FFB2C0F21406774302F5FA634FEAD74CA0
:1029500040F2D27EC0B210449D0841F27B477044E1
:102960006F431D0940F63E2600EB93007543A0EB34
:10297000574000EB1540604482B242F293435A4301
:10298000A0EB12439BB25B0803EB12429208A2EB4E
:10299000C20210442268207308709169D06993695B
:1029A000002683EA01073F041CBFD069194680B2A4
:1029B00040EA014045F69071C0F2010188421BD304
:1029C00044F20751CCF22E21A0FB0112110C40F26F
:1029D000A3225143A0EBC117FFF760F8054600BFE3
:1029E0002068416889060DD4FFF758F8401BB0F500
:1029F0007A7FF5D920E000BF0121002061742674A0
:102A000001B0F0BD416841F010014160390C8161B5
:102A1000B9B2C161416821F010014160FFF73EF891
:102A2000054600BF2068416889060BD4FFF736F8D9
:102A3000401BB0F57A7FF5D901200421617426741A
:102A400001B0F0BD016A406A80B240EA0140B8427C
:102A500030D200F5803000F5A347FFF71FF8054698
:102A600020684168890607D4FFF718F8401BB0F5C5
:102A70007A7FF5D9E0E700BF416841F0100141607D
:102A8000390C0162B9B24162416821F01001416024
:102A9000FFF704F805462068406880060AD4FEF770
:102AA000FDFF411B0120B1F57A7F4FF00401F2D9FF
:102AB000A4E700BF002001216174267401B0F0BDBD
:102AC00070B538B10446406A30B10020206104F18D
:102AD000140007E0012070BD6068B0F5827F03D06C
:102AE00004F11C00002101600026A66294F8510048
:102AF00020B9204684F8506000F038F8022084F8AD
:102B0000510094E8071001F48271036802F4044252
:102B100023F040030360236911440CF40062114464
:102B200003F002026369114403F00102A369E5693D
:102B3000114403F40072114405F03802256A11446F
:102B400005F08002A56A114305F4005211430160AB
:102B5000042101EA13414160C16921F40061C161AE
:102B60000120666584F85100304670BD70B586B0AE
:102B700040F60044C4F201040068A4F55441002664
:102B80008842049602D006B070BD00BF41F2180022
:102B9000C4F20200416802AD41F4804141604168E5
:102BA00001F4804101910199016841F0080101603F
:102BB0000068294600F00800019001984FF4204079
:102BC000029002200390032005902046FEF752FE5B
:102BD0004FF48040CDE90206204629460496FEF7D0
:102BE00049FE06B070BD00002DE9F04381B00446F7
:102BF00090F85000012803D1022001B0BDE8F08315
:102C000001201E4615460F4684F85000FEF746FF89
:102C100094F851108146012912D06068B0F5827F86
:102C200040F0A480A06800284FF0020008BF0429EB
:102C300006D0002184F8501001B0BDE8F08300BF39
:102C4000002F4FF0010018BF002DF2D0002EF0D061
:102C500094F85100002104281CBF052084F851007D
:102C60006165A563E687A6872763E6862068A68652
:102C7000216461640168490603D4016841F04001A0
:102C800001606168731EE268B1FA81F1B3FA83F3FF
:102C9000DDF8208049095B09B2F5006F41EA0301C4
:102CA0006CD131B137F8021BC1602763E08E013867
:102CB000E086012518F1010031D101E0FEF7EEFEBA
:102CC000E08E18B9E08F002800F0C080206881688D
:102CD00089070CD5E18E51B1012D08D1216B00255A
:102CE00031F8022BC2602163E18E0139E1868168EF
:102CF000C907E3D0E18F0029E0D0C068A16B0125AE
:102D000021F8020BA163E08F0138E087D6E700BF0E
:102D1000FEF7C4FEA0EB0900404580F0AB80E08EDA
:102D200018B9E08F002800F0918020688168890739
:102D30000CD5E18E51B1012D08D1216B002531F860
:102D4000022BC2602163E18E0139E1868168C907E7
:102D5000DED0E18F0029DBD0C068A16B012521F80E
:102D6000020BA163E08F0138E087D1E70220002148
:102D700084F8501001B0BDE8F08300BF39B1397854
:102D80000173206B01302063E08E0138E08601255D
:102D900018F1010032D101E0FEF780FEE08E10B99B
:102DA000E08F002852D02068816889070ED5E18E17
:102DB00061B1012D0AD1216B002509780173216BC6
:102DC000206801312163E18E0139E1868168C907FC
:102DD000E2D0E18F0029DFD0C068A16B0125087027
:102DE000A06B0130A063E08F0138E087D4E700BF1B
:102DF000FEF754FEA0EB090040453BD2E08E08B937
:102E0000E08F18B32068816889070ED5E18E61B123
:102E1000012D0AD1216B002509780173216B2068EF
:102E200001312163E18E0139E1868168C907DFD074
:102E3000E18F0029DCD0C068A16B01250870A06B70
:102E40000130A063E08F0138E087D1E72046802180
:102E500042464B4601F0B2FCB0B1606D40F020003C
:102E60006065202060650120002184F8501001B0C9
:102E7000BDE8F083012084F851000320002184F88C
:102E8000501001B0BDE8F083A06838B90020009070
:102E90002068C1680091806800900098606D0028EB
:102EA0004FF0010004BF84F851000020002184F895
:102EB000501001B0BDE8F083411E0020B0EB116F4F
:102EC0001CBF012070474EF21002CEF2000251608A
:102ED0004EF62351CEF20001F0230B7007219060D3
:102EE000116070477047000070470000B0B582B0B5
:102EF000044600680168C368426901F02F05202D6F
:102F000003F0200506D12DB1204602B0BDE8B04047
:102F100001F0FCBC5FEA017C1EBF02F0010E03F46D
:102F2000907212EB0E0253D1226B012A05D111F0DF
:102F3000100218BF13F0100236D10A0622D513F082
:102F400080021FD094F8411021293FD1A168B1F52A
:102F5000805F03D12169002900F07082216A4A1C38
:102F6000226209784160E18C01390A04E1842DD1A3
:102F7000C16821F08001C160C16841F04001C160B9
:102F800002B0B0BD490621D513F040011ED0C16882
:102F900021F04001C1602021204684F8411002B098
:102FA000BDE8B04000F0A8BC00210191016801918A
:102FB0004168019101994069400613D4A08DE18DCB
:102FC000E28D002A18BF884240F0BA8102B0B0BD3D
:102FD000CA0718BF13F4807240F0B6804A0700F1A8
:102FE000B980BEE0E06B016849688AB2002AEDD082
:102FF000A38D9A42EAD2E1858069202800F09C8066
:10300000206850E8030F216820F4807041E8030233
:10301000DAB1206850E8030F216820F4807041E89D
:10302000030292B1206850E8030F216820F48070F9
:1030300041E803024AB1206850E8030F216820F4F8
:10304000807041E80302002ADAD1206850E8050FB9
:10305000216820F0010041E80502DAB1206850E85B
:10306000050F216820F0010041E8050292B12068B7
:1030700050E8050F216820F0010041E805024AB13F
:10308000206850E8050F216820F0010041E80502A2
:10309000002ADAD1206850E8050F216820F04000AE
:1030A00041E80502DAB1206850E8050F216820F0F8
:1030B000400041E8050292B1206850E8050F216800
:1030C00020F0400041E805024AB1206850E8050FB1
:1030D000216820F0400041E80502002ADAD12020D2
:1030E00084F8420000202063206850E8030F216824
:1030F00020F0100041E80302DAB1206850E8030F25
:10310000216820F0100041E8030292B1206850E8E5
:10311000030F216820F0100041E803024AB1206843
:1031200050E8030F216820F0100041E80302002A54
:10313000DAD1E06BFEF70CFB02206063A08DE18D1D
:10314000401A81B2204674E1626C42F0010262646E
:103150004A0706D5BEF1000F03D0626C42F00202AE
:1031600062648A0706D5BEF1000F03D0626C42F09C
:1031700004026264BCF1000F09D545EA0E02B2FAFE
:1031800082F2520903D1626C42F008026264626CFE
:10319000002A3FF41BAF11F0200118BF002D03D00F
:1031A000204601F0B3FB20684069616C00F04000EC
:1031B00001F00801401800F0B58000BF206850E819
:1031C000030F216820F4907041E80302BAB320682D
:1031D00050E8030F216820F4907041E8030272B3B5
:1031E000206850E8030F216820F4907041E8030242
:1031F0002AB3206850E8030F216820F4907041E85A
:103200000302002ADAD11AE0206850E8050F21688D
:1032100020F0010041E80502DAB1206850E8050F0E
:10322000216820F0010041E8050292B1206850E8D1
:10323000050F216820F0010041E805024AB120682D
:1032400050E8050F216820F0010041E80502002A3E
:10325000DAD1206B012824D1206850E8030F2168BF
:1032600020F0100041E80302DAB1206850E8030FB3
:10327000216820F0100041E8030292B1206850E874
:10328000030F216820F0100041E803024AB12068D2
:1032900050E8030F216820F0100041E80302002AE3
:1032A000DAD1202084F842000020206320684069A1
:1032B00040063FD5206850E8050F216820F0400007
:1032C00041E80502DAB1206850E8050F216820F0D6
:1032D000400041E8050292B1206850E8050F2168DE
:1032E00020F0400041E805024AB1206850E8050F8F
:1032F000216820F0400041E80502002ADAD1E06BA5
:10330000C0B144F60111C0F600014163FEF744FA72
:1033100000283FF45BAEE06B416B02B0BDE8B0400B
:10332000084700BF2046FFF7DFFD0020606402B0C1
:10333000B0BD00BF204602B0BDE8B040FFF7D4BD2D
:10334000401A216851E8031F226821F4907142E875
:103350000313DBB1216851E8031F226821F4907147
:1033600042E8031393B1216851E8031F226821F456
:10337000907142E803134BB1216851E8031F2268A2
:1033800021F4907142E80313002BDAD1216851E84F
:10339000051F226821F0010142E80513DBB1216815
:1033A00051E8051F226821F0010142E8051393B19D
:1033B000216851E8051F226821F0010142E8051348
:1033C0004BB1216851E8051F226821F0010142E854
:1033D0000513002BDAD1202184F84210002121634B
:1033E000216851E8031F226821F0100142E803130D
:1033F000DBB1216851E8031F226821F0100142E887
:10340000031393B1216851E8031F226821F01001D2
:1034100042E803134BB1216851E8031F226821F0F1
:10342000100142E80313002BDAD1022281B22046B8
:10343000626302B0BDE8B040FFF754BD216A31F8C5
:10344000022B6FF35F22426021628CE5002804BFEB
:103450000120704710B5044690F8410028B90020BB
:1034600084F84000204600F063F8242084F84100EE
:103470002068D4E90212C36823F40053C3600369CF
:1034800023F440531A430261D4E904231143C26870
:10349000194341F20C639A431143C1604169A26927
:1034A00021F44071114343F60002C4F2010290423C
:1034B000416103D0FEF79AFD02E000BFFEF7AAFDCE
:1034C0006268192148439100B0FBF1F048F21F51A6
:1034D000C5F2EB11A0FB01235A094FF69C73C0F60D
:1034E000FF7302FB0300322303EB0010A0FB01017A
:1034F000F02303EA5113206803EB0212C1F34311D6
:1035000011448160016921F490410161416921F018
:103510002A014161C16841F40051C16000202021AD
:10352000606484F8411084F84210606310BD0000AC
:1035300070B586B040F60004C4F20104006804F5DA
:10354000405100268842049602D006B070BD00BFEC
:1035500041F21800C4F20200016802AD41F480415A
:103560000160016801F4804101910199016841F015
:10357000040101600068294600F0040001900198F0
:103580004FF4007002900220039003200590204623
:10359000FEF770F94FF48060CDE902062046294617
:1035A0000496FEF767F9252002210022FEF7FCFAB7
:1035B0002520FEF7E5FA06B070BD000090F8423015
:1035C000202B1CBF0220704700294FF0010318BFB9
:1035D000002A01D11846704700230363816222212B
:1035E0008285C285436480F842100169006819B180
:1035F000C16841F48071C1604169002341F001015B
:103600004161C16841F02001C16018467047000067
:10361000B0B5016843F60002C4F20102914218BF3E
:10362000B0BD40F22015C2F20005D5E9012348F2F1
:103630001F5CD31AC833C5F2EB1C83FB0C14A11119
:1036400001EBD4714FF0C80E01FB1E31C6290EDC10
:10365000511C81FB0C34A31103EBD4732C7803FBB6
:103660001E1140F2E513C2F200039C54696040F25F
:103670002011C2F200010122BDE8B040FFF79EBF59
:103680002DE9F04381B0044690F84100202840F035
:10369000B180884600294FF0010000F0D680164620
:1036A000002A00F0D2800020606421201D4684F8AA
:1036B0004100FEF7F3F9A684E684A1680646B1F559
:1036C000805F03D12069002800F0988047464FF0C2
:1036D0000008E18C2068002900F0968005F10109BE
:1036E0000BE000BF47B317F8011B4160E18C0139C3
:1036F000E184E18C002900F0878001680906F1D49B
:10370000B9F1000F0AD0EDB1FEF7C8F9801BA8424D
:1037100018D8206801680906F6D5E3E701680906AC
:10372000E0D4016809065CBF01685FEA0161D9D491
:1037300001680906F2D5D5E738F8021B00276FF3B8
:103740005F21D2E7206850E8030F216820F4D07091
:1037500041E80302BAB3206850E8030F216820F45F
:10376000D07041E8030272B3206850E8030F21686B
:1037700020F4D07041E803022AB3206850E8030F18
:10378000216820F4D07041E80302002ADAD11AE05F
:10379000206850E8050F216820F0010041E805028B
:1037A000DAB1206850E8050F216820F0010041E8F7
:1037B000050292B1206850E8050F216820F0010051
:1037C00041E805024AB1206850E8050F216820F061
:1037D000010041E80502002ADAD1202084F84100E6
:1037E00084F84200002084F84000032001B0BDE8C6
:1037F000F08300BF022001B0BDE8F0830027E18C18
:10380000206800297FF46AAF0168490619D4FDB128
:10381000691C0DD10168490613D4016849065CBFD3
:1038200001685FEA41610CD401684906F2D508E0FD
:10383000FEF734F9801BA8420AD8206800684006C9
:10384000F6D5202084F84100002001B0BDE8F083C7
:10385000206850E8030F216820F4D07041E803028B
:10386000002A3ED0206850E8030F216820F4D07071
:1038700041E80302AAB3206850E8030F216820F44E
:10388000D07041E8030262B3206850E8030F21685A
:1038900020F4D07041E80302002AD9D121E000BF12
:1038A000206850E8050F216820F0010041E805027A
:1038B000002A3FF492AF206850E8050F216820F0FD
:1038C000010041E80502002A3FF487AF206850E874
:1038D000050F216820F0010041E80502002A3FF4AD
:1038E0007CAF206850E8050F216820F0010041E816
:1038F0000502002AD4D170E770470000FEE70000FF
:1039000070B584B000F0E4FDD8B1014600268AA469
:1039100092A500BF302E00F20B8120460136FCF745
:10392000C7FC4FF4FA70FDF791FF2846FCF766FEDE
:103930004FF4FA70FDF78AFF00F0CAFD0146002837
:10394000E8D146F29170C0F60000FCF757FE46F24F
:10395000EE70C0F60000FCF751FE6D46284600F000
:1039600085FC46F63100C0F60000FCF7A1FC46F6E7
:103970002C049DF80010C0F600042046FCF798FCCB
:103980009DF801102046FCF793FC9DF8021020469C
:10399000FCF78EFC9DF803102046FCF789FC9DF88F
:1039A00004102046FCF784FC9DF805102046FCF727
:1039B0007FFC9DF806102046FCF77AFC9DF8071066
:1039C0002046FCF775FC9DF808102046FCF770FCBB
:1039D0009DF809102046FCF76BFC9DF80A10204664
:1039E000FCF766FC9DF80B102046FCF761FC9DF887
:1039F0000C102046FCF75CFC9DF80D102046FCF7EF
:103A000057FC9DF80E102046FCF752FC9DF80F1055
:103A10002046FCF74DFC46F62A06C0F60006304666
:103A2000FCF7ECFD284600F099FC46F63C00C0F699
:103A30000000FCF73DFC9DF800102046FCF738FC28
:103A40009DF801102046FCF733FC9DF8021020463B
:103A5000FCF72EFC9DF803102046FCF729FC9DF88E
:103A600004102046FCF724FC9DF805102046FCF7C6
:103A70001FFC9DF806102046FCF71AFC9DF8071065
:103A80002046FCF715FC9DF808102046FCF710FCBA
:103A90009DF809102046FCF70BFC9DF80A10204603
:103AA000FCF706FC9DF80B102046FCF701FC9DF886
:103AB0000C102046FCF7FCFB9DF80D102046FCF78F
:103AC000F7FB9DF80E102046FCF7F2FB9DF80F1057
:103AD0002046FCF7EDFB3046FCF790FD00F0B6FC0D
:103AE000014622A0FCF7E4FB00F0B0FC02F0AAFCC7
:103AF0004FF0884102F0BAFC4FF06A5102F0B6FC78
:103B00004FF06A5102F0B2FC4FF06A5102F0AEFC85
:103B100002F06CFC024646F27670C0F600000B46DE
:103B2000FCF7C6FB17A0FCF769FD002004B070BDD0
:103B30004FF0FF3004B070BD534420696E69746962
:103B4000616C697A65206572726F7220636F64655B
:103B50003A2030782532580D0A000000506C65611B
:103B6000736520436865636B210D00005344204357
:103B700061726420536563746F72733A2025640D1B
:103B80000A0000003D3D3D3D3D3D3D3D3D3D3D3D4F
:103B90003D3D3D3D3D3D3D3D20534420696E666FBA
:103BA000726D6174696F6E20656E64203D3D3D3DB0
:103BB0003D3D3D3D3D3D3D3D3D3D3D3D3D3D3D3D35
:103BC0000D00000010B540F27414C2F2000440F27F
:103BD0008000611CC2F20000FDF77EFD207010BD68
:103BE000F0B585B041F21800C4F20200016840F659
:103BF000004441F0100101600168C4F2010401F0C9
:103C00001001019101990168012241F02001016038
:103C10000168022501F02001019101990168012646
:103C200041F008010160016801F00801019101996A
:103C3000016841F0040101600068022100F0040005
:103C4000019001982046FDF723FF20464FF4805154
:103C500000220027FDF71CFF41F2020001A9C1C1AB
:103C600001A920460495FDF705FE05B0F0BD000052
:103C70002DE9F04387B040F2004042F60001C2F265
:103C80000000C4F200014FF0FF324FF4807380E86F
:103C90000E00FEF763FD002818BFFDF717FD40F288
:103CA0000040C2F2000006A90022FEF73DFC0028F9
:103CB00018BFFDF70BFD40F20044C2F2000420469D
:103CC0000421FEF795FB804620460321FEF790FB7A
:103CD000064620460221FEF78BFB81462046012145
:103CE000FEF786FB054634A0FCF788FC5FFA88F0F7
:103CF00000F5FA61E8B236A3F2B253F820009DF85D
:103D000018609DF819509DF81A705FFA89F3CDE993
:103D1000000636A002950397FCF7CAFA2046042154
:103D2000FEF766FB8DF8170020460321FEF760FBC7
:103D30008DF8150020460221FEF75AFB8DF816007B
:103D400020460121FEF754FB8DF8140005A92046FA
:103D50000022FEF7ADFD002818BFFDF7B7FC01F00B
:103D600055FE40F20040C2F2000005A90022FEF715
:103D70007BFB002818BFFDF7A9FC40F200449DF82A
:103D80001720C2F2000420460421FEF739FB9DF8FB
:103D9000152020460321FEF733FB9DF81620204610
:103DA0000221FEF72DFB9DF8142020460121FEF78D
:103DB00027FB07B0BDE8F0834C61737420706F7708
:103DC0006572206F7574616765206F6E3A200D0013
:103DD0004B67000844670008656700085B670008D8
:103DE0006D6700083D6700085267000809253034F8
:103DF000642D253032642D25303264202573202532
:103E00003032643A253032643A253032640D0A008B
:103E1000B0B540F2144043F60001C2F20000C4F213
:103E200000014FF48272002380E80E0000F10C01C3
:103E30004FF0020C4FF0010E4FF40074382581E86A
:103E400008500A21C0E90645C0E90833C0E90A3133
:103E5000FEF736FE002808BFB0BDBDE8B040FDF754
:103E600035BC000010B540F22014C2F2000443F645
:103E70000001C4F20101204640F80C1F4FF4E1316B
:103E800000220C23C0E90112C0E90322C0E9053277
:103E9000C261FFF7DBFA002818BFFDF717FC04F139
:103EA0000C0021460122BDE81040FFF787BB00004F
:103EB000FEE70000FEE70000704700002DE9F04338
:103EC000427B837B90F80FC0002900F0D38001294A
:103ED00001F0010E18D1BEF1000F00F0CB800C2ACA
:103EE00000F2C8800121914041F2AA57394200F006
:103EF000B7801F2BC0F0B9800C2A40F0B9800CF1BC
:103F0000010C0122B5E000BF45F6294945F62847D6
:103F10004DF20B7821F00101012441F2AA55CCF2B7
:103F20008F29C0F28F27C0F2A30802E001330239C3
:103F3000D1D00C2A16D804FA02F62E4208D01E2B35
:103F40000BD90C2A0CD10CF1010C012209E000BFA5
:103F500016F4256F1ED01D2B02D8013302E000BFDE
:103F6000013201230C2AE2D804FA02F62E4209D0CB
:103F70001F2BDBD30C2A0AD10CF1010C01220123E7
:103F8000D5E700BF16F4256F0CD01E2BCED301321F
:103F90000123CCE7022AE5D11B2B0BD801330222E7
:103FA000E0E700BF022AC2D11C2B0DD2013302224E
:103FB000BDE700BF1D2B0DD01C2B0FD15FEA8C720B
:103FC00016D000222FE000BF0AD01D2B0ED10123F6
:103FD0000322ACE701230322C4E700BF0222C1E7AA
:103FE0005FEA8C720ED000222FE000BF02229EE713
:103FF0001FFA8CF202FB09F24FEAB203BB420BD963
:10400000012210E01FFA8CF202FB09F24FEAB20320
:10401000BB4213D9012218E04FEA321242454FF059
:10402000000238BF0122002A4FF002024FF01D03A8
:1040300008BF032208BF012394E700BF4FEA3212F2
:1040400042454FF0000238BF0122002A4FF0020221
:104050004FF01D0308BF032208BF012367E700BF1D
:1040600011F4256F48D01E2B02D2013302E000BFAD
:1040700001320123D1B2022980F80FC04273837349
:104080000ED81722514348F63962C3F6E302A1FB6A
:104090000212C2F347010CF2CF7240F2D47709E06A
:1040A00047F2D917C0F2140779430CF5FA62C90C2C
:1040B00040F2D277DBB248F21F566344C5F2EB16EA
:1040C0003B44A2FB066503EB9202A2EB551202EB06
:1040D000D512114444F62512C2F29242A1FB0223EA
:1040E000CA1A03EB52029308DB00A3EB9202891A6F
:1040F0000173BDE8F08300BF022ABBD11C2B03D2A1
:1041000001330222B6E700BF04D01D2B08D10123E2
:104110000322AFE75FEA8C7104D001211CE000BFED
:104120000222A7E745F629421FFA8CF1CCF28F2232
:104130004A4345F628434FEAB201C0F28F23994221
:104140004FF0000108D84DF20A734FEA3212C0F264
:10415000A3039A4288BF012102221D23002918BF10
:10416000032218BF012385E780B582B040F20040EA
:10417000C2F2000000684168C90712D041680022FD
:1041800021F00101416040F20040C2F2000001A9AB
:10419000FEF7CAF9002818BFFDF798FA01A801F048
:1041A000F3FC40F20040C2F20000FEF735F902B025
:1041B00080BD000070B50D460446FDF76FFC064655
:1041C00020684168890607D4FDF768FC801BB0F5BC
:1041D0007A7FF5D9012070BD416841F0100141603E
:1041E000290C0162A9B24162416821F010014160CD
:1041F000FDF754FC054600BF20684068800607D4E0
:10420000FDF74CFC401BB0F57A7FF5D9012070BD5D
:10421000002070BD10B540F2201EC2F2000EDEE993
:10422000012048F21F5C121AC832C5F2EB1C82FB57
:104230000C318B1103EBD171C82401FB142101292E
:1042400010DB411C81FB0C239A1102EBD37240F26C
:10425000E513C2F2000302FB1411185CCEF808103B
:1042600010BD00BF4FF0FF3010BD000070B5044618
:104270000A200021012200F01BFA054600285CD12B
:104280004FF6FF754FF6FF71FF200E4600F068FAFB
:10429000B1B229448AB2521A18BF0122FE2818BFAF
:1042A000002AF1D1300447D0FF2000F059FA2070E5
:1042B000FF2000F055FA6070FF2000F051FAA07066
:1042C000FF2000F04DFAE070FF2000F049FA207165
:1042D000FF2000F045FA6071FF2000F041FAA07164
:1042E000FF2000F03DFAE071FF2000F039FA207263
:1042F000FF2000F035FA6072FF2000F031FAA07262
:10430000FF2000F02DFAE072FF2000F029FA207360
:10431000FF2000F025FA6073FF2000F021FAA0735F
:10432000FF2000F01DFAE073FF2000F019FAFF20D3
:1043300000F016FA002500E0012540F60040C4F226
:1043400001004FF480510122FDF7A2FBFF2000F095
:1043500007FA002D18BF0125284670BD70B5044628
:1043600009200021012200F0A3F9054600285CD1B4
:104370004FF6FF754FF6FF71FF200E4600F0F0F983
:10438000B1B229448AB2521A18BF0122FE2818BFBE
:10439000002AF1D1300447D0FF2000F0E1F920706D
:1043A000FF2000F0DDF96070FF2000F0D9F9A07067
:1043B000FF2000F0D5F9E070FF2000F0D1F9207166
:1043C000FF2000F0CDF96071FF2000F0C9F9A07165
:1043D000FF2000F0C5F9E071FF2000F0C1F9207264
:1043E000FF2000F0BDF96072FF2000F0B9F9A07263
:1043F000FF2000F0B5F9E072FF2000F0B1F9207362
:10440000FF2000F0ADF96073FF2000F0A9F9A07360
:10441000FF2000F0A5F9E073FF2000F0A1F9FF20D4
:1044200000F09EF9002500E0012540F60040C4F2AE
:1044300001004FF480510122FDF72AFBFF2000F01C
:104440008FF9002D18BF0125284670BD80B584B0B6
:104450006846FFF783FF18B1002004B080BD00BF9D
:104460009DF8000000F0C00040280FD19DF8080022
:104470009DF80910800440EA81204FF6004100F5C4
:104480008060C0F2FF31084004B080BD9DF8050097
:104490009DF80A3000F00F0000EBD3109DF80930B2
:1044A0009DF808109DF806C09DF8072003F003034F
:1044B000890900EB43000CF0030341EA820141EA61
:1044C00083210131073801FA00F004B080BD0000FB
:1044D0002DE9F04381B040F60049C4F20109484695
:1044E0004FF480510122FDF7D3FA382000F050F943
:1044F000FF2000F035F9FF2000F032F9FF2000F036
:104500002FF9FF2000F02CF9FF2000F029F9FF20FF
:1045100000F026F9FF2000F023F9FF2000F020F939
:10452000FF2000F01DF9FF2000F01AF9142400BF4D
:1045300000200021952200F0BBF80546012803D099
:104540002004A4F10104F3D140F2E416C2F2000603
:104550000027012D377072D108204FF4D5718722C2
:1045600000F0A6F8012829D1FF2000F0F9F8FF207B
:1045700000F0F6F8FF2000F0F3F80546FF2000F009
:10458000EFF8012D4FF0010508BFAA2857D14FF6CB
:10459000FE7400BF37200021012200F089F8292095
:1045A0004FF08041012200F083F8002860D00546DA
:1045B0002004A4F10104EDD15EE000BF372000210A
:1045C00001224FF6FE74012500F072F82920002127
:1045D000012200F06DF8012814D80220307000BFCD
:1045E00037200021012200F063F829200021012258
:1045F00000F05EF8A0B105462004A4F10104EFD15B
:1046000014E000BF357000BF01200021012200F03E
:104610004FF828B105462004A4F10104F4D105E0C7
:1046200020044FF000054FF0000007D010204FF499
:104630000071012200F03CF808B1002030704846BB
:104640004FF480510122FDF723FAFF2000F088F893
:10465000002000F09DF83078002D08BF6FF0550560
:10466000002818BF3D46E8B201B0BDE8F08300BFA6
:1046700020044FF00005E2D03A200021012200F092
:1046800017F80028DBD1FF2000F06AF88046FF20F1
:1046900000F066F8FF2000F063F8FF2000F060F8FB
:1046A0005FEA48604FF0060058BF0420C6E70000EC
:1046B0002DE9F04140F60047C4F2010790460E464E
:1046C000044638464FF480510122FDF7E1F9FF20FE
:1046D00000F046F838464FF480510022FDF7D8F933
:1046E0006FF07F45FF2000F03BF8FF280ED0013D22
:1046F000F8D138464FF480510122FDF7C9F9FF2067
:10470000FF2500F02DF8E8B2BDE8F08144F040004C
:1047100000F026F8300E00F023F8C6F3074000F052
:104720001FF8C6F3072000F01BF8F0B200F018F8ED
:10473000404600F015F80C2C02D1FF2000F010F8D4
:104740001F2400BFFF2000F00BF845B2B5F1FF3F7A
:1047500003DC2006A4F10104F4D1E8B2BDE8F08145
:1047600080B582B08DF8070040F214404FF47A7C97
:10477000C2F200000DF107010DF106020123CDF890
:1047800000C0FEF731FA9DF8060002B080BD0000BF
:1047900040F21441C2F2000109684FF6C7730A687B
:1047A00022F040020A600A681A400A600A68104350
:1047B0000860086840F04000086070472DE9F0414B
:1047C00082B01E4690460D460446FDF767F9301A42
:1047D00000EB0807FDF762F940F27C01C2F200012C
:1047E0000968C1F3CB317943019121688A682A4075
:1047F000AA4227D1064618F101001FD0FDF74EF955
:10480000801BB84222D2019801990028A1F1010130
:1048100001912168896808BF074601EA0500A8429E
:10482000ECD00FE088682840A8420BD18868284067
:10483000A84207D188682840A84203D18868284048
:10484000A842EFD0002002B0BDE8F081D4E9000119
:104850004268B1F5827F22F0E00242600AD1A1688D
:10486000B1F5004F02D0B1F5806F03D1016821F09E
:1048700040010160A16AB1F5005F07D1016821F430
:1048800000510160016841F400510160012084F889
:104890005100002084F85000032002B0BDE8F081F0
:1048A0007047000082B080B581B0CDE903234FF09E
:1048B0000102D0B1032918D1DDF80CE003AADDF81C
:1048C00014C002F10C0352F8041FBEF1000F4FF0A8
:1048D0000102009318BF002907D0BCF1000F1EBFD2
:1048E0000022C0E900E1C0E902C2104601B0BDE803
:1048F000804002B070470000FDF7D6B87047000056
:10490000406A0021C185C184FEF7EEBA81B090F8FB
:104910004210222921D183680246B3F5805F09D174
:1049200052F8281F52F8183C002B63D003685B68CC
:104930000AE000BF52F8281F13B90369002BF5D015
:1049400003685B6803F07F030B701168013111602D
:10495000C18D01390A04C18502D001B0704700BF82
:104960000168CA6822F02002CA60CA6822F4807214
:10497000CA604A6922F001024A61202180F842108F
:1049800000214163026B012A3CD10163016851E8B7
:10499000031F026821F0100142E80313DBB1016834
:1049A00051E8031F026821F0100142E8031393B19C
:1049B000016851E8031F026821F0100142E8031367
:1049C0004BB1016851E8031F026821F0100142E871
:1049D0000313002BDAD101680A68D20606D500223B
:1049E00000920A680092496800910099818D01B097
:1049F000FEF778BA026852686FF35F2221F8022B43
:104A00008162A5E701B0FEF703BE000040F22C1062
:104A1000C2F20000FEF76ABA40F27800C2F200006B
:104A20000121017000787047012070470020704715
:104A300040F27800C2F20000012101700078704756
:104A400000207047FEE700004EF60C50BFF34F8F7A
:104A5000CEF200000168042201F4E061C0F2FA52D3
:104A600011430160BFF34F8F00BF00BF00BF00BF05
:104A7000FAE7000082B02DE9F04792B00DF1040989
:104A80008A4605460DF1680848464021CDE91A23BB
:104A9000CDF84480FBF717FE119B48464021524653
:104AA000FBF7E8FB04463F281CD9671C384600F09A
:104AB00067FCE8B100213A46064600F06DFC30463E
:104AC000394652464346CDF84480FBF7D3FBAA6AE9
:104AD0002846314690474E450BD0304600F04CFCFE
:104AE00007E000BFAA6A01A92846904701E000BF7D
:104AF0000024204612B0BDE8F04702B07047000025
:104B000080B540F27C10C2F20000426C46F2207187
:104B10001030C0F600019047002080BD70B588B00D
:104B200040F20044C2F2000407A920460022FDF72B
:104B30009BFC06A920460022FDF7F6FC9DF81C1000
:104B400040F27C100FA4C2F200009DF81EE09DF818
:104B50001F2054F82110D0F834C09DF81D309DF866
:104B600018409DF819509DF81A60103002F5FA624D
:104B7000CDE900E10AA1CDE902450496E047002015
:104B800008B070BD4B6700084467000865670008FF
:104B90005B6700086D6700083D6700085267000802
:104BA000253034642D253032642D253032642025A3
:104BB0007320253032643A253032643A253032642D
:104BC0000D0A0000F0B581B00546406801282DD1DE
:104BD000A868FBF72FFD441C0746204600F0D0FBD9
:104BE00090B3002122460646002400F0D5FBA968B8
:104BF00030463A4600F0CAFB40F20435C2F20005E6
:104C0000EA692846314690470746304600F0B4FB33
:104C1000F7B1042F22D12A6B46F20A71C0F60001C7
:104C20002846904704241BA11AE000BF40F204303C
:104C3000C2F20000026B46F20A71C0F60001904712
:104C400001240CA10CE000BF01240EA108E000BF6C
:104C500046F22071C0F6000102E000BF12A13C46FE
:104C600040F27C10C2F20000426C103090472046A7
:104C700001B0F0BD6572726F722062792061726757
:104C8000630000006572726F72206279206D616C42
:104C90006C6F63006572726F72206279206E6F7440
:104CA00020666F756E6400006572726F72206279A3
:104CB000206172677600000080B540F60040C4F2C3
:104CC000010002210122FCF7E3FE002080BD00006C
:104CD00080B540F60040C4F2010002210022FCF73A
:104CE000D7FE002080BD000080B540F27C10C2F2EB
:104CF0000000026C103002A19047002080BD00BF70
:104D00006174000080B5FCF78BFF002080BD0000BF
:104D1000002804BF4FF0FF307047FCF703BD0000D0
:104D2000B0B5A8B108460D46FBF784FC044682B234
:104D300040F22C10C2F2000029464FF6FF73FEF736
:104D40009FFC002818BF6FF001042046B0BD00BFD3
:104D50004FF0FF30B0BD0000002804BF4FF0FF301F
:104D60007047FFF757BA00002DE9F0470368824605
:104D700089469847DAF8380046F275710068C0F63F
:104D80000001012200F000FB28B346F275780024F0
:104D9000C0F60008DAF8380007593846FBF74AFC35
:104DA000D9F8006005463046FBF744FC854298BFC1
:104DB0000546384631462A4600F0E6FA70B1DAF880
:104DC000380041462044C068012200F0DDFA002886
:104DD00004F10C04DED10020BDE8F087DAF83800D9
:104DE0002044BDE8F08700002DE9F04F81B09046E7
:104DF0000029814600F0968008680D4618B100F041
:104E0000BBFA002028606968012913DB05F108045A
:104E10000027002603E000BF01368E420ADA54F86C
:104E200026000028F8D000F0A7FA696844F8267038
:104E3000F2E700BF481C022807D805EB81000822D2
:104E40000C30A2EB8101FBF73EFC46F64701002443
:104E5000C0F6000140466C60FBF7E6FB2968064699
:104E600019B1084600F088FA2C603046FBF7E2FBE7
:104E7000441C0746204600F083FA286040B1002118
:104E8000224600F089FA286831463A4600F07EFA58
:104E9000D9F8081048468847002861D0002D4DD029
:104EA00046F647084FF0000AC0F60008002606E064
:104EB000D9F80810484601368847864250D200206B
:104EC0004146FBF7B1FB00284AD007466868022834
:104ED000EED805EB8000806830B100F04DFA6868CC
:104EE00005EB8000C0F808A03846FBF7A3FB441C84
:104EF0008346204600F044FA6968002805EB8101EA
:104F00008860D5D00021224600F046FA686839460C
:104F100005EB800080685A4600F038FA6868013076
:104F20006860C5E746F64701C0F600014046FBF75A
:104F30007BFBD9F808104846884788B146F64705F4
:104F40000024C0F6000500BF00202946FBF76CFBDB
:104F500030B1D9F808104846013488478442F3D369
:104F6000002001B0BDE8F08F10B5044640F25C307F
:104F7000C2F200000021322200F00EFA601E052865
:104F800014D8DFE800F00323313F4D5B40F25C3082
:104F900046F64B01C2F20000C0F60001102200F0FC
:104FA000F5F940F25C30C2F2000010BD40F25C3016
:104FB00046F65B01C2F20000C0F600010C2200F0D0
:104FC000E5F940F25C30C2F2000010BD40F25C3006
:104FD000C2F200003EA1162200F0D8F940F25C3087
:104FE000C2F2000010BD00BF40F25C30C2F200000F
:104FF00031A1172200F0CAF940F25C30C2F2000081
:1050000010BD00BF40F25C30C2F2000022A120229D
:1050100000F0BCF940F25C30C2F2000010BD00BFED
:1050200040F25C30C2F2000012A1242200F0AEF97E
:1050300040F25C30C2F2000010BD00BF40F25C30B4
:10504000C2F2000004A11C2200F0A0F940F25C3082
:10505000C2F2000010BD00BF415420746869732083
:10506000737472696E672063616E277420626520B5
:105070006375740041542074686973207374726995
:105080006E6720636F6D6D616E64206E6F74206853
:1050900061766520616374004154206E6F742066F0
:1050A000696E64207468697320737472696E672016
:1050B000636F6D6D616E64004154206F757470751F
:1050C0007420646576696365206572726F72000092
:1050D000415420696E70757420646576696365203B
:1050E0006572726F72000000002814BF406C4FF0B0
:1050F000FF307047002814BF806B0020704700000D
:105100002DE9F04186B078B30A4600214368CDE925
:105110000411CDE90211019101A9984750B38168AA
:1051200000293DD00DF10408404688470199044606
:1051300021B1084600F020F90020019002990129D0
:105140001EDB08F108060027002502E001358D422C
:1051500016DA56F825000028F8D000F00DF902996B
:1051600046F82570F2E700BF0124204606B0BDE8EE
:10517000F08100BF0424204606B0BDE8F08100BFE6
:10518000481C0228F1D808EB810008220C30A2EB61
:105190008101FBF798FA204606B0BDE8F08100BF18
:1051A0000524204606B0BDE8F081000070B5044635
:1051B000C06B4168884788B1E06B8168884794F884
:1051C00048100028C0B20BD4814209D0616DE26C56
:1051D0004B1C63655054002070BD00BF022070BDA1
:1051E00081421CBF022070BDE269E16C20469047FD
:1051F000D4E91312054608460021002600F0CCF839
:105200002846666570BD0000002804BF4FF0FF30DF
:105210007047006C002804BF6FF0010070470268FF
:1052200010470000F0B581B046F27576C26AC0F64C
:1052300000060D4631460446904728463146012275
:1052400000F0A2F8636A28B120A120462A469847B8
:1052500003E000BF21A120469847A06B46F275717C
:105260000068C0F60001012200F08EF830B3A06B98
:1052700046F275710068C0F60001012200F084F862
:10528000C0B146F275766FF00B0717A5C0F60006A1
:10529000A06B636A3844C268204629469847A06BD1
:1052A000314638448069012200F06EF8002807F189
:1052B0000C07EDD1002001B0F0BD00BFE26A0CA1E7
:1052C00020469047002001B0F0BD00BF7468652003
:1052D000736574282573293A200D0A0074686520C7
:1052E0007365743A200D0A002D2D25730D0A0000F8
:1052F00068617665206E6F7468696E67204154201E
:10530000636F6D6D6F6E642100000000B0B578B101
:10531000826A054690470446002807D4AA6A05A178
:1053200028469047002858BF204404462046B0BD78
:105330000120B0BD0D0A000080B5436A0A4602A1F3
:105340009847002080BD00BF41542B7B25737D0012
:10535000024600284FF001001EBF0029D163002043
:1053600070470000024600284FF001001EBF0029D0
:1053700011640020704700000146002000F07AB957
:105380000146002000F09AB900F0CEBA10B50446EC
:1053900000F0F8FA204610BD10B5C9B2044600F07E
:1053A0002BFB204610BD000010B584B040F27C14E9
:1053B00044F6595CC2F2000444F6215244F61153FB
:1053C000C0F6000CC0F60002C0F600032046032120
:1053D000CDF800C0FFF766FA10B104B010BD00BFF1
:1053E00040F28E316420C2F20001CDE9001040F29B
:1053F0000401C2F200014FF0000C04F1100024314E
:1054000022462346CDF808C0FCF76AF80028E4D10C
:10541000012040F27C12009040F2043040F204017E
:10542000C2F200020A24C2F20000C2F200011346D6
:105430000194FBF719FF04B010BD000043F6000112
:10544000C4F201010A68520609D40A6852065CBF18
:105450000A685FEA426202D40A685206F2D5C2B212
:105460004A60704794B0FCF72DFB052000240A9099
:105470004FF480300225CDE90B04CDE911504FF4F3
:10548000E010012113900AA8CDE90F44CDE90344AF
:10549000CDE90D11FCF7D2FD20B1EFF3108072B60B
:1054A000FEE700BF0F20CDE905054FF48060CDE990
:1054B000080405A802210794FCF7B8FC20B1EFF31B
:1054C000108072B6FEE700BF012001904FF480709B
:1054D000029001A8FCF724FC20B1EFF3108072B613
:1054E000FEE700BFFEF77CFBFEF7BCFCFEF76AFBA5
:1054F000FEF78EFCFEF7BCFB46F2A970C0F600007A
:10550000FBF77CF8002000F041F8FFF74DFF10A1F9
:1055100009A2002808BF11460846FBF76FF8FEF7FE
:10552000EFF912A0FBF76AF840F28C14C2F2000403
:10553000216A20468847FBE76174207573657220F5
:10554000696E697469616C697A65206F6B210D0001
:105550006174207573657220696E697469616C6924
:105560007A65206661696C6564210D0053544D3382
:1055700032463130334338543620696E697469617C
:105580006C697A65204F4B210D00000070B540F228
:105590009405C2F2000505EB80060446F068802100
:1055A000FBF76FF8B0684FF40061FBF76AF8281951
:1055B0000121017470BD000080B540F29401C2F277
:1055C000000101EB8000D0F80CE000220EF1100C7D
:1055D000002300BF3EF802000EEB020100284888BD
:1055E00018BF01330028888818BF01330028C888F5
:1055F00018BF01330028088918BF013300284889E3
:1056000018BF01330028888918BF013300280CEB2C
:10561000020030F8020C18BF013300283CF80200E9
:1056200018BF01330028488A18BF01330028888A30
:1056300018BF01330028C88A18BF01330028088B1F
:1056400018BF01330028488B18BF01330028888B0E
:1056500018BF01330028C88B18BF0133002802F19E
:10566000200218BF0133802AB4D164205843C0F30C
:10567000871080BD80B5E1B140F29402C2F2000211
:1056800013181B7CB3B102EB80039B68C91A00237B
:10569000B3EBD12F0DD102EB8000C0684A0930F87E
:1056A0001210002908BF80BD00EB42004900FAF744
:1056B000E8FF80BD1168BDE8804008472DE9F04350
:1056C00081B040F29406C2F2000604463044007CE9
:1056D0000D4628B14FF000004DB901B0BDE8F08390
:1056E000316820468847002D4FF00000F5D015F0B6
:1056F0001F0206EB840E18BF0122DEF80C804FEA71
:10570000551C02EB5511002308EB4004B4F87E5001
:10571000002D4FF0000508BF5D1C8D4200F0948005
:10572000B4F87C30002B4FF0000308BF6B1C8B4299
:1057300000F08E80B4F87A50002D4FF0000508BFBD
:105740005D1C8D4200F08880B4F87830002B4FF05B
:10575000000308BF6B1C8B4200F08280B4F87650C7
:10576000002D4FF0000508BF5D1C8D427CD0B4F8C1
:105770007430002B4FF0000308BF6B1C8B4277D0B6
:10578000B4F87250002D4FF0000508BF5D1C8D422B
:1057900072D0B4F87030002B4FF0000308BF6B1CC0
:1057A0008B426DD0B4F86E50002D4FF0000508BF4D
:1057B0005D1C8D4268D0B4F86C30002B4FF00003B4
:1057C00008BF6B1C8B4263D0B4F86A50002D4FF0B9
:1057D000000508BF5D1C8D425ED0B4F86830002B18
:1057E0004FF0000308BF6B1C8B4259D0B4F86650D1
:1057F000002D4FF0000508BF5D1C8D4254D0B4F859
:105800006430002B4FF0000308BF6B1C8B424FD05D
:10581000B4F86250002D4FF0000508BF5D1C8D42AA
:105820004AD0B4F86030002B4FF0000308BF6B1C67
:105830008B4245D0103810F140047FF465AF002052
:1058400001B0BDE8F08300BF00F13F093AE000BFBE
:1058500000F13E0936E000BF00F13D0932E000BF33
:1058600000F13C092EE000BF00F13B092AE000BF37
:1058700000F13A0926E000BF00F1390922E000BF3B
:1058800000F138091EE000BF00F137091AE000BF3F
:1058900000F1360916E000BF00F1350912E000BF43
:1058A00000F134090EE000BF00F133090AE000BF47
:1058B00000F1320906E000BF00F1310902E000BF4B
:1058C00000F1300949B36244013A032A01F00302AE
:1058D00002D2002414E000BF21F0030508EB4903C5
:1058E00000246FF0010600BF03EB440004349F194D
:1058F000A54206F108067980418081803981F3D183
:105900005AB104EB0903012A28F8131005D008EB5B
:105910004303022A598018BF9980DEF8080000EB83
:10592000491001B0BDE8F0832DE9F04132B3A2F196
:10593000030CA2F1020EA2F101080025435D4E5DA9
:105940009B1B17D1A84519D04E1947197B7874783D
:105950001B1B0FD1AE4511D0BB78B4781B1B09D1EE
:10596000AC450BD0FB78F4781B1B03D10435AA425D
:10597000E4D100231846BDE8F08100BF0020BDE857
:10598000F0810000B0B5AAB312F00303A2F1010C3C
:105990000AD08E461EF8015B0446012B04F8015B19
:1059A00004D12046624611E08E460FE04D78022B6E
:1059B000457005D1023A01F1020E023006E000BF47
:1059C0008B78033A01F1030E83700330BCF1030FAF
:1059D00038BFB0BDAEF10401043800BF11F8043F78
:1059E000043A00F8043F4B7843708B788370CB788F
:1059F000C370F3D1B0BD0000002A08BF704780B566
:105A00000B4611461A46FAF734FE80BDF0B583B056
:105A100040F20047C2F2000738460721FCF7E8FCD5
:105A2000044638460621FCF7E3FC054638460521C6
:105A3000FCF7DEFC064602A938460022FCF774FD9E
:105A4000002818BFFBF742FE9DF80900F2B2E3B24E
:105A50004FF461673C2103FB07229DF80A30A0FB4D
:105A6000010118449DF80830EEB2C6EB061603FBA0
:105A7000070002EB8602801A71F1000080F080803E
:105A800040F20040C2F2000001A90022FCF7ECFC49
:105A9000002818BFFBF71AFE9DF806000130C1B2BE
:105AA00020298DF8060017D39DF8050000F0F903B2
:105AB000012B49D0082800F0010215D3A2B9012119
:105AC0000C288DF8061042D19DF807008DF80510BE
:105AD00001308DF8070047E09DF805001F2913D11C
