:020000040800F2
:10000000081700203502000897350008FF2900086E
:10001000953500087D180008294000080000000000
:10002000000000000000000000000000D93C0008B3
:100030007F1800080000000003380008173D000882
:100040004F0200084F0200084F0200084F0200084C
:100050004F0200084F0200084F0200084F0200083C
:100060004F0200084F0200084F0200084F0200082C
:100070004F0200084F0200084F0200084F0200081C
:100080004F0200084F0200084F0200084F0200080C
:100090004F0200084F0200084F0200084F020008FC
:1000A0004F0200084F0200084F0200084F020008EC
:1000B0004F0200084F0200084F0200084F020008DC
:1000C0004F0200084F0200084F0200084F020008CC
:1000D0004F020008993F00084F0200084F02000835
:1000E0004F0200084F0200084F02000800F002F81B
:1000F00000F090F80AA090E8000C82448344AAF132
:100100000107DA4501D100F085F8AFF2090EBAE82F
:100110000F0013F0010F18BFFB1A43F0010318473B
:10012000F8A6000018A70000103A24BF78C878C1CC
:10013000FAD8520724BF30C830C144BF04680C60ED
:10014000704700000023002400250026103A28BF35
:1001500078C1FBD8520728BF30C148BF0B60704739
:100160006E2900F0FC83702900F05181662906F0A9
:10017000F585652906F0F285672906F0EF85612986
:10018000AFF3008003681B0A28BF41F08001692992
:1001900000F0C280642900F0BF80752900F0BC80A7
:1001A0006F2900F0EF86782900F01D81E92900F021
:1001B0008986E42900F08686F52900F08386EF29F8
:1001C00000F0EC86F82900F01C810368DB0928BFE9
:1001D00041F08001632900F0ED87732900F0F28778
:1001E000E32900F0FD87F32901F002800020704729
:1001F0001FB500F043FF04000020002106F0A8FB1B
:10020000401C60600020002106F08CFBE0601FBDF8
:1002100010B510BD01F066FA1146FFF7E9FF05F0D1
:1002200025FD01F08DFA03B4FFF7F2FF03BC01F0E6
:10023000D1FA00000948804709480047FEE7FEE779
:10024000FEE7FEE7FEE7FEE7FEE7FEE7FEE7FEE786
:1002500004480549054A064B70470000793D0008EF
:10026000ED000008081100200817002008130020E6
:10027000081300207CB51D4616460C00009007D0E0
:100280004142A14202D32044401E01E04FF0FF3022
:10029000064B7B442A4669460190304600F087FDB4
:1002A000002C02D0009A002111707CBD3F0B000091
:1002B0000FB4044910B503AA029800F093FD10BCD6
:1002C0005DF814FBB002002070B504468569006833
:1002D000C10601D5302600E02026C00707D070BD3A
:1002E000D4E9012130469047206A401C20626D1EEF
:1002F000F6D570BD70B5044685690078C00707D192
:1003000070BDD4E9012120209047206A401C206262
:100310006D1EF6D570BD00002DE9F04106460024A3
:1003200010687529314616A510D000F084FA00280F
:1003300002DA404213A507E031688A0701D512A509
:1003400002E0490704D511A5012401E000F07CFA80
:1003500000210A2206F1240709E0B0FBF2FCB0FB01
:10036000F2F302FB1C00303078541846491C002878
:10037000F3D123462A463046BDE8F04100F096BA54
:10038000000000002D0000002B00000020000000F5
:10039000F0B40D460188090502D5214C7C4402E0E9
:1003A0001F4C7C440E34002100F1240608E002F0CA
:1003B0000F071209E75D42EA03721B097754491CD3
:1003C00052EA0307F3D102780023120704D5702DF7
:1003D00006D009B1022311342246F0BC00F066BAFF
:1003E00001231034F8E770B504460D462146106825
:1003F00000F02AFA024629462046BDE87040002354
:10040000C6E7D21D22F00703D3E90023C0E7036843
:10041000126843F0200303600823C3610023B7E799
:10042000C06900002DE9F05F894604464FF0000ADC
:10043000DFF874B1FB44C0F820A02046E16888478B
:10044000002874D0252806D0D4E901219047206ADD
:10045000401C2062F1E700265F462046E16888479D
:100460002028054607DB312D05D2781910F8200C1D
:1004700008B10643F1E7B00701D526F00406C4F839
:100480001CA00027C4F818A02A2D09D0284606F081
:1004900041FA38B304EB8708303DC8F8185019E02A
:1004A00059F8041B204604EB87029161E1688847F4
:1004B000012F054618D1E069002820DA26F0200631
:1004C0001DE0D8F8180000EB800005EB4000303844
:1004D000C8F818002046E1688847054606F01AFA71
:1004E0000028EED1012F0AD02E2D08D12046E16838
:1004F00088477F1C0546022F46F02006C4DBA06912
:10050000002803DA404246F00106A061F00701D05E
:1005100026F010066C2D0BD0682D09D04C2D39D04B
:100520006A2D35D0742D35D07A2D33D016E038E0D1
:10053000E1682F4620468847B842054609D16C2F0E
:1005400026D04FF48060E168064320468847054680
:1005500004E06C2F1AD04FF4807006430DB3A5F160
:100560004100192802D8203546F400664A4629463B
:10057000204626604E46FFF7F3FD80B101280BD0E0
:10058000F61D26F0070000F1080956E74020E4E7D1
:100590008020D8E70020D6E706F104094DE7284679
:1005A00052E7206ABDE8F09F506900000FB400B523
:1005B0008DB010A9099000910B904FF0FF300A9078
:1005C00000200C90064878440690064878446A4615
:1005D00007900F9909A800F0FFFC0DB05DF814FB1F
:1005E0002F0A0000470A00002DE9FF5F1D464FF06B
:1005F000FF3B91464FF000085F46D5E90146A969E7
:1006000001987F1C8847296A824688470028F6D1CE
:10061000BAF1FF3F0CD0002E24F4C06419DD60064F
:1006200014D5BAF12B0F09D0BAF12D0F0ED103E07A
:10063000584604B0BDE8F09F44F48064A96901986D
:100640007F1C8847761E8246002E02DDBAF1300FED
:1006500003D0B9F1000F26D032E0A969761E0198C7
:100660007F1C44F400748847002E824605DDBAF1F1
:10067000780F06D0BAF1580F03D0B9F1000F10D09F
:100680001EE0B9F1000F02D0B9F1100F18D1A9691D
:10069000761E01987F1C24F400748847824610203F
:1006A00002E0082000E00A20814609E0A96908FB71
:1006B0000908761E01987F1C44F40074884782461E
:1006C000002E05DD4946504600F072FC0028EDDAA8
:1006D000E96901988847A00502D46FF00100A8E7F6
:1006E000E00725D1600613D5600502D5C8F10000EA
:1006F00000E0404629680A1D2A600968220501D5E4
:10070000087015E0220701D5088011E008600FE0AD
:100710002868011D29600068210502D580F8008045
:1007200006E0210702D5A0F8008001E0C0F80080B3
:1007300038467EE710B5044603E005F0C3F9401CD7
:1007400009D014F8010B05490028F6D1BDE8104086
:100750000A2005F0B7B94FF0FF3010BDB0020020FD
:10076000014A00F069BC000000000020401ECAB22F
:1007700010F8011F8A4202D00029F9D100207047E9
:1007800030B505460B462A4613F8014B12F8010B0B
:1007900008B1A042F8D01CB1002802D06D1CF1E7CE
:1007A000284630BD10B5431C02E010F8011B71B1A2
:1007B0008107FAD14FF0013202C88C1A8C4314EA37
:1007C000C211F9D0C01A0A0603D0C01E10BDC01A4B
:1007D00010BD0A0401D0801E10BD0902FCD0401ECD
:1007E00010BD4FF0000200B51346944696462039DE
:1007F00022BFA0E80C50A0E80C50B1F12001BFF4DA
:10080000F7AF090728BFA0E80C5048BF0CC05DF83F
:1008100004EB890028BF40F8042B08BF704748BF8D
:1008200020F8022B11F0804F18BF00F8012B704701
:1008300070477047704709684A0501D540B2704754
:10084000C905FCD500B2704709684A0501D5C0B298
:100850007047C905FCD580B2704770B50C46054697
:10086000012A05D02878800600D5EA69002302E035
:10087000012305E05B1C934202D2E05C0028F9D121
:10088000A869E618C01AA861286A18442862284690
:10089000FFF71AFD04E0D5E9012114F8010B904798
:1008A000B442F8D32846FFF725FD70BD2DE9F04787
:1008B0000D4699469246044600F1240801688806D0
:1008C00004D5E06921F01001216000E00120A84278
:1008D00001DD471B00E00027A1697A1902EB09003E
:1008E000081AA0612078C00602D42046FFF7ECFC6D
:1008F000002608E0D4E901211AF806009047206A92
:10090000401C761C20624E45F4DB2078C0060AD5D8
:100910002046FFF7D9FC06E0D4E9012130209047BA
:10092000206A401C2062381EA7F10107F4DC07E0B2
:10093000D4E9012118F805009047206A401C206284
:10094000281EA5F10105F3DC2046FFF7D3FC207833
:10095000000602D50220BDE8F0870120FBE7116800
:100960000268006A530501D508700AE0D30501D575
:10097000088006E0130603D5C217C1E9000200E0B3
:100980000860012070472DE9FF4F0C461E464FF0CE
:10099000FF378BB0D2E90001DDF860800A908A460B
:1009A000C1F30A5505B93D46002108464FF0000045
:1009B000BAF1000F00F4400005DA00EB80004FF4BC
:1009C000400101EA50004FEA9059B9F1010F00DDF2
:1009D000B9460A9850EA4A000ED044F61050A5F2E3
:1009E000FF3545432F14B8F1000F1ED07542291E64
:1009F0001EDDC9F100021CE0B8F1010F4FF000004C
:100A000001D0302103E0F24305E02154401CB04204
:100A1000FBDB30460022002121540B99C1F80880ED
:100A2000C1E900200FB0BDE8F08FBD1B6D1CDEE7F3
:100A30004A4600DA694206A800F098FD06AB93E842
:100A4000070003AB83E8070050460A9905F085FBD1
:100A50008DE80700A0F500501F3800900398002D86
:100A60000ADD42F21F014A460844002303A903900D
:100A7000684605F0EFFD09E0A0F500504A461F3832
:100A8000002303A90390684605F0F9FD8DE80700EF
:100A90000004000C03D04FF0FF30410800E0104686
:100AA000B8F1000F03D00022009215461EE0751E1B
:100AB00005D400F0E7FA303262556D1EF9D5B34621
:100AC0000122084302D000227F1C04E02078302855
:100AD00001D100227F1E002A099784D01DE0112D2C
:100AE00007DA00F0CFFA303262556D1C50EA01028D
:100AF000F5D1084302D00098C8B10EE00021681E6D
:100B000005E0235C625C63542254401E491C814210
:100B1000F7DBAB46A81B401E0990002004F80B0031
:100B20000B98099AC0F80880C0E9002B7AE71126D3
:100B30004FF0000857E72DE9F04F88460446D21DD4
:100B400022F0070191B0D1E90001CDE90A0105F0D9
:100B5000CDFE02460B98C00F01D02D2007E0206883
:100B6000810701D52B2002E0202101EAC000032AE1
:100B7000099001D0072A05DB03464146204600F0D4
:100B8000CFFA0BE12078800601D5E06900E006206D
:100B9000B8F1650F814606D0B8F1660F18D0B8F1EC
:100BA000670F70D131E00020B9F1110F009001DB27
:100BB000112301E009F101030AAA01A90CA8FFF71A
:100BC000E2FEDDE90C70002609F10105834647E0ED
:100BD00001204B4600904FF000470AAA01A90CA83B
:100BE000FFF7D1FEDDE90DB00C995D46002610B986
:100BF00009F101000D18B9EB050003D4C0F1FF366F
:100C000009F10105A5EB09002BE0B9F1010F01DAAB
:100C10004FF001090020B9F1110F0090484601DDA5
:100C2000112300E003460AAA01A90CA8FFF7ABFEB6
:100C3000DDE90C704D4600268346207800070AD473
:100C4000AB4500DA5D4601A8012D04DD411911F81C
:100C5000011C302907D04F4502DA17F1040F04DADE
:100C6000012082460FE06D1EEEE7002F02DCED1B37
:100C70003E4403E0781CA84200DD7D1CB81B00F157
:100C8000010A4FF000472078000703D4AA4501DB92
:100C90004FF0FF3A0021B7F1004F0DF143088DF8F6
:100CA000431024D002202B23002F01DA7F422D2372
:100CB0000A21021EA0F1010000DC5FB197FBF1FCEC
:100CC00097FBF1F201FB1C7C17460CF1300C08F885
:100CD00001CDEEE7A8F1010003702188090501D5D7
:100CE000452100E06521A0F1010800F8011C0998E8
:100CF0000FA9A1EB0807FF1D00B10120411901EB6D
:100D0000EA70A1693844081A401EA0612078C00624
:100D100002D42046FFF7D8FA099828B1D4E9012176
:100D20009047206A401C20622078C00622D52046C9
:100D3000FFF7CAFA1EE0002E04DBB34502DD01A86E
:100D4000805D00E03020D4E901219047206A401CFA
:100D50002062761CAAF101005FEA000A0AD100F0C5
:100D60008DF9C0680168405CD4E901219047206A90
:100D7000401C2062281EA5F10105DCDC07E0D4E957
:100D8000012118F8010B9047206A401C2062381E90
:100D9000A7F10107F3DC2046FFF7ACFA032011B0FE
:100DA00041E6000001694A1C02610878704700B5FD
:100DB0008FB0CDE901310021059105497944CDE994
:100DC000031011466846FFF72DFB0FB000BD000071
:100DD000E5FFFFFFD1E900239A4202D2531C0B60CA
:100DE00010707047074B70B50D467B44FFF7DFFF6F
:100DF0000446284600F02CFC10B14FF0FF3070BDC7
:100E0000204670BDD74C00002DE9FF5F15468A468D
:100E10000446DFF8AC80F8440027D8E900103E46CD
:100E2000CDE9001010E03AF816106A4602A800F06A
:100E300013FC411C07D02178890603D5E2693918D3
:100E400091420DD80744761C2078800602D5E069CF
:100E5000B84205DDAE42E6DB3AF816000028E2D1E2
:100E6000A069C01BA0612046FFF72EFAD8E9001048
:100E7000CDE90010002017E03AF818106A4602A8E1
:100E800000F0EAFBB0F1FF3F81460BD000250DF1E9
:100E9000080B05E0D4E901211BF8050090476D1C03
:100EA0004D45F7D308F10100B0428046E4DB206AEB
:100EB000384420622046FFF71DFABDE8FF9F00007E
:100EC000825F00002DE9F0418046D21D22F007022A
:100ED0000025D2E90002F52915A614D0011E72F1F1
:100EE000000106DA0023D0EB030063EB020211A637
:100EF00008E0D8F800108B0701D50FA602E04907DB
:100F000001D50EA601251146002408F1240704E0AE
:100F100000F0B8F830323A55641C50EA0102F7D1BB
:100F20002B46324621464046BDE8F041FFF7BEBCA5
:100F3000000000002D0000002B0000002000000039
:100F400030B4002100F1240408E002F00705D208C3
:100F5000303542EA4372DB086554491C52EA030506
:100F6000F3D10468002310A2250708D504F020045B
:100F70000C4304D0C46901230CA2641EC46130BCBC
:100F8000FFF794BC10B5044621461068FFF75CFCDF
:100F900002462046BDE810400023D1E7D21D22F0D2
:100FA0000701D1E90023CBE700000000300000007A
:100FB0003A2800D2303820F02002412A01D3A2F191
:100FC0003700884201D34FF0FF3070470268114468
:100FD0001378016018467047D16005497944516122
:100FE00004497944116200211161114600F004B9ED
:100FF000EDFFFFFF29010000426842B1016811F8CE
:10100000013B23B1521EC0E900121846704701216E
:10101000C160881E704742685AB1C368016843B90D
:1010200083688B4205D0491E521CC0E90012002083
:1010300070474FF0FF3070472DE9F04115460E46DE
:10104000040002D12C6804B90BA4204600F038FB40
:101050000444207870B127463146384600F020FB22
:101060000444207810B1002004F8010B38462C60AD
:10107000BDE8F0810027F9E7000000000048704754
:10108000C000002030B5B0F10A0271F100034FEA50
:10109000900E4EEA817EB0EB0E0061EB91014FEABB
:1010A000101E4EEA017E10EB0E0041EB11114FEACB
:1010B000102E4EEA016E10EB0E0041EB11214FEAAB
:1010C000104E4EEA014E10EB0E0041EB114140185C
:1010D00041F100014FEAD00040EA41704FEAD101EE
:1010E0004FEA810444EA907410EB800544EB01045C
:1010F0006D1944EB0404521BA3414FF0000348BF99
:101100000A3200D530BD401C41F1000130BD10B5A0
:10111000044600F00DFB0068005D00F0010010BD0A
:101120002DE9F0411F46044603260168072A01F411
:10113000006004DB08B116A505E016A503E008B1C0
:1011400015A500E015A521F010002060A069C01EC3
:10115000A0610FB1401EA0612046FFF7B5F84FB166
:10116000D4E9012138469047206A401C2062C01C07
:10117000206206E0206AFAE7D4E9012115F8010BA4
:101180009047761EF8D22046FFF7B4F8BDE8F0810C
:101190004E414E006E616E00494E4600696E66001B
:1011A00010B5436913B1AFF3008001E0FFF755FBC1
:1011B000012010BD127800F124010A7000224A704B
:1011C0000122EDE711684FF0FF32E9E710B54369FE
:1011D00013B1AFF3008001E0FFF716FE012010BD50
:1011E000128800F1240182840022C2840122EDE7EA
:1011F00011684FF0FF32E9E72DE9F34F4FF0000A95
:101200000C4656468DB001200C9001F10C000B905D
:1012100062690B9801219047051E2DD0252D2CD0F9
:10122000216A8847C0B162690B9801219047216A01
:1012300088470028F7D16269411E0B98904700E06B
:10124000761CA1690D988847216A88470028F7D144
:10125000E1690D988847DBE7A1690D988847A842A6
:10126000074601D1761CD3E7E1690D9888477F1CBA
:1012700002D1BAF1000F6FD06BE162690B980027C1
:101280003D46394690472A2804D162690B980121CE
:1012900090470125DFF8D08262690B9801219047C1
:1012A000A0F130010A290AD24745E5DC07EB8701A6
:1012B00000EB4107303FDFD445F01005ECE7E906CD
:1012C00001D46FF000476C280AD04C2814D068284D
:1012D00015D06A280DD074281CD07A281AD01DE0A9
:1012E00062690B98012190476C2802D045F00405F3
:1012F00014E045F002050DE045F020050AE06269C2
:101300000B9801219047682802D045F0080505E0B8
:1013100045F4006562690B9801219047C4E90157C3
:1013200065283DD019DC58287AD00CDC452837D008
:1013300004DC252826D041289ED131E046282FD034
:10134000472899D12CE05B2877D0612828D06328E2
:101350007CD0642823D15AE0F6E06F2848D008DC1E
:1013600066281DD067281BD0692821D06E2816D189
:1013700027E0702845D0732868D0752847D0782892
:101380000DD14DE0A1690D988847252805463FF409
:1013900069AFE1690D9888476D1C3FF46AAFD8E0EA
:1013A0000D9923466A466FF00100AFF30080C5E057
:1013B00045F0400023464FF000026060A80736D495
:1013C0003EE0E8077FF447AF2068011D2160006818
:1013D000290501D506701BE7290701D5068017E707
:1013E000A90703D5F117C0E9006111E706600FE70F
:1013F00045F0400023464FF008026060A80716D46D
:101400001EE040F60E0125EA0100606016E045F09E
:10141000400023464FF00A026060A80707D40FE09F
:1014200045F040006060A80708D5234610220D99BA
:101430006FF00100AFF3008080E007E01022234648
:101440000D996FF00100FFF7CFF877E04FF000093A
:1014500063284F46C8464B46CB4602D05B2806D091
:1014600038E0E80601D40120A060012732E062697B
:10147000D4F80CB00B98012190475E2807D14FF0AB
:10148000010949466269D4F80CB00B98904721696C
:1014900039B900210A4603AB43F82120491C082929
:1014A000FADBD8B3216949B308F1010862690B98E6
:1014B000012190475D28F4D1B9F1000F09D0002037
:1014C00003A951F82020D24341F82020401C0828CD
:1014D000F7DB03AB2069002820794FEA40701ED06B
:1014E0005B462246CDF80080CDE901970D99002892
:1014F0006FF0010020DAAFF300801FE0C11703AAEC
:1015000000EBD1614B1121F01F0102EB8302411A64
:1015100013680120884003431360C7E719E00D9961
:10152000224600286FF00100009702DAAFF3008036
:1015300004E0AFF3008001E0AFF3008000280ADA96
:10154000401C06D10C9820B14FF0FF300FB0BDE821
:10155000F08F5046FAE7E90701D10AF1010A064483
:1015600000200C9054E60000CCCCCC0C2DE9F047C8
:10157000814616468AB0354878440DC88DE80D007E
:1015800032487844801C03AC0DC884E80D0041F655
:101590009B300844372190FBF1F290FBF1F5A5F167
:1015A000800501FB12041B3C02D56442012000E0CF
:1015B0000020DFF898A080460027FA44AAF1BE0A6E
:1015C0000EE0E0070AD03246684607EB47010123E8
:1015D0000AEB810105F053F88DE8070064107F1CC9
:1015E000002CEED1194F7F44AE3F19E0E80715D02B
:1015F00007EB04100DF1180A90E80E008AE80E00BF
:10160000C068F04201D1981908903246012306A91A
:1016100003A805F034F803AB83E807006D10641CE1
:10162000002DE3D14FF0010332466946B8F1000FB7
:1016300003A802D005F00EF801E005F020F8C9E992
:101640000001C9F808200AB0BDE8F087A4580000DE
:10165000007B00F0800070472DE9F04116460C46F3
:10166000054600F065F8036893F80101012807D0EA
:10167000FF2C12D8185D80B101202C70BDE8F081DC
:10168000D3F807013246214603F20713C71828464C
:10169000BC46BDE8F041002360474FF0FF30EDE766
:1016A00030B503461D781DB10A4603E0AC4201D1B6
:1016B000181A30BD12F8014B002CF7D15B1CF1E772
:1016C00030B503461D783DB10A4612F8014B1CB1F6
:1016D000AC42FAD15B1CF5E7181A30BD00487047E0
:1016E000A00000207546FFF7F9FFAE4605006946E9
:1016F000534620F00700854618B020B5FEF7A8FD38
:10170000BDE820404FF000064FF000074FF0000802
:101710004FF0000BAC46ACE8C009ACE8C009ACE83F
:10172000C009ACE8C00921F007018D4670470000F0
:1017300010B5FFF7A3FC001D10BD00BF155200003F
:1017400010B50446AFF300802046BDE81040FEF718
:101750006ABD00004FF0013C50F8042B51F8043BE7
:101760009A4221D1A2EB0C03934313EACC1317D175
:1017700050F8042B51F8043B9A4215D1A2EB0C030C
:10178000934313EACC130BD150F8042B51F8043BCC
:101790009A4209D1A2EB0C03934313EACC13DBD09A
:1017A0004FF00000704700BFD01A01BAB1FA81F1C2
:1017B00001F0180122FA01F0CB40DBB2C0B2C01A2E
:1017C000C1F120012CFA01F3D11A914311EAC3119E
:1017D000E6D1704701491820ABBEFEE726000200A3
:1017E0007047F0B585B00A9D1DB1032D08D90120C1
:1017F00021E00A240325C826CDE90065029418E0FB
:101800000BAE341D0494012D0B9C04D103260A2534
:10181000CDE900460CE006F10807022D0497776831
:101820000FBF0A2506F10C050495357ACDE900476E
:10183000029502F065FC05B0F0BDF0B585B00C9FD7
:10184000DDE90A5C1FB1022F04D9012014E00A244B
:1018500003260BE00DAC261D0496012F0D9E0FBF35
:101860000A2404F1080704976468E4B2CDE9005C37
:10187000CDE9026402F060FC05B0F0BDFEE7704700
:10188000EFF3108072B6FEE7002200F001B800000E
:10189000B0B50E4C0346607A012884BF0120B0BD6C
:1018A000657A00206055657A04EB85056B60637A84
:1018B00023441A72627A531C3032637242F63A73CE
:1018C000C8700A70A1F80130B0BD00BFF403002059
:1018D0002DE9FF4132483349012203F051FC324FD8
:1018E0000146387031A0FEF7E3FC387830B136A0FD
:1018F000FEF720FFEFF3108072B6FEE7374C294861
:1019000003A9224603F0D1FB30B135A0FEF712FF48
:10191000EFF3108072B6FEE72068DFF8DC80039EEC
:1019200090F80252D0F8140202386843440820F0BC
:10193000010230482146C04706FB05F045082FA0AC
:101940002946C047284605F029F901F04FFE01F06D
:101950004DFE05F019F8054620460E4605F01EF925
:1019600001F044FE01F042FE05F00EF8024628A008
:101970000B46CDE90056C04709480A49002203F04A
:10198000FFFB014638702AA0C047387830B12F4895
:10199000FEF7D0FEEFF3108072B6FEE7BDE8FF81E0
:1019A00004040020FDA3000800040020665F6D6FA2
:1019B000756E7420726573756C743A2030782530BA
:1019C00032580D0A00000000665F6D6F756E74205E
:1019D0006661696C6564210D000000009C000020B8
:1019E000665F67657466726565206661696C6564CB
:1019F000210D000000A40008B102000866726565B0
:101A000053706163653D25754B420D0A000000006F
:101A1000746F74616C3A20252E326647422C206622
:101A20007265653A20252E326647420D0A00000095
:101A3000665F756E6D6F756E7420726573756C740C
:101A40003A203078253032580D0A000023A40008CF
:101A50000548D0E90110081AC821C83090FBF1F2FE
:101A600002FB1100704700BF0001002010B590F884
:101A70002110022912D10168D0E90F230C6824F04B
:101A80000E040C600C6824F001040C60012101FAC2
:101A900003F3536080F82110002102E004218163E8
:101AA0000121002280F82020084610BDB0B590F832
:101AB000211002291CD103681F4C01221968A3427E
:101AC00021F00E011960196821F00101196019490E
:101AD00012D01A4CA34211D0194CA34210D0194C69
:101AE000A34210D0184CA34210D14FF4803415E01B
:101AF0000421816301211BE001240FE010240DE08B
:101B00004FF480740AE04FF4805407E001F1680557
:101B10004FF08074AB4208BF4FF480140C6000217A
:101B200080F8201080F82120426B0AB190470021F4
:101B30000846B0BD04000240080002401C000240FC
:101B4000300002404400024058000240B0B5044654
:101B500000F0EAF805469148611C007818BF04447B
:101B600000F0E2F8401BA042FAD3B0BD2DE9FC4FD3
:101B70005E4A04234FF0000A4FF001084FF00009BD
:101B8000904208BF0323009300250C6834FA05F245
:101B900008BFBDE8FC8F08FA05FE14EA0E0F00F03E
:101BA000A1804F68032F16D9112F26D0122F28D0CD
:101BB000514A974213D0514A974210D0504A974207
:101BC0000DD0504A97420AD04F4A974207D04F4A09
:101BD000974204D022E0DFE807F002181B1F8C6850
:101BE00044B1012C14BFC0F814E0C0F810E04FF06D
:101BF000080913E04FF0040910E0CC6804F104096F
:101C00000CE0CC6804F10C0908E0D1F80C9005E078
:101C1000CC6804F1080901E04FF00009544607467A
:101C2000082D4FF00F0228BF203C28BF04373B6827
:101C300002FA04F609FA04F4B34323433B60CB7978
:101C4000DB064FD5654A2A4C1368A4F57E7C43F029
:101C50000103136013682E4A03F0010390420193BD
:101C6000019B25F003035CF803B008D0294A904299
:101C700007D0294A009E904208BF022602E00026B3
:101C800000E001260AF00C030F22AF0802FA03F469
:101C900006FA03F3164E174A2BEA040423434CF8C2
:101CA00027304F68FB02B36854BF23EA0E0443EAAF
:101CB0000E04B460BB02136854BF23EA0E0443EA67
:101CC0000E041460BB03736854BF23EA0E0443EA96
:101CD0000E047460FB03336854BF23EA0E0243EA28
:101CE0000E0232600AF1040A01354EE70014014089
:101CF000000401400C04014000001110000012100B
:101D000000002110000022100000311000003210ED
:101D100000080140000C014000100140002A08BFEB
:101D2000090401617047000005480068704700BF62
:101D30001A48034900780A6810440860704700BFD9
:101D40000011002080B59748016841F01001016042
:101D5000032000F07DF8032000F004F800F020F8E4
:101D6000002080BD70B50D4E04464FF47A71307876
:101D7000B1FBF0F098490968B1FBF0F000F02EFCDF
:101D800001250F2C08D838B94FF0FF30214600222A
:101D9000002500F037F87460284670BD640000200C
:101DA000E0B50E48016841F001010160016801F0F1
:101DB000010101910199416841F080514160406801
:101DC00000F0805000900098052000F041F8044891
:101DD0000222016862F31A6101608CBD1810024092
:101DE00004000140002809D4734601F00BFC9E4614
:101DF000034A42EAD00020F003000160704700BFB0
:101E000000E100E0F0B5184B4FF0FF361C68C4F35A
:101E10000224E51E84F0070438BF002506FA05F702
:101E2000BA43042C28BF042406FA04F4A14300F0AA
:101E30000F04A940043C1143044A2344090102440D
:101E4000002848BF03F10C021170F0BD00E400E06F
:101E500005494FF6FF030A681A4060F30A22034857
:101E600010430860704700BF0CED00E00000FA0569
:101E700002F07EF92DE9F84300286CD088464949E4
:101E80000446086800F0070040450AD2086820F0C0
:101E9000070040EA08000860086800F007004045B5
:101EA00059D120685B4B8946810711D5410703D57D
:101EB000196841F4E0611960010703D5196841F41C
:101EC00060511960A1681A6822F0F002114319608C
:101ED000C00737D1D9F8000000F0070040450DD900
:101EE000D9F8000020F0070040EA0800C9F8000017
:101EF000D9F8000000F0070040452CD120684107C8
:101F000005D5E1681A6822F4E06211431960000700
:101F100006D52069196821F4605141EAC0001860B3
:101F20001C4600F05DF821681F4AC1F30311515CA3
:101F3000C840294908601D480068FFF713FF0020CA
:101F4000BDE8F8836068022808D0012825D153F83D
:101F5000041C890306D40120BDE8F88353F8041C4F
:101F60008901F8D519681D4621F00301084318605E
:101F7000FFF7DAFE064641F28837606829682B468B
:101F800001F00C01B1EB800FA4D0FFF7CDFE801B58
:101F9000B842F2D90320BDE8F88353F8041C89073E
:101FA000D9D5DFE700200240386E00086800002025
:101FB000DD481849094A00680968C1F30221515CEB
:101FC000C8407047D8481349044A00680968C1F3FB
:101FD000C221515CC840704770000020486E000864
:101FE00010B50C490C480A6802F00C03082B07D105
:101FF000C2F3834309A4D203E35C02D40C485843E0
:1020000010BD096809A25843C1F34041515CB0FBBF
:10201000F1F010BD0410024000127A000203040522
:10202000060708090A0B0C0D0E0F10100102000024
:1020300000093D002DE9FC41002800F09C80044689
:102040000078B74EC0071FD0706800F00C0004285D
:1020500014D001F04DFB02D17068C0030ED460684B
:10206000002800F01481B0F5A02F00F02181B0F518
:10207000803F00F0218101F09FFA20E13068800369
:1020800002D56068002876D02078800716D5706861
:1020900010F00C0F05D001F02BFB24D17068C003A9
:1020A00021D43068800702D52069012863D1606996
:1020B000316821F0F80141EAC00030602078000763
:1020C00041D5A06910B397480121C0F88014FFF7EB
:1020D0002BFE0546706A800728D4FFF725FE401BBB
:1020E0000228F7D9F8E021698E48002900F08E8097
:1020F00001210160FFF718FE054630688007D6D43D
:10210000FFF712FE401B0228F7D9E5E085480021C1
:10211000C0F88014FFF708FE0546706A800712D5E4
:10212000FFF702FE401B0228F7D9D5E07E484FF4A6
:10213000FA510068B0FBF1F0019000BF0198411E18
:1021400000280191F9D12078400717D4E7697FB1C1
:1021500001F0CEFA3CD1012F0DD0216A706800F455
:1021600080328A4207D1616A00F47010884202D13D
:102170000020BDE8FC810120BDE8FC81F06910F081
:10218000805808D1F06940F08050F061F06900F0AB
:10219000805000900098654F3868C0050FD43868AB
:1021A00040F480703860FFF7BFFD05463868C00511
:1021B00005D4FFF7B9FD401B6428F7D98CE0E0682F
:1021C000A0B3052844D0012846D001F013FA46E018
:1021D0005449002088460866FFF7A6FD0546022FF1
:1021E0000AD147463068800179D5FFF79DFD411B34
:1021F00003200229F6D9BCE730688001B8D5FFF783
:1022000093FD411B03200229F6D9B2E700210160AA
:10221000FFF78AFD0546306880077FF54FAFFFF76F
:1022200083FD411B03200229F5D9A2E701F0E2F961
:102230003062FFF779FD054641F28837306A800742
:102240001CD5FFF771FD411B0320B942F6D990E779
:10225000306A40F004003062306A40F001003062C1
:10226000FFF762FD054641F28837306A800705D4E2
:10227000FFF75AFD401BB842F7D92DE0B8F1000F27
:102280007FF464AFF06920F08050F0615EE701F008
:1022900093F93060FFF748FD0546306880037FF50D
:1022A000F3AEFFF741FD411B03206429F5D960E738
:1022B000306840F480203060306840F48030306016
:1022C000FFF732FD0546306880033FF5DDAEFFF7CE
:1022D0002BFD401B6428F6D90320BDE8FC81206A51
:1022E000B0F5803F05D1A168726822F40032114335
:1022F0007160616A726822F474121143084370605D
:1023000001203866FFF710FD0446306880013FF574
:102310002FAFFFF709FD011B03200229F5D928E79C
:102320000010024000004242700000200070004097
:1023300070B538B10446406A30B10020206104F124
:10234000140007E0012547E06068B0F5827F03D004
:1023500004F11C00002101600025A56294F85100E1
:1023600020B9204684F8505000F038F8022084F854
:10237000510094E80F0001F4827102F404420668EF
:10238000114403F40062114426F0400606602269FD
:1023900002F002021144626902F001021144A269D2
:1023A00002F400731944E36903F038031944236A03
:1023B00003F080031943A36A03F400531943016037
:1023C000042101EA12414160C16921F40061C16147
:1023D0000120656584F85100284670BD70B586B04F
:1023E000184C006800260496A4F55441884227D171
:1023F0001548416841F480414160416801F48041E1
:1024000001910199016841F008010160006800F044
:102410000800019003200590022003904FF4204013
:102420000290019802AD20462946FFF79FFB4FF42A
:1024300080402946CDE9036602902046FFF796FBCF
:1024400006B070BD000C0140181002402DE9F843A1
:1024500001F015F904BF0220BDE8F88301201E46F3
:10246000154601F066F994F85110814601290BD008
:102470006068B0F5827F5ED1A2680220002A40F039
:102480009B80042940F09880002F00F09480002D5C
:1024900000F09180002E00F08E8094F85100042806
:1024A0001CBF052084F8510000206065E687E686A1
:1024B000C4E91000A563A6872763A6862068016883
:1024C000490601D401F008F9E268DDF8208061686E
:1024D000B2F5006F31D109B1012E01D101F0EFF851
:1024E000012608F10105E08E10B9E08F00285AD0CE
:1024F00001F014F90CD5E18E51B1012E08D1216BF8
:10250000002631F8022BC2602163E18E0139E18699
:102510008168C90706D0E18F21B1A16BC06801268F
:1025200001F000F9FFF700FC002DDCD0A0EB090062
:102530004045D8D332E002203EE009B1012E02D15D
:10254000397801F030F9012608F10105E08E08B96B
:10255000E08F40B301F0E2F80ED5E18E61B1012EBB
:102560000AD1216B002609780173216B20680131A3
:102570002163E18E0139E1868168C90706D0E18FC8
:1025800021B1A16BC068012601F08DF8FFF7CCFBEB
:10259000002DDBD0A0EB09004045D7D3012084F803
:1025A0005100032008E0204641464A4601F02AFB3C
:1025B00038B1202060650120002184F85010BDE86A
:1025C000F883A06808B901F0DCF8616D01200029EA
:1025D000F2D184F851000020EEE70000411E0020F7
:1025E000B0EB116F1CBF01207047044AF02351600B
:1025F00003490B70072190601160704710E000E004
:1026000023ED00E0704770477CB50446006802681F
:10261000C168456913073FD001F4907605F00105C4
:1026200076193DD0D60705D0CE0503D5666C46F0A9
:1026300001066664560704D51DB1666C46F00206B5
:102640006664960704D51DB1666C46F004066664A0
:10265000002B07D501F020035B1903D0636C43F016
:1026600008036364636C002B00F0E080920605D5DC
:10267000890603D5204601F0A7FB20684069616CFC
:1026800000F0400001F00801401847D12046FFF754
:10269000BAFF00206064C9E0930601D58B0654D4CC
:1026A000236B012B03D1D30601D5CB0652D41306DD
:1026B00001D50B0611D4520640F1B880490640F10D
:1026C000B580C16821F04001C160202084F841003C
:1026D0002046BDE87C4000F091B994F841102129D2
:1026E00040F0A480A168B1F5805F03D12169002981
:1026F00000F09D80216A4A1C226209784160E18CC9
:102700000139E184090440F09180C16821F0800121
:10271000C160C16841F04001C1607CBD204601F04C
:1027200032FB00F0C8FF4DD500F073FFFCD1E06B29
:10273000002847D042494163FFF7B8F9002875D017
:10274000E06B416BBDE87C4008472046BDE87C401B
:1027500001F03ABB002101910168019141680191AA
:1027600001994069400632D4E08DA18DE28D002AA6
:102770005CD081425AD0081A216851E8031F2268B0
:1027800021F4907142E80313002BF5D1216851E840
:10279000051F226821F0010142E80513002BF5D145
:1027A000202184F8421000212163216851E8031F91
:1027B000226821F0100142E80313002BF5D1022119
:1027C00061632DE02046BDE87C40FFF71CBFE06B55
:1027D000016849688AB24AB3A38D9A4226D2E1853C
:1027E0008069202817D000F072FF20F4807000F07C
:1027F000D1FFF8D100F0E8FEFCD100F00AFFFCD1D7
:10280000202084F842000020206300F076FFFCD1F5
:10281000E06BFFF72BF902206063A08DE18D401A79
:1028200081B22046BDE87C40FFF7ECBE7CBD216A4A
:1028300031F8022B6FF35F22216242605FE700BF35
:102840007B3D000890B110B5044690F8410008B9EE
:1028500000F0BFFF00F082FF2068016921F4904181
:102860000161416921F02A0100F0A5BF01207047F4
:1028700070B586B01C4C00680026049604F54051E3
:1028800088422FD11948016841F4804101600168F4
:1028900001F4804101910199016841F00401016056
:1028A000006800F0040001900320059002200390CE
:1028B0004FF400700290019802AD20462946FFF7C0
:1028C00055F94FF480602946CDE903660290204611
:1028D000FFF74CF9252002210022FFF793FA25206B
:1028E000FFF780FA06B070BD0008014018100240E2
:1028F00010B590F84230202B06D139B132B1002406
:10290000046301F003FB02E0022400E001242046FE
:1029100010BD000010B5044600680D49884218BF7C
:1029200010BD0C48D0E90112891AC822C83191FBA8
:10293000F2F303FB1211C62902DC007801F076FBEA
:10294000044920460122BDE81040FFF7D1BF00BF77
:1029500000380140000100202DE9F843044690F8BA
:10296000410020281CBF0220BDE8F8838846B1B191
:102970001746A2B100201D466064212084F8410062
:10298000FFF7D2F9E7840646A784A068B0F5805F18
:1029900001D1206930B14FF00009474604E0012021
:1029A000BDE8F8830027C146E08CB8B120468021FD
:1029B00032462B4601F0C3FAB8B927B117F8010B1C
:1029C0002168486006E039F8021B206800276FF391
:1029D0005F214160E08C0138E084E5E7204640213A
:1029E00032462B4601F0ABFA10B10320BDE8F88364
:1029F000202084F841000020BDE8F8837047FEE7FE
:102A00002DE9F843DFF8589407462A2098461546E2
:102A10000E46C847074C3846A0472846A0472B20FB
:102A2000C8473046A0474046A0472C204946BDE84D
:102A3000F8430847C532000810B5144602460B4655
:102A4000FFF7DEFF2046BDE8104000F03BBC000071
:102A5000F8B50746501E14461D460E4682B2581E53
:102A600083B23846FFF7CCFFA81B069B114DC7F178
:102A7000010100220130B2F5F07F03D025F81230B9
:102A80000132F8E721440B4D00FB01F4B4F5F07F6F
:102A900007D328464FF4F07100F032FCA4F5F0742F
:102AA000F4E72CB103482146BDE8F84000F028BC0B
:102AB000F8BD00BF8C06002070B5ADF58F6DE54800
:102AC0004FF40054E44D04606420A847E34E6420B2
:102AD000C6F80048A8474FF4004030606420A8477B
:102AE000DF4DEF20A847EB20A847DE4E1420B0476B
:102AF000FE20A847EF20A847EB20A8471420B047A6
:102B00008420A8474020B0478520A847FF20B04731
:102B10008620A847FF20B0478720A847FF20B0475E
:102B20008820A8470A20B0478920A8472120B0471D
:102B30008A20A8470020B0478B20A8478020B047B4
:102B40008C20A8470120B0478D20A8470120B0471E
:102B50008E20A847FF20B0478F20A847FF20B0470E
:102B6000B620A8470020B0472020B0473620A8470D
:102B7000BD4992A8012202F003FB08B1BBA008E006
:102B800007A8C3A1012202F023FB002800F03F8127
:102B9000C7A0FDF7CFFDA820C0B2B04707A802F03C
:102BA0006FFAB14992A8002202F0EAFA3A20A84747
:102BB0000520B0479020A8470820B0470820B0471C
:102BC0000820B0470820B047BD20A8470620B047DE
:102BD000BC20A8470020B047FF20A8476020B0478E
:102BE0000120B0470420B047C320A8471320B047B6
:102BF000C420A8471320B047C920A8472220B047C7
:102C0000BE20A8471120B047E120A8471020B047B8
:102C10000E20B047DF20A8472120B0470C20B04746
:102C20000220B047F020A8474520B0470920B04710
:102C30000820B0470820B0472620B0472A20B047D8
:102C4000F120A8474320B0477020B0477220B0471A
:102C50003620B0473720B0476F20B047F220A84752
:102C60004520B0470920B0470820B0470820B047AA
:102C70002620B0472A20B047F320A8474320B0477A
:102C80007020B0477220B0473620B0473720B04799
:102C90006F20B047ED20A8471B20B0470B20B0475E
:102CA000AE20A8477720B047CD20A8476320B04783
:102CB0007020A8470720B0470720B0470420B0473E
:102CC0000E20B0470F20B0470920B0470720B0477B
:102CD0000820B0470320B047E820A8473420B04779
:102CE0006220A8471820B0470D20B0477120B04798
:102CF000ED20B0477020B0477020B0471820B04793
:102D00000F20B0477120B047EF20B0477020B04788
:102D10007020B0476320A8471820B0471120B04763
:102D20007120B047F120B0477020B0477020B04705
:102D30001820B0471320B0477120B047F320B047A8
:102D40007020B0477020B0476420A8472820B047C3
:102D50002920B047F120B0470120B047F120B0470B
:102D60000020B0470720B0476620A8473C20B04766
:102D70000020B047CD20B0476720B0474520B0477E
:102D80004520B0471020B0470020B0470020B04792
:102D90000020B0476720A8470020B0473C20B0473C
:102DA0000020B0470020B0470020B0470120B047C6
:102DB0005420B0471020B0473220B0479820B04789
:102DC0007420A8471020B0478520B0478020B04726
:102DD0000020B0470020B0474E20B0470020B04749
:102DE0009820A8473E20B0470720B0473520A84785
:102DF0002120A8471120A8477820FEF7A7FE292008
:102E0000A8471420FEF7A2FE0DF58F6D70BD02AC31
:102E100014212046FDF7E5FC07A801AB214614224A
:102E200002F0B8FA2CA12046FDF7AAFC3D21FDF7DF
:102E30009DFC01302BA16A46FDF7B8FB00980328E2
:102E4000BFF4A9AE284901EAC000284921FA00F0E0
:102E5000A2E600BF141001404D1B000810080140FD
:102E600025330008E9320008FDA300085B4C434409
:102E70005D204661744653206D6F756E74207364D7
:102E80002063617264206661696C6564210D0000D5
:102E900055534253445F4743394130312F436F6E9E
:102EA0006669672F6763396130312E636F6E660024
:102EB0005B4C43445D206F70656E2066696C6528CD
:102EC0006763396130312E636F6E662920666169F0
:102ED0006C6564210D000000484F52495A4F4E5412
:102EE000414C000025640000F8FFFF0008C868009E
:102EF0002DE9F04F87B0119E824690461C460D4644
:102F0000069100EB5600013882B28819013883B26D
:102F10005046FFF775FDA6F10C0001237508C1B2FC
:102F2000800140EA910031096A0718BF03EB1611CE
:102F30007143C2B237480027002356460491A8F1D6
:102F40002001DDF848800392C9B200EB0110029124
:102F500001902E4800EB811000900498834251D2DA
:102F6000052A4FD80593DFE802F0030A4D0C4D13F4
:102F70000298294900EB400001EB800009E001982C
:102F800007E00298224900EB400001EB001000E04E
:102F9000009818444FF0000B90F80090BBF1080F18
:102FA0002CD0012000FA0BF0B8F1000F00EA090064
:102FB0000DD028B10699B0B2224689B2FFF73CFD88
:102FC0000136B0B2A0EB0A00A8420ED110E00028F2
:102FD0002046109908BF084600F074F90137F8B28E
:102FE000B0FBF5F101FB150038B10BF1010BD5E792
:102FF000069856460130069000E00027059B039A8C
:103000000133AAE707B0BDE8F08F00BF128C0008BB
:10301000427A000852740008DE6F00082DE9F04F74
:1030200089B0CDE90601304910461C4603F0CAFDBF
:1030300003F098FD089014984FF0000A400805909E
:103040005FFA8AF85FFA84F9C14549D96FEA0A0044
:103050002044C0B202F043FF0146A9F102004045FE
:103060001BD11398DDE90579079D149E4FF0000BE5
:1030700004912E22CDF808B0009008FB0790B846C6
:10308000129F2946019680B23B46FFF731FF049913
:10309000139A01340AF1010A07E0149E079DDDE945
:1030A0000589DDE912724FF0000B08988DE844089D
:1030B0003B46B0FBF1F00A21B0FBF1F101EB8101DD
:1030C000A0EB41015FFA8AF000FB089041F030016B
:1030D000CAB2294680B2FFF70BFF0AF1010AAFE737
:1030E00009B0BDE8F08F00BF0000C8422DE9F04FE5
:1030F00085B0074610981C460E464FF000084FF06A
:1031000000094FF0000A4FF0000B04924508581ECA
:1031100003904C4539D06FEA0B002044C0B202F056
:10312000DEFE0499B1FBF0F00A21BAF1000FB0FB0A
:10313000F1F101EB8101A0EB410106D10398484573
:1031400003DD080417D04FF0010A0F9841F0300159
:10315000CAB231460090109801900020029008EB0E
:10316000070080B20E9BFFF7C3FEA8440BF1010BD2
:1031700009F10109CDE70F984FF0000A31462022EE
:1031800000901098CDE9010AE9E705B0BDE8F08F9D
:103190002DE9FE4FDDF83480DDF838A0DDF830B0E1
:1031A000994615460E4607464FEA58042A785AB102
:1031B000B8B231464B46CDE900B8CDF808A0FFF7CC
:1031C00097FE27440135F1E7BDE8FE8F2DE9FF4763
:1031D0000025FEF7A9FD064642F210770024BD4205
:1031E00007D8A0B200F07DFAFEF79EFD851B0134E2
:1031F000F5E7274E4FF000094FF0100A4FF6FF7722
:103200001FA2142068214FF478434FF47848CDE989
:10321000007ACDF80890B0471EA21420782100F063
:10322000C4F920A21420882100F0BFF9A2B28620A0
:1032300088210523CDE90087CDF808A0FFF756FFC8
:103240001CA21420982100F0B0F9204603F0A6FC3F
:103250000446284603F0A2FC194903F0C1FB0146CD
:10326000204603F0BDFB02465C2098210523CDE9F2
:103270000087CDF808A0FFF7D1FEBDE8FF8700BFAB
:103280006C63642074657374206F6B210000000010
:1032900091310008746573742074696D653A20314A
:1032A00030730000746F74616C206672616D653AF2
:1032B000200000006C6364206670733A20000000F8
:1032C00000007A4470B51D4D044610204FF48076FE
:1032D000C5F80004200A6E6000F032F8E0B200F099
:1032E0002FF82E6070BD00BFB0B5144C10214FF404
:1032F0008075C4F80014656000F022F82560B0BD48
:1033000070B50E4E00F048F944B1687800F018F836
:1033100015F8020B00F014F8013CF5E74FF480704B
:10332000306070BDB0B51149044C10224FF4807567
:103330000A60656000F004F82560B0BD1008014027
:103340004FF470410201084B61F31F1005495850BA
:1033500002F17060202120F0F00018600348016045
:103360001960704700FCFFFF100C0140140C014075
:1033700070B500260FA418A500F088FAA8B1302E69
:1033800084BF4FF0FF3070BD01462046FCF790FF30
:103390004FF4FA70FEF7DAFB2846FDF7CBF94FF44D
:1033A000FA70FEF7D3FB0136E6E70FA0FDF7C2F98E
:1033B000002070BD534420696E697469616C697A3C
:1033C00065206572726F7220636F64653A20307891
:1033D0002532580D0A000000506C6561736520436A
:1033E0006865636B210D0000534420696E69746940
:1033F000616C697A652073756363657373210D0071
:1034000010B5034C0348611CFEF73EFA207010BD56
:1034100054010020740000202DE9F04F85B037489A
:10342000384D01224FF400574FF00108016841F078
:1034300010010160016801F010010191019901681A
:1034400041F020010160016801F020010191019922
:10345000016841F004010160016801F0040101917B
:103460000199016841F0080101604FF400510068C2
:1034700000F0080001900198214800F5006681469F
:103480003046A847484648F20F110122A84709F5DF
:10349000806441F2C10100224FF0000A2046A84793
:1034A000204640F63A710122A84701A84FF0030BCD
:1034B000154D80E8800D01AF30463946A84702A877
:1034C000394680E8000D48F20F1001904846A847A1
:1034D00002203946CDE9028A049041F2C3000190EE
:1034E0002046A84702A8394680E8000D40F638700B
:1034F00001902046A84705B0BDE8F08F18100240A3
:10350000000801401D1D00086D1B0008F8B50F489C
:1035100000220A210E4F4FF482764FF400730124EB
:103520000225C0E90A213821C0E90822C0E9007655
:10353000C0E90222C0E90454C0E90631FEF7F8FEF2
:1035400018B1BDE8F840FEF79BB9F8BD340600207D
:103550000038004010B5B84C0D490C224FF4E1334F
:10356000204640F80C1F0021C0E90131C0E90311D9
:10357000C0E90521C161FFF765F908B1FEF780F9DF
:1035800004F10C0021460122BDE81040FFF7B0B95C
:1035900000380140FEE7FEE7054610200C46C6F85D
:1035A00000044FF48070706070474FF47843CDE9A9
:1035B000007ACDF808903047306820F480303060D1
:1035C000306820F480207047206850E8050F21689B
:1035D00020F0010041E80502002A704700F5007064
:1035E00002F016B80021012200F06EBA4FF06A51C5
:1035F00003F0E8BA306A20F001003062306A20F04F
:103600000400704700F01F010122C0B202FA01F16C
:103610007047206850E8050F216820F0400041E81D
:103620000502002A704794F8060200F0BF0084F8F3
:1036300006027047012200F047BA016851E8051FF1
:10364000026821F0010142E80513002B7047016870
:1036500051E8031F026821F0100142E80313002B18
:103660007047DAF80002DAF8101202F06BBB95F836
:1036700002220BEB070195F80102914270470446C4
:1036800090F8500001287047013800EA51205FFA95
:1036900080FBBBF1000F704794F8060240067047AC
:1036A000044602F040BD0870A06B0130A063E08FBB
:1036B0000138E0877047206840694006704737F856
:1036C000021BC1602763E08E0138E08670472068E6
:1036D00050E8030F21687047016841F04001016024
:1036E00070470021F022F02300900020FFF7B0B9CE
:1036F000706800F00C0008287047206850E8030F3D
:10370000216820F0100041E80302002A70474FF4BE
:10371000007001F063BFFF2000F04CBA20688168A0
:103720008907704721F8020BA163E08F0138E08719
:1037300070470F4684F85000FEF7F6BAD4F800023E
:10374000D4F8182221460123012590F8010201F046
:1037500087BC0446681E290405467047242084F867
:1037600041002068C16821F40051C160204600F08A
:103770008BBB204602F0E6BA4FF480510122FEF7DF
:10378000CDBA002000902068C16800918068009048
:103790000098704741E80302002A704720464FF422
:1037A000007100F03DB90173206B01302063E08EA1
:1037B0000138E08670474161C16841F40051C16041
:1037C00000202021606484F8411084F84210606376
:1037D00010BD002084F840002046FFF749B8C4F827
:1037E000100294F8050240F0010084F805027047C9
:1037F0000B2202F099BAD4F80002D4F8101202F0A9
:10380000A1BA704710B50C49D1E90120121A02F192
:10381000C803C82293FBF2F404FB1233012BBCBF94
:103820004FF0FF3010BD431C93FBF2F404FB123247
:103830008A600249085C10BD00010020E5010020FB
:1038400080B58D48FFF798FFFF20BDE8804000F06D
:10385000B1B900BF2DE9F04104464FF6FF784FF6AD
:10386000FF77B8B23E4600EB0807B8B2C51B18BFD9
:103870000125FFF750FFA04218BF002DF1D1300401
:103880004FF0000008BFFF20BDE8F0817CB57A480A
:10389000FFF772FF00F0DDF800240A2C03D2FFF7D7
:1038A0003AFF0134F9E7142500200021952200F0A9
:1038B0000BF9012803D0FFF74CFFF5D15CE0BC4CBD
:1038C00000204FF4D57187222070082000F0FCF80A
:1038D000012808D1002401AD042C1ED0FFF71BFFE6
:1038E00028550134F8E7372000210122012600F095
:1038F000EBF82920FFF776FE4FF6FE75012826D853
:10390000022020703720FFF76DFE2920FFF76AFEA6
:1039100030B3FFF71EFFF5D128E09DF80600012423
:1039200001282CD19DF80700AA2828D14FF6FE7651
:103930003720FFF757FE29204FF08041FFF77AFE2E
:10394000044658B3701E31040646F1D128E02670B3
:103950000120FFF747FE18B1FFF7FBFEF8D105E0A5
:1039600028044FF000044FF0000006D010204FF460
:103970000071FFF75FFE10B100208D490870FFF75E
:103980005FFF00F063F88A48002C08BF6FF0550411
:103990000078002818BF0024E0B27CBD300414D0A9
:1039A0003A20FFF71FFE0028E9D10026042E04D09C
:1039B000FFF7B1FEA8550136F8E79DF80400400670
:1039C0004FF0060058BF0420D7E70024D7E700BF18
:1039D00070B5044676480078062818BF4902012AC7
:1039E00008D11120FFF726FE0646A0B9FFF7D6FE44
:1039F000064610E015461220FFF71CFEFFF7CEFE2C
:103A0000013D0646280603D004F50074002EF5D0CB
:103A10000C20FFF7E7FDFFF713FF304670BD00BF36
:103A2000B0B50546FE200C46FFF714FF30B101206B
:103A3000B0BDFFF770FE05F8010B013C2004F8D182
:103A4000FFF769FEFFF767FE0020B0BD002000F021
:103A5000C3B8382000F0C0B810B507484FF4805103
:103A600000220024FEF75AF900F05CF810B1FFF7CD
:103A7000E7FE0124204610BD000C0140B0B50D4604
:103A8000044600F04FF808B10120B0BD284600F010
:103A900091F8FD2D15D00025B5F5007F04D0605DAF
:103AA00000F088F80135F7E71D4CFF20A047FF2004
:103AB000A047FF20A04700F01F0005281CBF0220E0
:103AC000B0BD0020B0BD00BFF8B515460E46044697
:103AD000FFF7B6FEFFF7C0FF08B1FF201EE0104F52
:103AE00044F04000B847300EB847C6F30740B84727
:103AF000C6F30720B847F0B2B8472846B8470C2CA1
:103B000001D1FFF708FE1F24FFF705FE40B2B0F118
:103B1000FF3F03DC611E22060C46F5D1C0B2F8BDA2
:103B2000B53B000810B56FF07F44FFF7F4FDFF28A8
:103B300004BF002010BD013C04BF012010BDF4E70C
:103B400070B504461A480E460078062818BF76025B
:103B5000012A08D118203146FFF76CFD064610BB3C
:103B60002046FE211CE01546012806D03720FFF72D
:103B700039FD17202946FFF75DFD19203146FFF773
:103B800059FD064678B902E004F5007430B92046C4
:103B9000FC21FFF773FF013D2906F5D10020FD212F
:103BA000FFF76CFF0646FFF74BFE304670BD00BFC7
:103BB000E4010020E0B58DF807004FF47A700DF1B4
:103BC00007010DF10602012300900D48FEF73EFCAF
:103BD0009DF806008CBD00BF09494FF6C773096800
:103BE0000A6822F040020A600A681A400A600A68FD
:103BF00010430860086840F040000860704700BF4C
:103C00003406002010B513460A468021044600F011
:103C100009F828B1606D40F020006065032010BDF8
:103C2000002010BD2DE9FC411E4617460D4680467A
:103C3000FEF77AF8301AC419FEF776F806462548DA
:103C400001370068C0F3CB3060430190D8F8000022
:103C500081682940A9420ED1002FF9D0FEF764F8FF
:103C6000801BA0420AD201980199013901910028D4
:103C700008BF0446EAE70020BDE8FC81D8E900015E
:103C80004268B1F5827F22F0E00242600BD1D8F8A1
:103C90000810B1F5004F02D0B1F5806F03D1016873
:103CA00021F040010160D8F82810B1F5005F07D17C
:103CB000016821F400510160016841F40051016084
:103CC000002088F85000012088F851000320BDE84A
:103CD000FC8100BF70000020704782B018B5044618
:103CE0000120CDE9032394B1032910D103A800F1E9
:103CF0000C010091039949B150F8042F32B1059B92
:103D000023B1002084E80E00E06000E00120BDE85F
:103D1000184002B07047FEF70BB8B0B590B04FF442
:103D2000E010002402250F904FF48030CDE90B44C1
:103D3000CDE909440D950E90CDE9070401200690C8
:103D40000A9006A8FEF776F918B1EFF3108072B664
:103D5000FEE74FF4806005940221CDE903400F2077
:103D6000CDE9010501A8FEF785F818B1EFF3108041
:103D700072B6FEE710B0B0BD7047406A0021C18541
:103D8000C184FEF740BC016851E8031F026821F4BA
:103D9000907142E80313002BF5D14DF808EDFFF7C1
:103DA0004CFC5DF808EBF8D1016B012906D14DF808
:103DB00008EDFFF74CFC5DF808EBF8D1202180F806
:103DC000421000210163704781B090F8421022290F
:103DD00020D183680246B3F5805F08D152F8281FCE
:103DE00052F8183C002B43D003685B6809E052F896
:103DF000281F13B90369002BF6D003685B6803F032
:103E00007F030B70116801311160C18D0139C185CB
:103E1000090401D001B070470168CA6822F020028D
:103E2000CA60CA6822F48072CA604A6922F001023C
:103E30004A61202180F8421000214163026B012A6F
:103E40001ED101634DF808EDFFF701FC5DF808EBAA
:103E5000F8D101680A68D20606D5002200920A68E5
:103E60000092496800910099818D01B0FEF7CABBAC
:103E7000026852686FF35F2221F8022B8162C4E767
:103E800001B0FEF747BD0000B0B50446006804F17C
:103E900008030ECB056925F4405519432A4341F226
:103EA0000C650261C2686369AA4319431143C1608A
:103EB0004169A26921F4407111434161114988426D
:103EC00002D0FEF775F801E0FEF77CF819214843AF
:103ED000D4E900120C4C9200B0FBF2F06422B0FB6B
:103EE000F2F303FB0400322404EB0010B0FBF2F009
:103EF00000F0F00200F00F0002EB031210448860A3
:103F0000B0BD00BF003801409CFFFF0F0023C285F9
:103F1000436481622221828580F842100168006931
:103F200018B1C86840F48070C860486940F001006A
:103F30004861C86840F02000C860002070472DE943
:103F4000F0411D4690460F4604465E1C20680068FE
:103F50003840B8421DD0002EF8D02DB1FDF7E4FE58
:103F6000A0EB0800A842F1D9FFF7B1FB20F4D07014
:103F7000FFF710FCF8D1FFF727FBFCD12020002130
:103F800084F8410084F8401084F842000320BDE822
:103F9000F0810020BDE8F0810148FEF735BB00BF8D
:103FA0000C01002010B50121174C217068B9FFF7F2
:103FB000DFF908B1022108E0012046F273412070C8
:103FC000002020700248018021782170207810BDE7
:103FD000550100200120704708B10120704780B5CD
:103FE000DBB2084611461A46FFF7F2FC002818BF5C
:103FF000012080BD0449012200280A7018BF012059
:1040000008700878704700BF6C00002008B10120DC
:10401000704780B5DBB2084611461A46FFF790FD9F
:10402000002818BF012080BDFEE70000B0B50D4993
:10403000D1E90123D31A03F1C804C82394FBF3F593
:1040400005FB1344C62CC4BF4FF0FF30B0BD064C77
:10405000A054501C90FBF3F202FB130048600020B8
:10406000B0BD00BF00010020E501002058B351B3EE
:104070004AB343B3F0B5DDE90554DFF84CC0154E43
:10408000154FC0E90E12174A1C49C0E9103580F8D7
:1040900048400E4C0E4D114BC0E90837C0E90A6587
:1040A000C0E90C4CDFF838C0134F0F4B0F4C104DCC
:1040B000104EC0E90017C0E90265C0E90443C0E939
:1040C000062CBDE8F0407047694600088D450008A1
:1040D0003D4600087745000895410008D544000892
:1040E0007B4400086D4300088F46000881460008A5
:1040F00071440008654400083942000899420008EC
:104100007CB5069D042D14D30446DDE90760CDE996
:1041100000602046FFF7AAFF2846256500F0C2FA96
:10412000E06430B1226D0021002500F0C7FA65651A
:1041300000E0012528467CBDFEB5089D15B1099E0D
:10414000042E01D2012710E00446DDE90A70CDE912
:1041500000702046FFF78AFF284600213246C4E956
:104160001356002700F0AAFA67653846FEBD000026
:104170000648BFF34F8F064A016801F4E06111431E
:104180000160BFF34F8F00BFFDE700BF0CED00E003
:104190000400FA0582B02DE9F04792B00DF1040950
:1041A0008A4605460DF168084021CDE91A234846A4
:1041B000CDF84480FCF715FB119B48464021524640
:1041C000FCF758F8044640284E4611D3671C384681
:1041D00000F068FAB0B100213A46064600F06EFAE7
:1041E0003046394652464346CDF84480FCF742F803
:1041F000AA6A2846314690474E4504D0304600F022
:104200004DFA00E00024204612B0BDE8F04702B0AD
:104210007047000080B5074802210122FDF77EFDAE
:10422000002080BD80B5034802210022FDF776FD05
:10423000002080BD000C01402DE9F047036889464D
:1042400082469847DFF8B0830024DAF83800414608
:104250000122005900F02AFAB0B1DAF83800075903
:104260003846FCF79FFAD9F8005006462846FCF776
:1042700099FA864298BF064638462946324600F0EB
:1042800015FA20B10C34E0E70020BDE8F087DAF839
:1042900038002044BDE8F0872DE9F84F81460846F4
:1042A00015460C4600F03FF92F492846FCF758FA0E
:1042B000CCB10646206818B100F0F0F9002020606B
:1042C0003046FCF76FFA451C0746284600F0EAF92D
:1042D000206040B100212A4600F0F0F92068314604
:1042E0003A4600F0E5F9DFF880804FF0000A00263A
:1042F000D9F8081048468847864232D20020414605
:10430000FCF72EFA68B354B307466068022826D833
:1043100004EB8000806830B100F0C0F9606804EB05
:104320008000C0F808A03846FCF73CFA451C8346DC
:10433000284600F0B7F9616804EB8101886070B12C
:1043400000212A4600F0BAF9606839465A4604EB63
:104350008000806800F0ACF9606801306060013670
:10436000C6E70020BDE8F88F36A4000810B5044663
:1043700015480021322200F0A1F9601E052808D856
:10438000DFE800F0030B0F13171B0F48334910220F
:1043900016E00D4832490C2212E00B4829A11622E2
:1043A0000EE0094821A117220AE0074817A12022A0
:1043B00006E005480CA1242202E0034803A11C22C8
:1043C00000F076F9004810BD5C03002041542074D1
:1043D00068697320737472696E672063616E2774F5
:1043E00020626520637574004154207468697320ED
:1043F000737472696E6720636F6D6D616E64206E99
:104400006F74206861766520616374004154206E8A
:104410006F742066696E64207468697320737472A7
:10442000696E6720636F6D6D616E64004154206F2B
:104430007574707574206465766963652065727241
:104440006F720000415420696E7075742064657647
:10445000696365206572726F720000003AA40008FB
:104460004AA4000808B1406C70474FF0FF30704715
:1044700008B1806B70470020704770B586B008B3F4
:10448000054600200C460221019001AA052903D00F
:1044900042F821000131F9E70020029001AE3046D8
:1044A00000F041F86B68284631462246984758B1DB
:1044B000816859B101AD284688470446284600F076
:1044C00032F804E0012402E0042400E00524204640
:1044D00006B070BD70B50446C06B41688847C8B16E
:1044E000E06B8168884794F84820C1B2002801D465
:1044F0008A4211D18A420DD1E269E16C204690478F
:104500000546D4E913020021002600F0D7F828461A
:10451000666570BD022070BD626DE06C531C636502
:104520008154002070BD28B3F8B50446006818B166
:1045300000F0B4F80020206004F1080500260027F0
:104540006068874208DA55F8270018B100F0A6F82D
:1045500045F827600137F3E704F10C010022431C02
:10456000032B03D241F820201846F8E700206060B2
:10457000BDE8F840704718B1006C20B102681047E0
:104580004FF0FF3070476FF001007047F8B51A4EDA
:10459000C26A0D46044631469047284631460122FC
:1045A00000F084F8636A20B114A120462A46984797
:1045B00002E016A120469847A06B0F49012200682F
:1045C00000F074F888B10C4D002713A6A06B2946A3
:1045D0000122C05900F06AF858B1A06B636A3146F5
:1045E000C259204698470C37F0E7E26A0CA12046F2
:1045F00090470020F8BD00BF55A4000874686520EE
:10460000736574282573293A200D0A0074686520A3
:104610007365743A200D0A002D2D25730D0A0000D4
:1046200068617665206E6F7468696E6720415420FA
:10463000636F6D6D6F6E642100000000B0B570B1E6
:10464000826A054690470446002809D4AA6A05A153
:1046500028469047002858BF2044044600E0012423
:104660002046B0BD0D0A000080B5436A0A4602A18B
:104670009847002080BD00BF41542B7B25737D00EF
:1046800018B111B1C163002070470120704718B103
:1046900011B10164002070470120704701460020DD
:1046A00001F0E8BB0146002001F0EEBB01F0FCBBCD
:1046B00010B5044601F005FC204610BD10B5C9B286
:1046C000044601F006FC204610BD000080B55348AA
:1046D0002B49426C10309047002080BDF8B504464D
:1046E0004068012825D1A068FCF75CF8471C064605
:1046F0003846FFF7D7FF18B300213A460546FFF7C3
:10470000DDFFA16828463246FFF7D2FF124E294648
:10471000F2693046904704462846FFF7BFFF94B140
:10472000042C12D1326B0D4930469047042415A158
:104730000CE009480949026B9047012408A105E0F3
:1047400001240BA102E00E4900E013A13348426CA2
:10475000103090472046F8BD04030020D2A3000883
:104760006572726F72206279206172676300000067
:104770006572726F72206279206D616C6C6F63007C
:10478000E0A300086572726F72206279206E6F7408
:1047900020666F756E6400006572726F72206279B8
:1047A000206172677600000080B5034803A1026CA7
:1047B00010309047002080BD64010020617400002B
:1047C00080B5FDF755FB002080BD00001FB51248E5
:1047D000124C134A134B032100902046FFF77DFA39
:1047E000C0B900201149224623460290642001905E
:1047F0000D482431009004F11000FDF71EF848B96F
:10480000064A0A200121CDE900100948074913464C
:10481000FCF7E7FF04B010BD7548000864010020F4
:1048200041480008354800088E030020040000209D
:104830000403002008B1FDF70BB94FF0FF307047BB
:10484000B0B580B108460D46FBF7ACFF044682B216
:10485000074829464FF6FF73FEF77EF8002818BF79
:104860006FF0010401E04FF0FF342046B0BD00BFFF
:104870000C01002008B1FEF7C5BF4FF0FF307047B4
:1048800010B504464FF0FF30C4F82C02002084F825
:104890000402FEF76EFF08B1032010BDB4F8FE015C
:1048A0004AF6552188421CBF022010BD94F83710EB
:1048B00094F8382094F83600090241EA0241014494
:1048C0000948814204BF002010BD94F8532094F899
:1048D000543094F85210120242EA03421144081A6A
:1048E00018BF012010BD00BF464154000246107899
:1048F00020B10132884208BF7047F8E700207047B6
:10490000F0B5694B00220024182A14D09D587DB1BF
:10491000D0F80062B5420CD19D18D0F808726E68CC
:10492000BE4206D12E89B0F80672BE4201D10BE01C
:1049300001240C32E8E71222002C18BF0022881E46
:1049400018BF1046C0B2F0BD09B11020FAE768895F
:10495000A0F58070B0FA80F040090001F2E700BFD6
:1049600010B5514A00210023182B08BF10BDD458A0
:10497000844208BFD1500C33F6E700BFD0F80022C4
:10498000D0F82432490A92F80202B1FBF0F0191D66
:104990000A6822B1904204D3801A0831F8E7002057
:1049A0007047496808447047D0F814220239023A27
:1049B00091422FBF0020D0F8282290F8020201FB7C
:1049C00000207047F8B50D46044691B120462946AF
:1049D00001F082F802283CBF0120F8BD411C04BF51
:1049E0004FF0FF30F8BDD4F814122F46884208D299
:1049F000F8BDD4F80C721FB1D4F81402874200D36A
:104A000001273E46D4F814020136864228BF02260A
:104A100001D3022F0AD32046314601F05DF8411C34
:104A2000E6D028B10128E3D0BE42EBD10020F8BD8A
:104A3000204631466FF0704201F05BFA014635B115
:104A400029B920462946324601F053FA014629B1D8
:104A50000120012908BF4FF0FF30F8BDD4F8100243
:104A6000C4F80C62411C02D00138FEF7B8FE304693
:104A7000F8BD000010B50138012884BF022010BD28
:104A8000094A00EB400102EB8100438923F4807462
:104A9000002C18BF5C1E448120044FF0000008BFAA
:104AA00042F8210010BD00BFCC01002070B50C46BB
:104AB0000021054600F04EFAD0B90026D5F80002D4
:104AC000D5F8101201F03EF990B9D5F8140200782B
:104AD000E52800D028B90136A64204BF002070BDE9
:104AE00000E000262846012100F09EF80028E5D0CD
:104AF000042808BF072070BD2DE9F84F00210446A7
:104B000000F028FA08B1BDE8F88F4FF0FF30FF271A
:104B10004FF6FF7B4FF00D09FF26A4F82402FEF7A5
:104B20006AFE0028EFD1D4F814522878E52808D07E
:104B3000002875D0EA7A02F03F0112070BD50F2941
:104B400009D0A4F824B2FF272046002100F06CF819
:104B50000028E4D0D7E70F290AD1D4F82082B8F191
:104B6000000FF1D0410618D4F9B28842EBD11BE016
:104B7000380604D1284601F05BFA86424DD0D4F8BD
:104B80001802C17AC907DCD100210B2945D0425C4B
:104B90006B5C01319342F8D0D3E7B4F806126E7B18
:104BA00000F0BF07A4F82412687B8642CBD1287896
:104BB000009601264FF0000A00F0BF0000FB09F04C
:104BC000A0F10D09E24810F80A00285A80B276B127
:104BD00000F00CFDB9F1FE0F18D8064638F81900A0
:104BE00000F004FD864211D109F1010902E05845A7
:104BF0000CD100260AF1010ABAF10D0FE2D1287892
:104C0000400605D526B138F8190008B1FF2700E0A5
:104C1000013F009E4FF00D0996E70020BDE8F88F98
:104C20000420BDE8F88F00BF2DE9F0470446B0F836
:104C30000602451C28042BD0D4F8100240B315F00E
:104C40000F0909D0D4F8006206EB4910A4F8065207
:104C50000027C4F814021CE00F46D4F80C120130EF
:104C6000C4F8100271B1D4F8006296F8020201385B
:104C700010EA151FE8D1304600F02EFF02280BD2B3
:104C8000022706E0D4F80062B6F808028542DBD3BA
:104C90000427F8B2BDE8F0878046013025D0D4F86B
:104CA0000062D6F81402804508D230464146C4F866
:104CB0000C82FFF779FEC4F81002C5E7002FE7D099
:104CC000D4F80C123046FFF77DFE804601300328F1
:104CD00006D21D4901EAC0001C4921FA00F7D8E7B5
:104CE000D4F8000201F0F2F908B10127D1E7D4F8B5
:104CF000000200214FF400724FF0000A01F01CF88E
:104D0000D4F8006241463046FFF74EFE0127C6F850
:104D10002C0296F802128A4510D2304686F80472A8
:104D200001F0D4F90028B4D1D4F800620AF1010AE4
:104D3000D6F82C020130C6F82C02EAE7A0EB0A00F4
:104D4000C6F82C02B1E700BFF8FFFF000107020020
:104D50002DE9F04F87B0D0F818528246D0F820B233
:104D600002A80C22294600F0DFFF9DF81310C807A7
:104D700003D1880756D401255EE0744E002001243B
:104D80000DF114094FF07E080191E872CAF8200273
:104D9000642C00F0CB80284602A9FEF729FD062CE2
:104DA0002146584610D3028872B1102353B102F045
:104DB000010747EA4107090448BF7740013B520811
:104DC0003946F3E70230EEE7072006231A4601F0E2
:104DD0000F0303F13007392F88BF03F1370709F8B4
:104DE00000700138531E0909F0D1002109F8008034
:104DF0002AB16B5C202B03D0013A0131F8E7014660
:104E000007289ABF19F80020013020226A54013186
:104E10000829F5D35046FFF76FFE002840F0848044
:104E20000134B5E700203BF8101001300029FAD119
:104E300018300D21B0FBF1F550462946FFF736FE3C
:104E40000746002873D1B5F1010952D0BAF806021D
:104E5000A0EB0901504600F07DF80746002866D116
:104E6000DAF8180201F0E4F8394D83464FF6FF7680
:104E70004FF00108FEF7F5FB002864D1DAF81402C0
:104E80000F23DAF820120D2400220027A0F80B309F
:104E90005FFA89F3428380F80DB063430D3BBFB2E4
:104EA000AC5CB7421ABF31F8137001334FF6FF778D
:104EB000075317B10C2A04D105E00C2A4FF6FF77EF
:104EC00008D00132EBE7B74204D031F813100029C3
:104ED000494601D149F0400101700021DAF8000291
:104EE00080F804825046FFF79FFE60BBB9F10109CC
:104EF000C0D1FEF7B6FB0746C8B9DAF814020021A4
:104F00002022002700F018FFDAE98501FEF770FC87
:104F1000DAE98501C97A01F0180101730121DAF893
:104F2000000280F8041202E0642C04D107273846FE
:104F300007B0BDE8F08F07460428F8D10199E9725F
:104F4000CAF820B215E70746F1E700BF21100100BB
:104F5000D06E00082DE9F041D0F80872A0F80612D2
:104F6000012F40D0D0F800628046D6F81402874264
:104F700039D20D46AFB196F802020401A54220D302
:104F80003046394600F0A8FD074601302ED0022FEA
:104F900029D3D8F80062D6F81402874223D22D1BF9
:104FA000ECE796F80002032803D1D6F82472002F0C
:104FB000E1D1B6F80802A84215D9D6F82402002794
:104FC00003E030463946FFF7EFFCC8F80C7250B1E9
:104FD00005F00F0100EB151006EB4111C8E9840143
:104FE0000020BDE8F0810220BDE8F0810120BDE88D
:104FF000F0810000214A115C09B1002070470121B5
:105000001154111802EB80004068097A02680846C2
:10501000104700BF10B5194C231804EB80004068FE
:105020001B7AD0F810C01846BDE81040604700BF9A
:10503000B0B5124D2C1805EB80004068247AD0F8EA
:1050400008C02046BDE8B040604700BF0B4A1118B9
:1050500002EB80004068097A42680846104700BFAA
:10506000B0B5064D2C1805EB80004068247AD0F8C6
:105070000CC02046BDE8B040604700BFF4030020EC
:1050800010B5044600F03FFA00B110BD204601F013
:105090004AF80028F9D1D4F82802FFF7EBFC0028E1
:1050A000F3D10020C4F8000210BD2DE9F84F884666
:1050B0000090154610466946002200F0A9FA08B192
:1050C000BDE8F88FD5F800B0DBE98474A01E8742F4
:1050D00017D99BF80092B9F1010F14D100270226CD
:1050E0005846314600F0F8FC20B1411C46D001285A
:1050F00001D141E00137DBF8140201368642EFD3DB
:105100002DE0002034E0DBF820A200270020002161
:1051100048B95846514600F015FE08BB0AF1010A8D
:105120004FF400705946B9F1020F04D10B886FF0AB
:10513000010202260CE08E78CD784B780A7836048E
:1051400065F31B6646EA0323042613446FF003024B
:10515000002B08BF013710443144013CD8D1002056
:105160009BF80512CBF8107241F001018BF8051283
:10517000C8F80070BDE8F88F0220F1E70120EFE7E2
:10518000FEB5054668461446CDE9001100F0FEFC68
:10519000002819D40D4901EB80077E682EB13046F6
:1051A000FFF7DEFB002086F8000215B1002085F82D
:1051B000000200207D6035B1012C04D102A801A9B4
:1051C000002200F025FAFEBD0B20FEBD5C01002090
:1051D0002DE9F04FADF50F7D8E91C0B30446002050
:1051E00002F01E061546C4F8000204A88EA9324635
:1051F000FEF7F4F9074658BBFEF789FA68B3814613
:1052000001A88E9905F01F058A90CDF8309204A868
:1052100000F010FBDDF82482074650B9B8F1000F0A
:105220003CD0002E18BF012604A83146FFF768FBCA
:105230000746042D13D2002F40F0888098F80B0009
:10524000C10633D4A90769D5C00725D166E009276F
:1052500038460DF50F7DBDE8F08F1127F8E7B7B19F
:10526000042F0FD14A48002101F10C02242A1FD03B
:10527000415800291146F7D104A8FFF769FDDDF870
:105280002482074645F00805002F5FD116E098F804
:105290000B0010F0110F0FD0072757E0042D28BF87
:1052A00045F008054FF0000806274FE004274DE0C1
:1052B00045F00805122749E0680723D428072DD5B3
:1052C00000F062FC0027C8F80E004146C8F81C70C8
:1052D00088F80B70849E304600F0BAFC83460120AB
:1052E000A8F81A70A8F81470BBF1000F86F8040231
:1052F00014D0D6F82CA23046594600F06EFE18B1F4
:10530000074623E0082721E0ABF101005146C6F82B
:105310000C02304600F016FD0746B8B98498C4F870
:1053200020820021D0F82C02C4F81C0205F00800ED
:1053300045EA8005012D88BF012104A800F046FC44
:10534000C4F82802B0FA80F040094700484600F04F
:1053500049F9002F7FF47CAF84F80652849D002722
:10536000414684F80772284600F072FCC4F8100227
:10537000D8F81C00C4F81872C4F80052C4F824729B
:10538000C4E98270B5F80602A4F8040260E700BF21
:10539000CC0100202DE9F84F04460020994616461E
:1053A0008A461860204600F0BEFE0546002840F000
:1053B000A78094F80752002D40F0A28094F80602CE
:1053C000C00701D107259BE0D4E98210401AB04202
:1053D00038BF0646002E00F08C8008466FF35F2031
:1053E00050B12118C0F500755046B54228BF35466A
:1053F0002A4600F099FC48E0D4F8005295F80202E1
:10540000FEF742F902D0D4F8141218E031B1D4F802
:10541000240230B12046FFF7B1FA07E0D4F81012A9
:1054200005E0D4F81412284600F056FB0146022984
:1054300061D3481C61D0D4F80052C4F81412284635
:10544000FFF7B2FA002856D000EB0B08770A29D0F4
:10545000FEF70DF988BFA2EB0B07514642463B46CB
:10546000FFF7E6FD002848D1FEF716F90CD5D4F871
:105470001802A0EB0800B84206D20AEB40202146F1
:105480004FF4007200F050FC7D02D4F80802761B45
:10549000AA444119D9F80000C4F808122844C9F8F0
:1054A000000097E7D4F8182242451BD0FEF7F4F825
:1054B0000FD595F80102214601230125FFF7D0FD04
:1054C000E0B994F80602D4F8005200F0BF0084F866
:1054D000060295F801022146424601230125FFF705
:1054E000A7FD58B9D4F80802C4F818826FF35F20FA
:1054F00077E7002504E0022500E0012584F8075243
:105500002846BDE8F88FB0B5FEF7CAF80546A0B941
:1055100094F80602810601D400250EE0400604D569
:10552000FEF70CF948B9FEF77EF8D4F80002D4F87B
:105530001C1200F007FC054608B12846B0BDD4F89F
:105540002052E87A40F02000E872D4F80C02287764
:10555000D4F80C02000A6877B4F80E02A87794F821
:105560000F02E877D4F81002010E6883000C697509
:10557000287500F009FBC5F816000020012168829B
:10558000D4F8000280F8041294F8061201F0DF014A
:1055900084F80612BDE8B04000F058BD802800D263
:1055A000704719B1FF280BD9002070470A4A002123
:1055B0008029F9D032F81130834208D00131F7E761
:1055C000054901EB40006FF0FF01405A704701F1BF
:1055D0008000C0B2704700BFDE6E000801460020A8
:1055E00000F052BC0146002000F044BC064A0021F5
:1055F000EF2908D032F81130834201D00131F7E7AA
:10560000024830F81100704736A6000856A400087A
:105610002DE9F04385B0074600201546386008465E
:1056200000F0B4FA002815D4DFF8FC81064608EB38
:1056300080004468A4B33C6094F8000260B194F820
:105640000102FFF703FDC10706D10DB140072BD4BE
:10565000002064E00B2062E0002084F8016284F8FE
:105660000002F0B2FFF7C6FCC1071BD10DB1400725
:105670001AD4204600210025FFF702F9012824D181
:1056800001AE00203146402810D0221892F8C231D5
:1056900013B1D2F8C62100E0002204C11030F2E7B5
:1056A0000C203CE003203AE00A2038E0002756F8BE
:1056B000275025B120462946FFF7E2F800E00220F6
:1056C00018B1791C032F0F46F1D318B1032825D147
:1056D000012024E0B4F80B00B0F5007F1ED1E08A71
:1056E00000B9606A237CC4F81802591E84F803329A
:1056F000012913D8617B4A1EB1FA81F684F802129F
:105700000A4018BF01227609324307D1667CA27C89
:1057100046EA02223607A4F8082203D00D2005B07D
:10572000BDE8F083B4F8136006B9266AE789002F54
:10573000F4D000FB03FC0CEB12133B449E42EDD370
:10574000F61A8E42EAD3B6FBF1F12B442F444FF008
:105750000109C4F8283240F6F573C4E987578E1C56
:1057600099424FF6F673C4F8146288BF4FF00209ED
:10577000994228BF4FF00309994212D2002ACDD096
:1057800007EB0C02C4F82422A1F6F672120B0E2AC3
:1057900091BF720006EB460201F0010303EB5202D7
:1057A00005E0002ABAD1E26AC4F82422B20002F26B
:1057B000FF12B0EB522FB1D34FF0FF30C4E983009A
:1057C000802084F805024FF6F67081421ED3208EA9
:1057D00001281BD1691CFDF7CCFFB8B900204AF69F
:1057E000552184F80502B4F8FE0188420ED12068E4
:1057F0000E4988420AD1D4F8E4010D49884205D106
:10580000D4F8E801D4F8EC11C4E98310B8F800002A
:1058100084F800920130A8F80000A4F8060220469F
:10582000FFF79EF814E700BF5C010020525261416F
:10583000727241612DE9F04F85B0834608780D46BC
:105840005C2801D02F2800D101350024CBF8084274
:105850002878202806D258460021FFF77BFBCBF89A
:10586000144214E128785C2801D02F2801D1013599
:10587000F8E7DBF82082049505F1010900240025F2
:105880004746202821D34FF0000A2F281FD05C283C
:105890001DD0FF2D00F0FA80C0B20121FFF77EFE7F
:1058A000002800F0F38006467F2806D87FA0314606
:1058B000FFF71CF8002840F0E98028F8156002374F
:1058C000013C19F805000135DBE74FF0040A0498A4
:1058D0002844451C002C00F0D98037F8020C2E28F3
:1058E00001D0202802D1023F0134F3E7DBF818028F
:1058F0004FF0000920210B22A7F8009000F01CFABD
:10590000604238F819102E2901D0202902D109F15E
:105910000109F6E75F46A8F102010495B9F1000F0D
:1059200018BF4AF0030A834628B131F81B20ABF1B7
:1059300001002E2AF7D10820ABF1010400250390C5
:105940000120019000200290002000904AF0030105
:1059500038F81900202803D02E2805D14C4508D04E
:1059600009F101098A46F3E7002850D009F101093D
:1059700000E0D94603998D4233D0D94530D08028F4
:105980000BD300210026FFF709FE18B14A4908444D
:1059900010F8806C4AF0020A00E0064626B147A0E3
:1059A0003146FEF7A3FF38B14AF0030A5F26D7F865
:1059B000180246550135C9E7A6F1410080B2192801
:1059C00003D8029840F0020008E0A6F1610080B21E
:1059D0001928ECD80298203E40F001000290E6E73A
:1059E000D9460098C00710D1D94518BF4AF0030A1C
:1059F0000DD802980825D946800002900B2003900C
:105A00000020019001200090A0E74AF0030AD7F897
:105A10001802BB460178E52904BF052101700198F1
:105A2000029FC00718BFBF00049DF9B207F00C0029
:105A30000C2803D001F00302032A01D14AF0020A24
:105A40005FEA8A7209D401F00301012908BF4AF014
:105A5000100A042808BF4AF0080ADBF8180280F888
:105A60000BA05846FFF748F8DBF81812C97A88B936
:105A7000480717D4DBF81412C87AC00614D5DBF82F
:105A8000000200F0E5F8CBF80802EBE6062005B0CE
:105A9000BDE8F08F0428FAD148074FF0040058BF42
:105AA0000520F4E70020F2E70520F0E7222A3A3C3F
:105AB0003E3F7C7F00000000506E00082B2C3B3DD9
:105AC0005B5D000003490A685206FCD5C2B24A6019
:105AD000704700BF00380140F8B502292DD30446B5
