:020000040800F2
:10000000083A002029020008EF2F00083F280008C6
:10001000ED2F0008411500086D45000800000000A4
:100020000000000000000000000000005541000832
:1000300043150008000000007F3C000893410008C1
:10004000430200084302000843020008430200087C
:10005000430200084302000843020008430200086C
:10006000430200084302000843020008430200085C
:10007000430200084302000843020008430200084C
:10008000430200084302000843020008430200083C
:10009000430200084302000843020008430200082C
:1000A000430200084302000843020008430200081C
:1000B0004302000843020008F94100084302000817
:1000C00043020008430200084302000843020008FC
:1000D00043020008DD440008430200084302000810
:1000E00043020008430200084302000800F002F83F
:1000F00000F08BF80AA090E8000C82448344AAF137
:100100000107DA4501D100F080F8AFF2090EBAE834
:100110000F0013F0010F18BFFB1A43F0010318473B
:100120009C290200BC290200103A24BF78C878C17B
:10013000FAD8520724BF30C830C144BF04680C60ED
:10014000704700000023002400250026103A28BF35
:1001500078C1FBD8520728BF30C148BF0B60704739
:100160006E2900F01F85702900F0FD816629AFF32C
:1001700000806529AFF300806729AFF30080612913
:10018000AFF3008003681B0A28BF41F08001692992
:1001900000F06E81642900F06B81752900F06881A0
:1001A0006F2900F00386782900F0C981E92900F061
:1001B0009D85E42900F09A85F52900F09785EF29BF
:1001C00000F00086F82900F0C8810368DB0928BF29
:1001D00041F08001632900F0C186732900F0C686D2
:1001E000E32900F0D186F32900F0D686002070477D
:1001F0001FB500F057FE0400002000211EF0FCFB9C
:10020000401C60601FBD10B510BD01F0CDF8114657
:10021000FFF7EEFF1BF0F4FC01F0F4F803B4FFF776
:10022000F2FF03BC01F038F909488047094800474C
:10023000FEE7FEE7FEE7FEE7FEE7FEE7FEE7FEE796
:10024000FEE7FEE704480549054A064B70470000F3
:10025000F5410008ED00000808340020083A0020AD
:10026000083600200836002053EA020C00F06980AE
:100270002DE9F04B4FF00006002B1FBFB3FA83F5BA
:1002800003FA05F424FA05F65E4012BF1643B2FAEB
:1002900082F502FA05F4C5F120051EBF22FA05FC1D
:1002A00044EA0C04203556EA044C4FEA144418BFC3
:1002B000641C4FF000084FF00009904271EB030CF2
:1002C00039D3002919BFB1FA81F701FA07F6B0FA5C
:1002D00080F700FA07F6C7F120071EBF20FA07FCD7
:1002E00046EA0C062037B6FBF4FCA7EB0507103FE7
:1002F00007F01F0BCBF120062CFA06F60CFA0BFBCD
:1003000044BFB3460026202FA4BF5E464FF0000B2B
:100310005BEA060C08BF4FF0010B19EB0B0948EB29
:100320000608ABFB027C06FB02CC0BFB03CCC01B1C
:1003300071EB0C01C1E70B46024641464846BDE859
:10034000F08B13B5084318BF4FF0FF300146AFF3F1
:100350000080BDE81C40704753EA020C23D010B562
:100360004C1084EA530404D54042C1F1000138BF67
:10037000491E1B4204D55242C3F1000338BF5B1E25
:10038000FFF772FF14F0804F04D04042C1F100012A
:1003900038BF491E14F0004F04D05242C3F100038D
:1003A00038BF5B1E10BD13B540424FF0000070EB2C
:1003B0000104B8BF012001F0004100281CBF6FF00C
:1003C00000414FF0FF30AFF300801CBD7CB51D46EF
:1003D00016460C00009007D04142A14202D32044AF
:1003E000401E01E04FF0FF30064B7B442A46694631
:1003F0000190304600F0EFFB002C02D0009A002163
:1004000011707CBD0F0800000FB4044910B503AA99
:10041000029800F0FBFB10BC5DF814FB38030020D1
:1004200070B5044685690068C10601D5302600E034
:100430002026C00707D070BDD4E90121304690477F
:10044000206A401C20626D1EF6D570BD70B5044652
:1004500085690078C00707D170BDD4E9012120204B
:100460009047206A401C20626D1EF6D570BD0000CA
:100470002DE9F0410646002410687529314616A57D
:1004800010D000F0FBFA002802DA404213A507E082
:1004900031688A0701D512A502E0490704D511A5E4
:1004A000012401E000F0F3FA00210A2206F12407FA
:1004B00009E0B0FBF2FCB0FBF2F302FB1C003030B1
:1004C00078541846491C0028F3D123462A46304662
:1004D000BDE8F04100F00DBB000000002D00000061
:1004E0002B00000020000000F0B40D460188090533
:1004F00002D5214C7C4402E01F4C7C440E34002188
:1005000000F1240608E002F00F071209E75D42EA55
:1005100003721B097754491C52EA0307F3D102788E
:100520000023120704D5702D06D009B1022311341F
:100530002246F0BC00F0DDBA01231034F8E770B5B4
:1005400004460D462146106800F0A1FA02462946ED
:100550002046BDE870400023C6E7D21D22F0070305
:10056000D3E90023C0E70368126843F02003036067
:100570000823C3610023B7E72CE501002DE9F05FF4
:10058000894604464FF0000ADFF874B1FB44C0F816
:1005900020A02046E1688847002874D0252806D08E
:1005A000D4E901219047206A401C2062F1E700262F
:1005B0005F462046E16888472028054607DB312D45
:1005C00005D2781910F8200C08B10643F1E7B007FE
:1005D00001D526F00406C4F81CA00027C4F818A012
:1005E0002A2D09D028461EF000FA38B304EB8708FC
:1005F000303DC8F8185019E059F8041B204604EBA8
:1006000087029161E1688847012F054618D1E069AA
:10061000002820DA26F020061DE0D8F8180000EBAC
:10062000800005EB40003038C8F818002046E1682B
:10063000884705461EF0D9F90028EED1012F0AD0CF
:100640002E2D08D12046E16888477F1C0546022FE1
:1006500046F02006C4DBA069002803DA404246F0D9
:100660000106A061F00701D026F010066C2D0BD01A
:10067000682D09D04C2D39D06A2D35D0742D35D048
:100680007A2D33D016E038E0E1682F4620468847BF
:10069000B842054609D16C2F26D04FF48060E1683E
:1006A000064320468847054604E06C2F1AD04FF4D5
:1006B000807006430DB3A5F14100192802D82035FA
:1006C00046F400664A462946204626604E46FFF715
:1006D00047FD80B101280BD0F61D26F0070000F180
:1006E000080956E74020E4E78020D8E70020D6E755
:1006F00006F104094DE7284652E7206ABDE8F09F5D
:10070000BCE401000FB400B58DB010A909900091B0
:100710000B904FF0FF300A9000200C900648784470
:100720000690064878446A4607900F9909A800F099
:1007300067FB0DB05DF814FBFF0600001707000013
:100740002DE9FF5F1D464FF0FF3B91464FF000083B
:100750005F46D5E90146A96901987F1C8847296A47
:10076000824688470028F6D1BAF1FF3F0CD0002E10
:1007700024F4C06419DD600614D5BAF12B0F09D03A
:10078000BAF12D0F0ED103E0584604B0BDE8F09F3A
:1007900044F48064A96901987F1C8847761E8246CC
:1007A000002E02DDBAF1300F03D0B9F1000F26D0D0
:1007B00032E0A969761E01987F1C44F400748847D2
:1007C000002E824605DDBAF1780F06D0BAF1580F37
:1007D00003D0B9F1000F10D01EE0B9F1000F02D024
:1007E000B9F1100F18D1A969761E01987F1C24F465
:1007F000007488478246102002E0082000E00A20AA
:10080000814609E0A96908FB0908761E01987F1C4A
:1008100044F4007488478246002E05DD4946504660
:1008200000F0DAFA0028EDDAE96901988847A005B6
:1008300002D46FF00100A8E7E00725D1600613D5C8
:10084000600502D5C8F1000000E0404629680A1D95
:100850002A600968220501D5087015E0220701D534
:10086000088011E008600FE02868011D2960006819
:10087000210502D580F8008006E0210702D5A0F806
:10088000008001E0C0F8008038467EE710B50446DD
:1008900003E008F093FE401C09D014F8010B054951
:1008A0000028F6D1BDE810400A2008F087BE4FF0BE
:1008B000FF3010BD38030020014A00F0D1BA00001B
:1008C00000000020401ECAB210F8011F8A4202D068
:1008D0000029F9D10020704730B505460B462A465D
:1008E00013F8014B12F8010B08B1A042F8D01CB16B
:1008F000002802D06D1CF1E7284630BD10B5431C1E
:1009000002E010F8011B71B18107FAD14FF00132FA
:1009100002C88C1A8C4314EAC211F9D0C01A0A0614
:1009200003D0C01E10BDC01A10BD0A0401D0801E25
:1009300010BD0902FCD0401E10BD032A40F23080D9
:1009400010F0030C00F0158011F8013BBCF1020F10
:10095000624498BF11F801CB00F8013B38BF11F891
:10096000013BA2F1040298BF00F801CB38BF00F8A8
:10097000013B11F0030300F02580083AC0F0088025
:1009800051F8043B083A51F804CBA0E80810F5E709
:10099000121D5CBF51F8043B40F8043BAFF30080EC
:1009A000D20724BF11F8013B11F801CB48BF11F861
:1009B000012B24BF00F8013B00F801CB48BF00F831
:1009C000012B704710B5203AC0F00B80B1E81850E9
:1009D000A0E81850B1E81850A0E81850203ABFF429
:1009E000F5AF5FEA027C24BFB1E81850A0E81850C8
:1009F00044BF18C918C0BDE810405FEA827C24BF1C
:100A000051F8043B40F8043B08BF7047D20728BFA9
:100A100031F8023B48BF11F8012B28BF20F8023BF8
:100A200048BF00F8012B70474FF0000200B5134695
:100A300094469646203922BFA0E80C50A0E80C50FE
:100A4000B1F12001BFF4F7AF090728BFA0E80C50AF
:100A500048BF0CC05DF804EB890028BF40F8042BA8
:100A600008BF704748BF20F8022B11F0804F18BF15
:100A700000F8012B704770477047704709684A05B6
:100A800001D540B27047C905FCD500B2704709686E
:100A90004A0501D5C0B27047C905FCD580B2704780
:100AA00070B50C460546012A05D02878800600D589
:100AB000EA69002302E0012305E05B1C934202D2B5
:100AC000E05C0028F9D1A869E618C01AA861286A74
:100AD000184428622846FFF7A3FC04E0D5E9012169
:100AE00014F8010B9047B442F8D32846FFF7AEFC48
:100AF00070BD2DE9F0470D4699469246044600F137
:100B000024080168880604D5E06921F010012160FD
:100B100000E00120A84201DD471B00E00027A16999
:100B20007A1902EB0900081AA0612078C00602D4E5
:100B30002046FFF775FC002608E0D4E901211AF8E9
:100B400006009047206A401C761C20624E45F4DB6C
:100B50002078C0060AD52046FFF762FC06E0D4E9FB
:100B6000012130209047206A401C2062381EA7F1E6
:100B70000107F4DC07E0D4E9012118F805009047EB
:100B8000206A401C2062281EA5F10105F3DC2046E6
:100B9000FFF75CFC2078000602D50220BDE8F08754
:100BA0000120FBE711680268006A530501D508704F
:100BB0000AE0D30501D5088006E0130603D5C21765
:100BC000C1E9000200E008600120704701694A1C89
:100BD00002610878704700B58FB0CDE9013100217E
:100BE000059105497944CDE9031011466846FFF7A0
:100BF000C5FC0FB000BD0000E5FFFFFFD1E90023F9
:100C00009A4202D2531C0B6010707047074B70B5AC
:100C10000D467B44FFF7DFFF0446284600F07AFBD1
:100C200010B14FF0FF3070BD204670BDA7890000A5
:100C30002DE9FF5F15468A460446DFF8AC80F8448C
:100C40000027D8E900103E46CDE9001010E03AF840
:100C500016106A4602A800F061FB411C07D02178FB
:100C6000890603D5E269391891420DD80744761CEC
:100C70002078800602D5E069B84205DDAE42E6DBA9
:100C80003AF816000028E2D1A069C01BA0612046F6
:100C9000FFF7C6FBD8E90010CDE90010002017E0EF
:100CA0003AF818106A4602A800F038FBB0F1FF3F8E
:100CB00081460BD000250DF1080B05E0D4E9012198
:100CC0001BF8050090476D1C4D45F7D308F1010056
:100CD000B0428046E4DB206A384420622046FFF7B9
:100CE000B5FBBDE8FF9F00001EDE01002DE9F041CD
:100CF0008046D21D22F007020025D2E90002F52924
:100D000015A614D0011E72F1000106DA0023D0EB03
:100D1000030063EB020211A608E0D8F800108B076D
:100D200001D50FA602E0490701D50EA601251146FF
:100D3000002408F1240704E000F0B8F830323A55F6
:100D4000641C50EA0102F7D12B4632462146404648
:100D5000BDE8F041FFF7CDBE000000002D0000000F
:100D60002B0000002000000030B4002100F124041A
:100D700008E002F00705D208303542EA4372DB088A
:100D80006554491C52EA0305F3D10468002310A2FC
:100D9000250708D504F020040C4304D0C4690123BE
:100DA0000CA2641EC46130BCFFF7A3BE10B504469C
:100DB00021461068FFF76BFE02462046BDE8104052
:100DC0000023D1E7D21D22F00701D1E90023CBE7B0
:100DD00000000000300000003A2800D2303820F037
:100DE0002002412A01D3A2F13700884201D34FF0FB
:100DF000FF3070470268114413780160184670474D
:100E0000D160054979445161044979441162002156
:100E10001161114600F0C4B8EDFFFFFF2901000089
:100E2000426842B1016811F8013B23B1521EC0E98A
:100E30000012184670470121C160881E7047426841
:100E40005AB1C368016843B983688B4205D0491E13
:100E5000521CC0E90012002070474FF0FF3070476D
:100E60002DE9F04115460E46040002D12C6804B964
:100E70000BA4204600F086FA0444207870B127467F
:100E80003146384600F06EFA0444207810B1002054
:100E900004F8010B38462C60BDE8F0810027F9E723
:100EA0000000000000487047E000002030B5B0F1BD
:100EB0000A0271F100034FEA900E4EEA817EB0EB18
:100EC0000E0061EB91014FEA101E4EEA017E10EB1D
:100ED0000E0041EB11114FEA102E4EEA016E10EB9D
:100EE0000E0041EB11214FEA104E4EEA014E10EB7D
:100EF0000E0041EB1141401841F100014FEAD000D2
:100F000040EA41704FEAD1014FEA810444EA90740B
:100F100010EB800544EB01046D1944EB0404521BF3
:100F2000A3414FF0000348BF0A3200D530BD401C3A
:100F300041F1000130BD10B5044600F05BFA0068D5
:100F4000005D00F0010010BD10B5436913B1AFF3AF
:100F5000008001E0FFF7A4FD012010BD127800F130
:100F600024010A7000224A700122EDE711684FF057
:100F7000FF32E9E710B5436913B1AFF3008001E038
:100F8000FFF756FE012010BD128800F12401828473
:100F90000022C2840122EDE711684FF0FF32E9E739
:100FA0002DE9F34F4FF0000A0C4656468DB0012054
:100FB0000C9001F10C000B9062690B980121904795
:100FC000051E2DD0252D2CD0216A8847C0B162691D
:100FD0000B9801219047216A88470028F7D1626960
:100FE000411E0B98904700E0761CA1690D98884738
:100FF000216A88470028F7D1E1690D988847DBE727
:10100000A1690D988847A842074601D1761CD3E70D
:10101000E1690D9888477F1C02D1BAF1000F6FD0AB
:101020006BE162690B9800273D46394690472A28B4
:1010300004D162690B98012190470125DFF8D08225
:1010400062690B9801219047A0F130010A290AD268
:101050004745E5DC07EB870100EB4107303FDFD474
:1010600045F01005ECE7E90601D46FF000476C2865
:101070000AD04C2814D0682815D06A280DD07428BE
:101080001CD07A281AD01DE062690B980121904784
:101090006C2802D045F0040514E045F002050DE08F
:1010A00045F020050AE062690B9801219047682805
:1010B00002D045F0080505E045F4006562690B982B
:1010C00001219047C4E9015765283DD019DC582813
:1010D0007AD00CDC452837D004DC252826D04128DE
:1010E0009ED131E046282FD0472899D12CE05B28AB
:1010F00077D0612828D063287CD0642823D15AE097
:10110000F6E06F2848D008DC66281DD067281BD081
:10111000692821D06E2816D127E0702845D0732881
:1011200068D0752847D078280DD14DE0A1690D9879
:101130008847252805463FF469AFE1690D9888473F
:101140006D1C3FF46AAFD8E00D9923466A466FF0F4
:101150000100AFF30080C5E045F0400023464FF0AA
:1011600000026060A80736D43EE0E8077FF447AF8E
:101170002068011D21600068290501D506701BE764
:10118000290701D5068017E7A90703D5F117C0E99C
:10119000006111E706600FE745F0400023464FF07D
:1011A00008026060A80716D41EE040F60E0125EA8A
:1011B0000100606016E045F0400023464FF00A024F
:1011C0006060A80707D40FE045F040006060A80702
:1011D00008D5234610220D996FF00100AFF300806F
:1011E00080E007E0102223460D996FF00100FFF721
:1011F000A7FA77E04FF0000963284F46C8464B46F0
:10120000CB4602D05B2806D038E0E80601D40120A6
:10121000A060012732E06269D4F80CB00B9801217C
:1012200090475E2807D14FF0010949466269D4F81A
:101230000CB00B989047216939B900210A4603ABDD
:1012400043F82120491C0829FADBD8B3216949B3A6
:1012500008F1010862690B98012190475D28F4D1DB
:10126000B9F1000F09D0002003A951F82020D24382
:1012700041F82020401C0828F7DB03AB2069002838
:1012800020794FEA40701ED05B462246CDF80080A0
:10129000CDE901970D9900286FF0010020DAAFF336
:1012A00000801FE0C11703AA00EBD1614B1121F0B0
:1012B0001F0102EB8302411A136801208840034397
:1012C0001360C7E719E00D99224600286FF001006E
:1012D000009702DAAFF3008004E0AFF3008001E092
:1012E000AFF3008000280ADA401C06D10C9820B128
:1012F0004FF0FF300FB0BDE8F08F5046FAE7E90736
:1013000001D10AF1010A064400200C9054E60000C5
:10131000CCCCCC0C007B00F0800070472DE9F04174
:1013200016460C46054600F065F8036893F801017F
:10133000012807D0FF2C12D8185D80B101202C7035
:10134000BDE8F081D3F807013246214603F20713C6
:10135000C7182846BC46BDE8F041002360474FF05F
:10136000FF30EDE730B503461D781DB10A4603E0B6
:10137000AC4201D1181A30BD12F8014B002CF7D144
:101380005B1CF1E730B503461D783DB10A4612F803
:10139000014B1CB1AC42FAD15B1CF5E7181A30BD09
:1013A00000487047C00000207546FFF7F9FFAE46C1
:1013B00005006946534620F00700854618B020B561
:1013C000FEF740FFBDE820404FF000064FF0000759
:1013D0004FF000084FF0000BAC46ACE8C009ACE899
:1013E000C009ACE8C009ACE8C00921F007018D468E
:1013F0007047000010B5FFF755FD001D10BD00BF80
:10140000F9D5010010B50446AFF300802046BDE8D1
:101410001040FEF703BF00004FF0013C50F8042BD2
:1014200051F8043B9A4221D1A2EB0C03934313EAF7
:10143000CC1317D150F8042B51F8043B9A4215D124
:10144000A2EB0C03934313EACC130BD150F8042BFB
:1014500051F8043B9A4209D1A2EB0C03934313EADF
:10146000CC13DBD04FF00000704700BFD01A01BA98
:10147000B1FA81F101F0180122FA01F0CB40DBB2A0
:10148000C0B2C01AC1F120012CFA01F3D11A914364
:1014900011EAC311E6D1704701491820ABBEFEE73F
:1014A000260002007047F0B585B00A9D1DB1032DDE
:1014B00008D9012021E00A240325C826CDE90065CA
:1014C000029418E00BAE341D0494012D0B9C04D142
:1014D00003260A25CDE900460CE006F10807022D97
:1014E000049777680FBF0A2506F10C050495357A35
:1014F000CDE90047029503F0A5F805B0F0BDF0B5C1
:1015000085B00C9FDDE90A5C1FB1022F04D90120D0
:1015100014E00A2403260BE00DAC261D0496012FCF
:101520000D9E0FBF0A2404F1080704976468E4B213
:10153000CDE9005CCDE9026403F0A0F805B0F0BD90
:10154000FEE77047EFF3108072B6FEE7002200F06E
:1015500001B80000B0B50E4C0346607A012884BF84
:101560000120B0BD657A00206055657A04EB8505E1
:101570006B60637A23441A72627A531C303263724E
:1015800042F63A73C8700A70A1F80130B0BD00BFCE
:101590007C0400200548D0E90110081AC821C83091
:1015A00090FBF1F202FB1100704700BF2001002008
:1015B00010B590F82110022912D10168D0E90F234B
:1015C0000C6824F00E040C600C6824F001040C601C
:1015D000012101FA03F3536080F82110002102E099
:1015E000042181630121002280F82020084610BDDB
:1015F000B0B590F8211002291CD103681F4C0122BC
:101600001968A34221F00E011960196821F0010147
:101610001960194912D01A4CA34211D0194CA34297
:1016200010D0194CA34210D0184CA34210D14FF443
:10163000803415E00421816301211BE001240FE0C7
:1016400010240DE04FF480740AE04FF4805407E05A
:1016500001F168054FF08074AB4208BF4FF480146D
:101660000C60002180F8201080F82120426B0AB124
:10167000904700210846B0BD040002400800024027
:101680001C0002403000024044000240580002406A
:10169000B0B5044600F0EAF805469148611C0078B0
:1016A00018BF044400F0E2F8401BA042FAD3B0BDDA
:1016B0002DE9FC4F5E4A04234FF0000A4FF0010869
:1016C0004FF00009904208BF0323009300250C68E7
:1016D00034FA05F208BFBDE8FC8F08FA05FE14EAEB
:1016E0000E0F00F0A1804F68032F16D9112F26D0BE
:1016F000122F28D0514A974213D0514A974210D006
:10170000504A97420DD0504A97420AD04F4A9742CA
:1017100007D04F4A974204D022E0DFE807F00218D2
:101720001B1F8C6844B1012C14BFC0F814E0C0F832
:1017300010E04FF0080913E04FF0040910E0CC6806
:1017400004F104090CE0CC6804F10C0908E0D1F8BC
:101750000C9005E0CC6804F1080901E04FF00009A5
:1017600054460746082D4FF00F0228BF203C28BFE3
:1017700004373B6802FA04F609FA04F4B34323433E
:101780003B60CB79DB064FD5654A2A4C1368A4F53C
:101790007E7C43F00103136013682E4A03F00103BB
:1017A00090420193019B25F003035CF803B008D03D
:1017B000294A904207D0294A009E904208BF02263B
:1017C00002E0002600E001260AF00C030F22AF0819
:1017D00002FA03F406FA03F3164E174A2BEA04043E
:1017E00023434CF827304F68FB02B36854BF23EA09
:1017F0000E0443EA0E04B460BB02136854BF23EA2C
:101800000E0443EA0E041460BB03736854BF23EA5A
:101810000E0443EA0E047460FB03336854BF23EAEA
:101820000E0243EA0E0232600AF1040A01354EE765
:1018300000140140000401400C040140000011109C
:1018400000001210000021100000221000003110D2
:101850000000321000080140000C0140001001405F
:10186000002A08BF090401617047000005480068AC
:10187000704700BF1A48034900780A68104408609E
:10188000704700BF0034002080B59748016841F0E0
:1018900010010160032000F07DF8032000F004F83F
:1018A00000F020F8002080BD70B50D4E04464FF4C6
:1018B0007A713078B1FBF0F098490968B1FBF0F02B
:1018C00000F02EFC01250F2C08D838B94FF0FF305E
:1018D00021460022002500F037F87460284670BDCC
:1018E00064000020E0B50E48016841F0010101608C
:1018F000016801F0010101910199416841F08051B5
:101900004160406800F0805000900098052000F091
:1019100041F804480222016862F31A6101608CBD3B
:101920001810024004000140002809D4734601F059
:10193000B3FC9E46034A42EAD00020F00300016057
:10194000704700BF00E100E0F0B5184B4FF0FF36E4
:101950001C68C4F30224E51E84F0070438BF002588
:1019600006FA05F7BA43042C28BF042406FA04F447
:10197000A14300F00F04A940043C1143044A23444E
:1019800009010244002848BF03F10C021170F0BDA8
:1019900000E400E005494FF6FF030A681A4060F3CF
:1019A0000A22034810430860704700BF0CED00E0B6
:1019B0000000FA0502F07EFE2DE9F84300286CD005
:1019C000884649490446086800F0070040450AD2A5
:1019D000086820F0070040EA08000860086800F086
:1019E0000700404559D120685B4B8946810711D5D6
:1019F000410703D5196841F4E0611960010703D577
:101A0000196841F460511960A1681A6822F0F00267
:101A100011431960C00737D1D9F8000000F0070062
:101A200040450DD9D9F8000020F0070040EA080031
:101A3000C9F80000D9F8000000F0070040452CD19B
:101A40002068410705D5E1681A6822F4E062114375
:101A50001960000706D52069196821F4605141EA30
:101A6000C00018601C4600F05DF821681F4AC1F3F1
:101A70000311515CC840294908601D480068FFF700
:101A800013FF0020BDE8F8836068022808D0012811
:101A900025D153F8041C890306D40120BDE8F8833E
:101AA00053F8041C8901F8D519681D4621F003017B
:101AB00008431860FFF7DAFE064641F2883760688F
:101AC00029682B4601F00C01B1EB800FA4D0FFF781
:101AD000CDFE801BB842F2D90320BDE8F88353F84D
:101AE000041C8907D9D5DFE70020024068EA010815
:101AF00068000020DD481849094A00680968C1F3F8
:101B00000221515CC8407047D8481349044A006814
:101B10000968C1F3C221515CC840704778000020B9
:101B200078EA010810B50C490C480A6802F00C0369
:101B3000082B07D1C2F3834309A4D203E35C02D488
:101B40000C48584310BD096809A25843C1F34041ED
:101B5000515CB0FBF1F010BD0410024000127A009D
:101B600002030405060708090A0B0C0D0E0F1010DE
:101B70000102000000093D002DE9FC41002800F0B1
:101B80009C8004460078B74EC0071FD0706800F0F4
:101B90000C00042814D001F04FFD02D17068C0037E
:101BA0000ED46068002800F01481B0F5A02F00F07A
:101BB0002181B0F5803F00F0218101F019FA20E188
:101BC0003068800302D56068002876D020788007CE
:101BD00016D5706810F00C0F05D001F02DFD24D142
:101BE0007068C00321D43068800702D520690128BD
:101BF00063D16069316821F0F80141EAC0003060CA
:101C00002078000741D5A06910B397480121C0F89A
:101C10008014FFF72BFE0546706A800728D4FFF773
:101C200025FE401B0228F7D9F8E021698E480029DB
:101C300000F08E8001210160FFF718FE0546306834
:101C40008007D6D4FFF712FE401B0228F7D9E5E043
:101C500085480021C0F88014FFF708FE0546706A29
:101C6000800712D5FFF702FE401B0228F7D9D5E006
:101C70007E484FF4FA510068B0FBF1F0019000BFCC
:101C80000198411E00280191F9D12078400717D40E
:101C9000E7697FB101F0D0FC3CD1012F0DD0216A62
:101CA000706800F480328A4207D1616A00F47010D3
:101CB000884202D10020BDE8FC810120BDE8FC8102
:101CC000F06910F0805808D1F06940F08050F06160
:101CD000F06900F0805000900098654F3868C005AA
:101CE0000FD4386840F480703860FFF7BFFD0546B8
:101CF0003868C00505D4FFF7B9FD401B6428F7D943
:101D00008CE0E068A0B3052844D0012846D001F05B
:101D1000BBFA46E05449002088460866FFF7A6FD56
:101D20000546022F0AD147463068800179D5FFF772
:101D30009DFD411B03200229F6D9BCE730688001D4
:101D4000B8D5FFF793FD411B03200229F6D9B2E76E
:101D500000210160FFF78AFD0546306880077FF5A6
:101D60004FAFFFF783FD411B03200229F5D9A2E7FE
:101D700001F08AFA3062FFF779FD054641F28837B3
:101D8000306A80071CD5FFF771FD411B0320B94263
:101D9000F6D990E7306A40F004003062306A40F0D3
:101DA00001003062FFF762FD054641F28837306A74
:101DB000800705D4FFF75AFD401BB842F7D92DE044
:101DC000B8F1000F7FF464AFF06920F08050F0614B
:101DD0005EE701F00DF93060FFF748FD0546306819
:101DE00080037FF5F3AEFFF741FD411B032064291B
:101DF000F5D960E7306840F480203060306840F406
:101E000080303060FFF732FD0546306880033FF5D3
:101E1000DDAEFFF72BFD401B6428F6D90320BDE89B
:101E2000FC81206AB0F5803F05D1A168726822F478
:101E3000003211437160616A726822F474121143B6
:101E40000843706001203866FFF710FD04463068D3
:101E500080013FF52FAFFFF709FD011B0320022989
:101E6000F5D928E700100240000042427800002027
:101E70000070004070B538B10446406A30B10020AF
:101E8000206104F1140007E0012547E06068B0F527
:101E9000827F03D004F11C00002101600025A562AF
:101EA00094F8510020B9204684F8505000F038F8DA
:101EB000022084F8510094E80F0001F4827102F4CA
:101EC00004420668114403F40062114426F04006FF
:101ED0000660226902F002021144626902F0010206
:101EE0001144A26902F400731944E36903F0380352
:101EF0001944236A03F080031943A36A03F40053CF
:101F000019430160042101EA12414160C16921F4D1
:101F10000061C1610120656584F85100284670BDEB
:101F200070B586B0184C006800260496A4F554419C
:101F3000884227D11548416841F480414160416899
:101F400001F4804101910199016841F008010160AB
:101F5000006800F008000190032005900220039023
:101F60004FF420400290019802AD20462946FFF729
:101F70009FFB4FF480402946CDE90366029020463E
:101F8000FFF796FB06B070BD000C01401810024030
:101F90002DE9F84301F0D9FA04BF0220BDE8F88327
:101FA00001201E46154601F01EFC94F85110814692
:101FB00001290BD06068B0F5827F5ED1A268022053
:101FC000002A40F09B80042940F09880002F00F008
:101FD0009480002D00F09180002E00F08E8094F807
:101FE000510004281CBF052084F8510000206065C2
:101FF000E687E686C4E91000A563A6872763A68660
:1020000020680168490601D401F00BFBE268DDF8A5
:1020100020806168B2F5006F31D109B1012E01D184
:1020200001F0E3FA012608F10105E08E10B9E08F16
:1020300000285AD001F0B4FB0CD5E18E51B1012E2D
:1020400008D1216B002631F8022BC2602163E18E9A
:102050000139E1868168C90706D0E18F21B1A16B02
:10206000C068012601F0AEFBFFF700FC002DDCD0BC
:10207000A0EB09004045D8D332E002203EE009B190
:10208000012E02D1397801F02FFD012608F101055A
:10209000E08E08B9E08F40B301F082FB0ED5E18EEF
:1020A00061B1012E0AD1216B002609780173216BE1
:1020B000206801312163E18E0139E1868168C90719
:1020C00006D0E18F21B1A16BC068012601F07AFA38
:1020D000FFF7CCFB002DDBD0A0EB09004045D7D3A8
:1020E000012084F85100032008E0204641464A467A
:1020F00001F0C6FF38B1202060650120002184F87E
:102100005010BDE8F883A06808B901F09AFC616D31
:1021100001200029F2D184F851000020EEE70000F0
:10212000411E0020B0EB116F1CBF01207047044A14
:10213000F023516003490B700721906011607047D4
:1021400010E000E023ED00E07047704710B590F814
:102150003C300222012B20D080F83D2002680B6821
:10216000546824F070041C439368B2F1804F5460AB
:1021700008D0344CA24205D0334CA24202D0AF4C1E
:10218000A24204D1496823F08003194391600022E0
:10219000012180F83C2080F83D10104610BD00BFA2
:1021A00058B110B501F048FC03D101F036FB00F046
:1021B00007F801F0DCFC01F076B801207047000060
:1021C000E0B500689D49884218BF8CBD09480022CF
:1021D000016841F0040101600021006800F0040082
:1021E000019001981E20FFF7AFFB1E20BDE88C4038
:1021F000FFF79ABB1C10024090F83D1001291CBF4C
:1022000001207047022180F83D100068C168B0F1DC
:10221000804F41F00101C16008D00A49884205D0D1
:102220000949884202D08549884204D1724601F0AA
:1022300049F9964603D0724601F0F9FC9646002013
:10224000704700BF00040040002C014010B501F0B1
:10225000EDFB52D084F83D0001204FF6777384F8EF
:102260003C00206882689A4382600A68C2B1102AE2
:1022700016D0202A14D0302A12D0402A17D0502A43
:102280001ED0602A25D0B2F5005F2ED0B2F5805F57
:1022900030D0702A32D101F0B3FA41F0770128E052
:1022A000816821F07001114341F0070121E001F044
:1022B00016FC2068816841F0470121F0300118E0E8
:1022C00001F00DFC2068816841F0570121F02001E8
:1022D0000FE04B68CA68194601F0DFFF206881688B
:1022E00041F0670121F0100103E001F089FA41F4A7
:1022F00080418160002001F0EBFB10BD0120FAE776
:10230000704710B5044600680169890712D5C16895
:1023100089070FD56FF002010161012121778069E2
:10232000800702D001F0D1FB01E001F007FB0020A3
:10233000207720680169490713D5C168490710D57E
:102340006FF00401016102212177806910F4407F60
:1023500002D001F0BAFB01E001F0F0FA0020207792
:1023600020680169090712D5C16809070FD56FF008
:102370000801016104212177C069800702D001F0C2
:10238000A4FB01E001F0DAFA00202077206801695F
:10239000C90613D5C168C90610D56FF010010161D7
:1023A00008212177C06910F4407F02D001F08DFB35
:1023B00001E001F0C3FA0020207720680169C90715
:1023C00009D0C168C90706D06FF00101016120463C
:1023D00000F02CF820680169090609D5C1680906D2
:1023E00006D56FF0800101612046FFF7ADFE206841
:1023F0000169490609D5C168490606D56FF0400153
:102400000161204600F01CF820680169890602D5A8
:10241000C168890600D410BD6FF02001016120461B
:10242000BDE81040FFF791BE704770470068034950
:10243000884218BF7047012019F0F4B90008004025
:1024400070477047704700007CB50446006802681A
:10245000C168456913073FD001F4907605F0010586
:1024600076193DD0D60705D0CE0503D5666C46F06B
:1024700001066664560704D51DB1666C46F0020677
:102480006664960704D51DB1666C46F00406666462
:10249000002B07D501F020035B1903D0636C43F0D8
:1024A00008036364636C002B00F0E080920605D59E
:1024B000890603D5204601F029FF20684069616C38
:1024C00000F0400001F00801401847D12046FFF716
:1024D000B9FF00206064C9E0930601D58B0654D48F
:1024E000236B012B03D1D30601D5CB0652D413069F
:1024F00001D50B0611D4520640F1B880490640F1CF
:10250000B580C16821F04001C160202084F84100FD
:102510002046BDE87C4000F091B994F84110212993
:1025200040F0A480A168B1F5805F03D12169002942
:1025300000F09D80216A4A1C226209784160E18C8A
:102540000139E184090440F09180C16821F08001E3
:10255000C160C16841F04001C1607CBD204601F00E
:10256000B4FE01F037F84DD500F0B4FEFCD1E06BBD
:10257000002847D042494163FFF73AF8002875D058
:10258000E06B416BBDE87C4008472046BDE87C40DD
:1025900001F0BCBE002101910168019141680191E7
:1025A00001994069400632D4E08DA18DE28D002A68
:1025B0005CD081425AD0081A216851E8031F226872
:1025C00021F4907142E80313002BF5D1216851E802
:1025D000051F226821F0010142E80513002BF5D107
:1025E000202184F8421000212163216851E8031F53
:1025F000226821F0100142E80313002BF5D10221DB
:1026000061632DE02046BDE87C40FFF71BBFE06B17
:10261000016849688AB24AB3A38D9A4226D2E185FD
:102620008069202817D000F0E8FF20F4807001F0C6
:1026300011FAF8D100F0E4FCFCD100F04BFEFCD123
:10264000202084F842000020206300F0FAFFFCD133
:10265000E06BFEF7ADFF02206063A08DE18D401AB4
:1026600081B22046BDE87C40FFF7EBBE7CBD216A0D
:1026700031F8022B6FF35F22216242605FE700BFF7
:10268000BF42000890B110B5044690F8410008B967
:1026900001F074FA01F05CF92068016921F49041BD
:1026A0000161416921F02A0101F026BA0120704739
:1026B00070B586B01C4C00680026049604F54051A5
:1026C00088422FD11948016841F4804101600168B6
:1026D00001F4804101910199016841F00401016018
:1026E000006800F004000190032005900220039090
:1026F0004FF400700290019802AD20462946FEF783
:10270000D7FF4FF480602946CDE90366029020464A
:10271000FEF7CEFF252002210022FFF715F9252024
:10272000FFF702F906B070BD000801401810024022
:1027300010B590F84230202B06D139B132B10024C7
:10274000046301F085FE02E0022400E0012420463B
:1027500010BD000010B5044600680D49884218BF3E
:1027600010BD0C48D0E90112891AC822C83191FB6A
:10277000F2F303FB1211C62902DC007801F0F8FE27
:10278000044920460122BDE81040FFF7D1BF00BF39
:1027900000380140200100202DE9F843044690F85C
:1027A000410020281CBF0220BDE8F8838846B1B153
:1027B0001746A2B100201D466064212084F8410024
:1027C000FFF754F8E7840646A784A068B0F5805F59
:1027D00001D1206930B14FF00009474604E00120E3
:1027E000BDE8F8830027C146E08CB8B120468021BF
:1027F00032462B4601F045FEB8B927B117F8010B58
:102800002168486006E039F8021B206800276FF352
:102810005F214160E08C0138E084E5E720464021FB
:1028200032462B4601F02DFE10B10320BDE8F8839F
:10283000202084F841000020BDE8F8837047FEE7BF
:102840002DE9F843DFF8F49307462A209846154609
:102850000E46C847074C3846A0472846A0472B20BD
:10286000C8473046A0474046A0472C204946BDE80F
:10287000F8430847CD2C000810B5144602460B4615
:10288000FFF7DEFF204600F021FA0120BDE81040EE
:10289000FEF7FEBE70B5ADF58F6DE5484FF4005400
:1028A000E44D04606420A847E34E6420C6F8004865
:1028B000A8474FF4004030606420A847DF4DEF2068
:1028C000A847EB20A847DE4E1420B047FE20A847BB
:1028D000EF20A847EB20A8471420B0478420A84742
:1028E0004020B0478520A847FF20B0478620A84752
:1028F000FF20B0478720A847FF20B0478820A8477F
:102900000A20B0478920A8472120B0478A20A8473D
:102910000020B0478B20A8478020B0478C20A847D4
:102920000120B0478D20A8470120B0478E20A8473E
:10293000FF20B0478F20A847FF20B047B620A84708
:102940000020B0472020B0473620A847BD4992A8B4
:10295000012205F071FE08B1BBA008E007A8C3A1E1
:10296000012205F091FE002800F03F81C7A0FDF78D
:102970008DFF0820C0B2B04707A805F047FEB14957
:1029800092A8002205F058FE3A20A8470520B0473B
:102990009020A8470820B0470820B0470820B0473B
:1029A0000820B047BD20A8470620B047BC20A84754
:1029B0000020B047FF20A8476020B0470120B04763
:1029C0000420B047C320A8471320B047C420A8471D
:1029D0001320B047C920A8472220B047BE20A847EF
:1029E0001120B047E120A8471020B0470E20B04783
:1029F000DF20A8472120B0470C20B0470220B04775
:102A0000F020A8474520B0470920B0470820B0472C
:102A10000820B0472620B0472A20B047F120A84719
:102A20004320B0477020B0477220B0473620B047EF
:102A30003720B0476F20B047F220A8474520B04765
:102A40000920B0470820B0470820B0472620B047EB
:102A50002A20B047F320A8474320B0477020B04752
:102A60007220B0473620B0473720B0476F20B047BC
:102A7000ED20A8471B20B0470B20B047AE20A84749
:102A80007720B047CD20A8476320B0477020A847E3
:102A90000720B0470720B0470420B0470E20B047BA
:102AA0000F20B0470920B0470720B0470820B047A3
:102AB0000320B047E820A8473420B0476220A84749
:102AC0001820B0470D20B0477120B047ED20B04727
:102AD0007020B0477020B0471820B0470F20B04793
:102AE0007120B047EF20B0477020B0477020B0474A
:102AF0006320A8471820B0471120B0477120B04785
:102B0000F120B0477020B0477020B0471820B04780
:102B10001320B0477120B047F320B0477020B04772
:102B20007020B0476420A8472820B0472920B0472C
:102B3000F120B0470120B047F120B0470020B04756
:102B40000720B0476620A8473C20B0470020B04788
:102B5000CD20B0476720B0474520B0474520B0475B
:102B60001020B0470020B0470020B0470020B047F9
:102B70006720A8470020B0473C20B0470020B0475E
:102B80000020B0470020B0470120B0475420B04794
:102B90001020B0473220B0479820B0477420A84793
:102BA0001020B0478520B0478020B0470020B047B4
:102BB0000020B0474E20B0470020B0479820A847DB
:102BC0003E20B0470720B0473520A8472120A8471E
:102BD0001120A8477820FEF75BFD2920A847142084
:102BE000FEF756FD0DF58F6D70BD02AC1421204629
:102BF000FDF71AFF07A801AB2146142205F026FEB7
:102C00002CA12046FDF768FE3D21FDF75BFE01305B
:102C10002BA16A46FDF776FD0098032806D22949C4
:102C200001EAC000284921FA00F0A3E6A820A1E6A5
:102C3000141001409116000810080140092D0008E9
:102C4000F12C0008052602085B4C43445D204661D8
:102C5000744653206D6F756E7420736420636172C7
:102C600064206661696C6564210D00005553425310
:102C7000445F4743394130312F436F6E6669672F98
:102C80006763396130312E636F6E66005B4C43447D
:102C90005D206F70656E2066696C652867633961B9
:102CA00030312E636F6E6629206661696C65642120
:102CB0000D000000484F52495A4F4E54414C0000FD
:102CC00025640000F8FFFF0008C8680070B5144DC7
:102CD000044610204FF48076C5F80004200A6E6088
:102CE00000F020F8E0B200F01DF82E6070BD00BFCB
:102CF000B0B50B4C10214FF48075C4F8001465601A
:102D000000F010F82560B0BDB0B51149044C102298
:102D10004FF480750A60656000F004F82560B0BD6E
:102D2000100801404FF470410201084B61F31F107D
:102D30000549585002F17060202120F0F000186021
:102D4000034801601960704700FCFFFF100C014050
:102D5000140C014070B5012410A51AA600F0D4FF90
:102D6000B0B10A2C04BF4FF0FF3070BD02462846B8
:102D70002146FDF749FB4FF4FA70FEF789FC304617
:102D8000FDF784FD4FF4FA70FEF782FC0134E5E7AD
:102D900010A0FDF77BFD002070BD00BF5B25755DB9
:102DA00020534420696E697469616C697A65206595
:102DB00072726F7220636F64653A203078253258E2
:102DC0000D0A0000506C6561736520436865636B94
:102DD000210D0000534420696E697469616C697A41
:102DE000652073756363657373210D0010B5034C23
:102DF0000348611CFEF7AAFB207010BD740100207F
:102E00007C0000202DE9F04F85B03748384D012275
:102E10004FF400574FF00108016841F010010160C4
:102E2000016801F0100101910199016841F0200150
:102E30000160016801F0200101910199016841F0F0
:102E400004010160016801F0040101910199016828
:102E500041F0080101604FF40051006800F00800E3
:102E600001900198214800F5006681463046A84748
:102E7000484648F20F110122A84709F5806441F243
:102E8000C10100224FF0000A2046A847204640F624
:102E90003A710122A84701A84FF0030B154D80E8B5
:102EA000800D01AF30463946A84702A8394680E870
:102EB000000D48F20F1001904846A84702203946FD
:102EC000CDE9028A049041F2C30001902046A84750
:102ED00002A8394680E8000D40F63870019020467F
:102EE000A84705B0BDE8F08F181002400008014067
:102EF00061180008B1160008F8B50F4800220A2131
:102F00000E4F4FF482764FF4007301240225C0E97E
:102F10000A213821C0E90822C0E90076C0E902226E
:102F2000C0E90454C0E90631FEF7A4FF18B1BDE8BA
:102F3000F840FEF707BBF8BD8804002000380040C9
:102F400010B586B016488021164C41F61F43092261
:102F500081610021C0E90043C0E9021201610591CD
:102F6000CDE90311CDE90011FFF71AF908B1FEF719
:102F7000E9FA4FF480500290094802A9FFF766F978
:102F800008B1FEF7DFFA06486946FFF7DFF808B137
:102F9000FEF7D8FA0248FFF72FF906B010BD00BFC0
:102FA000E00400200008004010B50E4C0E490C2231
:102FB0004FF4E133204640F80C1F0021C0E90131F5
:102FC000C0E90311C0E90521C161FFF75BFB08B14E
:102FD000FEF7B8FA04F10C0021460122BDE81040CA
:102FE000FFF7A6BB2001002000380140FEE7FEE706
:102FF000306820F480303060306820F480207047E2
:10300000206850E8050F216820F0010041E8050222
:10301000002A704700F5007005F0A0BE00210122D3
:1030200000F090BFE068006814F060BF20464FF4E5
:103030008031704702463846314602F02ABC4DF8CE
:1030400008ED0546204614F0C0F9064620465DF816
:1030500008EB14F09EB900EB8000502101EB40001A
:10306000A02190FBF1F070472A4617F099BA096841
:1030700001EB8002526841F8202001307047DAF8F5
:10308000100009F00BBF90F8B4120122490862F356
:103090005F01032970474FF4C84005F5A075A4F8F7
:1030A000400070470BEB0901684301EBE030C8F8C2
:1030B000080030B23847DDF874809146A11AD8F87C
:1030C0001C00D8F83C3010442A4617F022BD29468F
:1030D0001C220446F863FDF730BC29463A464346B5
:1030E000CDE9004B5047E96B05F1080220467047D7
:1030F000A98E3246534600B206F010BD0C980BF074
:1031000009BFDDE918041A990DF1340A1C90022058
:103110001E918DF8500020AE704700EB4001535ACD
:1031200011443B808978B9707047A88D95F83C10A0
:10313000002CCDF80C81ADF8210195F82E008DF80A
:1031400020118DF823017047DAF804C01CF8012023
:1031500012010CF8012001F1010C704720EAE07027
:1031600023EAE3735B0103EBC02001F01F03A3EB31
:10317000D20222EAE2727047009802990137824433
:10318000019805440598084405907047DDE901045D
:1031900009F101090444DDE9031001440598039194
:1031A0000644704752F80C1C022332F8042C00909D
:1031B00070473846002110475BF8140F0BF10403E9
:1031C0000ECB101A01300690581A461C7047204644
:1031D00006F0BCBA0446D0E90C204FF4806100230D
:1031E0000091002112F062BA2846224601F072BD19
:1031F00000F59874204602F086BA00F5F07528466E
:1032000002F081BA04460068083012F027BA084478
:10321000807842EA0040704700220023044612F002
:10322000AEBC504631463A464346B34603F0BAB9BF
:10323000B2FA82F4C4F11A03DA4082F02003C4F136
:1032400019027047E06A4843012100F15002EF285B
:103250002846704799F84C1001F0E7017047204666
:1032600014F044BE10902046069107F0BFBE41EA1C
:1032700000403847284610F00DBB0138B0FA80F006
:103280004509204607F0E6BD306A20F001003062B3
:10329000306A20F00400704700F01F010122C0B224
:1032A00002FA01F17047012084F8460084F83E00DC
:1032B00084F83F0084F8400084F8410084F842001C
:1032C00084F8430084F8440084F8450084F83D0005
:1032D000002010BD206850E8050F216820F0400054
:1032E00041E80502002A704794F8060200F0BF008A
:1032F00084F806027047012200F024BE102115F068
:1033000059BFA068006850F8260014F057BE0D465B
:10331000064614F043B90221D9F81C2090FBF1F0C5
:1033200006990844D9F81410511A6FF001020131BE
:1033300091FBF2F17047002009F056BD20F47C7239
:10334000103010F47C7101EB02007047890016F018
:1033500071BAA868006850F82710504619F052B9A1
:10336000A4EB0B01684301EBE030C8F8040006F160
:103370005A0000B238471D992A46C869CB6B2146CE
:10338000484417F0C6BB387158460AF00DB93846A4
:103390000021224612F0AFBA119A48463146234620
:1033A00000970EF0D5BD0C9841460BF0B3BD021B43
:1033B00035923219104453183790081B38933690C1
:1033C0007047314622464B46009040460AF04ABEBE
:1033D000059808F1010883440698054407980444B9
:1033E00070474FF000080DF11C09704798F81A005B
:1033F000B8F8181041EA004009F08ABB384614F0CA
:1034000075BD0746042000EB870012F027B900F1D4
:10341000B806304602F077B900F59875284602F0F4
:1034200072B929463A464346304700EB40014F28DF
:10343000284601F150024FF00101704728464FF431
:103440000031704720464FF4802114F0CDB90E981A
:10345000109910909DF868000E9140F001008DF8D1
:103460006800704720F07F405847D9F83000C9F80D
:1034700034007047204629460122012316F074B813
:10348000016851E8051F026821F0010142E80513B7
:10349000002B704706FB07F12844642291FBF2F1F0
:1034A0000D1A704759462B4600940EF051BD98F8FE
:1034B0000200B8F8001041EA00412846484740465B
:1034C0000AF01EB9816801F00701062970470168FA
:1034D00051E8031F026821F0100142E80313002B9A
:1034E0007047DAF80002DAF8101218F039BC054615
:1034F000204614F0FAB8284613F0F2BB00F1010A96
:103500000A9800287047E06AC0EB00110F2828468F
:1035100001F150024FF001017047204607F028BD2D
:1035200095F802220BEB070195F8010291427047D2
:1035300020462146324601F02CBB284613F072BBD0
:10354000204629464FF400323847044690F8500090
:1035500001287047013800EA51205FFA80FBBBF177
:10356000000F7047044614F019B8002009F03CBC65
:103570001E982099081A411C1C988842704794F89C
:10358000060240067047284613F0F0BAE06A484346
:1035900000F15001EF28704794F85C0000F0F7004C
:1035A00084F85C00704704461BF09FB9A87829880E
:1035B00041EA0041384617F077B9C0F300193846A0
:1035C00014F03BB90870A06B0130A063E08F0138A4
:1035D000E08770472068406940067047887809880E
:1035E00041EA0041284617F0BFB837F8021BC16016
:1035F0002763E08E0138E0867047206850E8030FAB
:103600002168704700EB80012F28384601F15002F5
:103610004FF00101704706F17C0120464FF4003263
:103620003847016841F040010160704706F5A47514
:103630002046002229463847706800F00C00082810
:103640007047206850E8030F216820F0100041E81F
:103650000302002A70474FF4007005F01BBAFF20E8
:1036600000F0E6BC204606F04FB9401AB0FA80F0F0
:103670004009704702463046294602F00AB9022145
:10368000D9F8202090FBF1F0D9F81810511A6FF0FA
:103690000102704700EB8000502101EB40006FF009
:1036A0009F0190FBF1F07047A5F1FF00B0FA80F0A8
:1036B00040097047DAF8100090F83C1041F0020120
:1036C00080F83C10704701EBE030C8F800000FFABA
:1036D0008AF03847CDE900812044294602F0DCBA5F
:1036E0005846414609F032BCD5E90B12504608F065
:1036F000FAB83046FF213A461494129412F0FBB8FF
:103700001C9002201E918DF8500070474DF808ED76
:1037100081EA5221C9B218F0CDFA0AF808005DF822
:1037200008EB704724F81700043601377047C10AC8
:1037300051434FF47F0202EA41217047020A2846B2
:1037400009F027B850F82880384613F082BE03FBF2
:1037500001F207FB102CD5E90062584307FB01007A
:103760007047CDE901210C990028CDE9041B704771
:10377000E06A4843012100F15002EF2838467047C3
:10378000204614F0B3BB024630460021584785E876
:103790000F00204611F0D0BA20464FF44031704758
:1037A000206881688907704798F80200B8F800100F
:1037B00041EA0041384670478878098841EA00416B
:1037C0003846404721F8020BA163E08F0138E087BB
:1037D0007047204600222847502101EB8000A0219D
:1037E00090FBF1F070470F4684F85000FEF73EB8AA
:1037F00094F82800102102287047122015F044BFC9
:10380000D1E90123C9681A4342EA0121826822F4FE
:103810007F421143816081687047002084F83C003A
:1038200020467047D4F80002D4F81822214601231C
:10383000012590F8010204F0EDBC0446681E29043D
:1038400005467047204601F05EBF284610F020B8BC
:103850003046294613F01DBE02990220019A91FBC1
:10386000F0F06FF0010192FBF1F170474DF808EDB7
:103870000546204613F0ADFD064620465DF808EBF0
:1038800013F08EBDF06821792A4650F8370016F003
:10389000A7BF0146204618F0E7BF0BEB04016843C1
:1038A00001EBE030C8F80C00704708440221101A00
:1038B000013090FBF1F070478DF8C4000C98294658
:1038C0000BF028BB099A01F083B982EA5121C9B2F1
:1038D00018F0F0B90AEB870234F817100AEB06006B
:1038E000D278704798F81A00B8F8181041EA0040EA
:1038F0007047C0F3451100F01F0001FB0AF170474B
:10390000284611F0ABBE294632463847202059469A
:103910002A46434650479BF80200BBF8001041EA94
:1039200000412846704794F85C00414600F00702C9
:10393000704720464A46334618F0A7BC4DF808EDBC
:103940002046FEF771FD20465DF808EBFEF76DBDE1
:10395000242084F841002068C16821F40051C1602E
:10396000204600F033BD204618F0FAB94FF48051DC
:103970000122FDF775BF024628460F2115F01ABC3B
:1039800020462946324613F018BAA8F80000000C69
:1039900088F8020070470099022091FBF0F06FF068
:1039A000010198FBF1F108447047D9F80800294655
:1039B000006850F82470384613F0E5BF2846514699
:1039C0009BF8082013F0EABD002209F089BA8DF8AF
:1039D000C4000C9821460BF09DBA099A01F042B937
:1039E00099F8002019F8010C4FF01F0CDB08704704
:1039F000029808F1010807440398064470473846C6
:103A000014F074BA2944C0E90034C0E9021270BD50
:103A1000B878398841EA0041284630479DF862006D
:103A2000129500F0FE008DF86200704790F83C207F
:103A300004460220012A7047044690F83D00002801
:103A40007047002000902068C16800918068009055
:103A50000098704741E80302002A704720464FF45F
:103A6000007100F01BBA3046294613F083BC0023D6
:103A7000054613F060B828464FF4803170470C902B
:103A80004FF000400B9000200A907047189A304683
:103A90005946234600950EF05BBA1BF8062034F811
:103AA000161035F81600704761F303001421E86022
:103AB00028467047204612F00EBB4FF0FF301F998A
:103AC0001B9F0594ADF8580070472046FEF718BCC0
:103AD000002184F83C10012184F83D1070474B68A8
:103AE000CA68194600F0C8BB0173206B013020631F
:103AF000E08E0138E08670474161C16841F40051B1
:103B0000C16000202021606484F8411084F84210D4
:103B1000606310BD94F83C104843000A84F83C00F0
:103B2000704709F11404081A0221013090FBF1F0EA
:103B30001ECC7047002100224FF0FF33009407F0A5
:103B4000DABE0B9F584621463A4611F040BE049813
:103B500008F1010882440598044470472046002279
:103B600038471046194632462B4616F0D2BF02207F
:103B7000211D84F83D00206800F044BB002084F83B
:103B800040002046FEF794BDC4F8100294F80502E8
:103B900040F0010084F8050270470246284621469D
:103BA00001F077BEA21A6FF00104013292FBF4F229
:103BB0001044704700EB8000502101EB4000A02131
:103BC00090FBF1F7704758462146324611F0FFBD91
:103BD0000269C0E9041216F0DDBE94F828000A213B
:103BE00002287047DDE91C03E96A169A6FF0604409
:103BF00070470B2218F06BB8384632462B464847C0
:103C00004010C8214FF4C87207F055BA58464146D3
:103C10002A4611F0DCBD06F59E7120460822384781
:103C2000B8F1000FCDF85090CDF84490704701687E
:103C300041F0010101607047D4F80002D4F810127D
:103C400018F08EB804F114052ECD05440344121A61
:103C5000081A70470C46054615F0B6BC0A981F9422
:103C60001D940028704706F59871204604223847B5
:103C70004FF000410025CDF844900F9170477047F8
:103C800010B50C49D1E90120121A02F1C803C8226B
:103C900093FBF2F404FB1233012BBCBF4FF0FF3057
:103CA00010BD431C93FBF2F404FB12328A600249FC
:103CB000085C10BD200100206D02002080B58D48F9
:103CC000FFF754FEFF20BDE8804000F0B1B900BF0F
:103CD0002DE9F04104464FF6FF784FF6FF77B8B272
:103CE0003E4600EB0807B8B2C51B18BF0125FFF719
:103CF000B6FCA04218BF002DF1D130044FF00000F7
:103D000008BFFF20BDE8F0817CB57A48FFF72EFEA2
:103D100000F0DDF800240A2C03D2FFF7A0FC0134E8
:103D2000F9E7142500200021952200F00BF9012865
:103D300003D0FFF782FDF5D15CE0BC4C00204FF4CE
:103D4000D57187222070082000F0FCF8012808D1E6
:103D5000002401AD042C1ED0FFF781FC285501344E
:103D6000F8E7372000210122012600F0EBF8292096
:103D7000FFF754F94FF6FE75012826D8022020706F
:103D80003720FFF74BF92920FFF748F930B3FFF749
:103D900054FDF5D128E09DF80600012401282CD11E
:103DA0009DF80700AA2828D14FF6FE763720FFF7A6
:103DB00035F929204FF08041FFF79DFA044658B3AA
:103DC000701E31040646F1D128E026700120FFF76D
:103DD00025F918B1FFF731FDF8D105E028044FF0BF
:103DE00000044FF0000006D010204FF40071FFF7E0
:103DF00082FA10B100208D490870FFF75FFF00F0D4
:103E000063F88A48002C08BF6FF05504007800283A
:103E100018BF0024E0B27CBD300414D03A20FFF774
:103E2000FDF80028E9D10026042E04D0FFF717FC86
:103E3000A8550136F8E79DF8040040064FF006004B
:103E400058BF0420D7E70024D7E700BF70B5044669
:103E500076480078062818BF4902012A08D11120A7
:103E6000FFF749FA0646A0B9FFF7F8FD064610E04D
:103E700015461220FFF73FFAFFF7F0FD013D064619
:103E8000280603D004F50074002EF5D00C20FFF7AF
:103E9000C5F8FFF713FF304670BD00BFB0B505464B
:103EA000FE200C46FFF714FF30B10120B0BDFFF734
:103EB000D6FB05F8010B013C2004F8D1FFF7CFFB3E
:103EC000FFF7CDFB0020B0BD002000F0C3B83820C4
:103ED00000F0C0B810B507484FF48051002200240C
:103EE000FDF7BEFC00F05CF810B1FFF7E7FE01241F
:103EF000204610BD000C0140B0B50D46044600F050
:103F00004FF808B10120B0BD284600F091F8FD2D12
:103F100015D00025B5F5007F04D0605D00F088F86D
:103F20000135F7E71D4CFF20A047FF20A047FF20E9
:103F3000A04700F01F0005281CBF0220B0BD0020D4
:103F4000B0BD00BFF8B515460E460446FFF7B6FEF5
:103F5000FFF7C0FF08B1FF201EE0104F44F0400003
:103F6000B847300EB847C6F30740B847C6F3072036
:103F7000B847F0B2B8472846B8470C2C01D1FFF734
:103F80006EFB1F24FFF76BFB40B2B0F1FF3F03DC79
:103F9000611E22060C46F5D1C0B2F8BD31400008C2
:103FA00010B56FF07F44FFF75AFBFF2804BF0020D5
:103FB00010BD013C04BF012010BDF4E770B50446FC
:103FC0001A480E460078062818BF7602012A08D142
:103FD00018203146FFF78FF9064610BB2046FE2118
:103FE0001CE01546012806D03720FFF717F81720E8
:103FF0002946FFF780F919203146FFF77CF906467C
:1040000078B902E004F5007430B92046FC21FFF7CE
:1040100073FF013D2906F5D10020FD21FFF76CFF5C
:104020000646FFF74BFE304670BD00BF6C02002015
:10403000E0B58DF807004FF47A700DF107010DF12E
:104040000602012300900D48FDF7A2FF9DF806002F
:104050008CBD00BF09494FF6C77309680A6822F092
:1040600040020A600A681A400A600A681043086041
:10407000086840F040000860704700BF88040020D6
:1040800010B513460A468021044600F009F828B10D
:10409000606D40F020006065032010BD002010BD61
:1040A0002DE9FC411E4617460D468046FDF7DEFB16
:1040B000301AC419FDF7DAFB0646254801370068B7
:1040C000C0F3CB3060430190D8F8000081682940EC
:1040D000A9420ED1002FF9D0FDF7C8FB801BA042EA
:1040E0000AD20198019901390191002808BF0446BC
:1040F000EAE70020BDE8FC81D8E900014268B1F59B
:10410000827F22F0E00242600BD1D8F80810B1F5AE
:10411000004F02D0B1F5806F03D1016821F040015A
:104120000160D8F82810B1F5005F07D1016821F4CB
:1041300000510160016841F400510160002088F8DD
:104140005000012088F851000320BDE8FC8100BF29
:1041500078000020704782B018B504460120CDE9F0
:10416000032394B1032910D103A800F10C0100919D
:10417000039949B150F8042F32B1059B23B10020B7
:1041800084E80E00E06000E00120BDE8184002B0C5
:104190007047FDF76FBBB0B590B04FF4E01000244E
:1041A00002250F904FF48030CDE90B44CDE909444E
:1041B0000D950E90CDE90704012006900A9006A8FF
:1041C000FDF7DAFC18B1EFF3108072B6FEE74FF49A
:1041D000806005940221CDE903400F20CDE901055F
:1041E00001A8FDF7E9FB18B1EFF3108072B6FEE706
:1041F00010B0B0BD704700000148FEF782B800BFA4
:10420000E004002070B5194A0368904216D0B0F15E
:10421000804F05D0164CA04202D0164CA04203D1CC
:104220004C6823F070032343B0F1804F0AD0104C48
:10423000A04207D00F4CA04204D007E04C6823F006
:1042400070032343CC6823F4407323434E6923F067
:1042500080030C688D68334390420360C5628462BA
:1042600001D1096911630121416170BD002C014038
:10427000000800400004004010B5036A046A24F0FE
:1042800001040462846924F0F00444EA02128261A9
:1042900023F00A021143016210BD10B5036A046ADB
:1042A00024F010040462846924F4704444EA023265
:1042B000826123F0A00242EA0111016210BD406A4E
:1042C0000021C185C184FEF7BDB8016851E8031F14
:1042D000026821F4907142E80313002BF5D14DF8E8
:1042E00008EDFFF7CDF85DF808EBF8D1016B012977
:1042F00006D14DF808EDFFF7EAF85DF808EBF8D1C4
:10430000202180F8421000210163704781B090F8AD
:104310004210222920D183680246B3F5805F08D17C
:1043200052F8281F52F8183C002B43D003685B68F2
:1043300009E052F8281F13B90369002BF6D003686F
:104340005B6803F07F030B70116801311160C18D50
:104350000139C185090401D001B070470168CA68FC
:1043600022F02002CA60CA6822F48072CA604A69D8
:1043700022F001024A61202180F8421000214163AD
:10438000026B012A1ED101634DF808EDFFF79FF87B
:104390005DF808EBF8D101680A68D20606D500225C
:1043A00000920A680092496800910099818D01B0DD
:1043B000FEF747B8026852686FF35F2221F8022BBC
:1043C0008162C4E701B0FEF7C5B90000B0B504468C
:1043D000006804F108030ECB056925F44055194324
:1043E0002A4341F20C650261C2686369AA4319431A
:1043F0001143C1604169A26921F4407111434161D7
:104400001149884202D0FDF775FB01E0FDF77CFB06
:1044100019214843D4E900120C4C9200B0FBF2F091
:104420006422B0FBF2F303FB0400322404EB00101F
:10443000B0FBF2F000F0F00200F00F0002EB03120C
:1044400010448860B0BD00BF003801409CFFFF0FE2
:104450000023C285436481622221828580F8421054
:104460000168006918B1C86840F48070C860486984
:1044700040F001004861C86840F02000C86000209A
:1044800070472DE9F0411D4690460F4604465E1CDC
:10449000206800683840B8421DD0002EF8D02DB1F9
:1044A000FDF7E4F9A0EB0800A842F1D9FFF7A5F861
:1044B00020F4D070FFF7CEFAF8D1FEF7A1FDFCD1C1
:1044C0002020002184F8410084F8401084F8420044
:1044D0000320BDE8F0810020BDE8F0810148FDF730
:1044E000B3BF00BF2C01002010B50121174C217073
:1044F00068B9FEF72FFC08B1022108E0012046F25E
:1045000073412070002020700248018021782170C2
:10451000207810BD750100200120704708B10120EE
:10452000704780B5DBB2084611461A46FFF78EFC8D
:10453000002818BF012080BD0449012200280A700C
:1045400018BF012008700878704700BF7400002071
:1045500008B10120704780B5DBB2084611461A4603
:10456000FFF72CFD002818BF012080BDFEE70000EA
:10457000B0B50D49D1E90123D31A03F1C804C8230A
:1045800094FBF3F505FB1344C62CC4BF4FF0FF307A
:10459000B0BD064CA054501C90FBF3F202FB13007C
:1045A00048600020B0BD00BF200100206D02002047
:1045B00058B351B34AB343B3F0B5DDE90554DFF85E
:1045C0004CC0154E154FC0E90E12174A1C49C0E9E0
:1045D000103580F848400E4C0E4D114BC0E908379D
:1045E000C0E90A65C0E90C4CDFF838C0134F0F4B27
:1045F0000F4C104D104EC0E90017C0E90265C0E92C
:104600000443C0E9062CBDE8F04070472968000863
:104610004D670008FD67000835670008D9460008A7
:10462000414A0008E7490008D94800084F680008D7
:1046300041680008DD490008D1490008A147000889
:10464000054800087CB5069D042D14D30446DDE919
:104650000760CDE900602046FFF7AAFF28462565E0
:1046600002F072FAE06430B1226D0021002502F000
:1046700077FA656500E0012528467CBDFEB5089DFA
:1046800015B1099E042E01D2012710E00446DDE990
:104690000A70CDE900702046FFF78AFF2846002106
:1046A0003246C4E91356002702F05AFA67653846C5
:1046B000FEBD00000648BFF34F8F064A016801F4B3
:1046C000E06111430160BFF34F8F00BFFDE700BF02
:1046D0000CED00E00400FA0582B02DE9F04792B03D
:1046E0000DF104098A4605460DF168084021CDE91F
:1046F0001A234846CDF84480FCF796F9119B4846AA
:1047000040215246FBF762FE044640284E4611D334
:10471000671C384602F018FAB0B100213A46064646
:1047200002F01EFA3046394652464346CDF84480E0
:10473000FBF74CFEAA6A2846314690474E4504D006
:10474000304602F0FDF900E00024204612B0BDE83A
:10475000F04702B07047000080B5074802210122EF
:10476000FDF77EF8002080BD80B5034802210022BD
:10477000FDF776F8002080BD000C014002680021A2
:104780001378303B092B84BF08467047531C01EB5C
:1047900081010360127802EB41011A463039EFE7DC
:1047A0002DE9F0470368894682469847DFF8508034
:1047B0000024DAF8380041460122005902F0C8F915
:1047C000B0B1DAF8380007593846FCF797F8D9F84D
:1047D000005006462846FCF791F8864298BF0646E8
:1047E00038462946324602F0B3F920B10C34E0E7EE
:1047F0000020BDE8F087DAF838002044BDE8F087F3
:104800004E2602082DE9F84F8146084615460C460B
:1048100001F068FF2F492846FCF74EF8CCB1064658
:10482000206818B102F08CF9002020603046FCF7B7
:1048300065F8451C0746284602F086F9206040B11D
:1048400000212A4602F08CF9206831463A4602F0EF
:1048500081F9DFF880804FF0000A0026D9F80810AF
:1048600048468847864232D200204146FCF724F869
:1048700068B354B307466068022826D804EB80006A
:10488000806830B102F05CF9606804EB8000C0F829
:1048900008A03846FCF732F8451C8346284602F04B
:1048A00053F9616804EB8101886070B100212A46E8
:1048B00002F056F9606839465A4604EB8000806879
:1048C00002F048F96068013060600136C6E70020F8
:1048D000BDE8F88F0826020810B5044615480021E7
:1048E000322202F03DF9601E052808D8DFE800F00A
:1048F000030B0F13171B0F483349102216E00D4806
:1049000032490C2212E00B4829A116220EE0094878
:1049100021A117220AE0074817A1202206E0054836
:104920000CA1242202E0034803A11C2202F012F988
:10493000004810BDE40300204154207468697320CE
:10494000737472696E672063616E277420626520DC
:1049500063757400415420746869732073747269BC
:104960006E6720636F6D6D616E64206E6F7420687A
:1049700061766520616374004154206E6F74206617
:10498000696E64207468697320737472696E67203D
:10499000636F6D6D616E64004154206F7574707546
:1049A0007420646576696365206572726F720000B9
:1049B000415420696E707574206465766963652062
:1049C0006572726F720000000C2602081C26020835
:1049D00008B1406C70474FF0FF30704708B1806BF2
:1049E00070470020704770B586B008B305460020B8
:1049F0000C460221019001AA052903D042F82100AA
:104A00000131F9E70020029001AE304601F06AFE64
:104A10006B68284631462246984758B1816859B19B
:104A200001AD284688470446284601F05BFE04E0B5
:104A3000012402E0042400E00524204606B070BDF5
:104A400070B50446C06B41688847C8B1E06B8168A7
:104A5000884794F84820C1B2002801D48A4211D175
:104A60008A420DD1E269E16C204690470546D4E9BF
:104A700013020021002602F073F82846666570BD17
:104A8000022070BD626DE06C531C63658154002090
:104A900070BD0000B0B5F14C582104F1B80000F031
:104AA00043FE064821210022002516F0C5FEC4F869
:104AB000B40001F051FFA4F8B050B0BD8569000802
:104AC0002DE9F04782460E4608461146154600F08D
:104AD000B5F8B0B1304629460022002700F078F83A
:104AE000002853D1D6E900C0D6E902E16A68091A64
:104AF000824208DDCAE900C0CAE902E20127706803
:104B000002E0FF2742E00027EA688B1A0344012BEA
:104B100012DBF3689A420FDAD6F80090D6F80880D4
:104B20003B0108444AF803900AEB07130137C3E935
:104B30000128D860EA687068F1683368AEEB0C0C45
:104B40008A42B8BF1146D5E900248442C8BF204636
:104B50009A42C8BF814209DD3C014AF804300AEBA1
:104B600007130137C3E90102D9603368AA68ACEBC7
:104B700002041C44012C09DB3C0163444AF8042074
:104B80000AEB07120137C2E90103D16078B2BDE830
:104B9000F087F0B591E83810D2E90071D2E90262ED
:104BA000BB42C8BF1F468C42C8BF2146B542B8BFF2
:104BB0002E469445B8BF6246C0E90071C0E9026262
:104BC000B742D8BF914201DD0020F0BD0120F0BD09
:104BD0002DE9FE430D46076809688F4228DB4668C9
:104BE00069688E4224DBD0F80890A96889451FDCEB
:104BF000D0F80C80E86880451ADC1446DAB1CDE9BB
:104C0000017601A9FEF7F0FA90B1CDE9019601A96C
:104C1000FEF7EAFA60B1CDE9017801A9FEF7E4FAFE
:104C200030B1CDE9019801A9FEF7DEFABDE8FE83B7
:104C30000020BDE8FE830120BDE8FE838A6803688A
:104C400093420DDC0A688368934209DBCA684368B3
:104C5000934205DC4968C0688842A4BF01207047C0
:104C6000002070472DE9FE430D46866809688E4294
:104C70000DDBC76869688F4209DBD0F80080A9683E
:104C8000884504DCD0F80490E868814502DD012005
:104C9000BDE8FE8314468AB1CDE9018901A9FEF77A
:104CA000A3FA58B9CDE9016901A9FEF79DFA28B91F
:104CB000CDE9018701A9FEF797FA10B10020BDE800
:104CC000FE83CDE9016701A9FEF78EFA80F00100AD
:104CD000BDE8FE832DE9FF470C46016823688B423F
:104CE00009DB8768BB4206DC46686368B34202DBC7
:104CF000C568AB4203DD002004B0BDE8F087012A9F
:104D000056DB781AAB1B4FF0020C00910196013074
:104D1000013390FBFCF093FBFCF94845B8BF81469A
:104D200068469145A8BF914609EB010A09EB0608C0
:104D300021460022CDF808A0CDF80C80FFF7CAFF6D
:104D400018B108EB090003900CE00395A5EB0905E9
:104D50006846214600220195FFF7BCFF30B1A5EB64
:104D6000090001900AEB090002901CE00297A7EBF2
:104D700009076846214600220097FFF7ABFF18B1EC
:104D8000A5EB090001900BE0684621460022CDF812
:104D90000C800196FFF79EFF50B108EB09000390CD
:104DA000A7EB090000906846214614F011FDA3E727
:104DB0000120A1E7F0B591E83810D2E90067D2E907
:104DC0000212B342B8BF1E46BC42B8BF27468D424E
:104DD000C8BF29469445C8BF6246C0E90067C0E91C
:104DE0000212F0BDF8B51D4C102104F5967010F0BC
:104DF000E2FD04F59870402100F096FCDFF820C039
:104E00000849094A094B0A4D0A4E0B4F0B48C4E9A1
:104E10003F07C4E94165C4E94332C4E9451CF8BD14
:104E2000D1850008E9D501083BCA0108219700088F
:104E300021AE00080D8B0008C98A00085D680008D3
:104E400010B5064C0021302204F1FC0010F053FD97
:104E500004F58E70BDE8104010F0BDBD280500209F
:104E60002DE9F04F9DB008B1C06801E007F0B8FF30
:104E7000DFF8DCAD0028CAF8100000F0B082816ACB
:104E8000002900F0AC82C169002900F0A88232211B
:104E9000FEF79AFDDAF81000D0F8840214F094FBC3
:104EA000DAF81010D1F8880218B114F08DFBDAF896
:104EB0001010D1F89002DFF82C45A047DAF8100066
:104EC000D0F89402A047DAF81000D0F89802A04772
:104ED000DAF81000D0F88412002900F07682DFF8AA
:104EE000089500240DF13408D0F860128C4248D2A5
:104EF000011991F8401209B10134F5E700274FF08C
:104F0000400BD0F860128F42F6D2C11991F84012CE
:104F100089BBBC422FD000EB0B0100EB04104030EA
:104F2000FFF78CFE38B3DAF8100000EB0B0200EB51
:104F3000041000F140014046FFF73CFF4046C847DF
:104F40000546DAF8100000EB04104030C84706466A
:104F5000DAF810005844C847304485420BD2DAF8DA
:104F600010000DAE6CCE00EB0411384440316CC122
:104F7000012180F84012DAF810000BF1100B013714
:104F8000BFE790F83D10012940F0958007F094FFAD
:104F9000002800F09080DAF8100000F51A7000F098
:104FA0000EFC002840F08780DAF8100019F00DFDA3
:104FB000DAF81000416AC2690A91914208BF026A98
:104FC000099207F019FF0890FEF759F80DF1340B1C
:104FD000079040215846FBF727FD0022DAF8100021
:104FE00097B2D0F86012B9423ED9C1190B9291F82C
:104FF000401211B10B9A0132F0E700F51A7000F07F
:1050000082FB80460C97B8F1000FF3D0DAF810005D
:105010004146444600F51A7000F07AFB8046DAF803
:105020001000214600EB071000F140025846FFF740
:1050300047FD06460130E6D00027D946DAF81000D1
:105040002146B74200F51A7006DA00F088FBBBE88B
:105050002E0001372EC0F1E700F0BAFB20460EF01B
:1050600059FE0C9FCB46CEE700F51A7000F04BFBC3
:10507000DDE90968DDE907570446DAF81000ACB14C
:1050800007F0A4FE0490404639462A462346CDE95F
:105090000067CDE9025408F06BF9DAF810002146F8
:1050A00000F51A7000F034FB0446E6E700F51A70CC
:1050B000002100F00DFBDAF81000D0F86012002992
:1050C00000F086814FF000084C1E06D4014491F890
:1050D0003F1200292146F7D100E000243421FEF7D9
:1050E00073FCDAF8100090F83C1090F83E2001F0C4
:1050F000FE0180F83C1042F00201002280F83E10D0
:1051000090F83C1001F0FD0180F83C100694D0F8B6
:1051100060128A4280F21281811891F840120029AF
:1051200040F00881A24205D190F83C1041F0010105
:1051300080F83C1090F83C1000EB021707F1400992
:1051400001F0FD0180F83C100892D0F87452416AD9
:10515000696090F83D1089B3C5E9038807F04CFEFB
:1051600001386861FDF78BFF01386A69297FA86102
:10517000E868101A013008F02DF9A860DAF810007C
:1051800007F03AFE8346FDF77AFF0138ABF10103E1
:105190000021002200900DA806F0ADFBDAF8100007
:1051A00090F83D1001291CD0022940F0C28090F8EF
:1051B0003C100DF1340941F002011CE057F8448F16
:1051C00039463C4651F804BF54F8086F0B91D9F8A2
:1051D00000100C9107F062FE8642079713DA2768E9
:1051E00014E090F83C1090F83C2001F0010102F02E
:1051F000FD0242EA410180F83C10B9E80F0005F1D8
:1052000020060FC692E0FDF73AFF471E0C9AA6EB68
:1052100008005946DAF8106000F1010B881A00F115
:10522000010896F83F0007F06BFB044696F83F0034
:1052300007F04EFB0022B16A0F92CDE90D22024623
:10524000002C18BF0422824298BF0246B1FBF2F044
:10525000B0FBF8F05845B8BF83465E46741EDAF8D6
:1052600010002F2110940DAA07F03AFE10990E9805
:105270004A1C101A1146584503DD012E2646EDDC66
:1052800000E034460020002CD8BF01460C910A975C
:10529000C91B09910799096801390C9A4E1C5418C9
:1052A000BC422BDC09984F46D9F80090D34600EB5E
:1052B0000108DAF810000B99D1F800A0406A297FA4
:1052C000C5E903966860AAEB0900C5E905A40130A9
:1052D00008F080F8C5F828A0DA46B8F1000FC5E953
:1052E0000896EC62A86001D1FEF7E4F9284617F0B1
:1052F000AFF8B9460A9F21462046CEE7069C089A99
:1053000087424FF0000815D0DAF810100B98D9F842
:105310000020496A0068C5E90326C5E908266960D6
:10532000C5E90A07C5E90507FEF7C4F9284617F0DD
:105330008FF8089ADAF810000132E8E690F83E207B
:10534000002902F0FD0280F83E2041D03521FEF711
:105350003BFBDAF8100007F0AFFD0146DAF8100069
:1053600029B390F83D10012921D119F02EFBDAF86C
:10537000100040244FF41075D0F86012A5F510729B
:105380008A4214D2415D79B900F51A7000F004FA2E
:10539000DAF810100A190959D2E90136D26880E802
:1053A0004A00C260DAF8100001351034E4E74030FA
:1053B0004FF4007110F0CBFADAF81000202100F55C
:1053C000107010F0C4FADAF810000021C0F8601272
:1053D00000F034F8DAF810003321FEF7F5FA1DB0CA
:1053E000BDE8F08FC9950108B1B80008F8B5B74C11
:1053F000202104F1D00010F0B2FADFF824C00949EE
:10540000094A0A4B0A4E0B4F0B480025C4E93407E2
:10541000C4E93665C4E93832C4E93A1CF8BD00BFB6
:105420008D7100083171000821720008D9E9010866
:10543000257100081D7200083772000870B5A34D71
:105440000024702C08BF70BD2E19D6F8540108B185
:105450000EF060FC06F5AA701C2110F09CFA1C34BA
:10546000EFE700BF99497831096859B14A6882422B
:1054700002D00A68824203D10A7E42F001020A7613
:105480001431F1E7704700BF406990498867704761
:105490008E498A6F88674261704700BF8B4804213C
:1054A00000F5F07000F040B988482021343000F059
:1054B0003BB900BF2DE9F04F8BB0DDE914781D46F4
:1054C00081465BB9B7F5807F08D1B8F5807F05D1FB
:1054D0000020013A4C1EC9F8000056E00020169C3E
:1054E00001394FF0010BDFF8B0A04346CDE90600CB
:1054F000CDE90300501E05913A46CDE908010A9016
:10550000CDE9004B03AE29463046D04706F10800EE
:10551000FDF7E3FD06F11000FDF7DFFD06F11800D1
:10552000FDF7DBFD099BDDF81CC01A469C45B8BFA2
:105530006246DDE90540DDE903E72146A645B8BF3F
:1055400071469142A8BF1146C9F800100A9D024653
:1055500008992E46A942C8BF0E468742C8BF3A46A0
:10556000B242D8BF3246A942B8BF0D468742B8BF43
:105570003846A842A8BF28469C45C8BF6346A645F2
:10558000C8BF74469C42D8BF1C46C9E90104C9F88B
:105590000C200BB0BDE8F08FA19601084B481821F4
:1055A000F03000F0C1B800BF70B588B00D460446B9
:1055B00020B907F015FC044600285ED0204607F00D
:1055C00081FC002859D094F83E0080071FD40020A9
:1055D000F5B1CDE90400204607F00EFC0138069035
:1055E000204607F05BFC013829460790684604AA6C
:1055F000FFF7CFFA002840D094F83D0002280AD1E6
:1056000004AB04F140050FCB0FC501202FE0FEE7EE
:10561000C4F8600231E06A4620462F2107F060FCA2
:1056200001282AD100266D46D4F86002B1B2884222
:105630000BD904EB0110002200F140012846FFF7CE
:10564000C7FA01360028EFD017E0202831BF69469D
:105650000020C4F8600204A904EB001291E868007D
:10566000C96802F1400C0130ACE86800D164C4F8AC
:10567000600220463121FEF7A7F908B070BD000096
:1056800010B500211622044611F088FFC0B218B1EF
:10569000D8498A6D824200D210BDC96D51F83020C0
:1056A00001EBC00041682046BDE81040104700BF34
:1056B00010B5D04CA06DC0000FF0D0FFE0650EF02B
:1056C00037F9BDE810400EF09DBD00BF2805002051
:1056D000F8B50C46054608B16E6811E000260FE0EB
:1056E0002868304447681CB13046A0473E4607E072
:1056F0002846314600F06CF830460EF00BFB3E4673
:10570000002EEDD1F8BD08B1406870470020704709
:10571000006808444068704700680858704708B13E
:1057200080687047002070470331002221F0030198
:105730008260C0E90012704710B5FDF763FD58B1F3
:10574000216800224250421863685360626802B1C7
:105750005050A168606001B110BDA06010BDB0B52F
:10576000C0B10C46B1B105464068A0420DD02868D2
:1057700008300FF073FF68B1296863580A1D03B140
:10578000985043506050845003E02846FFF7D4FF00
:1057900000B1B0BD0020B0BD10B5FDF733FD58B16C
:1057A00022680023111D4350A3688350A26802B1F0
:1057B00050506168A06001B110BD606010BD28B19B
:1057C000416809B9806808B100207047012070471E
:1057D00010B568B142688A420BD0026884688B5861
:1057E0008C420ED0141D085903B1185100B18350DA
:1057F00010BD026811444968416041B100208850E1
:1058000010BD836003B1D0180021416010BD00219C
:10581000816010BD10B504460068826812B121464F
:1058200090472068006808B12060F6E710BD8068E6
:1058300008B1C069704700207047806820B190F8B7
:105840002300C0F3011070470020704770B5044674
:1058500052EA01001BD0204615460E4610F047FBC9
:10586000A0680123D0E9041231442A44C0E904129B
:10587000204631462A4612F0B4FB20460C21002275
:1058800013F098FC012803D1204612F02FFB0120D1
:1058900070BD2DE9F04114461546B0B1612288462D
:1058A000074611F07BFE80B10646006868B13846B5
:1058B0004146622211F072FE010606D03368C2B280
:1058C00024F07F41304698470546200E60F31F655F
:1058D0002846BDE8F08100002DE9F04F97B005465D
:1058E000408DDDF880B016461F468A462A8540F076
:1058F0000800688528469BF8082011F04FFE2F8588
:105900000446FEF75BF88146688D20F00800688544
:105910004C4500D15ED02E85FEF750F880462846D3
:1059200051462F8504F0ABF900689BF808104246F9
:1059300014F056FF9BF808000C281BD147F6FF74A3
:10594000A04518BFA14515D1284611F0E7FF022652
:1059500090FBF6F0471C284611F0C4F890FBF6F0D7
:1059600001308742B8BF3846A14508BF8146A045EF
:1059700008BF8046B6481830FFF7DEFE68B3056002
:10598000C0E902A8C0F8109006469BF808003071E4
:1059900001AC204605F042FBFF20FEF770F80F48EF
:1059A00005900F4804900F48CDE90160BBF8000056
:1059B0000D90DBE90301CDE90810BBF8020040427D
:1059C0000E909DF8520000F0FE008DF85200204627
:1059D00005F096FB17B0BDE8F08FFEE7C1DC0108CB
:1059E00069DD010851DB0108994814211830FFF7DF
:1059F0009BBE00BF280500202DE9FC4704466FEA46
:105A000002086FEA0109002701AD4FF0000A608D1E
:105A1000C0F30510874280F0D280E06800EBC70138
:105A200049688A0100F1C18089B211EA090201EADC
:105A30000801B1FA81F118BF012249094A4040F03A
:105A4000B48050F8376010212A46304614F0A8FD83
:105A5000002840F0B28030461121FDF705FB0028F8
:105A600040F0AB8030461221FDF7FEFA002840F0EE
:105A7000A48030461321FDF7F7FA002840F09D80FE
:105A800030461521FDF7F0FA002840F096803046A8
:105A90001421FDF7E9FA002840F08F8030461621E6
:105AA000FDF7E2FA002840F0888030466A21FDF7D1
:105AB000DBFA002840F0818030466B21FDF7D4FAF4
:105AC00000287AD130460121FDF7CEFA002874D1A2
:105AD00030460221FDF7C8FA00286ED13046042175
